{
  "data": {
    "bytecode": {
      "linkReferences": {},
      "object": "60806040523480156200001157600080fd5b506040516200642538038062006425833981810160405281019062000037919062000b48565b838382600001518360200151856000015186602001518760400151886060015188604001518a608001518b60a001518c60c001518b8b81600090816200007e919062000e58565b50806001908162000090919062000e58565b5050506000600a60006101000a81548160ff021916908315150217905550600073ffffffffffffffffffffffffffffffffffffffff168973ffffffffffffffffffffffffffffffffffffffff160362000120576040517f08c379a0000000000000000000000000000000000000000000000000000000008152600401620001179062000fc6565b60405180910390fd5b600073ffffffffffffffffffffffffffffffffffffffff168a73ffffffffffffffffffffffffffffffffffffffff160362000192576040517f08c379a000000000000000000000000000000000000000000000000000000000815260040162000189906200105e565b60405180910390fd5b42841015620001d8576040517f08c379a0000000000000000000000000000000000000000000000000000000008152600401620001cf90620010f6565b60405180910390fd5b428210156200021e576040517f08c379a000000000000000000000000000000000000000000000000000000000815260040162000215906200118e565b60405180910390fd5b8183111562000264576040517f08c379a00000000000000000000000000000000000000000000000000000000081526004016200025b9062001226565b60405180910390fd5b60008111620002aa576040517f08c379a0000000000000000000000000000000000000000000000000000000008152600401620002a19062001298565b60405180910390fd5b6000885103620002f1576040517f08c379a0000000000000000000000000000000000000000000000000000000008152600401620002e8906200130a565b60405180910390fd5b620003237f70546d1c92f8c2132ae23a23f5177aa8526356051c7510df99f50e012d221529336200041d60201b60201c565b6200033589866200050f60201b60201c565b89600d60006101000a81548173ffffffffffffffffffffffffffffffffffffffff021916908373ffffffffffffffffffffffffffffffffffffffff16021790555088600c60006101000a81548173ffffffffffffffffffffffffffffffffffffffff021916908373ffffffffffffffffffffffffffffffffffffffff1602179055508760119081620003c8919062000e58565b5086600e8190555085600f60006101000a81548160ff021916908360ff160217905550836013819055508260148190555081601581905550806010819055505050505050505050505050505050505062001436565b6200042f8282620006b260201b60201c565b6200050b5760016009600084815260200190815260200160002060000160008373ffffffffffffffffffffffffffffffffffffffff1673ffffffffffffffffffffffffffffffffffffffff16815260200190815260200160002060006101000a81548160ff021916908315150217905550620004b06200071d60201b60201c565b73ffffffffffffffffffffffffffffffffffffffff168173ffffffffffffffffffffffffffffffffffffffff16837f2f8788117e7eff1d82e926ec794901d17c78024a50270940304540a733656f0d60405160405180910390a45b5050565b6200051f6200072560201b60201c565b6bffffffffffffffffffffffff16816bffffffffffffffffffffffff16111562000580576040517f08c379a00000000000000000000000000000000000000000000000000000000081526004016200057790620013a2565b60405180910390fd5b600073ffffffffffffffffffffffffffffffffffffffff168273ffffffffffffffffffffffffffffffffffffffff1603620005f2576040517f08c379a0000000000000000000000000000000000000000000000000000000008152600401620005e99062001414565b60405180910390fd5b60405180604001604052808373ffffffffffffffffffffffffffffffffffffffff168152602001826bffffffffffffffffffffffff16815250600760008201518160000160006101000a81548173ffffffffffffffffffffffffffffffffffffffff021916908373ffffffffffffffffffffffffffffffffffffffff16021790555060208201518160000160146101000a8154816bffffffffffffffffffffffff02191690836bffffffffffffffffffffffff1602179055509050505050565b60006009600084815260200190815260200160002060000160008373ffffffffffffffffffffffffffffffffffffffff1673ffffffffffffffffffffffffffffffffffffffff16815260200190815260200160002060009054906101000a900460ff16905092915050565b600033905090565b6000612710905090565b6000604051905090565b600080fd5b600080fd5b600080fd5b600080fd5b6000601f19601f8301169050919050565b7f4e487b7100000000000000000000000000000000000000000000000000000000600052604160045260246000fd5b62000798826200074d565b810181811067ffffffffffffffff82111715620007ba57620007b96200075e565b5b80604052505050565b6000620007cf6200072f565b9050620007dd82826200078d565b919050565b600067ffffffffffffffff8211156200080057620007ff6200075e565b5b6200080b826200074d565b9050602081019050919050565b60005b83811015620008385780820151818401526020810190506200081b565b60008484015250505050565b60006200085b6200085584620007e2565b620007c3565b9050828152602081018484840111156200087a576200087962000748565b5b6200088784828562000818565b509392505050565b600082601f830112620008a757620008a662000743565b5b8151620008b984826020860162000844565b91505092915050565b600080fd5b600080fd5b6000819050919050565b620008e181620008cc565b8114620008ed57600080fd5b50565b6000815190506200090181620008d6565b92915050565b600060ff82169050919050565b6200091f8162000907565b81146200092b57600080fd5b50565b6000815190506200093f8162000914565b92915050565b60006bffffffffffffffffffffffff82169050919050565b620009688162000945565b81146200097457600080fd5b50565b60008151905062000988816200095d565b92915050565b600060e08284031215620009a757620009a6620008c2565b5b620009b360e0620007c3565b9050600082015167ffffffffffffffff811115620009d657620009d5620008c7565b5b620009e4848285016200088f565b6000830152506020620009fa84828501620008f0565b602083015250604062000a10848285016200092e565b604083015250606062000a268482850162000977565b606083015250608062000a3c84828501620008f0565b60808301525060a062000a5284828501620008f0565b60a08301525060c062000a6884828501620008f0565b60c08301525092915050565b600073ffffffffffffffffffffffffffffffffffffffff82169050919050565b600062000aa18262000a74565b9050919050565b62000ab38162000a94565b811462000abf57600080fd5b50565b60008151905062000ad38162000aa8565b92915050565b60006060828403121562000af25762000af1620008c2565b5b62000afe6060620007c3565b9050600062000b108482850162000ac2565b600083015250602062000b268482850162000ac2565b602083015250604062000b3c84828501620008f0565b60408301525092915050565b60008060008060c0858703121562000b655762000b6462000739565b5b600085015167ffffffffffffffff81111562000b865762000b856200073e565b5b62000b94878288016200088f565b945050602085015167ffffffffffffffff81111562000bb85762000bb76200073e565b5b62000bc6878288016200088f565b935050604085015167ffffffffffffffff81111562000bea5762000be96200073e565b5b62000bf8878288016200098e565b925050606062000c0b8782880162000ad9565b91505092959194509250565b600081519050919050565b7f4e487b7100000000000000000000000000000000000000000000000000000000600052602260045260246000fd5b6000600282049050600182168062000c6a57607f821691505b60208210810362000c805762000c7f62000c22565b5b50919050565b60008190508160005260206000209050919050565b60006020601f8301049050919050565b600082821b905092915050565b60006008830262000cea7fffffffffffffffffffffffffffffffffffffffffffffffffffffffffffffffff8262000cab565b62000cf6868362000cab565b95508019841693508086168417925050509392505050565b6000819050919050565b600062000d3962000d3362000d2d84620008cc565b62000d0e565b620008cc565b9050919050565b6000819050919050565b62000d558362000d18565b62000d6d62000d648262000d40565b84845462000cb8565b825550505050565b600090565b62000d8462000d75565b62000d9181848462000d4a565b505050565b5b8181101562000db95762000dad60008262000d7a565b60018101905062000d97565b5050565b601f82111562000e085762000dd28162000c86565b62000ddd8462000c9b565b8101602085101562000ded578190505b62000e0562000dfc8562000c9b565b83018262000d96565b50505b505050565b600082821c905092915050565b600062000e2d6000198460080262000e0d565b1980831691505092915050565b600062000e48838362000e1a565b9150826002028217905092915050565b62000e638262000c17565b67ffffffffffffffff81111562000e7f5762000e7e6200075e565b5b62000e8b825462000c51565b62000e9882828562000dbd565b600060209050601f83116001811462000ed0576000841562000ebb578287015190505b62000ec7858262000e3a565b86555062000f37565b601f19841662000ee08662000c86565b60005b8281101562000f0a5784890151825560018201915060208501945060208101905062000ee3565b8683101562000f2a578489015162000f26601f89168262000e1a565b8355505b6001600288020188555050505b505050505050565b600082825260208201905092915050565b7f4576656e74206f7267616e697a65722063616e277420626520746865207a657260008201527f6f20616464726573730000000000000000000000000000000000000000000000602082015250565b600062000fae60298362000f3f565b915062000fbb8262000f50565b604082019050919050565b6000602082019050818103600083015262000fe18162000f9f565b9050919050565b7f4d61726b6574706c61636520636f6e74726163742063616e277420626520746860008201527f65207a65726f2061646472657373000000000000000000000000000000000000602082015250565b600062001046602e8362000f3f565b9150620010538262000fe8565b604082019050919050565b60006020820190508181036000830152620010798162001037565b9050919050565b7f4576656e7420656e6420646174652063616e277420626520696e20746865207060008201527f6173740000000000000000000000000000000000000000000000000000000000602082015250565b6000620010de60238362000f3f565b9150620010eb8262001080565b604082019050919050565b600060208201905081810360008301526200111181620010cf565b9050919050565b7f5469636b6574207469657220636c6f736520646174652063616e27742062652060008201527f696e207468652070617374000000000000000000000000000000000000000000602082015250565b600062001176602b8362000f3f565b9150620011838262001118565b604082019050919050565b60006020820190508181036000830152620011a98162001167565b9050919050565b7f496e76616c6964206c69766520616e6420636c6f736520646174652072656c6160008201527f74696f6e736869702e0000000000000000000000000000000000000000000000602082015250565b60006200120e60298362000f3f565b91506200121b82620011b0565b604082019050919050565b600060208201905081810360008301526200124181620011ff565b9050919050565b7f537570706c79206d7573742062652067726561746572207468616e207a65726f600082015250565b60006200128060208362000f3f565b91506200128d8262001248565b602082019050919050565b60006020820190508181036000830152620012b38162001271565b9050919050565b7f546f6b656e20555249206d757374206e6f7420626520656d7074790000000000600082015250565b6000620012f2601b8362000f3f565b9150620012ff82620012ba565b602082019050919050565b600060208201905081810360008301526200132581620012e3565b9050919050565b7f455243323938313a20726f79616c7479206665652077696c6c2065786365656460008201527f2073616c65507269636500000000000000000000000000000000000000000000602082015250565b60006200138a602a8362000f3f565b915062001397826200132c565b604082019050919050565b60006020820190508181036000830152620013bd816200137b565b9050919050565b7f455243323938313a20696e76616c696420726563656976657200000000000000600082015250565b6000620013fc60198362000f3f565b91506200140982620013c4565b602082019050919050565b600060208201905081810360008301526200142f81620013ed565b9050919050565b614fdf80620014466000396000f3fe608060405234801561001057600080fd5b506004361061027f5760003560e01c806370a082311161015c578063c87b56dd116100ce578063e66d772c11610087578063e66d772c14610773578063e985e9c514610791578063eadc7e42146107c1578063ee0fc121146107dd578063f7d506a5146107fb578063fcdc1206146108195761027f565b8063c87b56dd146106b3578063cc0de97b146106e3578063d1bb5cf114610701578063d547741f1461071f578063da81980b1461073b578063e049b203146107575761027f565b806395d89b411161012057806395d89b41146106035780639eab643f14610621578063a217fddf1461063f578063a22cb4651461065d578063b4ce37d214610679578063b88d4fde146106975761027f565b806370a082311461055d5780637514d7cb1461058d5780638f60b8e9146105ab5780638f810fec146105b557806391d14854146105d35761027f565b80632890e0d7116101f557806336568abe116101b957806336568abe1461048957806342842e0e146104a557806348d79b6d146104c157806354ba0f27146104df5780635c975abb1461050f5780636352211e1461052d5761027f565b80632890e0d7146103e6578063298505da146104025780632a55205a146104325780632f2ff15d1461046357806334a8821c1461047f5761027f565b80631102610e116102475780631102610e1461033c57806311f2f7571461035857806323b872dd1461036257806323f663d51461037e578063241752cc1461039a578063248a9ca3146103b65761027f565b806301ffc9a714610284578063047fc9aa146102b457806306fdde03146102d2578063081812fc146102f0578063095ea7b314610320575b600080fd5b61029e60048036038101906102999190613654565b610823565b6040516102ab919061369c565b60405180910390f35b6102bc610835565b6040516102c991906136d0565b60405180910390f35b6102da61083b565b6040516102e7919061377b565b60405180910390f35b61030a600480360381019061030591906137c9565b6108cd565b6040516103179190613837565b60405180910390f35b61033a6004803603810190610335919061387e565b610913565b005b610356600480360381019061035191906138be565b610a2a565b005b610360610a99565b005b61037c600480360381019061037791906138eb565b610acd565b005b61039860048036038101906103939190613977565b610b2d565b005b6103b460048036038101906103af91906138be565b610b4b565b005b6103d060048036038101906103cb91906139da565b610bba565b6040516103dd9190613a16565b60405180910390f35b61040060048036038101906103fb91906137c9565b610bda565b005b61041c600480360381019061041791906137c9565b610be6565b60405161042991906136d0565b60405180910390f35b61044c60048036038101906104479190613a31565b610c36565b60405161045a929190613a71565b60405180910390f35b61047d60048036038101906104789190613a9a565b610e20565b005b610487610e41565b005b6104a3600480360381019061049e9190613a9a565b610e76565b005b6104bf60048036038101906104ba91906138eb565b610ef9565b005b6104c9610f19565b6040516104d691906136d0565b60405180910390f35b6104f960048036038101906104f491906138be565b610f1f565b60405161050691906136d0565b60405180910390f35b6105176111b5565b604051610524919061369c565b60405180910390f35b610547600480360381019061054291906137c9565b6111cc565b6040516105549190613837565b60405180910390f35b610577600480360381019061057291906138be565b611252565b60405161058491906136d0565b60405180910390f35b610595611309565b6040516105a29190613837565b60405180910390f35b6105b361132f565b005b6105bd61147e565b6040516105ca91906136d0565b60405180910390f35b6105ed60048036038101906105e89190613a9a565b611484565b6040516105fa919061369c565b60405180910390f35b61060b6114ef565b604051610618919061377b565b60405180910390f35b610629611581565b60405161063691906136d0565b60405180910390f35b610647611587565b6040516106549190613a16565b60405180910390f35b61067760048036038101906106729190613b06565b61158e565b005b6106816115a4565b60405161068e919061377b565b60405180910390f35b6106b160048036038101906106ac9190613c7b565b611632565b005b6106cd60048036038101906106c891906137c9565b611694565b6040516106da919061377b565b60405180910390f35b6106eb6117a6565b6040516106f89190613d0d565b60405180910390f35b6107096117b9565b6040516107169190613837565b60405180910390f35b61073960048036038101906107349190613a9a565b6117df565b005b610755600480360381019061075091906137c9565b611800565b005b610771600480360381019061076c91906137c9565b611835565b005b61077b6119f8565b60405161078891906136d0565b60405180910390f35b6107ab60048036038101906107a69190613d28565b611a16565b6040516107b8919061369c565b60405180910390f35b6107db60048036038101906107d691906137c9565b611aaa565b005b6107e5611b60565b6040516107f29190613a16565b60405180910390f35b610803611b84565b60405161081091906136d0565b60405180910390f35b610821611b8a565b005b600061082e82611bbf565b9050919050565b60105481565b60606000805461084a90613d97565b80601f016020809104026020016040519081016040528092919081815260200182805461087690613d97565b80156108c35780601f10610898576101008083540402835291602001916108c3565b820191906000526020600020905b8154815290600101906020018083116108a657829003601f168201915b5050505050905090565b60006108d882611c37565b6004600083815260200190815260200160002060009054906101000a900473ffffffffffffffffffffffffffffffffffffffff169050919050565b600061091e826111cc565b90508073ffffffffffffffffffffffffffffffffffffffff168373ffffffffffffffffffffffffffffffffffffffff160361098e576040517f08c379a000000000000000000000000000000000000000000000000000000000815260040161098590613e3a565b60405180910390fd5b8073ffffffffffffffffffffffffffffffffffffffff166109ad611c82565b73ffffffffffffffffffffffffffffffffffffffff1614806109dc57506109db816109d6611c82565b611a16565b5b610a1b576040517f08c379a0000000000000000000000000000000000000000000000000000000008152600401610a1290613ecc565b60405180910390fd5b610a258383611c8a565b505050565b7f70546d1c92f8c2132ae23a23f5177aa8526356051c7510df99f50e012d221529610a5481611d43565b81600d60006101000a81548173ffffffffffffffffffffffffffffffffffffffff021916908373ffffffffffffffffffffffffffffffffffffffff1602179055505050565b7f70546d1c92f8c2132ae23a23f5177aa8526356051c7510df99f50e012d221529610ac381611d43565b4260158190555050565b610ade610ad8611c82565b82611d57565b610b1d576040517f08c379a0000000000000000000000000000000000000000000000000000000008152600401610b1490613f5e565b60405180910390fd5b610b28838383611dec565b505050565b80600f60006101000a81548160ff021916908360ff16021790555050565b7f70546d1c92f8c2132ae23a23f5177aa8526356051c7510df99f50e012d221529610b7581611d43565b81600c60006101000a81548173ffffffffffffffffffffffffffffffffffffffff021916908373ffffffffffffffffffffffffffffffffffffffff1602179055505050565b600060096000838152602001908152602001600020600101549050919050565b610be3816120e5565b50565b60007f70546d1c92f8c2132ae23a23f5177aa8526356051c7510df99f50e012d221529610c1281611d43565b8260106000828254610c249190613fad565b92505081905550601054915050919050565b6000806000600860008681526020019081526020016000206040518060400160405290816000820160009054906101000a900473ffffffffffffffffffffffffffffffffffffffff1673ffffffffffffffffffffffffffffffffffffffff1673ffffffffffffffffffffffffffffffffffffffff1681526020016000820160149054906101000a90046bffffffffffffffffffffffff166bffffffffffffffffffffffff166bffffffffffffffffffffffff16815250509050600073ffffffffffffffffffffffffffffffffffffffff16816000015173ffffffffffffffffffffffffffffffffffffffff1603610dcb5760076040518060400160405290816000820160009054906101000a900473ffffffffffffffffffffffffffffffffffffffff1673ffffffffffffffffffffffffffffffffffffffff1673ffffffffffffffffffffffffffffffffffffffff1681526020016000820160149054906101000a90046bffffffffffffffffffffffff166bffffffffffffffffffffffff166bffffffffffffffffffffffff168152505090505b6000610dd56120fa565b6bffffffffffffffffffffffff1682602001516bffffffffffffffffffffffff1686610e019190613fe1565b610e0b9190614052565b90508160000151819350935050509250929050565b610e2982610bba565b610e3281611d43565b610e3c8383612104565b505050565b7f70546d1c92f8c2132ae23a23f5177aa8526356051c7510df99f50e012d221529610e6b81611d43565b610e736121e5565b50565b610e7e611c82565b73ffffffffffffffffffffffffffffffffffffffff168173ffffffffffffffffffffffffffffffffffffffff1614610eeb576040517f08c379a0000000000000000000000000000000000000000000000000000000008152600401610ee2906140f5565b60405180910390fd5b610ef58282612248565b5050565b610f1483838360405180602001604052806000815250611632565b505050565b60155481565b6000610f2961232a565b7f70546d1c92f8c2132ae23a23f5177aa8526356051c7510df99f50e012d221529610f5381611d43565b601554421115610f98576040517f08c379a0000000000000000000000000000000000000000000000000000000008152600401610f8f906141ad565b60405180910390fd5b601054610fa5600b612374565b10610fe5576040517f08c379a0000000000000000000000000000000000000000000000000000000008152600401610fdc90614219565b60405180910390fd5b600073ffffffffffffffffffffffffffffffffffffffff168373ffffffffffffffffffffffffffffffffffffffff1603611054576040517f08c379a000000000000000000000000000000000000000000000000000000000815260040161104b906142ab565b60405180910390fd5b61105e600b612382565b600061106a600b612374565b90506110768482612398565b60006012600083815260200190815260200160002060006101000a81548160ff021916908360028111156110ad576110ac6142cb565b5b021790555061114681601180546110c390613d97565b80601f01602080910402602001604051908101604052809291908181526020018280546110ef90613d97565b801561113c5780601f106111115761010080835404028352916020019161113c565b820191906000526020600020905b81548152906001019060200180831161111f57829003601f168201915b50505050506123b6565b61117484600d60009054906101000a900473ffffffffffffffffffffffffffffffffffffffff166001612423565b7fd9dc24857f317ed9abbbb42e920ede0104231eb1d3d70236a74887ffaf159868816040516111a391906136d0565b60405180910390a18092505050919050565b6000600a60009054906101000a900460ff16905090565b6000806111d88361258f565b9050600073ffffffffffffffffffffffffffffffffffffffff168173ffffffffffffffffffffffffffffffffffffffff1603611249576040517f08c379a000000000000000000000000000000000000000000000000000000000815260040161124090614346565b60405180910390fd5b80915050919050565b60008073ffffffffffffffffffffffffffffffffffffffff168273ffffffffffffffffffffffffffffffffffffffff16036112c2576040517f08c379a00000000000000000000000000000000000000000000000000000000081526004016112b9906143d8565b60405180910390fd5b600360008373ffffffffffffffffffffffffffffffffffffffff1673ffffffffffffffffffffffffffffffffffffffff168152602001908152602001600020549050919050565b600c60009054906101000a900473ffffffffffffffffffffffffffffffffffffffff1681565b7f70546d1c92f8c2132ae23a23f5177aa8526356051c7510df99f50e012d22152961135981611d43565b600d60009054906101000a900473ffffffffffffffffffffffffffffffffffffffff1673ffffffffffffffffffffffffffffffffffffffff16633966331530600e54600f60009054906101000a900460ff16600c60009054906101000a900473ffffffffffffffffffffffffffffffffffffffff166013546014546015546010546040518963ffffffff1660e01b81526004016113fd9897969594939291906143f8565b600060405180830381600087803b15801561141757600080fd5b505af115801561142b573d6000803e3d6000fd5b5050505061147b7f70546d1c92f8c2132ae23a23f5177aa8526356051c7510df99f50e012d221529600d60009054906101000a900473ffffffffffffffffffffffffffffffffffffffff16612104565b50565b60145481565b60006009600084815260200190815260200160002060000160008373ffffffffffffffffffffffffffffffffffffffff1673ffffffffffffffffffffffffffffffffffffffff16815260200190815260200160002060009054906101000a900460ff16905092915050565b6060600180546114fe90613d97565b80601f016020809104026020016040519081016040528092919081815260200182805461152a90613d97565b80156115775780601f1061154c57610100808354040283529160200191611577565b820191906000526020600020905b81548152906001019060200180831161155a57829003601f168201915b5050505050905090565b60135481565b6000801b81565b6115a0611599611c82565b8383612423565b5050565b601180546115b190613d97565b80601f01602080910402602001604051908101604052809291908181526020018280546115dd90613d97565b801561162a5780601f106115ff5761010080835404028352916020019161162a565b820191906000526020600020905b81548152906001019060200180831161160d57829003601f168201915b505050505081565b61164361163d611c82565b83611d57565b611682576040517f08c379a000000000000000000000000000000000000000000000000000000000815260040161167990613f5e565b60405180910390fd5b61168e848484846125cc565b50505050565b606061169f82611c37565b60006006600084815260200190815260200160002080546116bf90613d97565b80601f01602080910402602001604051908101604052809291908181526020018280546116eb90613d97565b80156117385780601f1061170d57610100808354040283529160200191611738565b820191906000526020600020905b81548152906001019060200180831161171b57829003601f168201915b505050505090506000611749612628565b9050600081510361175e5781925050506117a1565b60008251111561179357808260405160200161177b9291906144b2565b604051602081830303815290604052925050506117a1565b61179c8461263f565b925050505b919050565b600f60009054906101000a900460ff1681565b600d60009054906101000a900473ffffffffffffffffffffffffffffffffffffffff1681565b6117e882610bba565b6117f181611d43565b6117fb8383612248565b505050565b7f70546d1c92f8c2132ae23a23f5177aa8526356051c7510df99f50e012d22152961182a81611d43565b81600e819055505050565b7f70546d1c92f8c2132ae23a23f5177aa8526356051c7510df99f50e012d22152961185f81611d43565b60016002811115611873576118726142cb565b5b6012600084815260200190815260200160002060009054906101000a900460ff1660028111156118a6576118a56142cb565b5b036118e6576040517f08c379a00000000000000000000000000000000000000000000000000000000081526004016118dd90614522565b60405180910390fd5b6002808111156118f9576118f86142cb565b5b6012600084815260200190815260200160002060009054906101000a900460ff16600281111561192c5761192b6142cb565b5b0361196c576040517f08c379a00000000000000000000000000000000000000000000000000000000081526004016119639061458e565b60405180910390fd5b81611977600b612374565b10156119b8576040517f08c379a00000000000000000000000000000000000000000000000000000000081526004016119af906145fa565b60405180910390fd5b60016012600084815260200190815260200160002060006101000a81548160ff021916908360028111156119ef576119ee6142cb565b5b02179055505050565b6000611a04600b612374565b601054611a11919061461a565b905090565b6000600560008473ffffffffffffffffffffffffffffffffffffffff1673ffffffffffffffffffffffffffffffffffffffff16815260200190815260200160002060008373ffffffffffffffffffffffffffffffffffffffff1673ffffffffffffffffffffffffffffffffffffffff16815260200190815260200160002060009054906101000a900460ff16905092915050565b7f70546d1c92f8c2132ae23a23f5177aa8526356051c7510df99f50e012d221529611ad481611d43565b81611adf600b612374565b1015611b20576040517f08c379a0000000000000000000000000000000000000000000000000000000008152600401611b17906145fa565b60405180910390fd5b60026012600084815260200190815260200160002060006101000a81548160ff02191690836002811115611b5757611b566142cb565b5b02179055505050565b7f70546d1c92f8c2132ae23a23f5177aa8526356051c7510df99f50e012d22152981565b600e5481565b7f70546d1c92f8c2132ae23a23f5177aa8526356051c7510df99f50e012d221529611bb481611d43565b611bbc6126a7565b50565b6000611bca8261270a565b80611c30575060166000837bffffffffffffffffffffffffffffffffffffffffffffffffffffffff19167bffffffffffffffffffffffffffffffffffffffffffffffffffffffff1916815260200190815260200160002060009054906101000a900460ff165b9050919050565b611c4081612784565b611c7f576040517f08c379a0000000000000000000000000000000000000000000000000000000008152600401611c7690614346565b60405180910390fd5b50565b600033905090565b816004600083815260200190815260200160002060006101000a81548173ffffffffffffffffffffffffffffffffffffffff021916908373ffffffffffffffffffffffffffffffffffffffff160217905550808273ffffffffffffffffffffffffffffffffffffffff16611cfd836111cc565b73ffffffffffffffffffffffffffffffffffffffff167f8c5be1e5ebec7d5bd14f71427d1e84f3dd0314c0f7b2291e5b200ac8c7c3b92560405160405180910390a45050565b611d5481611d4f611c82565b6127c5565b50565b600080611d63836111cc565b90508073ffffffffffffffffffffffffffffffffffffffff168473ffffffffffffffffffffffffffffffffffffffff161480611da55750611da48185611a16565b5b80611de357508373ffffffffffffffffffffffffffffffffffffffff16611dcb846108cd565b73ffffffffffffffffffffffffffffffffffffffff16145b91505092915050565b8273ffffffffffffffffffffffffffffffffffffffff16611e0c826111cc565b73ffffffffffffffffffffffffffffffffffffffff1614611e62576040517f08c379a0000000000000000000000000000000000000000000000000000000008152600401611e59906146c0565b60405180910390fd5b600073ffffffffffffffffffffffffffffffffffffffff168273ffffffffffffffffffffffffffffffffffffffff1603611ed1576040517f08c379a0000000000000000000000000000000000000000000000000000000008152600401611ec890614752565b60405180910390fd5b611ede838383600161284a565b8273ffffffffffffffffffffffffffffffffffffffff16611efe826111cc565b73ffffffffffffffffffffffffffffffffffffffff1614611f54576040517f08c379a0000000000000000000000000000000000000000000000000000000008152600401611f4b906146c0565b60405180910390fd5b6004600082815260200190815260200160002060006101000a81549073ffffffffffffffffffffffffffffffffffffffff02191690556001600360008573ffffffffffffffffffffffffffffffffffffffff1673ffffffffffffffffffffffffffffffffffffffff168152602001908152602001600020600082825403925050819055506001600360008473ffffffffffffffffffffffffffffffffffffffff1673ffffffffffffffffffffffffffffffffffffffff16815260200190815260200160002060008282540192505081905550816002600083815260200190815260200160002060006101000a81548173ffffffffffffffffffffffffffffffffffffffff021916908373ffffffffffffffffffffffffffffffffffffffff160217905550808273ffffffffffffffffffffffffffffffffffffffff168473ffffffffffffffffffffffffffffffffffffffff167fddf252ad1be2c89b69c2b068fc378daa952ba7f163c4a11628f55a4df523b3ef60405160405180910390a46120e08383836001612850565b505050565b6120ee81612856565b6120f7816128a9565b50565b6000612710905090565b61210e8282611484565b6121e15760016009600084815260200190815260200160002060000160008373ffffffffffffffffffffffffffffffffffffffff1673ffffffffffffffffffffffffffffffffffffffff16815260200190815260200160002060006101000a81548160ff021916908315150217905550612186611c82565b73ffffffffffffffffffffffffffffffffffffffff168173ffffffffffffffffffffffffffffffffffffffff16837f2f8788117e7eff1d82e926ec794901d17c78024a50270940304540a733656f0d60405160405180910390a45b5050565b6121ed61232a565b6001600a60006101000a81548160ff0219169083151502179055507f62e78cea01bee320cd4e420270b5ea74000d11b0c9f74754ebdbfc544b05a258612231611c82565b60405161223e9190613837565b60405180910390a1565b6122528282611484565b156123265760006009600084815260200190815260200160002060000160008373ffffffffffffffffffffffffffffffffffffffff1673ffffffffffffffffffffffffffffffffffffffff16815260200190815260200160002060006101000a81548160ff0219169083151502179055506122cb611c82565b73ffffffffffffffffffffffffffffffffffffffff168173ffffffffffffffffffffffffffffffffffffffff16837ff6391f5c32d9c69d2a47ea670b442974b53935d1edc7fd64eb21e047a839171b60405160405180910390a45b5050565b6123326111b5565b15612372576040517f08c379a0000000000000000000000000000000000000000000000000000000008152600401612369906147be565b60405180910390fd5b565b600081600001549050919050565b6001816000016000828254019250508190555050565b6123b2828260405180602001604052806000815250612908565b5050565b6123bf82612784565b6123fe576040517f08c379a00000000000000000000000000000000000000000000000000000000081526004016123f590614850565b60405180910390fd5b8060066000848152602001908152602001600020908161241e9190614a1c565b505050565b8173ffffffffffffffffffffffffffffffffffffffff168373ffffffffffffffffffffffffffffffffffffffff1603612491576040517f08c379a000000000000000000000000000000000000000000000000000000000815260040161248890614b3a565b60405180910390fd5b80600560008573ffffffffffffffffffffffffffffffffffffffff1673ffffffffffffffffffffffffffffffffffffffff16815260200190815260200160002060008473ffffffffffffffffffffffffffffffffffffffff1673ffffffffffffffffffffffffffffffffffffffff16815260200190815260200160002060006101000a81548160ff0219169083151502179055508173ffffffffffffffffffffffffffffffffffffffff168373ffffffffffffffffffffffffffffffffffffffff167f17307eab39ab6107e8899845ad3d59bd9653f200f220920489ca2b5937696c3183604051612582919061369c565b60405180910390a3505050565b60006002600083815260200190815260200160002060009054906101000a900473ffffffffffffffffffffffffffffffffffffffff169050919050565b6125d7848484611dec565b6125e384848484612963565b612622576040517f08c379a000000000000000000000000000000000000000000000000000000000815260040161261990614bcc565b60405180910390fd5b50505050565b606060405180602001604052806000815250905090565b606061264a82611c37565b6000612654612628565b90506000815111612674576040518060200160405280600081525061269f565b8061267e84612aea565b60405160200161268f9291906144b2565b6040516020818303038152906040525b915050919050565b6126af612bb8565b6000600a60006101000a81548160ff0219169083151502179055507f5db9ee0a495bf2e6ff9c91a7834c1ba4fdd244a5e8aa4e537bd38aeae4b073aa6126f3611c82565b6040516127009190613837565b60405180910390a1565b60007f23d346ff000000000000000000000000000000000000000000000000000000007bffffffffffffffffffffffffffffffffffffffffffffffffffffffff1916827bffffffffffffffffffffffffffffffffffffffffffffffffffffffff1916148061277d575061277c82612c01565b5b9050919050565b60008073ffffffffffffffffffffffffffffffffffffffff166127a68361258f565b73ffffffffffffffffffffffffffffffffffffffff1614159050919050565b6127cf8282611484565b612846576127dc81612c7b565b6127ea8360001c6020612ca8565b6040516020016127fb929190614c84565b6040516020818303038152906040526040517f08c379a000000000000000000000000000000000000000000000000000000000815260040161283d919061377b565b60405180910390fd5b5050565b50505050565b50505050565b61285f81612ee4565b600060066000838152602001908152602001600020805461287f90613d97565b9050146128a6576006600082815260200190815260200160002060006128a5919061358b565b5b50565b60086000828152602001908152602001600020600080820160006101000a81549073ffffffffffffffffffffffffffffffffffffffff02191690556000820160146101000a8154906bffffffffffffffffffffffff0219169055505050565b6129128383613032565b61291f6000848484612963565b61295e576040517f08c379a000000000000000000000000000000000000000000000000000000000815260040161295590614bcc565b60405180910390fd5b505050565b60006129848473ffffffffffffffffffffffffffffffffffffffff1661324f565b15612add578373ffffffffffffffffffffffffffffffffffffffff1663150b7a026129ad611c82565b8786866040518563ffffffff1660e01b81526004016129cf9493929190614d13565b6020604051808303816000875af1925050508015612a0b57506040513d601f19601f82011682018060405250810190612a089190614d74565b60015b612a8d573d8060008114612a3b576040519150601f19603f3d011682016040523d82523d6000602084013e612a40565b606091505b506000815103612a85576040517f08c379a0000000000000000000000000000000000000000000000000000000008152600401612a7c90614bcc565b60405180910390fd5b805181602001fd5b63150b7a0260e01b7bffffffffffffffffffffffffffffffffffffffffffffffffffffffff1916817bffffffffffffffffffffffffffffffffffffffffffffffffffffffff191614915050612ae2565b600190505b949350505050565b606060006001612af984613272565b01905060008167ffffffffffffffff811115612b1857612b17613b50565b5b6040519080825280601f01601f191660200182016040528015612b4a5781602001600182028036833780820191505090505b509050600082602001820190505b600115612bad578080600190039150507f3031323334353637383961626364656600000000000000000000000000000000600a86061a8153600a8581612ba157612ba0614023565b5b04945060008503612b58575b819350505050919050565b612bc06111b5565b612bff576040517f08c379a0000000000000000000000000000000000000000000000000000000008152600401612bf690614ded565b60405180910390fd5b565b60007f7965db0b000000000000000000000000000000000000000000000000000000007bffffffffffffffffffffffffffffffffffffffffffffffffffffffff1916827bffffffffffffffffffffffffffffffffffffffffffffffffffffffff19161480612c745750612c73826133c5565b5b9050919050565b6060612ca18273ffffffffffffffffffffffffffffffffffffffff16601460ff16612ca8565b9050919050565b606060006002836002612cbb9190613fe1565b612cc59190613fad565b67ffffffffffffffff811115612cde57612cdd613b50565b5b6040519080825280601f01601f191660200182016040528015612d105781602001600182028036833780820191505090505b5090507f300000000000000000000000000000000000000000000000000000000000000081600081518110612d4857612d47614e0d565b5b60200101907effffffffffffffffffffffffffffffffffffffffffffffffffffffffffffff1916908160001a9053507f780000000000000000000000000000000000000000000000000000000000000081600181518110612dac57612dab614e0d565b5b60200101907effffffffffffffffffffffffffffffffffffffffffffffffffffffffffffff1916908160001a90535060006001846002612dec9190613fe1565b612df69190613fad565b90505b6001811115612e96577f3031323334353637383961626364656600000000000000000000000000000000600f861660108110612e3857612e37614e0d565b5b1a60f81b828281518110612e4f57612e4e614e0d565b5b60200101907effffffffffffffffffffffffffffffffffffffffffffffffffffffffffffff1916908160001a905350600485901c945080612e8f90614e3c565b9050612df9565b5060008414612eda576040517f08c379a0000000000000000000000000000000000000000000000000000000008152600401612ed190614eb1565b60405180910390fd5b8091505092915050565b6000612eef826111cc565b9050612eff81600084600161284a565b612f08826111cc565b90506004600083815260200190815260200160002060006101000a81549073ffffffffffffffffffffffffffffffffffffffff02191690556001600360008373ffffffffffffffffffffffffffffffffffffffff1673ffffffffffffffffffffffffffffffffffffffff168152602001908152602001600020600082825403925050819055506002600083815260200190815260200160002060006101000a81549073ffffffffffffffffffffffffffffffffffffffff021916905581600073ffffffffffffffffffffffffffffffffffffffff168273ffffffffffffffffffffffffffffffffffffffff167fddf252ad1be2c89b69c2b068fc378daa952ba7f163c4a11628f55a4df523b3ef60405160405180910390a461302e816000846001612850565b5050565b600073ffffffffffffffffffffffffffffffffffffffff168273ffffffffffffffffffffffffffffffffffffffff16036130a1576040517f08c379a000000000000000000000000000000000000000000000000000000000815260040161309890614f1d565b60405180910390fd5b6130aa81612784565b156130ea576040517f08c379a00000000000000000000000000000000000000000000000000000000081526004016130e190614f89565b60405180910390fd5b6130f860008383600161284a565b61310181612784565b15613141576040517f08c379a000000000000000000000000000000000000000000000000000000000815260040161313890614f89565b60405180910390fd5b6001600360008473ffffffffffffffffffffffffffffffffffffffff1673ffffffffffffffffffffffffffffffffffffffff16815260200190815260200160002060008282540192505081905550816002600083815260200190815260200160002060006101000a81548173ffffffffffffffffffffffffffffffffffffffff021916908373ffffffffffffffffffffffffffffffffffffffff160217905550808273ffffffffffffffffffffffffffffffffffffffff16600073ffffffffffffffffffffffffffffffffffffffff167fddf252ad1be2c89b69c2b068fc378daa952ba7f163c4a11628f55a4df523b3ef60405160405180910390a461324b600083836001612850565b5050565b6000808273ffffffffffffffffffffffffffffffffffffffff163b119050919050565b600080600090507a184f03e93ff9f4daa797ed6e38ed64bf6a1f01000000000000000083106132d0577a184f03e93ff9f4daa797ed6e38ed64bf6a1f01000000000000000083816132c6576132c5614023565b5b0492506040810190505b6d04ee2d6d415b85acef8100000000831061330d576d04ee2d6d415b85acef8100000000838161330357613302614023565b5b0492506020810190505b662386f26fc10000831061333c57662386f26fc10000838161333257613331614023565b5b0492506010810190505b6305f5e1008310613365576305f5e100838161335b5761335a614023565b5b0492506008810190505b612710831061338a5761271083816133805761337f614023565b5b0492506004810190505b606483106133ad57606483816133a3576133a2614023565b5b0492506002810190505b600a83106133bc576001810190505b80915050919050565b60007f2a55205a000000000000000000000000000000000000000000000000000000007bffffffffffffffffffffffffffffffffffffffffffffffffffffffff1916827bffffffffffffffffffffffffffffffffffffffffffffffffffffffff1916148061343857506134378261343f565b5b9050919050565b60007f80ac58cd000000000000000000000000000000000000000000000000000000007bffffffffffffffffffffffffffffffffffffffffffffffffffffffff1916827bffffffffffffffffffffffffffffffffffffffffffffffffffffffff1916148061350a57507f5b5e139f000000000000000000000000000000000000000000000000000000007bffffffffffffffffffffffffffffffffffffffffffffffffffffffff1916827bffffffffffffffffffffffffffffffffffffffffffffffffffffffff1916145b8061351a575061351982613521565b5b9050919050565b60007f01ffc9a7000000000000000000000000000000000000000000000000000000007bffffffffffffffffffffffffffffffffffffffffffffffffffffffff1916827bffffffffffffffffffffffffffffffffffffffffffffffffffffffff1916149050919050565b50805461359790613d97565b6000825580601f106135a957506135c8565b601f0160209004906000526020600020908101906135c791906135cb565b5b50565b5b808211156135e45760008160009055506001016135cc565b5090565b6000604051905090565b600080fd5b600080fd5b60007fffffffff0000000000000000000000000000000000000000000000000000000082169050919050565b613631816135fc565b811461363c57600080fd5b50565b60008135905061364e81613628565b92915050565b60006020828403121561366a576136696135f2565b5b60006136788482850161363f565b91505092915050565b60008115159050919050565b61369681613681565b82525050565b60006020820190506136b1600083018461368d565b92915050565b6000819050919050565b6136ca816136b7565b82525050565b60006020820190506136e560008301846136c1565b92915050565b600081519050919050565b600082825260208201905092915050565b60005b8381101561372557808201518184015260208101905061370a565b60008484015250505050565b6000601f19601f8301169050919050565b600061374d826136eb565b61375781856136f6565b9350613767818560208601613707565b61377081613731565b840191505092915050565b600060208201905081810360008301526137958184613742565b905092915050565b6137a6816136b7565b81146137b157600080fd5b50565b6000813590506137c38161379d565b92915050565b6000602082840312156137df576137de6135f2565b5b60006137ed848285016137b4565b91505092915050565b600073ffffffffffffffffffffffffffffffffffffffff82169050919050565b6000613821826137f6565b9050919050565b61383181613816565b82525050565b600060208201905061384c6000830184613828565b92915050565b61385b81613816565b811461386657600080fd5b50565b60008135905061387881613852565b92915050565b60008060408385031215613895576138946135f2565b5b60006138a385828601613869565b92505060206138b4858286016137b4565b9150509250929050565b6000602082840312156138d4576138d36135f2565b5b60006138e284828501613869565b91505092915050565b600080600060608486031215613904576139036135f2565b5b600061391286828701613869565b935050602061392386828701613869565b9250506040613934868287016137b4565b9150509250925092565b600060ff82169050919050565b6139548161393e565b811461395f57600080fd5b50565b6000813590506139718161394b565b92915050565b60006020828403121561398d5761398c6135f2565b5b600061399b84828501613962565b91505092915050565b6000819050919050565b6139b7816139a4565b81146139c257600080fd5b50565b6000813590506139d4816139ae565b92915050565b6000602082840312156139f0576139ef6135f2565b5b60006139fe848285016139c5565b91505092915050565b613a10816139a4565b82525050565b6000602082019050613a2b6000830184613a07565b92915050565b60008060408385031215613a4857613a476135f2565b5b6000613a56858286016137b4565b9250506020613a67858286016137b4565b9150509250929050565b6000604082019050613a866000830185613828565b613a9360208301846136c1565b9392505050565b60008060408385031215613ab157613ab06135f2565b5b6000613abf858286016139c5565b9250506020613ad085828601613869565b9150509250929050565b613ae381613681565b8114613aee57600080fd5b50565b600081359050613b0081613ada565b92915050565b60008060408385031215613b1d57613b1c6135f2565b5b6000613b2b85828601613869565b9250506020613b3c85828601613af1565b9150509250929050565b600080fd5b600080fd5b7f4e487b7100000000000000000000000000000000000000000000000000000000600052604160045260246000fd5b613b8882613731565b810181811067ffffffffffffffff82111715613ba757613ba6613b50565b5b80604052505050565b6000613bba6135e8565b9050613bc68282613b7f565b919050565b600067ffffffffffffffff821115613be657613be5613b50565b5b613bef82613731565b9050602081019050919050565b82818337600083830152505050565b6000613c1e613c1984613bcb565b613bb0565b905082815260208101848484011115613c3a57613c39613b4b565b5b613c45848285613bfc565b509392505050565b600082601f830112613c6257613c61613b46565b5b8135613c72848260208601613c0b565b91505092915050565b60008060008060808587031215613c9557613c946135f2565b5b6000613ca387828801613869565b9450506020613cb487828801613869565b9350506040613cc5878288016137b4565b925050606085013567ffffffffffffffff811115613ce657613ce56135f7565b5b613cf287828801613c4d565b91505092959194509250565b613d078161393e565b82525050565b6000602082019050613d226000830184613cfe565b92915050565b60008060408385031215613d3f57613d3e6135f2565b5b6000613d4d85828601613869565b9250506020613d5e85828601613869565b9150509250929050565b7f4e487b7100000000000000000000000000000000000000000000000000000000600052602260045260246000fd5b60006002820490506001821680613daf57607f821691505b602082108103613dc257613dc1613d68565b5b50919050565b7f4552433732313a20617070726f76616c20746f2063757272656e74206f776e6560008201527f7200000000000000000000000000000000000000000000000000000000000000602082015250565b6000613e246021836136f6565b9150613e2f82613dc8565b604082019050919050565b60006020820190508181036000830152613e5381613e17565b9050919050565b7f4552433732313a20617070726f76652063616c6c6572206973206e6f7420746f60008201527f6b656e206f776e6572206f7220617070726f76656420666f7220616c6c000000602082015250565b6000613eb6603d836136f6565b9150613ec182613e5a565b604082019050919050565b60006020820190508181036000830152613ee581613ea9565b9050919050565b7f4552433732313a2063616c6c6572206973206e6f7420746f6b656e206f776e6560008201527f72206f7220617070726f76656400000000000000000000000000000000000000602082015250565b6000613f48602d836136f6565b9150613f5382613eec565b604082019050919050565b60006020820190508181036000830152613f7781613f3b565b9050919050565b7f4e487b7100000000000000000000000000000000000000000000000000000000600052601160045260246000fd5b6000613fb8826136b7565b9150613fc3836136b7565b9250828201905080821115613fdb57613fda613f7e565b5b92915050565b6000613fec826136b7565b9150613ff7836136b7565b9250828202614005816136b7565b9150828204841483151761401c5761401b613f7e565b5b5092915050565b7f4e487b7100000000000000000000000000000000000000000000000000000000600052601260045260246000fd5b600061405d826136b7565b9150614068836136b7565b92508261407857614077614023565b5b828204905092915050565b7f416363657373436f6e74726f6c3a2063616e206f6e6c792072656e6f756e636560008201527f20726f6c657320666f722073656c660000000000000000000000000000000000602082015250565b60006140df602f836136f6565b91506140ea82614083565b604082019050919050565b6000602082019050818103600083015261410e816140d2565b9050919050565b7f556e61626c6520746f206d696e7420746f6b656e73206166746572207468652060008201527f7469636b6574207469657220636c6f736520646174652068617320706173736560208201527f642e000000000000000000000000000000000000000000000000000000000000604082015250565b60006141976042836136f6565b91506141a282614115565b606082019050919050565b600060208201905081810360008301526141c68161418a565b9050919050565b7f5469636b657420737570706c7920736f6c64206f757400000000000000000000600082015250565b60006142036016836136f6565b915061420e826141cd565b602082019050919050565b60006020820190508181036000830152614232816141f6565b9050919050565b7f526563697069656e742063616e277420626520746865207a65726f206164647260008201527f6573732e00000000000000000000000000000000000000000000000000000000602082015250565b60006142956024836136f6565b91506142a082614239565b604082019050919050565b600060208201905081810360008301526142c481614288565b9050919050565b7f4e487b7100000000000000000000000000000000000000000000000000000000600052602160045260246000fd5b7f4552433732313a20696e76616c696420746f6b656e2049440000000000000000600082015250565b60006143306018836136f6565b915061433b826142fa565b602082019050919050565b6000602082019050818103600083015261435f81614323565b9050919050565b7f4552433732313a2061646472657373207a65726f206973206e6f74206120766160008201527f6c6964206f776e65720000000000000000000000000000000000000000000000602082015250565b60006143c26029836136f6565b91506143cd82614366565b604082019050919050565b600060208201905081810360008301526143f1816143b5565b9050919050565b60006101008201905061440e600083018b613828565b61441b602083018a6136c1565b6144286040830189613cfe565b6144356060830188613828565b61444260808301876136c1565b61444f60a08301866136c1565b61445c60c08301856136c1565b61446960e08301846136c1565b9998505050505050505050565b600081905092915050565b600061448c826136eb565b6144968185614476565b93506144a6818560208601613707565b80840191505092915050565b60006144be8285614481565b91506144ca8284614481565b91508190509392505050565b7f546f6b656e2068617320616c7265616479206265656e207363616e6e65640000600082015250565b600061450c601e836136f6565b9150614517826144d6565b602082019050919050565b6000602082019050818103600083015261453b816144ff565b9050919050565b7f546f6b656e20686173206265656e20696e76616c696461746564000000000000600082015250565b6000614578601a836136f6565b915061458382614542565b602082019050919050565b600060208201905081810360008301526145a78161456b565b9050919050565b7f546f6b656e206e6f7420796574206d696e7465642e0000000000000000000000600082015250565b60006145e46015836136f6565b91506145ef826145ae565b602082019050919050565b60006020820190508181036000830152614613816145d7565b9050919050565b6000614625826136b7565b9150614630836136b7565b925082820390508181111561464857614647613f7e565b5b92915050565b7f4552433732313a207472616e736665722066726f6d20696e636f72726563742060008201527f6f776e6572000000000000000000000000000000000000000000000000000000602082015250565b60006146aa6025836136f6565b91506146b58261464e565b604082019050919050565b600060208201905081810360008301526146d98161469d565b9050919050565b7f4552433732313a207472616e7366657220746f20746865207a65726f2061646460008201527f7265737300000000000000000000000000000000000000000000000000000000602082015250565b600061473c6024836136f6565b9150614747826146e0565b604082019050919050565b6000602082019050818103600083015261476b8161472f565b9050919050565b7f5061757361626c653a2070617573656400000000000000000000000000000000600082015250565b60006147a86010836136f6565b91506147b382614772565b602082019050919050565b600060208201905081810360008301526147d78161479b565b9050919050565b7f45524337323155524953746f726167653a2055524920736574206f66206e6f6e60008201527f6578697374656e7420746f6b656e000000000000000000000000000000000000602082015250565b600061483a602e836136f6565b9150614845826147de565b604082019050919050565b600060208201905081810360008301526148698161482d565b9050919050565b60008190508160005260206000209050919050565b60006020601f8301049050919050565b600082821b905092915050565b6000600883026148d27fffffffffffffffffffffffffffffffffffffffffffffffffffffffffffffffff82614895565b6148dc8683614895565b95508019841693508086168417925050509392505050565b6000819050919050565b600061491961491461490f846136b7565b6148f4565b6136b7565b9050919050565b6000819050919050565b614933836148fe565b61494761493f82614920565b8484546148a2565b825550505050565b600090565b61495c61494f565b61496781848461492a565b505050565b5b8181101561498b57614980600082614954565b60018101905061496d565b5050565b601f8211156149d0576149a181614870565b6149aa84614885565b810160208510156149b9578190505b6149cd6149c585614885565b83018261496c565b50505b505050565b600082821c905092915050565b60006149f3600019846008026149d5565b1980831691505092915050565b6000614a0c83836149e2565b9150826002028217905092915050565b614a25826136eb565b67ffffffffffffffff811115614a3e57614a3d613b50565b5b614a488254613d97565b614a5382828561498f565b600060209050601f831160018114614a865760008415614a74578287015190505b614a7e8582614a00565b865550614ae6565b601f198416614a9486614870565b60005b82811015614abc57848901518255600182019150602085019450602081019050614a97565b86831015614ad95784890151614ad5601f8916826149e2565b8355505b6001600288020188555050505b505050505050565b7f4552433732313a20617070726f766520746f2063616c6c657200000000000000600082015250565b6000614b246019836136f6565b9150614b2f82614aee565b602082019050919050565b60006020820190508181036000830152614b5381614b17565b9050919050565b7f4552433732313a207472616e7366657220746f206e6f6e20455243373231526560008201527f63656976657220696d706c656d656e7465720000000000000000000000000000602082015250565b6000614bb66032836136f6565b9150614bc182614b5a565b604082019050919050565b60006020820190508181036000830152614be581614ba9565b9050919050565b7f416363657373436f6e74726f6c3a206163636f756e7420000000000000000000600082015250565b6000614c22601783614476565b9150614c2d82614bec565b601782019050919050565b7f206973206d697373696e6720726f6c6520000000000000000000000000000000600082015250565b6000614c6e601183614476565b9150614c7982614c38565b601182019050919050565b6000614c8f82614c15565b9150614c9b8285614481565b9150614ca682614c61565b9150614cb28284614481565b91508190509392505050565b600081519050919050565b600082825260208201905092915050565b6000614ce582614cbe565b614cef8185614cc9565b9350614cff818560208601613707565b614d0881613731565b840191505092915050565b6000608082019050614d286000830187613828565b614d356020830186613828565b614d4260408301856136c1565b8181036060830152614d548184614cda565b905095945050505050565b600081519050614d6e81613628565b92915050565b600060208284031215614d8a57614d896135f2565b5b6000614d9884828501614d5f565b91505092915050565b7f5061757361626c653a206e6f7420706175736564000000000000000000000000600082015250565b6000614dd76014836136f6565b9150614de282614da1565b602082019050919050565b60006020820190508181036000830152614e0681614dca565b9050919050565b7f4e487b7100000000000000000000000000000000000000000000000000000000600052603260045260246000fd5b6000614e47826136b7565b915060008203614e5a57614e59613f7e565b5b600182039050919050565b7f537472696e67733a20686578206c656e67746820696e73756666696369656e74600082015250565b6000614e9b6020836136f6565b9150614ea682614e65565b602082019050919050565b60006020820190508181036000830152614eca81614e8e565b9050919050565b7f4552433732313a206d696e7420746f20746865207a65726f2061646472657373600082015250565b6000614f076020836136f6565b9150614f1282614ed1565b602082019050919050565b60006020820190508181036000830152614f3681614efa565b9050919050565b7f4552433732313a20746f6b656e20616c7265616479206d696e74656400000000600082015250565b6000614f73601c836136f6565b9150614f7e82614f3d565b602082019050919050565b60006020820190508181036000830152614fa281614f66565b905091905056fea2646970667358221220522f4afabb05f3617046cc8ec1c520055a9e35346d9baa12436e1c8a58a234d864736f6c63430008120033",
      "opcodes": "PUSH1 0x80 PUSH1 0x40 MSTORE CALLVALUE DUP1 ISZERO PUSH3 0x11 JUMPI PUSH1 0x0 DUP1 REVERT JUMPDEST POP PUSH1 0x40 MLOAD PUSH3 0x6425 CODESIZE SUB DUP1 PUSH3 0x6425 DUP4 CODECOPY DUP2 DUP2 ADD PUSH1 0x40 MSTORE DUP2 ADD SWAP1 PUSH3 0x37 SWAP2 SWAP1 PUSH3 0xB48 JUMP JUMPDEST DUP4 DUP4 DUP3 PUSH1 0x0 ADD MLOAD DUP4 PUSH1 0x20 ADD MLOAD DUP6 PUSH1 0x0 ADD MLOAD DUP7 PUSH1 0x20 ADD MLOAD DUP8 PUSH1 0x40 ADD MLOAD DUP9 PUSH1 0x60 ADD MLOAD DUP9 PUSH1 0x40 ADD MLOAD DUP11 PUSH1 0x80 ADD MLOAD DUP12 PUSH1 0xA0 ADD MLOAD DUP13 PUSH1 0xC0 ADD MLOAD DUP12 DUP12 DUP2 PUSH1 0x0 SWAP1 DUP2 PUSH3 0x7E SWAP2 SWAP1 PUSH3 0xE58 JUMP JUMPDEST POP DUP1 PUSH1 0x1 SWAP1 DUP2 PUSH3 0x90 SWAP2 SWAP1 PUSH3 0xE58 JUMP JUMPDEST POP POP POP PUSH1 0x0 PUSH1 0xA PUSH1 0x0 PUSH2 0x100 EXP DUP2 SLOAD DUP2 PUSH1 0xFF MUL NOT AND SWAP1 DUP4 ISZERO ISZERO MUL OR SWAP1 SSTORE POP PUSH1 0x0 PUSH20 0xFFFFFFFFFFFFFFFFFFFFFFFFFFFFFFFFFFFFFFFF AND DUP10 PUSH20 0xFFFFFFFFFFFFFFFFFFFFFFFFFFFFFFFFFFFFFFFF AND SUB PUSH3 0x120 JUMPI PUSH1 0x40 MLOAD PUSH32 0x8C379A000000000000000000000000000000000000000000000000000000000 DUP2 MSTORE PUSH1 0x4 ADD PUSH3 0x117 SWAP1 PUSH3 0xFC6 JUMP JUMPDEST PUSH1 0x40 MLOAD DUP1 SWAP2 SUB SWAP1 REVERT JUMPDEST PUSH1 0x0 PUSH20 0xFFFFFFFFFFFFFFFFFFFFFFFFFFFFFFFFFFFFFFFF AND DUP11 PUSH20 0xFFFFFFFFFFFFFFFFFFFFFFFFFFFFFFFFFFFFFFFF AND SUB PUSH3 0x192 JUMPI PUSH1 0x40 MLOAD PUSH32 0x8C379A000000000000000000000000000000000000000000000000000000000 DUP2 MSTORE PUSH1 0x4 ADD PUSH3 0x189 SWAP1 PUSH3 0x105E JUMP JUMPDEST PUSH1 0x40 MLOAD DUP1 SWAP2 SUB SWAP1 REVERT JUMPDEST TIMESTAMP DUP5 LT ISZERO PUSH3 0x1D8 JUMPI PUSH1 0x40 MLOAD PUSH32 0x8C379A000000000000000000000000000000000000000000000000000000000 DUP2 MSTORE PUSH1 0x4 ADD PUSH3 0x1CF SWAP1 PUSH3 0x10F6 JUMP JUMPDEST PUSH1 0x40 MLOAD DUP1 SWAP2 SUB SWAP1 REVERT JUMPDEST TIMESTAMP DUP3 LT ISZERO PUSH3 0x21E JUMPI PUSH1 0x40 MLOAD PUSH32 0x8C379A000000000000000000000000000000000000000000000000000000000 DUP2 MSTORE PUSH1 0x4 ADD PUSH3 0x215 SWAP1 PUSH3 0x118E JUMP JUMPDEST PUSH1 0x40 MLOAD DUP1 SWAP2 SUB SWAP1 REVERT JUMPDEST DUP2 DUP4 GT ISZERO PUSH3 0x264 JUMPI PUSH1 0x40 MLOAD PUSH32 0x8C379A000000000000000000000000000000000000000000000000000000000 DUP2 MSTORE PUSH1 0x4 ADD PUSH3 0x25B SWAP1 PUSH3 0x1226 JUMP JUMPDEST PUSH1 0x40 MLOAD DUP1 SWAP2 SUB SWAP1 REVERT JUMPDEST PUSH1 0x0 DUP2 GT PUSH3 0x2AA JUMPI PUSH1 0x40 MLOAD PUSH32 0x8C379A000000000000000000000000000000000000000000000000000000000 DUP2 MSTORE PUSH1 0x4 ADD PUSH3 0x2A1 SWAP1 PUSH3 0x1298 JUMP JUMPDEST PUSH1 0x40 MLOAD DUP1 SWAP2 SUB SWAP1 REVERT JUMPDEST PUSH1 0x0 DUP9 MLOAD SUB PUSH3 0x2F1 JUMPI PUSH1 0x40 MLOAD PUSH32 0x8C379A000000000000000000000000000000000000000000000000000000000 DUP2 MSTORE PUSH1 0x4 ADD PUSH3 0x2E8 SWAP1 PUSH3 0x130A JUMP JUMPDEST PUSH1 0x40 MLOAD DUP1 SWAP2 SUB SWAP1 REVERT JUMPDEST PUSH3 0x323 PUSH32 0x70546D1C92F8C2132AE23A23F5177AA8526356051C7510DF99F50E012D221529 CALLER PUSH3 0x41D PUSH1 0x20 SHL PUSH1 0x20 SHR JUMP JUMPDEST PUSH3 0x335 DUP10 DUP7 PUSH3 0x50F PUSH1 0x20 SHL PUSH1 0x20 SHR JUMP JUMPDEST DUP10 PUSH1 0xD PUSH1 0x0 PUSH2 0x100 EXP DUP2 SLOAD DUP2 PUSH20 0xFFFFFFFFFFFFFFFFFFFFFFFFFFFFFFFFFFFFFFFF MUL NOT AND SWAP1 DUP4 PUSH20 0xFFFFFFFFFFFFFFFFFFFFFFFFFFFFFFFFFFFFFFFF AND MUL OR SWAP1 SSTORE POP DUP9 PUSH1 0xC PUSH1 0x0 PUSH2 0x100 EXP DUP2 SLOAD DUP2 PUSH20 0xFFFFFFFFFFFFFFFFFFFFFFFFFFFFFFFFFFFFFFFF MUL NOT AND SWAP1 DUP4 PUSH20 0xFFFFFFFFFFFFFFFFFFFFFFFFFFFFFFFFFFFFFFFF AND MUL OR SWAP1 SSTORE POP DUP8 PUSH1 0x11 SWAP1 DUP2 PUSH3 0x3C8 SWAP2 SWAP1 PUSH3 0xE58 JUMP JUMPDEST POP DUP7 PUSH1 0xE DUP2 SWAP1 SSTORE POP DUP6 PUSH1 0xF PUSH1 0x0 PUSH2 0x100 EXP DUP2 SLOAD DUP2 PUSH1 0xFF MUL NOT AND SWAP1 DUP4 PUSH1 0xFF AND MUL OR SWAP1 SSTORE POP DUP4 PUSH1 0x13 DUP2 SWAP1 SSTORE POP DUP3 PUSH1 0x14 DUP2 SWAP1 SSTORE POP DUP2 PUSH1 0x15 DUP2 SWAP1 SSTORE POP DUP1 PUSH1 0x10 DUP2 SWAP1 SSTORE POP POP POP POP POP POP POP POP POP POP POP POP POP POP POP POP POP PUSH3 0x1436 JUMP JUMPDEST PUSH3 0x42F DUP3 DUP3 PUSH3 0x6B2 PUSH1 0x20 SHL PUSH1 0x20 SHR JUMP JUMPDEST PUSH3 0x50B JUMPI PUSH1 0x1 PUSH1 0x9 PUSH1 0x0 DUP5 DUP2 MSTORE PUSH1 0x20 ADD SWAP1 DUP2 MSTORE PUSH1 0x20 ADD PUSH1 0x0 KECCAK256 PUSH1 0x0 ADD PUSH1 0x0 DUP4 PUSH20 0xFFFFFFFFFFFFFFFFFFFFFFFFFFFFFFFFFFFFFFFF AND PUSH20 0xFFFFFFFFFFFFFFFFFFFFFFFFFFFFFFFFFFFFFFFF AND DUP2 MSTORE PUSH1 0x20 ADD SWAP1 DUP2 MSTORE PUSH1 0x20 ADD PUSH1 0x0 KECCAK256 PUSH1 0x0 PUSH2 0x100 EXP DUP2 SLOAD DUP2 PUSH1 0xFF MUL NOT AND SWAP1 DUP4 ISZERO ISZERO MUL OR SWAP1 SSTORE POP PUSH3 0x4B0 PUSH3 0x71D PUSH1 0x20 SHL PUSH1 0x20 SHR JUMP JUMPDEST PUSH20 0xFFFFFFFFFFFFFFFFFFFFFFFFFFFFFFFFFFFFFFFF AND DUP2 PUSH20 0xFFFFFFFFFFFFFFFFFFFFFFFFFFFFFFFFFFFFFFFF AND DUP4 PUSH32 0x2F8788117E7EFF1D82E926EC794901D17C78024A50270940304540A733656F0D PUSH1 0x40 MLOAD PUSH1 0x40 MLOAD DUP1 SWAP2 SUB SWAP1 LOG4 JUMPDEST POP POP JUMP JUMPDEST PUSH3 0x51F PUSH3 0x725 PUSH1 0x20 SHL PUSH1 0x20 SHR JUMP JUMPDEST PUSH12 0xFFFFFFFFFFFFFFFFFFFFFFFF AND DUP2 PUSH12 0xFFFFFFFFFFFFFFFFFFFFFFFF AND GT ISZERO PUSH3 0x580 JUMPI PUSH1 0x40 MLOAD PUSH32 0x8C379A000000000000000000000000000000000000000000000000000000000 DUP2 MSTORE PUSH1 0x4 ADD PUSH3 0x577 SWAP1 PUSH3 0x13A2 JUMP JUMPDEST PUSH1 0x40 MLOAD DUP1 SWAP2 SUB SWAP1 REVERT JUMPDEST PUSH1 0x0 PUSH20 0xFFFFFFFFFFFFFFFFFFFFFFFFFFFFFFFFFFFFFFFF AND DUP3 PUSH20 0xFFFFFFFFFFFFFFFFFFFFFFFFFFFFFFFFFFFFFFFF AND SUB PUSH3 0x5F2 JUMPI PUSH1 0x40 MLOAD PUSH32 0x8C379A000000000000000000000000000000000000000000000000000000000 DUP2 MSTORE PUSH1 0x4 ADD PUSH3 0x5E9 SWAP1 PUSH3 0x1414 JUMP JUMPDEST PUSH1 0x40 MLOAD DUP1 SWAP2 SUB SWAP1 REVERT JUMPDEST PUSH1 0x40 MLOAD DUP1 PUSH1 0x40 ADD PUSH1 0x40 MSTORE DUP1 DUP4 PUSH20 0xFFFFFFFFFFFFFFFFFFFFFFFFFFFFFFFFFFFFFFFF AND DUP2 MSTORE PUSH1 0x20 ADD DUP3 PUSH12 0xFFFFFFFFFFFFFFFFFFFFFFFF AND DUP2 MSTORE POP PUSH1 0x7 PUSH1 0x0 DUP3 ADD MLOAD DUP2 PUSH1 0x0 ADD PUSH1 0x0 PUSH2 0x100 EXP DUP2 SLOAD DUP2 PUSH20 0xFFFFFFFFFFFFFFFFFFFFFFFFFFFFFFFFFFFFFFFF MUL NOT AND SWAP1 DUP4 PUSH20 0xFFFFFFFFFFFFFFFFFFFFFFFFFFFFFFFFFFFFFFFF AND MUL OR SWAP1 SSTORE POP PUSH1 0x20 DUP3 ADD MLOAD DUP2 PUSH1 0x0 ADD PUSH1 0x14 PUSH2 0x100 EXP DUP2 SLOAD DUP2 PUSH12 0xFFFFFFFFFFFFFFFFFFFFFFFF MUL NOT AND SWAP1 DUP4 PUSH12 0xFFFFFFFFFFFFFFFFFFFFFFFF AND MUL OR SWAP1 SSTORE POP SWAP1 POP POP POP POP JUMP JUMPDEST PUSH1 0x0 PUSH1 0x9 PUSH1 0x0 DUP5 DUP2 MSTORE PUSH1 0x20 ADD SWAP1 DUP2 MSTORE PUSH1 0x20 ADD PUSH1 0x0 KECCAK256 PUSH1 0x0 ADD PUSH1 0x0 DUP4 PUSH20 0xFFFFFFFFFFFFFFFFFFFFFFFFFFFFFFFFFFFFFFFF AND PUSH20 0xFFFFFFFFFFFFFFFFFFFFFFFFFFFFFFFFFFFFFFFF AND DUP2 MSTORE PUSH1 0x20 ADD SWAP1 DUP2 MSTORE PUSH1 0x20 ADD PUSH1 0x0 KECCAK256 PUSH1 0x0 SWAP1 SLOAD SWAP1 PUSH2 0x100 EXP SWAP1 DIV PUSH1 0xFF AND SWAP1 POP SWAP3 SWAP2 POP POP JUMP JUMPDEST PUSH1 0x0 CALLER SWAP1 POP SWAP1 JUMP JUMPDEST PUSH1 0x0 PUSH2 0x2710 SWAP1 POP SWAP1 JUMP JUMPDEST PUSH1 0x0 PUSH1 0x40 MLOAD SWAP1 POP SWAP1 JUMP JUMPDEST PUSH1 0x0 DUP1 REVERT JUMPDEST PUSH1 0x0 DUP1 REVERT JUMPDEST PUSH1 0x0 DUP1 REVERT JUMPDEST PUSH1 0x0 DUP1 REVERT JUMPDEST PUSH1 0x0 PUSH1 0x1F NOT PUSH1 0x1F DUP4 ADD AND SWAP1 POP SWAP2 SWAP1 POP JUMP JUMPDEST PUSH32 0x4E487B7100000000000000000000000000000000000000000000000000000000 PUSH1 0x0 MSTORE PUSH1 0x41 PUSH1 0x4 MSTORE PUSH1 0x24 PUSH1 0x0 REVERT JUMPDEST PUSH3 0x798 DUP3 PUSH3 0x74D JUMP JUMPDEST DUP2 ADD DUP2 DUP2 LT PUSH8 0xFFFFFFFFFFFFFFFF DUP3 GT OR ISZERO PUSH3 0x7BA JUMPI PUSH3 0x7B9 PUSH3 0x75E JUMP JUMPDEST JUMPDEST DUP1 PUSH1 0x40 MSTORE POP POP POP JUMP JUMPDEST PUSH1 0x0 PUSH3 0x7CF PUSH3 0x72F JUMP JUMPDEST SWAP1 POP PUSH3 0x7DD DUP3 DUP3 PUSH3 0x78D JUMP JUMPDEST SWAP2 SWAP1 POP JUMP JUMPDEST PUSH1 0x0 PUSH8 0xFFFFFFFFFFFFFFFF DUP3 GT ISZERO PUSH3 0x800 JUMPI PUSH3 0x7FF PUSH3 0x75E JUMP JUMPDEST JUMPDEST PUSH3 0x80B DUP3 PUSH3 0x74D JUMP JUMPDEST SWAP1 POP PUSH1 0x20 DUP2 ADD SWAP1 POP SWAP2 SWAP1 POP JUMP JUMPDEST PUSH1 0x0 JUMPDEST DUP4 DUP2 LT ISZERO PUSH3 0x838 JUMPI DUP1 DUP3 ADD MLOAD DUP2 DUP5 ADD MSTORE PUSH1 0x20 DUP2 ADD SWAP1 POP PUSH3 0x81B JUMP JUMPDEST PUSH1 0x0 DUP5 DUP5 ADD MSTORE POP POP POP POP JUMP JUMPDEST PUSH1 0x0 PUSH3 0x85B PUSH3 0x855 DUP5 PUSH3 0x7E2 JUMP JUMPDEST PUSH3 0x7C3 JUMP JUMPDEST SWAP1 POP DUP3 DUP2 MSTORE PUSH1 0x20 DUP2 ADD DUP5 DUP5 DUP5 ADD GT ISZERO PUSH3 0x87A JUMPI PUSH3 0x879 PUSH3 0x748 JUMP JUMPDEST JUMPDEST PUSH3 0x887 DUP5 DUP3 DUP6 PUSH3 0x818 JUMP JUMPDEST POP SWAP4 SWAP3 POP POP POP JUMP JUMPDEST PUSH1 0x0 DUP3 PUSH1 0x1F DUP4 ADD SLT PUSH3 0x8A7 JUMPI PUSH3 0x8A6 PUSH3 0x743 JUMP JUMPDEST JUMPDEST DUP2 MLOAD PUSH3 0x8B9 DUP5 DUP3 PUSH1 0x20 DUP7 ADD PUSH3 0x844 JUMP JUMPDEST SWAP2 POP POP SWAP3 SWAP2 POP POP JUMP JUMPDEST PUSH1 0x0 DUP1 REVERT JUMPDEST PUSH1 0x0 DUP1 REVERT JUMPDEST PUSH1 0x0 DUP2 SWAP1 POP SWAP2 SWAP1 POP JUMP JUMPDEST PUSH3 0x8E1 DUP2 PUSH3 0x8CC JUMP JUMPDEST DUP2 EQ PUSH3 0x8ED JUMPI PUSH1 0x0 DUP1 REVERT JUMPDEST POP JUMP JUMPDEST PUSH1 0x0 DUP2 MLOAD SWAP1 POP PUSH3 0x901 DUP2 PUSH3 0x8D6 JUMP JUMPDEST SWAP3 SWAP2 POP POP JUMP JUMPDEST PUSH1 0x0 PUSH1 0xFF DUP3 AND SWAP1 POP SWAP2 SWAP1 POP JUMP JUMPDEST PUSH3 0x91F DUP2 PUSH3 0x907 JUMP JUMPDEST DUP2 EQ PUSH3 0x92B JUMPI PUSH1 0x0 DUP1 REVERT JUMPDEST POP JUMP JUMPDEST PUSH1 0x0 DUP2 MLOAD SWAP1 POP PUSH3 0x93F DUP2 PUSH3 0x914 JUMP JUMPDEST SWAP3 SWAP2 POP POP JUMP JUMPDEST PUSH1 0x0 PUSH12 0xFFFFFFFFFFFFFFFFFFFFFFFF DUP3 AND SWAP1 POP SWAP2 SWAP1 POP JUMP JUMPDEST PUSH3 0x968 DUP2 PUSH3 0x945 JUMP JUMPDEST DUP2 EQ PUSH3 0x974 JUMPI PUSH1 0x0 DUP1 REVERT JUMPDEST POP JUMP JUMPDEST PUSH1 0x0 DUP2 MLOAD SWAP1 POP PUSH3 0x988 DUP2 PUSH3 0x95D JUMP JUMPDEST SWAP3 SWAP2 POP POP JUMP JUMPDEST PUSH1 0x0 PUSH1 0xE0 DUP3 DUP5 SUB SLT ISZERO PUSH3 0x9A7 JUMPI PUSH3 0x9A6 PUSH3 0x8C2 JUMP JUMPDEST JUMPDEST PUSH3 0x9B3 PUSH1 0xE0 PUSH3 0x7C3 JUMP JUMPDEST SWAP1 POP PUSH1 0x0 DUP3 ADD MLOAD PUSH8 0xFFFFFFFFFFFFFFFF DUP2 GT ISZERO PUSH3 0x9D6 JUMPI PUSH3 0x9D5 PUSH3 0x8C7 JUMP JUMPDEST JUMPDEST PUSH3 0x9E4 DUP5 DUP3 DUP6 ADD PUSH3 0x88F JUMP JUMPDEST PUSH1 0x0 DUP4 ADD MSTORE POP PUSH1 0x20 PUSH3 0x9FA DUP5 DUP3 DUP6 ADD PUSH3 0x8F0 JUMP JUMPDEST PUSH1 0x20 DUP4 ADD MSTORE POP PUSH1 0x40 PUSH3 0xA10 DUP5 DUP3 DUP6 ADD PUSH3 0x92E JUMP JUMPDEST PUSH1 0x40 DUP4 ADD MSTORE POP PUSH1 0x60 PUSH3 0xA26 DUP5 DUP3 DUP6 ADD PUSH3 0x977 JUMP JUMPDEST PUSH1 0x60 DUP4 ADD MSTORE POP PUSH1 0x80 PUSH3 0xA3C DUP5 DUP3 DUP6 ADD PUSH3 0x8F0 JUMP JUMPDEST PUSH1 0x80 DUP4 ADD MSTORE POP PUSH1 0xA0 PUSH3 0xA52 DUP5 DUP3 DUP6 ADD PUSH3 0x8F0 JUMP JUMPDEST PUSH1 0xA0 DUP4 ADD MSTORE POP PUSH1 0xC0 PUSH3 0xA68 DUP5 DUP3 DUP6 ADD PUSH3 0x8F0 JUMP JUMPDEST PUSH1 0xC0 DUP4 ADD MSTORE POP SWAP3 SWAP2 POP POP JUMP JUMPDEST PUSH1 0x0 PUSH20 0xFFFFFFFFFFFFFFFFFFFFFFFFFFFFFFFFFFFFFFFF DUP3 AND SWAP1 POP SWAP2 SWAP1 POP JUMP JUMPDEST PUSH1 0x0 PUSH3 0xAA1 DUP3 PUSH3 0xA74 JUMP JUMPDEST SWAP1 POP SWAP2 SWAP1 POP JUMP JUMPDEST PUSH3 0xAB3 DUP2 PUSH3 0xA94 JUMP JUMPDEST DUP2 EQ PUSH3 0xABF JUMPI PUSH1 0x0 DUP1 REVERT JUMPDEST POP JUMP JUMPDEST PUSH1 0x0 DUP2 MLOAD SWAP1 POP PUSH3 0xAD3 DUP2 PUSH3 0xAA8 JUMP JUMPDEST SWAP3 SWAP2 POP POP JUMP JUMPDEST PUSH1 0x0 PUSH1 0x60 DUP3 DUP5 SUB SLT ISZERO PUSH3 0xAF2 JUMPI PUSH3 0xAF1 PUSH3 0x8C2 JUMP JUMPDEST JUMPDEST PUSH3 0xAFE PUSH1 0x60 PUSH3 0x7C3 JUMP JUMPDEST SWAP1 POP PUSH1 0x0 PUSH3 0xB10 DUP5 DUP3 DUP6 ADD PUSH3 0xAC2 JUMP JUMPDEST PUSH1 0x0 DUP4 ADD MSTORE POP PUSH1 0x20 PUSH3 0xB26 DUP5 DUP3 DUP6 ADD PUSH3 0xAC2 JUMP JUMPDEST PUSH1 0x20 DUP4 ADD MSTORE POP PUSH1 0x40 PUSH3 0xB3C DUP5 DUP3 DUP6 ADD PUSH3 0x8F0 JUMP JUMPDEST PUSH1 0x40 DUP4 ADD MSTORE POP SWAP3 SWAP2 POP POP JUMP JUMPDEST PUSH1 0x0 DUP1 PUSH1 0x0 DUP1 PUSH1 0xC0 DUP6 DUP8 SUB SLT ISZERO PUSH3 0xB65 JUMPI PUSH3 0xB64 PUSH3 0x739 JUMP JUMPDEST JUMPDEST PUSH1 0x0 DUP6 ADD MLOAD PUSH8 0xFFFFFFFFFFFFFFFF DUP2 GT ISZERO PUSH3 0xB86 JUMPI PUSH3 0xB85 PUSH3 0x73E JUMP JUMPDEST JUMPDEST PUSH3 0xB94 DUP8 DUP3 DUP9 ADD PUSH3 0x88F JUMP JUMPDEST SWAP5 POP POP PUSH1 0x20 DUP6 ADD MLOAD PUSH8 0xFFFFFFFFFFFFFFFF DUP2 GT ISZERO PUSH3 0xBB8 JUMPI PUSH3 0xBB7 PUSH3 0x73E JUMP JUMPDEST JUMPDEST PUSH3 0xBC6 DUP8 DUP3 DUP9 ADD PUSH3 0x88F JUMP JUMPDEST SWAP4 POP POP PUSH1 0x40 DUP6 ADD MLOAD PUSH8 0xFFFFFFFFFFFFFFFF DUP2 GT ISZERO PUSH3 0xBEA JUMPI PUSH3 0xBE9 PUSH3 0x73E JUMP JUMPDEST JUMPDEST PUSH3 0xBF8 DUP8 DUP3 DUP9 ADD PUSH3 0x98E JUMP JUMPDEST SWAP3 POP POP PUSH1 0x60 PUSH3 0xC0B DUP8 DUP3 DUP9 ADD PUSH3 0xAD9 JUMP JUMPDEST SWAP2 POP POP SWAP3 SWAP6 SWAP2 SWAP5 POP SWAP3 POP JUMP JUMPDEST PUSH1 0x0 DUP2 MLOAD SWAP1 POP SWAP2 SWAP1 POP JUMP JUMPDEST PUSH32 0x4E487B7100000000000000000000000000000000000000000000000000000000 PUSH1 0x0 MSTORE PUSH1 0x22 PUSH1 0x4 MSTORE PUSH1 0x24 PUSH1 0x0 REVERT JUMPDEST PUSH1 0x0 PUSH1 0x2 DUP3 DIV SWAP1 POP PUSH1 0x1 DUP3 AND DUP1 PUSH3 0xC6A JUMPI PUSH1 0x7F DUP3 AND SWAP2 POP JUMPDEST PUSH1 0x20 DUP3 LT DUP2 SUB PUSH3 0xC80 JUMPI PUSH3 0xC7F PUSH3 0xC22 JUMP JUMPDEST JUMPDEST POP SWAP2 SWAP1 POP JUMP JUMPDEST PUSH1 0x0 DUP2 SWAP1 POP DUP2 PUSH1 0x0 MSTORE PUSH1 0x20 PUSH1 0x0 KECCAK256 SWAP1 POP SWAP2 SWAP1 POP JUMP JUMPDEST PUSH1 0x0 PUSH1 0x20 PUSH1 0x1F DUP4 ADD DIV SWAP1 POP SWAP2 SWAP1 POP JUMP JUMPDEST PUSH1 0x0 DUP3 DUP3 SHL SWAP1 POP SWAP3 SWAP2 POP POP JUMP JUMPDEST PUSH1 0x0 PUSH1 0x8 DUP4 MUL PUSH3 0xCEA PUSH32 0xFFFFFFFFFFFFFFFFFFFFFFFFFFFFFFFFFFFFFFFFFFFFFFFFFFFFFFFFFFFFFFFF DUP3 PUSH3 0xCAB JUMP JUMPDEST PUSH3 0xCF6 DUP7 DUP4 PUSH3 0xCAB JUMP JUMPDEST SWAP6 POP DUP1 NOT DUP5 AND SWAP4 POP DUP1 DUP7 AND DUP5 OR SWAP3 POP POP POP SWAP4 SWAP3 POP POP POP JUMP JUMPDEST PUSH1 0x0 DUP2 SWAP1 POP SWAP2 SWAP1 POP JUMP JUMPDEST PUSH1 0x0 PUSH3 0xD39 PUSH3 0xD33 PUSH3 0xD2D DUP5 PUSH3 0x8CC JUMP JUMPDEST PUSH3 0xD0E JUMP JUMPDEST PUSH3 0x8CC JUMP JUMPDEST SWAP1 POP SWAP2 SWAP1 POP JUMP JUMPDEST PUSH1 0x0 DUP2 SWAP1 POP SWAP2 SWAP1 POP JUMP JUMPDEST PUSH3 0xD55 DUP4 PUSH3 0xD18 JUMP JUMPDEST PUSH3 0xD6D PUSH3 0xD64 DUP3 PUSH3 0xD40 JUMP JUMPDEST DUP5 DUP5 SLOAD PUSH3 0xCB8 JUMP JUMPDEST DUP3 SSTORE POP POP POP POP JUMP JUMPDEST PUSH1 0x0 SWAP1 JUMP JUMPDEST PUSH3 0xD84 PUSH3 0xD75 JUMP JUMPDEST PUSH3 0xD91 DUP2 DUP5 DUP5 PUSH3 0xD4A JUMP JUMPDEST POP POP POP JUMP JUMPDEST JUMPDEST DUP2 DUP2 LT ISZERO PUSH3 0xDB9 JUMPI PUSH3 0xDAD PUSH1 0x0 DUP3 PUSH3 0xD7A JUMP JUMPDEST PUSH1 0x1 DUP2 ADD SWAP1 POP PUSH3 0xD97 JUMP JUMPDEST POP POP JUMP JUMPDEST PUSH1 0x1F DUP3 GT ISZERO PUSH3 0xE08 JUMPI PUSH3 0xDD2 DUP2 PUSH3 0xC86 JUMP JUMPDEST PUSH3 0xDDD DUP5 PUSH3 0xC9B JUMP JUMPDEST DUP2 ADD PUSH1 0x20 DUP6 LT ISZERO PUSH3 0xDED JUMPI DUP2 SWAP1 POP JUMPDEST PUSH3 0xE05 PUSH3 0xDFC DUP6 PUSH3 0xC9B JUMP JUMPDEST DUP4 ADD DUP3 PUSH3 0xD96 JUMP JUMPDEST POP POP JUMPDEST POP POP POP JUMP JUMPDEST PUSH1 0x0 DUP3 DUP3 SHR SWAP1 POP SWAP3 SWAP2 POP POP JUMP JUMPDEST PUSH1 0x0 PUSH3 0xE2D PUSH1 0x0 NOT DUP5 PUSH1 0x8 MUL PUSH3 0xE0D JUMP JUMPDEST NOT DUP1 DUP4 AND SWAP2 POP POP SWAP3 SWAP2 POP POP JUMP JUMPDEST PUSH1 0x0 PUSH3 0xE48 DUP4 DUP4 PUSH3 0xE1A JUMP JUMPDEST SWAP2 POP DUP3 PUSH1 0x2 MUL DUP3 OR SWAP1 POP SWAP3 SWAP2 POP POP JUMP JUMPDEST PUSH3 0xE63 DUP3 PUSH3 0xC17 JUMP JUMPDEST PUSH8 0xFFFFFFFFFFFFFFFF DUP2 GT ISZERO PUSH3 0xE7F JUMPI PUSH3 0xE7E PUSH3 0x75E JUMP JUMPDEST JUMPDEST PUSH3 0xE8B DUP3 SLOAD PUSH3 0xC51 JUMP JUMPDEST PUSH3 0xE98 DUP3 DUP3 DUP6 PUSH3 0xDBD JUMP JUMPDEST PUSH1 0x0 PUSH1 0x20 SWAP1 POP PUSH1 0x1F DUP4 GT PUSH1 0x1 DUP2 EQ PUSH3 0xED0 JUMPI PUSH1 0x0 DUP5 ISZERO PUSH3 0xEBB JUMPI DUP3 DUP8 ADD MLOAD SWAP1 POP JUMPDEST PUSH3 0xEC7 DUP6 DUP3 PUSH3 0xE3A JUMP JUMPDEST DUP7 SSTORE POP PUSH3 0xF37 JUMP JUMPDEST PUSH1 0x1F NOT DUP5 AND PUSH3 0xEE0 DUP7 PUSH3 0xC86 JUMP JUMPDEST PUSH1 0x0 JUMPDEST DUP3 DUP2 LT ISZERO PUSH3 0xF0A JUMPI DUP5 DUP10 ADD MLOAD DUP3 SSTORE PUSH1 0x1 DUP3 ADD SWAP2 POP PUSH1 0x20 DUP6 ADD SWAP5 POP PUSH1 0x20 DUP2 ADD SWAP1 POP PUSH3 0xEE3 JUMP JUMPDEST DUP7 DUP4 LT ISZERO PUSH3 0xF2A JUMPI DUP5 DUP10 ADD MLOAD PUSH3 0xF26 PUSH1 0x1F DUP10 AND DUP3 PUSH3 0xE1A JUMP JUMPDEST DUP4 SSTORE POP JUMPDEST PUSH1 0x1 PUSH1 0x2 DUP9 MUL ADD DUP9 SSTORE POP POP POP JUMPDEST POP POP POP POP POP POP JUMP JUMPDEST PUSH1 0x0 DUP3 DUP3 MSTORE PUSH1 0x20 DUP3 ADD SWAP1 POP SWAP3 SWAP2 POP POP JUMP JUMPDEST PUSH32 0x4576656E74206F7267616E697A65722063616E277420626520746865207A6572 PUSH1 0x0 DUP3 ADD MSTORE PUSH32 0x6F20616464726573730000000000000000000000000000000000000000000000 PUSH1 0x20 DUP3 ADD MSTORE POP JUMP JUMPDEST PUSH1 0x0 PUSH3 0xFAE PUSH1 0x29 DUP4 PUSH3 0xF3F JUMP JUMPDEST SWAP2 POP PUSH3 0xFBB DUP3 PUSH3 0xF50 JUMP JUMPDEST PUSH1 0x40 DUP3 ADD SWAP1 POP SWAP2 SWAP1 POP JUMP JUMPDEST PUSH1 0x0 PUSH1 0x20 DUP3 ADD SWAP1 POP DUP2 DUP2 SUB PUSH1 0x0 DUP4 ADD MSTORE PUSH3 0xFE1 DUP2 PUSH3 0xF9F JUMP JUMPDEST SWAP1 POP SWAP2 SWAP1 POP JUMP JUMPDEST PUSH32 0x4D61726B6574706C61636520636F6E74726163742063616E2774206265207468 PUSH1 0x0 DUP3 ADD MSTORE PUSH32 0x65207A65726F2061646472657373000000000000000000000000000000000000 PUSH1 0x20 DUP3 ADD MSTORE POP JUMP JUMPDEST PUSH1 0x0 PUSH3 0x1046 PUSH1 0x2E DUP4 PUSH3 0xF3F JUMP JUMPDEST SWAP2 POP PUSH3 0x1053 DUP3 PUSH3 0xFE8 JUMP JUMPDEST PUSH1 0x40 DUP3 ADD SWAP1 POP SWAP2 SWAP1 POP JUMP JUMPDEST PUSH1 0x0 PUSH1 0x20 DUP3 ADD SWAP1 POP DUP2 DUP2 SUB PUSH1 0x0 DUP4 ADD MSTORE PUSH3 0x1079 DUP2 PUSH3 0x1037 JUMP JUMPDEST SWAP1 POP SWAP2 SWAP1 POP JUMP JUMPDEST PUSH32 0x4576656E7420656E6420646174652063616E277420626520696E207468652070 PUSH1 0x0 DUP3 ADD MSTORE PUSH32 0x6173740000000000000000000000000000000000000000000000000000000000 PUSH1 0x20 DUP3 ADD MSTORE POP JUMP JUMPDEST PUSH1 0x0 PUSH3 0x10DE PUSH1 0x23 DUP4 PUSH3 0xF3F JUMP JUMPDEST SWAP2 POP PUSH3 0x10EB DUP3 PUSH3 0x1080 JUMP JUMPDEST PUSH1 0x40 DUP3 ADD SWAP1 POP SWAP2 SWAP1 POP JUMP JUMPDEST PUSH1 0x0 PUSH1 0x20 DUP3 ADD SWAP1 POP DUP2 DUP2 SUB PUSH1 0x0 DUP4 ADD MSTORE PUSH3 0x1111 DUP2 PUSH3 0x10CF JUMP JUMPDEST SWAP1 POP SWAP2 SWAP1 POP JUMP JUMPDEST PUSH32 0x5469636B6574207469657220636C6F736520646174652063616E277420626520 PUSH1 0x0 DUP3 ADD MSTORE PUSH32 0x696E207468652070617374000000000000000000000000000000000000000000 PUSH1 0x20 DUP3 ADD MSTORE POP JUMP JUMPDEST PUSH1 0x0 PUSH3 0x1176 PUSH1 0x2B DUP4 PUSH3 0xF3F JUMP JUMPDEST SWAP2 POP PUSH3 0x1183 DUP3 PUSH3 0x1118 JUMP JUMPDEST PUSH1 0x40 DUP3 ADD SWAP1 POP SWAP2 SWAP1 POP JUMP JUMPDEST PUSH1 0x0 PUSH1 0x20 DUP3 ADD SWAP1 POP DUP2 DUP2 SUB PUSH1 0x0 DUP4 ADD MSTORE PUSH3 0x11A9 DUP2 PUSH3 0x1167 JUMP JUMPDEST SWAP1 POP SWAP2 SWAP1 POP JUMP JUMPDEST PUSH32 0x496E76616C6964206C69766520616E6420636C6F736520646174652072656C61 PUSH1 0x0 DUP3 ADD MSTORE PUSH32 0x74696F6E736869702E0000000000000000000000000000000000000000000000 PUSH1 0x20 DUP3 ADD MSTORE POP JUMP JUMPDEST PUSH1 0x0 PUSH3 0x120E PUSH1 0x29 DUP4 PUSH3 0xF3F JUMP JUMPDEST SWAP2 POP PUSH3 0x121B DUP3 PUSH3 0x11B0 JUMP JUMPDEST PUSH1 0x40 DUP3 ADD SWAP1 POP SWAP2 SWAP1 POP JUMP JUMPDEST PUSH1 0x0 PUSH1 0x20 DUP3 ADD SWAP1 POP DUP2 DUP2 SUB PUSH1 0x0 DUP4 ADD MSTORE PUSH3 0x1241 DUP2 PUSH3 0x11FF JUMP JUMPDEST SWAP1 POP SWAP2 SWAP1 POP JUMP JUMPDEST PUSH32 0x537570706C79206D7573742062652067726561746572207468616E207A65726F PUSH1 0x0 DUP3 ADD MSTORE POP JUMP JUMPDEST PUSH1 0x0 PUSH3 0x1280 PUSH1 0x20 DUP4 PUSH3 0xF3F JUMP JUMPDEST SWAP2 POP PUSH3 0x128D DUP3 PUSH3 0x1248 JUMP JUMPDEST PUSH1 0x20 DUP3 ADD SWAP1 POP SWAP2 SWAP1 POP JUMP JUMPDEST PUSH1 0x0 PUSH1 0x20 DUP3 ADD SWAP1 POP DUP2 DUP2 SUB PUSH1 0x0 DUP4 ADD MSTORE PUSH3 0x12B3 DUP2 PUSH3 0x1271 JUMP JUMPDEST SWAP1 POP SWAP2 SWAP1 POP JUMP JUMPDEST PUSH32 0x546F6B656E20555249206D757374206E6F7420626520656D7074790000000000 PUSH1 0x0 DUP3 ADD MSTORE POP JUMP JUMPDEST PUSH1 0x0 PUSH3 0x12F2 PUSH1 0x1B DUP4 PUSH3 0xF3F JUMP JUMPDEST SWAP2 POP PUSH3 0x12FF DUP3 PUSH3 0x12BA JUMP JUMPDEST PUSH1 0x20 DUP3 ADD SWAP1 POP SWAP2 SWAP1 POP JUMP JUMPDEST PUSH1 0x0 PUSH1 0x20 DUP3 ADD SWAP1 POP DUP2 DUP2 SUB PUSH1 0x0 DUP4 ADD MSTORE PUSH3 0x1325 DUP2 PUSH3 0x12E3 JUMP JUMPDEST SWAP1 POP SWAP2 SWAP1 POP JUMP JUMPDEST PUSH32 0x455243323938313A20726F79616C7479206665652077696C6C20657863656564 PUSH1 0x0 DUP3 ADD MSTORE PUSH32 0x2073616C65507269636500000000000000000000000000000000000000000000 PUSH1 0x20 DUP3 ADD MSTORE POP JUMP JUMPDEST PUSH1 0x0 PUSH3 0x138A PUSH1 0x2A DUP4 PUSH3 0xF3F JUMP JUMPDEST SWAP2 POP PUSH3 0x1397 DUP3 PUSH3 0x132C JUMP JUMPDEST PUSH1 0x40 DUP3 ADD SWAP1 POP SWAP2 SWAP1 POP JUMP JUMPDEST PUSH1 0x0 PUSH1 0x20 DUP3 ADD SWAP1 POP DUP2 DUP2 SUB PUSH1 0x0 DUP4 ADD MSTORE PUSH3 0x13BD DUP2 PUSH3 0x137B JUMP JUMPDEST SWAP1 POP SWAP2 SWAP1 POP JUMP JUMPDEST PUSH32 0x455243323938313A20696E76616C696420726563656976657200000000000000 PUSH1 0x0 DUP3 ADD MSTORE POP JUMP JUMPDEST PUSH1 0x0 PUSH3 0x13FC PUSH1 0x19 DUP4 PUSH3 0xF3F JUMP JUMPDEST SWAP2 POP PUSH3 0x1409 DUP3 PUSH3 0x13C4 JUMP JUMPDEST PUSH1 0x20 DUP3 ADD SWAP1 POP SWAP2 SWAP1 POP JUMP JUMPDEST PUSH1 0x0 PUSH1 0x20 DUP3 ADD SWAP1 POP DUP2 DUP2 SUB PUSH1 0x0 DUP4 ADD MSTORE PUSH3 0x142F DUP2 PUSH3 0x13ED JUMP JUMPDEST SWAP1 POP SWAP2 SWAP1 POP JUMP JUMPDEST PUSH2 0x4FDF DUP1 PUSH3 0x1446 PUSH1 0x0 CODECOPY PUSH1 0x0 RETURN INVALID PUSH1 0x80 PUSH1 0x40 MSTORE CALLVALUE DUP1 ISZERO PUSH2 0x10 JUMPI PUSH1 0x0 DUP1 REVERT JUMPDEST POP PUSH1 0x4 CALLDATASIZE LT PUSH2 0x27F JUMPI PUSH1 0x0 CALLDATALOAD PUSH1 0xE0 SHR DUP1 PUSH4 0x70A08231 GT PUSH2 0x15C JUMPI DUP1 PUSH4 0xC87B56DD GT PUSH2 0xCE JUMPI DUP1 PUSH4 0xE66D772C GT PUSH2 0x87 JUMPI DUP1 PUSH4 0xE66D772C EQ PUSH2 0x773 JUMPI DUP1 PUSH4 0xE985E9C5 EQ PUSH2 0x791 JUMPI DUP1 PUSH4 0xEADC7E42 EQ PUSH2 0x7C1 JUMPI DUP1 PUSH4 0xEE0FC121 EQ PUSH2 0x7DD JUMPI DUP1 PUSH4 0xF7D506A5 EQ PUSH2 0x7FB JUMPI DUP1 PUSH4 0xFCDC1206 EQ PUSH2 0x819 JUMPI PUSH2 0x27F JUMP JUMPDEST DUP1 PUSH4 0xC87B56DD EQ PUSH2 0x6B3 JUMPI DUP1 PUSH4 0xCC0DE97B EQ PUSH2 0x6E3 JUMPI DUP1 PUSH4 0xD1BB5CF1 EQ PUSH2 0x701 JUMPI DUP1 PUSH4 0xD547741F EQ PUSH2 0x71F JUMPI DUP1 PUSH4 0xDA81980B EQ PUSH2 0x73B JUMPI DUP1 PUSH4 0xE049B203 EQ PUSH2 0x757 JUMPI PUSH2 0x27F JUMP JUMPDEST DUP1 PUSH4 0x95D89B41 GT PUSH2 0x120 JUMPI DUP1 PUSH4 0x95D89B41 EQ PUSH2 0x603 JUMPI DUP1 PUSH4 0x9EAB643F EQ PUSH2 0x621 JUMPI DUP1 PUSH4 0xA217FDDF EQ PUSH2 0x63F JUMPI DUP1 PUSH4 0xA22CB465 EQ PUSH2 0x65D JUMPI DUP1 PUSH4 0xB4CE37D2 EQ PUSH2 0x679 JUMPI DUP1 PUSH4 0xB88D4FDE EQ PUSH2 0x697 JUMPI PUSH2 0x27F JUMP JUMPDEST DUP1 PUSH4 0x70A08231 EQ PUSH2 0x55D JUMPI DUP1 PUSH4 0x7514D7CB EQ PUSH2 0x58D JUMPI DUP1 PUSH4 0x8F60B8E9 EQ PUSH2 0x5AB JUMPI DUP1 PUSH4 0x8F810FEC EQ PUSH2 0x5B5 JUMPI DUP1 PUSH4 0x91D14854 EQ PUSH2 0x5D3 JUMPI PUSH2 0x27F JUMP JUMPDEST DUP1 PUSH4 0x2890E0D7 GT PUSH2 0x1F5 JUMPI DUP1 PUSH4 0x36568ABE GT PUSH2 0x1B9 JUMPI DUP1 PUSH4 0x36568ABE EQ PUSH2 0x489 JUMPI DUP1 PUSH4 0x42842E0E EQ PUSH2 0x4A5 JUMPI DUP1 PUSH4 0x48D79B6D EQ PUSH2 0x4C1 JUMPI DUP1 PUSH4 0x54BA0F27 EQ PUSH2 0x4DF JUMPI DUP1 PUSH4 0x5C975ABB EQ PUSH2 0x50F JUMPI DUP1 PUSH4 0x6352211E EQ PUSH2 0x52D JUMPI PUSH2 0x27F JUMP JUMPDEST DUP1 PUSH4 0x2890E0D7 EQ PUSH2 0x3E6 JUMPI DUP1 PUSH4 0x298505DA EQ PUSH2 0x402 JUMPI DUP1 PUSH4 0x2A55205A EQ PUSH2 0x432 JUMPI DUP1 PUSH4 0x2F2FF15D EQ PUSH2 0x463 JUMPI DUP1 PUSH4 0x34A8821C EQ PUSH2 0x47F JUMPI PUSH2 0x27F JUMP JUMPDEST DUP1 PUSH4 0x1102610E GT PUSH2 0x247 JUMPI DUP1 PUSH4 0x1102610E EQ PUSH2 0x33C JUMPI DUP1 PUSH4 0x11F2F757 EQ PUSH2 0x358 JUMPI DUP1 PUSH4 0x23B872DD EQ PUSH2 0x362 JUMPI DUP1 PUSH4 0x23F663D5 EQ PUSH2 0x37E JUMPI DUP1 PUSH4 0x241752CC EQ PUSH2 0x39A JUMPI DUP1 PUSH4 0x248A9CA3 EQ PUSH2 0x3B6 JUMPI PUSH2 0x27F JUMP JUMPDEST DUP1 PUSH4 0x1FFC9A7 EQ PUSH2 0x284 JUMPI DUP1 PUSH4 0x47FC9AA EQ PUSH2 0x2B4 JUMPI DUP1 PUSH4 0x6FDDE03 EQ PUSH2 0x2D2 JUMPI DUP1 PUSH4 0x81812FC EQ PUSH2 0x2F0 JUMPI DUP1 PUSH4 0x95EA7B3 EQ PUSH2 0x320 JUMPI JUMPDEST PUSH1 0x0 DUP1 REVERT JUMPDEST PUSH2 0x29E PUSH1 0x4 DUP1 CALLDATASIZE SUB DUP2 ADD SWAP1 PUSH2 0x299 SWAP2 SWAP1 PUSH2 0x3654 JUMP JUMPDEST PUSH2 0x823 JUMP JUMPDEST PUSH1 0x40 MLOAD PUSH2 0x2AB SWAP2 SWAP1 PUSH2 0x369C JUMP JUMPDEST PUSH1 0x40 MLOAD DUP1 SWAP2 SUB SWAP1 RETURN JUMPDEST PUSH2 0x2BC PUSH2 0x835 JUMP JUMPDEST PUSH1 0x40 MLOAD PUSH2 0x2C9 SWAP2 SWAP1 PUSH2 0x36D0 JUMP JUMPDEST PUSH1 0x40 MLOAD DUP1 SWAP2 SUB SWAP1 RETURN JUMPDEST PUSH2 0x2DA PUSH2 0x83B JUMP JUMPDEST PUSH1 0x40 MLOAD PUSH2 0x2E7 SWAP2 SWAP1 PUSH2 0x377B JUMP JUMPDEST PUSH1 0x40 MLOAD DUP1 SWAP2 SUB SWAP1 RETURN JUMPDEST PUSH2 0x30A PUSH1 0x4 DUP1 CALLDATASIZE SUB DUP2 ADD SWAP1 PUSH2 0x305 SWAP2 SWAP1 PUSH2 0x37C9 JUMP JUMPDEST PUSH2 0x8CD JUMP JUMPDEST PUSH1 0x40 MLOAD PUSH2 0x317 SWAP2 SWAP1 PUSH2 0x3837 JUMP JUMPDEST PUSH1 0x40 MLOAD DUP1 SWAP2 SUB SWAP1 RETURN JUMPDEST PUSH2 0x33A PUSH1 0x4 DUP1 CALLDATASIZE SUB DUP2 ADD SWAP1 PUSH2 0x335 SWAP2 SWAP1 PUSH2 0x387E JUMP JUMPDEST PUSH2 0x913 JUMP JUMPDEST STOP JUMPDEST PUSH2 0x356 PUSH1 0x4 DUP1 CALLDATASIZE SUB DUP2 ADD SWAP1 PUSH2 0x351 SWAP2 SWAP1 PUSH2 0x38BE JUMP JUMPDEST PUSH2 0xA2A JUMP JUMPDEST STOP JUMPDEST PUSH2 0x360 PUSH2 0xA99 JUMP JUMPDEST STOP JUMPDEST PUSH2 0x37C PUSH1 0x4 DUP1 CALLDATASIZE SUB DUP2 ADD SWAP1 PUSH2 0x377 SWAP2 SWAP1 PUSH2 0x38EB JUMP JUMPDEST PUSH2 0xACD JUMP JUMPDEST STOP JUMPDEST PUSH2 0x398 PUSH1 0x4 DUP1 CALLDATASIZE SUB DUP2 ADD SWAP1 PUSH2 0x393 SWAP2 SWAP1 PUSH2 0x3977 JUMP JUMPDEST PUSH2 0xB2D JUMP JUMPDEST STOP JUMPDEST PUSH2 0x3B4 PUSH1 0x4 DUP1 CALLDATASIZE SUB DUP2 ADD SWAP1 PUSH2 0x3AF SWAP2 SWAP1 PUSH2 0x38BE JUMP JUMPDEST PUSH2 0xB4B JUMP JUMPDEST STOP JUMPDEST PUSH2 0x3D0 PUSH1 0x4 DUP1 CALLDATASIZE SUB DUP2 ADD SWAP1 PUSH2 0x3CB SWAP2 SWAP1 PUSH2 0x39DA JUMP JUMPDEST PUSH2 0xBBA JUMP JUMPDEST PUSH1 0x40 MLOAD PUSH2 0x3DD SWAP2 SWAP1 PUSH2 0x3A16 JUMP JUMPDEST PUSH1 0x40 MLOAD DUP1 SWAP2 SUB SWAP1 RETURN JUMPDEST PUSH2 0x400 PUSH1 0x4 DUP1 CALLDATASIZE SUB DUP2 ADD SWAP1 PUSH2 0x3FB SWAP2 SWAP1 PUSH2 0x37C9 JUMP JUMPDEST PUSH2 0xBDA JUMP JUMPDEST STOP JUMPDEST PUSH2 0x41C PUSH1 0x4 DUP1 CALLDATASIZE SUB DUP2 ADD SWAP1 PUSH2 0x417 SWAP2 SWAP1 PUSH2 0x37C9 JUMP JUMPDEST PUSH2 0xBE6 JUMP JUMPDEST PUSH1 0x40 MLOAD PUSH2 0x429 SWAP2 SWAP1 PUSH2 0x36D0 JUMP JUMPDEST PUSH1 0x40 MLOAD DUP1 SWAP2 SUB SWAP1 RETURN JUMPDEST PUSH2 0x44C PUSH1 0x4 DUP1 CALLDATASIZE SUB DUP2 ADD SWAP1 PUSH2 0x447 SWAP2 SWAP1 PUSH2 0x3A31 JUMP JUMPDEST PUSH2 0xC36 JUMP JUMPDEST PUSH1 0x40 MLOAD PUSH2 0x45A SWAP3 SWAP2 SWAP1 PUSH2 0x3A71 JUMP JUMPDEST PUSH1 0x40 MLOAD DUP1 SWAP2 SUB SWAP1 RETURN JUMPDEST PUSH2 0x47D PUSH1 0x4 DUP1 CALLDATASIZE SUB DUP2 ADD SWAP1 PUSH2 0x478 SWAP2 SWAP1 PUSH2 0x3A9A JUMP JUMPDEST PUSH2 0xE20 JUMP JUMPDEST STOP JUMPDEST PUSH2 0x487 PUSH2 0xE41 JUMP JUMPDEST STOP JUMPDEST PUSH2 0x4A3 PUSH1 0x4 DUP1 CALLDATASIZE SUB DUP2 ADD SWAP1 PUSH2 0x49E SWAP2 SWAP1 PUSH2 0x3A9A JUMP JUMPDEST PUSH2 0xE76 JUMP JUMPDEST STOP JUMPDEST PUSH2 0x4BF PUSH1 0x4 DUP1 CALLDATASIZE SUB DUP2 ADD SWAP1 PUSH2 0x4BA SWAP2 SWAP1 PUSH2 0x38EB JUMP JUMPDEST PUSH2 0xEF9 JUMP JUMPDEST STOP JUMPDEST PUSH2 0x4C9 PUSH2 0xF19 JUMP JUMPDEST PUSH1 0x40 MLOAD PUSH2 0x4D6 SWAP2 SWAP1 PUSH2 0x36D0 JUMP JUMPDEST PUSH1 0x40 MLOAD DUP1 SWAP2 SUB SWAP1 RETURN JUMPDEST PUSH2 0x4F9 PUSH1 0x4 DUP1 CALLDATASIZE SUB DUP2 ADD SWAP1 PUSH2 0x4F4 SWAP2 SWAP1 PUSH2 0x38BE JUMP JUMPDEST PUSH2 0xF1F JUMP JUMPDEST PUSH1 0x40 MLOAD PUSH2 0x506 SWAP2 SWAP1 PUSH2 0x36D0 JUMP JUMPDEST PUSH1 0x40 MLOAD DUP1 SWAP2 SUB SWAP1 RETURN JUMPDEST PUSH2 0x517 PUSH2 0x11B5 JUMP JUMPDEST PUSH1 0x40 MLOAD PUSH2 0x524 SWAP2 SWAP1 PUSH2 0x369C JUMP JUMPDEST PUSH1 0x40 MLOAD DUP1 SWAP2 SUB SWAP1 RETURN JUMPDEST PUSH2 0x547 PUSH1 0x4 DUP1 CALLDATASIZE SUB DUP2 ADD SWAP1 PUSH2 0x542 SWAP2 SWAP1 PUSH2 0x37C9 JUMP JUMPDEST PUSH2 0x11CC JUMP JUMPDEST PUSH1 0x40 MLOAD PUSH2 0x554 SWAP2 SWAP1 PUSH2 0x3837 JUMP JUMPDEST PUSH1 0x40 MLOAD DUP1 SWAP2 SUB SWAP1 RETURN JUMPDEST PUSH2 0x577 PUSH1 0x4 DUP1 CALLDATASIZE SUB DUP2 ADD SWAP1 PUSH2 0x572 SWAP2 SWAP1 PUSH2 0x38BE JUMP JUMPDEST PUSH2 0x1252 JUMP JUMPDEST PUSH1 0x40 MLOAD PUSH2 0x584 SWAP2 SWAP1 PUSH2 0x36D0 JUMP JUMPDEST PUSH1 0x40 MLOAD DUP1 SWAP2 SUB SWAP1 RETURN JUMPDEST PUSH2 0x595 PUSH2 0x1309 JUMP JUMPDEST PUSH1 0x40 MLOAD PUSH2 0x5A2 SWAP2 SWAP1 PUSH2 0x3837 JUMP JUMPDEST PUSH1 0x40 MLOAD DUP1 SWAP2 SUB SWAP1 RETURN JUMPDEST PUSH2 0x5B3 PUSH2 0x132F JUMP JUMPDEST STOP JUMPDEST PUSH2 0x5BD PUSH2 0x147E JUMP JUMPDEST PUSH1 0x40 MLOAD PUSH2 0x5CA SWAP2 SWAP1 PUSH2 0x36D0 JUMP JUMPDEST PUSH1 0x40 MLOAD DUP1 SWAP2 SUB SWAP1 RETURN JUMPDEST PUSH2 0x5ED PUSH1 0x4 DUP1 CALLDATASIZE SUB DUP2 ADD SWAP1 PUSH2 0x5E8 SWAP2 SWAP1 PUSH2 0x3A9A JUMP JUMPDEST PUSH2 0x1484 JUMP JUMPDEST PUSH1 0x40 MLOAD PUSH2 0x5FA SWAP2 SWAP1 PUSH2 0x369C JUMP JUMPDEST PUSH1 0x40 MLOAD DUP1 SWAP2 SUB SWAP1 RETURN JUMPDEST PUSH2 0x60B PUSH2 0x14EF JUMP JUMPDEST PUSH1 0x40 MLOAD PUSH2 0x618 SWAP2 SWAP1 PUSH2 0x377B JUMP JUMPDEST PUSH1 0x40 MLOAD DUP1 SWAP2 SUB SWAP1 RETURN JUMPDEST PUSH2 0x629 PUSH2 0x1581 JUMP JUMPDEST PUSH1 0x40 MLOAD PUSH2 0x636 SWAP2 SWAP1 PUSH2 0x36D0 JUMP JUMPDEST PUSH1 0x40 MLOAD DUP1 SWAP2 SUB SWAP1 RETURN JUMPDEST PUSH2 0x647 PUSH2 0x1587 JUMP JUMPDEST PUSH1 0x40 MLOAD PUSH2 0x654 SWAP2 SWAP1 PUSH2 0x3A16 JUMP JUMPDEST PUSH1 0x40 MLOAD DUP1 SWAP2 SUB SWAP1 RETURN JUMPDEST PUSH2 0x677 PUSH1 0x4 DUP1 CALLDATASIZE SUB DUP2 ADD SWAP1 PUSH2 0x672 SWAP2 SWAP1 PUSH2 0x3B06 JUMP JUMPDEST PUSH2 0x158E JUMP JUMPDEST STOP JUMPDEST PUSH2 0x681 PUSH2 0x15A4 JUMP JUMPDEST PUSH1 0x40 MLOAD PUSH2 0x68E SWAP2 SWAP1 PUSH2 0x377B JUMP JUMPDEST PUSH1 0x40 MLOAD DUP1 SWAP2 SUB SWAP1 RETURN JUMPDEST PUSH2 0x6B1 PUSH1 0x4 DUP1 CALLDATASIZE SUB DUP2 ADD SWAP1 PUSH2 0x6AC SWAP2 SWAP1 PUSH2 0x3C7B JUMP JUMPDEST PUSH2 0x1632 JUMP JUMPDEST STOP JUMPDEST PUSH2 0x6CD PUSH1 0x4 DUP1 CALLDATASIZE SUB DUP2 ADD SWAP1 PUSH2 0x6C8 SWAP2 SWAP1 PUSH2 0x37C9 JUMP JUMPDEST PUSH2 0x1694 JUMP JUMPDEST PUSH1 0x40 MLOAD PUSH2 0x6DA SWAP2 SWAP1 PUSH2 0x377B JUMP JUMPDEST PUSH1 0x40 MLOAD DUP1 SWAP2 SUB SWAP1 RETURN JUMPDEST PUSH2 0x6EB PUSH2 0x17A6 JUMP JUMPDEST PUSH1 0x40 MLOAD PUSH2 0x6F8 SWAP2 SWAP1 PUSH2 0x3D0D JUMP JUMPDEST PUSH1 0x40 MLOAD DUP1 SWAP2 SUB SWAP1 RETURN JUMPDEST PUSH2 0x709 PUSH2 0x17B9 JUMP JUMPDEST PUSH1 0x40 MLOAD PUSH2 0x716 SWAP2 SWAP1 PUSH2 0x3837 JUMP JUMPDEST PUSH1 0x40 MLOAD DUP1 SWAP2 SUB SWAP1 RETURN JUMPDEST PUSH2 0x739 PUSH1 0x4 DUP1 CALLDATASIZE SUB DUP2 ADD SWAP1 PUSH2 0x734 SWAP2 SWAP1 PUSH2 0x3A9A JUMP JUMPDEST PUSH2 0x17DF JUMP JUMPDEST STOP JUMPDEST PUSH2 0x755 PUSH1 0x4 DUP1 CALLDATASIZE SUB DUP2 ADD SWAP1 PUSH2 0x750 SWAP2 SWAP1 PUSH2 0x37C9 JUMP JUMPDEST PUSH2 0x1800 JUMP JUMPDEST STOP JUMPDEST PUSH2 0x771 PUSH1 0x4 DUP1 CALLDATASIZE SUB DUP2 ADD SWAP1 PUSH2 0x76C SWAP2 SWAP1 PUSH2 0x37C9 JUMP JUMPDEST PUSH2 0x1835 JUMP JUMPDEST STOP JUMPDEST PUSH2 0x77B PUSH2 0x19F8 JUMP JUMPDEST PUSH1 0x40 MLOAD PUSH2 0x788 SWAP2 SWAP1 PUSH2 0x36D0 JUMP JUMPDEST PUSH1 0x40 MLOAD DUP1 SWAP2 SUB SWAP1 RETURN JUMPDEST PUSH2 0x7AB PUSH1 0x4 DUP1 CALLDATASIZE SUB DUP2 ADD SWAP1 PUSH2 0x7A6 SWAP2 SWAP1 PUSH2 0x3D28 JUMP JUMPDEST PUSH2 0x1A16 JUMP JUMPDEST PUSH1 0x40 MLOAD PUSH2 0x7B8 SWAP2 SWAP1 PUSH2 0x369C JUMP JUMPDEST PUSH1 0x40 MLOAD DUP1 SWAP2 SUB SWAP1 RETURN JUMPDEST PUSH2 0x7DB PUSH1 0x4 DUP1 CALLDATASIZE SUB DUP2 ADD SWAP1 PUSH2 0x7D6 SWAP2 SWAP1 PUSH2 0x37C9 JUMP JUMPDEST PUSH2 0x1AAA JUMP JUMPDEST STOP JUMPDEST PUSH2 0x7E5 PUSH2 0x1B60 JUMP JUMPDEST PUSH1 0x40 MLOAD PUSH2 0x7F2 SWAP2 SWAP1 PUSH2 0x3A16 JUMP JUMPDEST PUSH1 0x40 MLOAD DUP1 SWAP2 SUB SWAP1 RETURN JUMPDEST PUSH2 0x803 PUSH2 0x1B84 JUMP JUMPDEST PUSH1 0x40 MLOAD PUSH2 0x810 SWAP2 SWAP1 PUSH2 0x36D0 JUMP JUMPDEST PUSH1 0x40 MLOAD DUP1 SWAP2 SUB SWAP1 RETURN JUMPDEST PUSH2 0x821 PUSH2 0x1B8A JUMP JUMPDEST STOP JUMPDEST PUSH1 0x0 PUSH2 0x82E DUP3 PUSH2 0x1BBF JUMP JUMPDEST SWAP1 POP SWAP2 SWAP1 POP JUMP JUMPDEST PUSH1 0x10 SLOAD DUP2 JUMP JUMPDEST PUSH1 0x60 PUSH1 0x0 DUP1 SLOAD PUSH2 0x84A SWAP1 PUSH2 0x3D97 JUMP JUMPDEST DUP1 PUSH1 0x1F ADD PUSH1 0x20 DUP1 SWAP2 DIV MUL PUSH1 0x20 ADD PUSH1 0x40 MLOAD SWAP1 DUP2 ADD PUSH1 0x40 MSTORE DUP1 SWAP3 SWAP2 SWAP1 DUP2 DUP2 MSTORE PUSH1 0x20 ADD DUP3 DUP1 SLOAD PUSH2 0x876 SWAP1 PUSH2 0x3D97 JUMP JUMPDEST DUP1 ISZERO PUSH2 0x8C3 JUMPI DUP1 PUSH1 0x1F LT PUSH2 0x898 JUMPI PUSH2 0x100 DUP1 DUP4 SLOAD DIV MUL DUP4 MSTORE SWAP2 PUSH1 0x20 ADD SWAP2 PUSH2 0x8C3 JUMP JUMPDEST DUP3 ADD SWAP2 SWAP1 PUSH1 0x0 MSTORE PUSH1 0x20 PUSH1 0x0 KECCAK256 SWAP1 JUMPDEST DUP2 SLOAD DUP2 MSTORE SWAP1 PUSH1 0x1 ADD SWAP1 PUSH1 0x20 ADD DUP1 DUP4 GT PUSH2 0x8A6 JUMPI DUP3 SWAP1 SUB PUSH1 0x1F AND DUP3 ADD SWAP2 JUMPDEST POP POP POP POP POP SWAP1 POP SWAP1 JUMP JUMPDEST PUSH1 0x0 PUSH2 0x8D8 DUP3 PUSH2 0x1C37 JUMP JUMPDEST PUSH1 0x4 PUSH1 0x0 DUP4 DUP2 MSTORE PUSH1 0x20 ADD SWAP1 DUP2 MSTORE PUSH1 0x20 ADD PUSH1 0x0 KECCAK256 PUSH1 0x0 SWAP1 SLOAD SWAP1 PUSH2 0x100 EXP SWAP1 DIV PUSH20 0xFFFFFFFFFFFFFFFFFFFFFFFFFFFFFFFFFFFFFFFF AND SWAP1 POP SWAP2 SWAP1 POP JUMP JUMPDEST PUSH1 0x0 PUSH2 0x91E DUP3 PUSH2 0x11CC JUMP JUMPDEST SWAP1 POP DUP1 PUSH20 0xFFFFFFFFFFFFFFFFFFFFFFFFFFFFFFFFFFFFFFFF AND DUP4 PUSH20 0xFFFFFFFFFFFFFFFFFFFFFFFFFFFFFFFFFFFFFFFF AND SUB PUSH2 0x98E JUMPI PUSH1 0x40 MLOAD PUSH32 0x8C379A000000000000000000000000000000000000000000000000000000000 DUP2 MSTORE PUSH1 0x4 ADD PUSH2 0x985 SWAP1 PUSH2 0x3E3A JUMP JUMPDEST PUSH1 0x40 MLOAD DUP1 SWAP2 SUB SWAP1 REVERT JUMPDEST DUP1 PUSH20 0xFFFFFFFFFFFFFFFFFFFFFFFFFFFFFFFFFFFFFFFF AND PUSH2 0x9AD PUSH2 0x1C82 JUMP JUMPDEST PUSH20 0xFFFFFFFFFFFFFFFFFFFFFFFFFFFFFFFFFFFFFFFF AND EQ DUP1 PUSH2 0x9DC JUMPI POP PUSH2 0x9DB DUP2 PUSH2 0x9D6 PUSH2 0x1C82 JUMP JUMPDEST PUSH2 0x1A16 JUMP JUMPDEST JUMPDEST PUSH2 0xA1B JUMPI PUSH1 0x40 MLOAD PUSH32 0x8C379A000000000000000000000000000000000000000000000000000000000 DUP2 MSTORE PUSH1 0x4 ADD PUSH2 0xA12 SWAP1 PUSH2 0x3ECC JUMP JUMPDEST PUSH1 0x40 MLOAD DUP1 SWAP2 SUB SWAP1 REVERT JUMPDEST PUSH2 0xA25 DUP4 DUP4 PUSH2 0x1C8A JUMP JUMPDEST POP POP POP JUMP JUMPDEST PUSH32 0x70546D1C92F8C2132AE23A23F5177AA8526356051C7510DF99F50E012D221529 PUSH2 0xA54 DUP2 PUSH2 0x1D43 JUMP JUMPDEST DUP2 PUSH1 0xD PUSH1 0x0 PUSH2 0x100 EXP DUP2 SLOAD DUP2 PUSH20 0xFFFFFFFFFFFFFFFFFFFFFFFFFFFFFFFFFFFFFFFF MUL NOT AND SWAP1 DUP4 PUSH20 0xFFFFFFFFFFFFFFFFFFFFFFFFFFFFFFFFFFFFFFFF AND MUL OR SWAP1 SSTORE POP POP POP JUMP JUMPDEST PUSH32 0x70546D1C92F8C2132AE23A23F5177AA8526356051C7510DF99F50E012D221529 PUSH2 0xAC3 DUP2 PUSH2 0x1D43 JUMP JUMPDEST TIMESTAMP PUSH1 0x15 DUP2 SWAP1 SSTORE POP POP JUMP JUMPDEST PUSH2 0xADE PUSH2 0xAD8 PUSH2 0x1C82 JUMP JUMPDEST DUP3 PUSH2 0x1D57 JUMP JUMPDEST PUSH2 0xB1D JUMPI PUSH1 0x40 MLOAD PUSH32 0x8C379A000000000000000000000000000000000000000000000000000000000 DUP2 MSTORE PUSH1 0x4 ADD PUSH2 0xB14 SWAP1 PUSH2 0x3F5E JUMP JUMPDEST PUSH1 0x40 MLOAD DUP1 SWAP2 SUB SWAP1 REVERT JUMPDEST PUSH2 0xB28 DUP4 DUP4 DUP4 PUSH2 0x1DEC JUMP JUMPDEST POP POP POP JUMP JUMPDEST DUP1 PUSH1 0xF PUSH1 0x0 PUSH2 0x100 EXP DUP2 SLOAD DUP2 PUSH1 0xFF MUL NOT AND SWAP1 DUP4 PUSH1 0xFF AND MUL OR SWAP1 SSTORE POP POP JUMP JUMPDEST PUSH32 0x70546D1C92F8C2132AE23A23F5177AA8526356051C7510DF99F50E012D221529 PUSH2 0xB75 DUP2 PUSH2 0x1D43 JUMP JUMPDEST DUP2 PUSH1 0xC PUSH1 0x0 PUSH2 0x100 EXP DUP2 SLOAD DUP2 PUSH20 0xFFFFFFFFFFFFFFFFFFFFFFFFFFFFFFFFFFFFFFFF MUL NOT AND SWAP1 DUP4 PUSH20 0xFFFFFFFFFFFFFFFFFFFFFFFFFFFFFFFFFFFFFFFF AND MUL OR SWAP1 SSTORE POP POP POP JUMP JUMPDEST PUSH1 0x0 PUSH1 0x9 PUSH1 0x0 DUP4 DUP2 MSTORE PUSH1 0x20 ADD SWAP1 DUP2 MSTORE PUSH1 0x20 ADD PUSH1 0x0 KECCAK256 PUSH1 0x1 ADD SLOAD SWAP1 POP SWAP2 SWAP1 POP JUMP JUMPDEST PUSH2 0xBE3 DUP2 PUSH2 0x20E5 JUMP JUMPDEST POP JUMP JUMPDEST PUSH1 0x0 PUSH32 0x70546D1C92F8C2132AE23A23F5177AA8526356051C7510DF99F50E012D221529 PUSH2 0xC12 DUP2 PUSH2 0x1D43 JUMP JUMPDEST DUP3 PUSH1 0x10 PUSH1 0x0 DUP3 DUP3 SLOAD PUSH2 0xC24 SWAP2 SWAP1 PUSH2 0x3FAD JUMP JUMPDEST SWAP3 POP POP DUP2 SWAP1 SSTORE POP PUSH1 0x10 SLOAD SWAP2 POP POP SWAP2 SWAP1 POP JUMP JUMPDEST PUSH1 0x0 DUP1 PUSH1 0x0 PUSH1 0x8 PUSH1 0x0 DUP7 DUP2 MSTORE PUSH1 0x20 ADD SWAP1 DUP2 MSTORE PUSH1 0x20 ADD PUSH1 0x0 KECCAK256 PUSH1 0x40 MLOAD DUP1 PUSH1 0x40 ADD PUSH1 0x40 MSTORE SWAP1 DUP2 PUSH1 0x0 DUP3 ADD PUSH1 0x0 SWAP1 SLOAD SWAP1 PUSH2 0x100 EXP SWAP1 DIV PUSH20 0xFFFFFFFFFFFFFFFFFFFFFFFFFFFFFFFFFFFFFFFF AND PUSH20 0xFFFFFFFFFFFFFFFFFFFFFFFFFFFFFFFFFFFFFFFF AND PUSH20 0xFFFFFFFFFFFFFFFFFFFFFFFFFFFFFFFFFFFFFFFF AND DUP2 MSTORE PUSH1 0x20 ADD PUSH1 0x0 DUP3 ADD PUSH1 0x14 SWAP1 SLOAD SWAP1 PUSH2 0x100 EXP SWAP1 DIV PUSH12 0xFFFFFFFFFFFFFFFFFFFFFFFF AND PUSH12 0xFFFFFFFFFFFFFFFFFFFFFFFF AND PUSH12 0xFFFFFFFFFFFFFFFFFFFFFFFF AND DUP2 MSTORE POP POP SWAP1 POP PUSH1 0x0 PUSH20 0xFFFFFFFFFFFFFFFFFFFFFFFFFFFFFFFFFFFFFFFF AND DUP2 PUSH1 0x0 ADD MLOAD PUSH20 0xFFFFFFFFFFFFFFFFFFFFFFFFFFFFFFFFFFFFFFFF AND SUB PUSH2 0xDCB JUMPI PUSH1 0x7 PUSH1 0x40 MLOAD DUP1 PUSH1 0x40 ADD PUSH1 0x40 MSTORE SWAP1 DUP2 PUSH1 0x0 DUP3 ADD PUSH1 0x0 SWAP1 SLOAD SWAP1 PUSH2 0x100 EXP SWAP1 DIV PUSH20 0xFFFFFFFFFFFFFFFFFFFFFFFFFFFFFFFFFFFFFFFF AND PUSH20 0xFFFFFFFFFFFFFFFFFFFFFFFFFFFFFFFFFFFFFFFF AND PUSH20 0xFFFFFFFFFFFFFFFFFFFFFFFFFFFFFFFFFFFFFFFF AND DUP2 MSTORE PUSH1 0x20 ADD PUSH1 0x0 DUP3 ADD PUSH1 0x14 SWAP1 SLOAD SWAP1 PUSH2 0x100 EXP SWAP1 DIV PUSH12 0xFFFFFFFFFFFFFFFFFFFFFFFF AND PUSH12 0xFFFFFFFFFFFFFFFFFFFFFFFF AND PUSH12 0xFFFFFFFFFFFFFFFFFFFFFFFF AND DUP2 MSTORE POP POP SWAP1 POP JUMPDEST PUSH1 0x0 PUSH2 0xDD5 PUSH2 0x20FA JUMP JUMPDEST PUSH12 0xFFFFFFFFFFFFFFFFFFFFFFFF AND DUP3 PUSH1 0x20 ADD MLOAD PUSH12 0xFFFFFFFFFFFFFFFFFFFFFFFF AND DUP7 PUSH2 0xE01 SWAP2 SWAP1 PUSH2 0x3FE1 JUMP JUMPDEST PUSH2 0xE0B SWAP2 SWAP1 PUSH2 0x4052 JUMP JUMPDEST SWAP1 POP DUP2 PUSH1 0x0 ADD MLOAD DUP2 SWAP4 POP SWAP4 POP POP POP SWAP3 POP SWAP3 SWAP1 POP JUMP JUMPDEST PUSH2 0xE29 DUP3 PUSH2 0xBBA JUMP JUMPDEST PUSH2 0xE32 DUP2 PUSH2 0x1D43 JUMP JUMPDEST PUSH2 0xE3C DUP4 DUP4 PUSH2 0x2104 JUMP JUMPDEST POP POP POP JUMP JUMPDEST PUSH32 0x70546D1C92F8C2132AE23A23F5177AA8526356051C7510DF99F50E012D221529 PUSH2 0xE6B DUP2 PUSH2 0x1D43 JUMP JUMPDEST PUSH2 0xE73 PUSH2 0x21E5 JUMP JUMPDEST POP JUMP JUMPDEST PUSH2 0xE7E PUSH2 0x1C82 JUMP JUMPDEST PUSH20 0xFFFFFFFFFFFFFFFFFFFFFFFFFFFFFFFFFFFFFFFF AND DUP2 PUSH20 0xFFFFFFFFFFFFFFFFFFFFFFFFFFFFFFFFFFFFFFFF AND EQ PUSH2 0xEEB JUMPI PUSH1 0x40 MLOAD PUSH32 0x8C379A000000000000000000000000000000000000000000000000000000000 DUP2 MSTORE PUSH1 0x4 ADD PUSH2 0xEE2 SWAP1 PUSH2 0x40F5 JUMP JUMPDEST PUSH1 0x40 MLOAD DUP1 SWAP2 SUB SWAP1 REVERT JUMPDEST PUSH2 0xEF5 DUP3 DUP3 PUSH2 0x2248 JUMP JUMPDEST POP POP JUMP JUMPDEST PUSH2 0xF14 DUP4 DUP4 DUP4 PUSH1 0x40 MLOAD DUP1 PUSH1 0x20 ADD PUSH1 0x40 MSTORE DUP1 PUSH1 0x0 DUP2 MSTORE POP PUSH2 0x1632 JUMP JUMPDEST POP POP POP JUMP JUMPDEST PUSH1 0x15 SLOAD DUP2 JUMP JUMPDEST PUSH1 0x0 PUSH2 0xF29 PUSH2 0x232A JUMP JUMPDEST PUSH32 0x70546D1C92F8C2132AE23A23F5177AA8526356051C7510DF99F50E012D221529 PUSH2 0xF53 DUP2 PUSH2 0x1D43 JUMP JUMPDEST PUSH1 0x15 SLOAD TIMESTAMP GT ISZERO PUSH2 0xF98 JUMPI PUSH1 0x40 MLOAD PUSH32 0x8C379A000000000000000000000000000000000000000000000000000000000 DUP2 MSTORE PUSH1 0x4 ADD PUSH2 0xF8F SWAP1 PUSH2 0x41AD JUMP JUMPDEST PUSH1 0x40 MLOAD DUP1 SWAP2 SUB SWAP1 REVERT JUMPDEST PUSH1 0x10 SLOAD PUSH2 0xFA5 PUSH1 0xB PUSH2 0x2374 JUMP JUMPDEST LT PUSH2 0xFE5 JUMPI PUSH1 0x40 MLOAD PUSH32 0x8C379A000000000000000000000000000000000000000000000000000000000 DUP2 MSTORE PUSH1 0x4 ADD PUSH2 0xFDC SWAP1 PUSH2 0x4219 JUMP JUMPDEST PUSH1 0x40 MLOAD DUP1 SWAP2 SUB SWAP1 REVERT JUMPDEST PUSH1 0x0 PUSH20 0xFFFFFFFFFFFFFFFFFFFFFFFFFFFFFFFFFFFFFFFF AND DUP4 PUSH20 0xFFFFFFFFFFFFFFFFFFFFFFFFFFFFFFFFFFFFFFFF AND SUB PUSH2 0x1054 JUMPI PUSH1 0x40 MLOAD PUSH32 0x8C379A000000000000000000000000000000000000000000000000000000000 DUP2 MSTORE PUSH1 0x4 ADD PUSH2 0x104B SWAP1 PUSH2 0x42AB JUMP JUMPDEST PUSH1 0x40 MLOAD DUP1 SWAP2 SUB SWAP1 REVERT JUMPDEST PUSH2 0x105E PUSH1 0xB PUSH2 0x2382 JUMP JUMPDEST PUSH1 0x0 PUSH2 0x106A PUSH1 0xB PUSH2 0x2374 JUMP JUMPDEST SWAP1 POP PUSH2 0x1076 DUP5 DUP3 PUSH2 0x2398 JUMP JUMPDEST PUSH1 0x0 PUSH1 0x12 PUSH1 0x0 DUP4 DUP2 MSTORE PUSH1 0x20 ADD SWAP1 DUP2 MSTORE PUSH1 0x20 ADD PUSH1 0x0 KECCAK256 PUSH1 0x0 PUSH2 0x100 EXP DUP2 SLOAD DUP2 PUSH1 0xFF MUL NOT AND SWAP1 DUP4 PUSH1 0x2 DUP2 GT ISZERO PUSH2 0x10AD JUMPI PUSH2 0x10AC PUSH2 0x42CB JUMP JUMPDEST JUMPDEST MUL OR SWAP1 SSTORE POP PUSH2 0x1146 DUP2 PUSH1 0x11 DUP1 SLOAD PUSH2 0x10C3 SWAP1 PUSH2 0x3D97 JUMP JUMPDEST DUP1 PUSH1 0x1F ADD PUSH1 0x20 DUP1 SWAP2 DIV MUL PUSH1 0x20 ADD PUSH1 0x40 MLOAD SWAP1 DUP2 ADD PUSH1 0x40 MSTORE DUP1 SWAP3 SWAP2 SWAP1 DUP2 DUP2 MSTORE PUSH1 0x20 ADD DUP3 DUP1 SLOAD PUSH2 0x10EF SWAP1 PUSH2 0x3D97 JUMP JUMPDEST DUP1 ISZERO PUSH2 0x113C JUMPI DUP1 PUSH1 0x1F LT PUSH2 0x1111 JUMPI PUSH2 0x100 DUP1 DUP4 SLOAD DIV MUL DUP4 MSTORE SWAP2 PUSH1 0x20 ADD SWAP2 PUSH2 0x113C JUMP JUMPDEST DUP3 ADD SWAP2 SWAP1 PUSH1 0x0 MSTORE PUSH1 0x20 PUSH1 0x0 KECCAK256 SWAP1 JUMPDEST DUP2 SLOAD DUP2 MSTORE SWAP1 PUSH1 0x1 ADD SWAP1 PUSH1 0x20 ADD DUP1 DUP4 GT PUSH2 0x111F JUMPI DUP3 SWAP1 SUB PUSH1 0x1F AND DUP3 ADD SWAP2 JUMPDEST POP POP POP POP POP PUSH2 0x23B6 JUMP JUMPDEST PUSH2 0x1174 DUP5 PUSH1 0xD PUSH1 0x0 SWAP1 SLOAD SWAP1 PUSH2 0x100 EXP SWAP1 DIV PUSH20 0xFFFFFFFFFFFFFFFFFFFFFFFFFFFFFFFFFFFFFFFF AND PUSH1 0x1 PUSH2 0x2423 JUMP JUMPDEST PUSH32 0xD9DC24857F317ED9ABBBB42E920EDE0104231EB1D3D70236A74887FFAF159868 DUP2 PUSH1 0x40 MLOAD PUSH2 0x11A3 SWAP2 SWAP1 PUSH2 0x36D0 JUMP JUMPDEST PUSH1 0x40 MLOAD DUP1 SWAP2 SUB SWAP1 LOG1 DUP1 SWAP3 POP POP POP SWAP2 SWAP1 POP JUMP JUMPDEST PUSH1 0x0 PUSH1 0xA PUSH1 0x0 SWAP1 SLOAD SWAP1 PUSH2 0x100 EXP SWAP1 DIV PUSH1 0xFF AND SWAP1 POP SWAP1 JUMP JUMPDEST PUSH1 0x0 DUP1 PUSH2 0x11D8 DUP4 PUSH2 0x258F JUMP JUMPDEST SWAP1 POP PUSH1 0x0 PUSH20 0xFFFFFFFFFFFFFFFFFFFFFFFFFFFFFFFFFFFFFFFF AND DUP2 PUSH20 0xFFFFFFFFFFFFFFFFFFFFFFFFFFFFFFFFFFFFFFFF AND SUB PUSH2 0x1249 JUMPI PUSH1 0x40 MLOAD PUSH32 0x8C379A000000000000000000000000000000000000000000000000000000000 DUP2 MSTORE PUSH1 0x4 ADD PUSH2 0x1240 SWAP1 PUSH2 0x4346 JUMP JUMPDEST PUSH1 0x40 MLOAD DUP1 SWAP2 SUB SWAP1 REVERT JUMPDEST DUP1 SWAP2 POP POP SWAP2 SWAP1 POP JUMP JUMPDEST PUSH1 0x0 DUP1 PUSH20 0xFFFFFFFFFFFFFFFFFFFFFFFFFFFFFFFFFFFFFFFF AND DUP3 PUSH20 0xFFFFFFFFFFFFFFFFFFFFFFFFFFFFFFFFFFFFFFFF AND SUB PUSH2 0x12C2 JUMPI PUSH1 0x40 MLOAD PUSH32 0x8C379A000000000000000000000000000000000000000000000000000000000 DUP2 MSTORE PUSH1 0x4 ADD PUSH2 0x12B9 SWAP1 PUSH2 0x43D8 JUMP JUMPDEST PUSH1 0x40 MLOAD DUP1 SWAP2 SUB SWAP1 REVERT JUMPDEST PUSH1 0x3 PUSH1 0x0 DUP4 PUSH20 0xFFFFFFFFFFFFFFFFFFFFFFFFFFFFFFFFFFFFFFFF AND PUSH20 0xFFFFFFFFFFFFFFFFFFFFFFFFFFFFFFFFFFFFFFFF AND DUP2 MSTORE PUSH1 0x20 ADD SWAP1 DUP2 MSTORE PUSH1 0x20 ADD PUSH1 0x0 KECCAK256 SLOAD SWAP1 POP SWAP2 SWAP1 POP JUMP JUMPDEST PUSH1 0xC PUSH1 0x0 SWAP1 SLOAD SWAP1 PUSH2 0x100 EXP SWAP1 DIV PUSH20 0xFFFFFFFFFFFFFFFFFFFFFFFFFFFFFFFFFFFFFFFF AND DUP2 JUMP JUMPDEST PUSH32 0x70546D1C92F8C2132AE23A23F5177AA8526356051C7510DF99F50E012D221529 PUSH2 0x1359 DUP2 PUSH2 0x1D43 JUMP JUMPDEST PUSH1 0xD PUSH1 0x0 SWAP1 SLOAD SWAP1 PUSH2 0x100 EXP SWAP1 DIV PUSH20 0xFFFFFFFFFFFFFFFFFFFFFFFFFFFFFFFFFFFFFFFF AND PUSH20 0xFFFFFFFFFFFFFFFFFFFFFFFFFFFFFFFFFFFFFFFF AND PUSH4 0x39663315 ADDRESS PUSH1 0xE SLOAD PUSH1 0xF PUSH1 0x0 SWAP1 SLOAD SWAP1 PUSH2 0x100 EXP SWAP1 DIV PUSH1 0xFF AND PUSH1 0xC PUSH1 0x0 SWAP1 SLOAD SWAP1 PUSH2 0x100 EXP SWAP1 DIV PUSH20 0xFFFFFFFFFFFFFFFFFFFFFFFFFFFFFFFFFFFFFFFF AND PUSH1 0x13 SLOAD PUSH1 0x14 SLOAD PUSH1 0x15 SLOAD PUSH1 0x10 SLOAD PUSH1 0x40 MLOAD DUP10 PUSH4 0xFFFFFFFF AND PUSH1 0xE0 SHL DUP2 MSTORE PUSH1 0x4 ADD PUSH2 0x13FD SWAP9 SWAP8 SWAP7 SWAP6 SWAP5 SWAP4 SWAP3 SWAP2 SWAP1 PUSH2 0x43F8 JUMP JUMPDEST PUSH1 0x0 PUSH1 0x40 MLOAD DUP1 DUP4 SUB DUP2 PUSH1 0x0 DUP8 DUP1 EXTCODESIZE ISZERO DUP1 ISZERO PUSH2 0x1417 JUMPI PUSH1 0x0 DUP1 REVERT JUMPDEST POP GAS CALL ISZERO DUP1 ISZERO PUSH2 0x142B JUMPI RETURNDATASIZE PUSH1 0x0 DUP1 RETURNDATACOPY RETURNDATASIZE PUSH1 0x0 REVERT JUMPDEST POP POP POP POP PUSH2 0x147B PUSH32 0x70546D1C92F8C2132AE23A23F5177AA8526356051C7510DF99F50E012D221529 PUSH1 0xD PUSH1 0x0 SWAP1 SLOAD SWAP1 PUSH2 0x100 EXP SWAP1 DIV PUSH20 0xFFFFFFFFFFFFFFFFFFFFFFFFFFFFFFFFFFFFFFFF AND PUSH2 0x2104 JUMP JUMPDEST POP JUMP JUMPDEST PUSH1 0x14 SLOAD DUP2 JUMP JUMPDEST PUSH1 0x0 PUSH1 0x9 PUSH1 0x0 DUP5 DUP2 MSTORE PUSH1 0x20 ADD SWAP1 DUP2 MSTORE PUSH1 0x20 ADD PUSH1 0x0 KECCAK256 PUSH1 0x0 ADD PUSH1 0x0 DUP4 PUSH20 0xFFFFFFFFFFFFFFFFFFFFFFFFFFFFFFFFFFFFFFFF AND PUSH20 0xFFFFFFFFFFFFFFFFFFFFFFFFFFFFFFFFFFFFFFFF AND DUP2 MSTORE PUSH1 0x20 ADD SWAP1 DUP2 MSTORE PUSH1 0x20 ADD PUSH1 0x0 KECCAK256 PUSH1 0x0 SWAP1 SLOAD SWAP1 PUSH2 0x100 EXP SWAP1 DIV PUSH1 0xFF AND SWAP1 POP SWAP3 SWAP2 POP POP JUMP JUMPDEST PUSH1 0x60 PUSH1 0x1 DUP1 SLOAD PUSH2 0x14FE SWAP1 PUSH2 0x3D97 JUMP JUMPDEST DUP1 PUSH1 0x1F ADD PUSH1 0x20 DUP1 SWAP2 DIV MUL PUSH1 0x20 ADD PUSH1 0x40 MLOAD SWAP1 DUP2 ADD PUSH1 0x40 MSTORE DUP1 SWAP3 SWAP2 SWAP1 DUP2 DUP2 MSTORE PUSH1 0x20 ADD DUP3 DUP1 SLOAD PUSH2 0x152A SWAP1 PUSH2 0x3D97 JUMP JUMPDEST DUP1 ISZERO PUSH2 0x1577 JUMPI DUP1 PUSH1 0x1F LT PUSH2 0x154C JUMPI PUSH2 0x100 DUP1 DUP4 SLOAD DIV MUL DUP4 MSTORE SWAP2 PUSH1 0x20 ADD SWAP2 PUSH2 0x1577 JUMP JUMPDEST DUP3 ADD SWAP2 SWAP1 PUSH1 0x0 MSTORE PUSH1 0x20 PUSH1 0x0 KECCAK256 SWAP1 JUMPDEST DUP2 SLOAD DUP2 MSTORE SWAP1 PUSH1 0x1 ADD SWAP1 PUSH1 0x20 ADD DUP1 DUP4 GT PUSH2 0x155A JUMPI DUP3 SWAP1 SUB PUSH1 0x1F AND DUP3 ADD SWAP2 JUMPDEST POP POP POP POP POP SWAP1 POP SWAP1 JUMP JUMPDEST PUSH1 0x13 SLOAD DUP2 JUMP JUMPDEST PUSH1 0x0 DUP1 SHL DUP2 JUMP JUMPDEST PUSH2 0x15A0 PUSH2 0x1599 PUSH2 0x1C82 JUMP JUMPDEST DUP4 DUP4 PUSH2 0x2423 JUMP JUMPDEST POP POP JUMP JUMPDEST PUSH1 0x11 DUP1 SLOAD PUSH2 0x15B1 SWAP1 PUSH2 0x3D97 JUMP JUMPDEST DUP1 PUSH1 0x1F ADD PUSH1 0x20 DUP1 SWAP2 DIV MUL PUSH1 0x20 ADD PUSH1 0x40 MLOAD SWAP1 DUP2 ADD PUSH1 0x40 MSTORE DUP1 SWAP3 SWAP2 SWAP1 DUP2 DUP2 MSTORE PUSH1 0x20 ADD DUP3 DUP1 SLOAD PUSH2 0x15DD SWAP1 PUSH2 0x3D97 JUMP JUMPDEST DUP1 ISZERO PUSH2 0x162A JUMPI DUP1 PUSH1 0x1F LT PUSH2 0x15FF JUMPI PUSH2 0x100 DUP1 DUP4 SLOAD DIV MUL DUP4 MSTORE SWAP2 PUSH1 0x20 ADD SWAP2 PUSH2 0x162A JUMP JUMPDEST DUP3 ADD SWAP2 SWAP1 PUSH1 0x0 MSTORE PUSH1 0x20 PUSH1 0x0 KECCAK256 SWAP1 JUMPDEST DUP2 SLOAD DUP2 MSTORE SWAP1 PUSH1 0x1 ADD SWAP1 PUSH1 0x20 ADD DUP1 DUP4 GT PUSH2 0x160D JUMPI DUP3 SWAP1 SUB PUSH1 0x1F AND DUP3 ADD SWAP2 JUMPDEST POP POP POP POP POP DUP2 JUMP JUMPDEST PUSH2 0x1643 PUSH2 0x163D PUSH2 0x1C82 JUMP JUMPDEST DUP4 PUSH2 0x1D57 JUMP JUMPDEST PUSH2 0x1682 JUMPI PUSH1 0x40 MLOAD PUSH32 0x8C379A000000000000000000000000000000000000000000000000000000000 DUP2 MSTORE PUSH1 0x4 ADD PUSH2 0x1679 SWAP1 PUSH2 0x3F5E JUMP JUMPDEST PUSH1 0x40 MLOAD DUP1 SWAP2 SUB SWAP1 REVERT JUMPDEST PUSH2 0x168E DUP5 DUP5 DUP5 DUP5 PUSH2 0x25CC JUMP JUMPDEST POP POP POP POP JUMP JUMPDEST PUSH1 0x60 PUSH2 0x169F DUP3 PUSH2 0x1C37 JUMP JUMPDEST PUSH1 0x0 PUSH1 0x6 PUSH1 0x0 DUP5 DUP2 MSTORE PUSH1 0x20 ADD SWAP1 DUP2 MSTORE PUSH1 0x20 ADD PUSH1 0x0 KECCAK256 DUP1 SLOAD PUSH2 0x16BF SWAP1 PUSH2 0x3D97 JUMP JUMPDEST DUP1 PUSH1 0x1F ADD PUSH1 0x20 DUP1 SWAP2 DIV MUL PUSH1 0x20 ADD PUSH1 0x40 MLOAD SWAP1 DUP2 ADD PUSH1 0x40 MSTORE DUP1 SWAP3 SWAP2 SWAP1 DUP2 DUP2 MSTORE PUSH1 0x20 ADD DUP3 DUP1 SLOAD PUSH2 0x16EB SWAP1 PUSH2 0x3D97 JUMP JUMPDEST DUP1 ISZERO PUSH2 0x1738 JUMPI DUP1 PUSH1 0x1F LT PUSH2 0x170D JUMPI PUSH2 0x100 DUP1 DUP4 SLOAD DIV MUL DUP4 MSTORE SWAP2 PUSH1 0x20 ADD SWAP2 PUSH2 0x1738 JUMP JUMPDEST DUP3 ADD SWAP2 SWAP1 PUSH1 0x0 MSTORE PUSH1 0x20 PUSH1 0x0 KECCAK256 SWAP1 JUMPDEST DUP2 SLOAD DUP2 MSTORE SWAP1 PUSH1 0x1 ADD SWAP1 PUSH1 0x20 ADD DUP1 DUP4 GT PUSH2 0x171B JUMPI DUP3 SWAP1 SUB PUSH1 0x1F AND DUP3 ADD SWAP2 JUMPDEST POP POP POP POP POP SWAP1 POP PUSH1 0x0 PUSH2 0x1749 PUSH2 0x2628 JUMP JUMPDEST SWAP1 POP PUSH1 0x0 DUP2 MLOAD SUB PUSH2 0x175E JUMPI DUP2 SWAP3 POP POP POP PUSH2 0x17A1 JUMP JUMPDEST PUSH1 0x0 DUP3 MLOAD GT ISZERO PUSH2 0x1793 JUMPI DUP1 DUP3 PUSH1 0x40 MLOAD PUSH1 0x20 ADD PUSH2 0x177B SWAP3 SWAP2 SWAP1 PUSH2 0x44B2 JUMP JUMPDEST PUSH1 0x40 MLOAD PUSH1 0x20 DUP2 DUP4 SUB SUB DUP2 MSTORE SWAP1 PUSH1 0x40 MSTORE SWAP3 POP POP POP PUSH2 0x17A1 JUMP JUMPDEST PUSH2 0x179C DUP5 PUSH2 0x263F JUMP JUMPDEST SWAP3 POP POP POP JUMPDEST SWAP2 SWAP1 POP JUMP JUMPDEST PUSH1 0xF PUSH1 0x0 SWAP1 SLOAD SWAP1 PUSH2 0x100 EXP SWAP1 DIV PUSH1 0xFF AND DUP2 JUMP JUMPDEST PUSH1 0xD PUSH1 0x0 SWAP1 SLOAD SWAP1 PUSH2 0x100 EXP SWAP1 DIV PUSH20 0xFFFFFFFFFFFFFFFFFFFFFFFFFFFFFFFFFFFFFFFF AND DUP2 JUMP JUMPDEST PUSH2 0x17E8 DUP3 PUSH2 0xBBA JUMP JUMPDEST PUSH2 0x17F1 DUP2 PUSH2 0x1D43 JUMP JUMPDEST PUSH2 0x17FB DUP4 DUP4 PUSH2 0x2248 JUMP JUMPDEST POP POP POP JUMP JUMPDEST PUSH32 0x70546D1C92F8C2132AE23A23F5177AA8526356051C7510DF99F50E012D221529 PUSH2 0x182A DUP2 PUSH2 0x1D43 JUMP JUMPDEST DUP2 PUSH1 0xE DUP2 SWAP1 SSTORE POP POP POP JUMP JUMPDEST PUSH32 0x70546D1C92F8C2132AE23A23F5177AA8526356051C7510DF99F50E012D221529 PUSH2 0x185F DUP2 PUSH2 0x1D43 JUMP JUMPDEST PUSH1 0x1 PUSH1 0x2 DUP2 GT ISZERO PUSH2 0x1873 JUMPI PUSH2 0x1872 PUSH2 0x42CB JUMP JUMPDEST JUMPDEST PUSH1 0x12 PUSH1 0x0 DUP5 DUP2 MSTORE PUSH1 0x20 ADD SWAP1 DUP2 MSTORE PUSH1 0x20 ADD PUSH1 0x0 KECCAK256 PUSH1 0x0 SWAP1 SLOAD SWAP1 PUSH2 0x100 EXP SWAP1 DIV PUSH1 0xFF AND PUSH1 0x2 DUP2 GT ISZERO PUSH2 0x18A6 JUMPI PUSH2 0x18A5 PUSH2 0x42CB JUMP JUMPDEST JUMPDEST SUB PUSH2 0x18E6 JUMPI PUSH1 0x40 MLOAD PUSH32 0x8C379A000000000000000000000000000000000000000000000000000000000 DUP2 MSTORE PUSH1 0x4 ADD PUSH2 0x18DD SWAP1 PUSH2 0x4522 JUMP JUMPDEST PUSH1 0x40 MLOAD DUP1 SWAP2 SUB SWAP1 REVERT JUMPDEST PUSH1 0x2 DUP1 DUP2 GT ISZERO PUSH2 0x18F9 JUMPI PUSH2 0x18F8 PUSH2 0x42CB JUMP JUMPDEST JUMPDEST PUSH1 0x12 PUSH1 0x0 DUP5 DUP2 MSTORE PUSH1 0x20 ADD SWAP1 DUP2 MSTORE PUSH1 0x20 ADD PUSH1 0x0 KECCAK256 PUSH1 0x0 SWAP1 SLOAD SWAP1 PUSH2 0x100 EXP SWAP1 DIV PUSH1 0xFF AND PUSH1 0x2 DUP2 GT ISZERO PUSH2 0x192C JUMPI PUSH2 0x192B PUSH2 0x42CB JUMP JUMPDEST JUMPDEST SUB PUSH2 0x196C JUMPI PUSH1 0x40 MLOAD PUSH32 0x8C379A000000000000000000000000000000000000000000000000000000000 DUP2 MSTORE PUSH1 0x4 ADD PUSH2 0x1963 SWAP1 PUSH2 0x458E JUMP JUMPDEST PUSH1 0x40 MLOAD DUP1 SWAP2 SUB SWAP1 REVERT JUMPDEST DUP2 PUSH2 0x1977 PUSH1 0xB PUSH2 0x2374 JUMP JUMPDEST LT ISZERO PUSH2 0x19B8 JUMPI PUSH1 0x40 MLOAD PUSH32 0x8C379A000000000000000000000000000000000000000000000000000000000 DUP2 MSTORE PUSH1 0x4 ADD PUSH2 0x19AF SWAP1 PUSH2 0x45FA JUMP JUMPDEST PUSH1 0x40 MLOAD DUP1 SWAP2 SUB SWAP1 REVERT JUMPDEST PUSH1 0x1 PUSH1 0x12 PUSH1 0x0 DUP5 DUP2 MSTORE PUSH1 0x20 ADD SWAP1 DUP2 MSTORE PUSH1 0x20 ADD PUSH1 0x0 KECCAK256 PUSH1 0x0 PUSH2 0x100 EXP DUP2 SLOAD DUP2 PUSH1 0xFF MUL NOT AND SWAP1 DUP4 PUSH1 0x2 DUP2 GT ISZERO PUSH2 0x19EF JUMPI PUSH2 0x19EE PUSH2 0x42CB JUMP JUMPDEST JUMPDEST MUL OR SWAP1 SSTORE POP POP POP JUMP JUMPDEST PUSH1 0x0 PUSH2 0x1A04 PUSH1 0xB PUSH2 0x2374 JUMP JUMPDEST PUSH1 0x10 SLOAD PUSH2 0x1A11 SWAP2 SWAP1 PUSH2 0x461A JUMP JUMPDEST SWAP1 POP SWAP1 JUMP JUMPDEST PUSH1 0x0 PUSH1 0x5 PUSH1 0x0 DUP5 PUSH20 0xFFFFFFFFFFFFFFFFFFFFFFFFFFFFFFFFFFFFFFFF AND PUSH20 0xFFFFFFFFFFFFFFFFFFFFFFFFFFFFFFFFFFFFFFFF AND DUP2 MSTORE PUSH1 0x20 ADD SWAP1 DUP2 MSTORE PUSH1 0x20 ADD PUSH1 0x0 KECCAK256 PUSH1 0x0 DUP4 PUSH20 0xFFFFFFFFFFFFFFFFFFFFFFFFFFFFFFFFFFFFFFFF AND PUSH20 0xFFFFFFFFFFFFFFFFFFFFFFFFFFFFFFFFFFFFFFFF AND DUP2 MSTORE PUSH1 0x20 ADD SWAP1 DUP2 MSTORE PUSH1 0x20 ADD PUSH1 0x0 KECCAK256 PUSH1 0x0 SWAP1 SLOAD SWAP1 PUSH2 0x100 EXP SWAP1 DIV PUSH1 0xFF AND SWAP1 POP SWAP3 SWAP2 POP POP JUMP JUMPDEST PUSH32 0x70546D1C92F8C2132AE23A23F5177AA8526356051C7510DF99F50E012D221529 PUSH2 0x1AD4 DUP2 PUSH2 0x1D43 JUMP JUMPDEST DUP2 PUSH2 0x1ADF PUSH1 0xB PUSH2 0x2374 JUMP JUMPDEST LT ISZERO PUSH2 0x1B20 JUMPI PUSH1 0x40 MLOAD PUSH32 0x8C379A000000000000000000000000000000000000000000000000000000000 DUP2 MSTORE PUSH1 0x4 ADD PUSH2 0x1B17 SWAP1 PUSH2 0x45FA JUMP JUMPDEST PUSH1 0x40 MLOAD DUP1 SWAP2 SUB SWAP1 REVERT JUMPDEST PUSH1 0x2 PUSH1 0x12 PUSH1 0x0 DUP5 DUP2 MSTORE PUSH1 0x20 ADD SWAP1 DUP2 MSTORE PUSH1 0x20 ADD PUSH1 0x0 KECCAK256 PUSH1 0x0 PUSH2 0x100 EXP DUP2 SLOAD DUP2 PUSH1 0xFF MUL NOT AND SWAP1 DUP4 PUSH1 0x2 DUP2 GT ISZERO PUSH2 0x1B57 JUMPI PUSH2 0x1B56 PUSH2 0x42CB JUMP JUMPDEST JUMPDEST MUL OR SWAP1 SSTORE POP POP POP JUMP JUMPDEST PUSH32 0x70546D1C92F8C2132AE23A23F5177AA8526356051C7510DF99F50E012D221529 DUP2 JUMP JUMPDEST PUSH1 0xE SLOAD DUP2 JUMP JUMPDEST PUSH32 0x70546D1C92F8C2132AE23A23F5177AA8526356051C7510DF99F50E012D221529 PUSH2 0x1BB4 DUP2 PUSH2 0x1D43 JUMP JUMPDEST PUSH2 0x1BBC PUSH2 0x26A7 JUMP JUMPDEST POP JUMP JUMPDEST PUSH1 0x0 PUSH2 0x1BCA DUP3 PUSH2 0x270A JUMP JUMPDEST DUP1 PUSH2 0x1C30 JUMPI POP PUSH1 0x16 PUSH1 0x0 DUP4 PUSH28 0xFFFFFFFFFFFFFFFFFFFFFFFFFFFFFFFFFFFFFFFFFFFFFFFFFFFFFFFF NOT AND PUSH28 0xFFFFFFFFFFFFFFFFFFFFFFFFFFFFFFFFFFFFFFFFFFFFFFFFFFFFFFFF NOT AND DUP2 MSTORE PUSH1 0x20 ADD SWAP1 DUP2 MSTORE PUSH1 0x20 ADD PUSH1 0x0 KECCAK256 PUSH1 0x0 SWAP1 SLOAD SWAP1 PUSH2 0x100 EXP SWAP1 DIV PUSH1 0xFF AND JUMPDEST SWAP1 POP SWAP2 SWAP1 POP JUMP JUMPDEST PUSH2 0x1C40 DUP2 PUSH2 0x2784 JUMP JUMPDEST PUSH2 0x1C7F JUMPI PUSH1 0x40 MLOAD PUSH32 0x8C379A000000000000000000000000000000000000000000000000000000000 DUP2 MSTORE PUSH1 0x4 ADD PUSH2 0x1C76 SWAP1 PUSH2 0x4346 JUMP JUMPDEST PUSH1 0x40 MLOAD DUP1 SWAP2 SUB SWAP1 REVERT JUMPDEST POP JUMP JUMPDEST PUSH1 0x0 CALLER SWAP1 POP SWAP1 JUMP JUMPDEST DUP2 PUSH1 0x4 PUSH1 0x0 DUP4 DUP2 MSTORE PUSH1 0x20 ADD SWAP1 DUP2 MSTORE PUSH1 0x20 ADD PUSH1 0x0 KECCAK256 PUSH1 0x0 PUSH2 0x100 EXP DUP2 SLOAD DUP2 PUSH20 0xFFFFFFFFFFFFFFFFFFFFFFFFFFFFFFFFFFFFFFFF MUL NOT AND SWAP1 DUP4 PUSH20 0xFFFFFFFFFFFFFFFFFFFFFFFFFFFFFFFFFFFFFFFF AND MUL OR SWAP1 SSTORE POP DUP1 DUP3 PUSH20 0xFFFFFFFFFFFFFFFFFFFFFFFFFFFFFFFFFFFFFFFF AND PUSH2 0x1CFD DUP4 PUSH2 0x11CC JUMP JUMPDEST PUSH20 0xFFFFFFFFFFFFFFFFFFFFFFFFFFFFFFFFFFFFFFFF AND PUSH32 0x8C5BE1E5EBEC7D5BD14F71427D1E84F3DD0314C0F7B2291E5B200AC8C7C3B925 PUSH1 0x40 MLOAD PUSH1 0x40 MLOAD DUP1 SWAP2 SUB SWAP1 LOG4 POP POP JUMP JUMPDEST PUSH2 0x1D54 DUP2 PUSH2 0x1D4F PUSH2 0x1C82 JUMP JUMPDEST PUSH2 0x27C5 JUMP JUMPDEST POP JUMP JUMPDEST PUSH1 0x0 DUP1 PUSH2 0x1D63 DUP4 PUSH2 0x11CC JUMP JUMPDEST SWAP1 POP DUP1 PUSH20 0xFFFFFFFFFFFFFFFFFFFFFFFFFFFFFFFFFFFFFFFF AND DUP5 PUSH20 0xFFFFFFFFFFFFFFFFFFFFFFFFFFFFFFFFFFFFFFFF AND EQ DUP1 PUSH2 0x1DA5 JUMPI POP PUSH2 0x1DA4 DUP2 DUP6 PUSH2 0x1A16 JUMP JUMPDEST JUMPDEST DUP1 PUSH2 0x1DE3 JUMPI POP DUP4 PUSH20 0xFFFFFFFFFFFFFFFFFFFFFFFFFFFFFFFFFFFFFFFF AND PUSH2 0x1DCB DUP5 PUSH2 0x8CD JUMP JUMPDEST PUSH20 0xFFFFFFFFFFFFFFFFFFFFFFFFFFFFFFFFFFFFFFFF AND EQ JUMPDEST SWAP2 POP POP SWAP3 SWAP2 POP POP JUMP JUMPDEST DUP3 PUSH20 0xFFFFFFFFFFFFFFFFFFFFFFFFFFFFFFFFFFFFFFFF AND PUSH2 0x1E0C DUP3 PUSH2 0x11CC JUMP JUMPDEST PUSH20 0xFFFFFFFFFFFFFFFFFFFFFFFFFFFFFFFFFFFFFFFF AND EQ PUSH2 0x1E62 JUMPI PUSH1 0x40 MLOAD PUSH32 0x8C379A000000000000000000000000000000000000000000000000000000000 DUP2 MSTORE PUSH1 0x4 ADD PUSH2 0x1E59 SWAP1 PUSH2 0x46C0 JUMP JUMPDEST PUSH1 0x40 MLOAD DUP1 SWAP2 SUB SWAP1 REVERT JUMPDEST PUSH1 0x0 PUSH20 0xFFFFFFFFFFFFFFFFFFFFFFFFFFFFFFFFFFFFFFFF AND DUP3 PUSH20 0xFFFFFFFFFFFFFFFFFFFFFFFFFFFFFFFFFFFFFFFF AND SUB PUSH2 0x1ED1 JUMPI PUSH1 0x40 MLOAD PUSH32 0x8C379A000000000000000000000000000000000000000000000000000000000 DUP2 MSTORE PUSH1 0x4 ADD PUSH2 0x1EC8 SWAP1 PUSH2 0x4752 JUMP JUMPDEST PUSH1 0x40 MLOAD DUP1 SWAP2 SUB SWAP1 REVERT JUMPDEST PUSH2 0x1EDE DUP4 DUP4 DUP4 PUSH1 0x1 PUSH2 0x284A JUMP JUMPDEST DUP3 PUSH20 0xFFFFFFFFFFFFFFFFFFFFFFFFFFFFFFFFFFFFFFFF AND PUSH2 0x1EFE DUP3 PUSH2 0x11CC JUMP JUMPDEST PUSH20 0xFFFFFFFFFFFFFFFFFFFFFFFFFFFFFFFFFFFFFFFF AND EQ PUSH2 0x1F54 JUMPI PUSH1 0x40 MLOAD PUSH32 0x8C379A000000000000000000000000000000000000000000000000000000000 DUP2 MSTORE PUSH1 0x4 ADD PUSH2 0x1F4B SWAP1 PUSH2 0x46C0 JUMP JUMPDEST PUSH1 0x40 MLOAD DUP1 SWAP2 SUB SWAP1 REVERT JUMPDEST PUSH1 0x4 PUSH1 0x0 DUP3 DUP2 MSTORE PUSH1 0x20 ADD SWAP1 DUP2 MSTORE PUSH1 0x20 ADD PUSH1 0x0 KECCAK256 PUSH1 0x0 PUSH2 0x100 EXP DUP2 SLOAD SWAP1 PUSH20 0xFFFFFFFFFFFFFFFFFFFFFFFFFFFFFFFFFFFFFFFF MUL NOT AND SWAP1 SSTORE PUSH1 0x1 PUSH1 0x3 PUSH1 0x0 DUP6 PUSH20 0xFFFFFFFFFFFFFFFFFFFFFFFFFFFFFFFFFFFFFFFF AND PUSH20 0xFFFFFFFFFFFFFFFFFFFFFFFFFFFFFFFFFFFFFFFF AND DUP2 MSTORE PUSH1 0x20 ADD SWAP1 DUP2 MSTORE PUSH1 0x20 ADD PUSH1 0x0 KECCAK256 PUSH1 0x0 DUP3 DUP3 SLOAD SUB SWAP3 POP POP DUP2 SWAP1 SSTORE POP PUSH1 0x1 PUSH1 0x3 PUSH1 0x0 DUP5 PUSH20 0xFFFFFFFFFFFFFFFFFFFFFFFFFFFFFFFFFFFFFFFF AND PUSH20 0xFFFFFFFFFFFFFFFFFFFFFFFFFFFFFFFFFFFFFFFF AND DUP2 MSTORE PUSH1 0x20 ADD SWAP1 DUP2 MSTORE PUSH1 0x20 ADD PUSH1 0x0 KECCAK256 PUSH1 0x0 DUP3 DUP3 SLOAD ADD SWAP3 POP POP DUP2 SWAP1 SSTORE POP DUP2 PUSH1 0x2 PUSH1 0x0 DUP4 DUP2 MSTORE PUSH1 0x20 ADD SWAP1 DUP2 MSTORE PUSH1 0x20 ADD PUSH1 0x0 KECCAK256 PUSH1 0x0 PUSH2 0x100 EXP DUP2 SLOAD DUP2 PUSH20 0xFFFFFFFFFFFFFFFFFFFFFFFFFFFFFFFFFFFFFFFF MUL NOT AND SWAP1 DUP4 PUSH20 0xFFFFFFFFFFFFFFFFFFFFFFFFFFFFFFFFFFFFFFFF AND MUL OR SWAP1 SSTORE POP DUP1 DUP3 PUSH20 0xFFFFFFFFFFFFFFFFFFFFFFFFFFFFFFFFFFFFFFFF AND DUP5 PUSH20 0xFFFFFFFFFFFFFFFFFFFFFFFFFFFFFFFFFFFFFFFF AND PUSH32 0xDDF252AD1BE2C89B69C2B068FC378DAA952BA7F163C4A11628F55A4DF523B3EF PUSH1 0x40 MLOAD PUSH1 0x40 MLOAD DUP1 SWAP2 SUB SWAP1 LOG4 PUSH2 0x20E0 DUP4 DUP4 DUP4 PUSH1 0x1 PUSH2 0x2850 JUMP JUMPDEST POP POP POP JUMP JUMPDEST PUSH2 0x20EE DUP2 PUSH2 0x2856 JUMP JUMPDEST PUSH2 0x20F7 DUP2 PUSH2 0x28A9 JUMP JUMPDEST POP JUMP JUMPDEST PUSH1 0x0 PUSH2 0x2710 SWAP1 POP SWAP1 JUMP JUMPDEST PUSH2 0x210E DUP3 DUP3 PUSH2 0x1484 JUMP JUMPDEST PUSH2 0x21E1 JUMPI PUSH1 0x1 PUSH1 0x9 PUSH1 0x0 DUP5 DUP2 MSTORE PUSH1 0x20 ADD SWAP1 DUP2 MSTORE PUSH1 0x20 ADD PUSH1 0x0 KECCAK256 PUSH1 0x0 ADD PUSH1 0x0 DUP4 PUSH20 0xFFFFFFFFFFFFFFFFFFFFFFFFFFFFFFFFFFFFFFFF AND PUSH20 0xFFFFFFFFFFFFFFFFFFFFFFFFFFFFFFFFFFFFFFFF AND DUP2 MSTORE PUSH1 0x20 ADD SWAP1 DUP2 MSTORE PUSH1 0x20 ADD PUSH1 0x0 KECCAK256 PUSH1 0x0 PUSH2 0x100 EXP DUP2 SLOAD DUP2 PUSH1 0xFF MUL NOT AND SWAP1 DUP4 ISZERO ISZERO MUL OR SWAP1 SSTORE POP PUSH2 0x2186 PUSH2 0x1C82 JUMP JUMPDEST PUSH20 0xFFFFFFFFFFFFFFFFFFFFFFFFFFFFFFFFFFFFFFFF AND DUP2 PUSH20 0xFFFFFFFFFFFFFFFFFFFFFFFFFFFFFFFFFFFFFFFF AND DUP4 PUSH32 0x2F8788117E7EFF1D82E926EC794901D17C78024A50270940304540A733656F0D PUSH1 0x40 MLOAD PUSH1 0x40 MLOAD DUP1 SWAP2 SUB SWAP1 LOG4 JUMPDEST POP POP JUMP JUMPDEST PUSH2 0x21ED PUSH2 0x232A JUMP JUMPDEST PUSH1 0x1 PUSH1 0xA PUSH1 0x0 PUSH2 0x100 EXP DUP2 SLOAD DUP2 PUSH1 0xFF MUL NOT AND SWAP1 DUP4 ISZERO ISZERO MUL OR SWAP1 SSTORE POP PUSH32 0x62E78CEA01BEE320CD4E420270B5EA74000D11B0C9F74754EBDBFC544B05A258 PUSH2 0x2231 PUSH2 0x1C82 JUMP JUMPDEST PUSH1 0x40 MLOAD PUSH2 0x223E SWAP2 SWAP1 PUSH2 0x3837 JUMP JUMPDEST PUSH1 0x40 MLOAD DUP1 SWAP2 SUB SWAP1 LOG1 JUMP JUMPDEST PUSH2 0x2252 DUP3 DUP3 PUSH2 0x1484 JUMP JUMPDEST ISZERO PUSH2 0x2326 JUMPI PUSH1 0x0 PUSH1 0x9 PUSH1 0x0 DUP5 DUP2 MSTORE PUSH1 0x20 ADD SWAP1 DUP2 MSTORE PUSH1 0x20 ADD PUSH1 0x0 KECCAK256 PUSH1 0x0 ADD PUSH1 0x0 DUP4 PUSH20 0xFFFFFFFFFFFFFFFFFFFFFFFFFFFFFFFFFFFFFFFF AND PUSH20 0xFFFFFFFFFFFFFFFFFFFFFFFFFFFFFFFFFFFFFFFF AND DUP2 MSTORE PUSH1 0x20 ADD SWAP1 DUP2 MSTORE PUSH1 0x20 ADD PUSH1 0x0 KECCAK256 PUSH1 0x0 PUSH2 0x100 EXP DUP2 SLOAD DUP2 PUSH1 0xFF MUL NOT AND SWAP1 DUP4 ISZERO ISZERO MUL OR SWAP1 SSTORE POP PUSH2 0x22CB PUSH2 0x1C82 JUMP JUMPDEST PUSH20 0xFFFFFFFFFFFFFFFFFFFFFFFFFFFFFFFFFFFFFFFF AND DUP2 PUSH20 0xFFFFFFFFFFFFFFFFFFFFFFFFFFFFFFFFFFFFFFFF AND DUP4 PUSH32 0xF6391F5C32D9C69D2A47EA670B442974B53935D1EDC7FD64EB21E047A839171B PUSH1 0x40 MLOAD PUSH1 0x40 MLOAD DUP1 SWAP2 SUB SWAP1 LOG4 JUMPDEST POP POP JUMP JUMPDEST PUSH2 0x2332 PUSH2 0x11B5 JUMP JUMPDEST ISZERO PUSH2 0x2372 JUMPI PUSH1 0x40 MLOAD PUSH32 0x8C379A000000000000000000000000000000000000000000000000000000000 DUP2 MSTORE PUSH1 0x4 ADD PUSH2 0x2369 SWAP1 PUSH2 0x47BE JUMP JUMPDEST PUSH1 0x40 MLOAD DUP1 SWAP2 SUB SWAP1 REVERT JUMPDEST JUMP JUMPDEST PUSH1 0x0 DUP2 PUSH1 0x0 ADD SLOAD SWAP1 POP SWAP2 SWAP1 POP JUMP JUMPDEST PUSH1 0x1 DUP2 PUSH1 0x0 ADD PUSH1 0x0 DUP3 DUP3 SLOAD ADD SWAP3 POP POP DUP2 SWAP1 SSTORE POP POP JUMP JUMPDEST PUSH2 0x23B2 DUP3 DUP3 PUSH1 0x40 MLOAD DUP1 PUSH1 0x20 ADD PUSH1 0x40 MSTORE DUP1 PUSH1 0x0 DUP2 MSTORE POP PUSH2 0x2908 JUMP JUMPDEST POP POP JUMP JUMPDEST PUSH2 0x23BF DUP3 PUSH2 0x2784 JUMP JUMPDEST PUSH2 0x23FE JUMPI PUSH1 0x40 MLOAD PUSH32 0x8C379A000000000000000000000000000000000000000000000000000000000 DUP2 MSTORE PUSH1 0x4 ADD PUSH2 0x23F5 SWAP1 PUSH2 0x4850 JUMP JUMPDEST PUSH1 0x40 MLOAD DUP1 SWAP2 SUB SWAP1 REVERT JUMPDEST DUP1 PUSH1 0x6 PUSH1 0x0 DUP5 DUP2 MSTORE PUSH1 0x20 ADD SWAP1 DUP2 MSTORE PUSH1 0x20 ADD PUSH1 0x0 KECCAK256 SWAP1 DUP2 PUSH2 0x241E SWAP2 SWAP1 PUSH2 0x4A1C JUMP JUMPDEST POP POP POP JUMP JUMPDEST DUP2 PUSH20 0xFFFFFFFFFFFFFFFFFFFFFFFFFFFFFFFFFFFFFFFF AND DUP4 PUSH20 0xFFFFFFFFFFFFFFFFFFFFFFFFFFFFFFFFFFFFFFFF AND SUB PUSH2 0x2491 JUMPI PUSH1 0x40 MLOAD PUSH32 0x8C379A000000000000000000000000000000000000000000000000000000000 DUP2 MSTORE PUSH1 0x4 ADD PUSH2 0x2488 SWAP1 PUSH2 0x4B3A JUMP JUMPDEST PUSH1 0x40 MLOAD DUP1 SWAP2 SUB SWAP1 REVERT JUMPDEST DUP1 PUSH1 0x5 PUSH1 0x0 DUP6 PUSH20 0xFFFFFFFFFFFFFFFFFFFFFFFFFFFFFFFFFFFFFFFF AND PUSH20 0xFFFFFFFFFFFFFFFFFFFFFFFFFFFFFFFFFFFFFFFF AND DUP2 MSTORE PUSH1 0x20 ADD SWAP1 DUP2 MSTORE PUSH1 0x20 ADD PUSH1 0x0 KECCAK256 PUSH1 0x0 DUP5 PUSH20 0xFFFFFFFFFFFFFFFFFFFFFFFFFFFFFFFFFFFFFFFF AND PUSH20 0xFFFFFFFFFFFFFFFFFFFFFFFFFFFFFFFFFFFFFFFF AND DUP2 MSTORE PUSH1 0x20 ADD SWAP1 DUP2 MSTORE PUSH1 0x20 ADD PUSH1 0x0 KECCAK256 PUSH1 0x0 PUSH2 0x100 EXP DUP2 SLOAD DUP2 PUSH1 0xFF MUL NOT AND SWAP1 DUP4 ISZERO ISZERO MUL OR SWAP1 SSTORE POP DUP2 PUSH20 0xFFFFFFFFFFFFFFFFFFFFFFFFFFFFFFFFFFFFFFFF AND DUP4 PUSH20 0xFFFFFFFFFFFFFFFFFFFFFFFFFFFFFFFFFFFFFFFF AND PUSH32 0x17307EAB39AB6107E8899845AD3D59BD9653F200F220920489CA2B5937696C31 DUP4 PUSH1 0x40 MLOAD PUSH2 0x2582 SWAP2 SWAP1 PUSH2 0x369C JUMP JUMPDEST PUSH1 0x40 MLOAD DUP1 SWAP2 SUB SWAP1 LOG3 POP POP POP JUMP JUMPDEST PUSH1 0x0 PUSH1 0x2 PUSH1 0x0 DUP4 DUP2 MSTORE PUSH1 0x20 ADD SWAP1 DUP2 MSTORE PUSH1 0x20 ADD PUSH1 0x0 KECCAK256 PUSH1 0x0 SWAP1 SLOAD SWAP1 PUSH2 0x100 EXP SWAP1 DIV PUSH20 0xFFFFFFFFFFFFFFFFFFFFFFFFFFFFFFFFFFFFFFFF AND SWAP1 POP SWAP2 SWAP1 POP JUMP JUMPDEST PUSH2 0x25D7 DUP5 DUP5 DUP5 PUSH2 0x1DEC JUMP JUMPDEST PUSH2 0x25E3 DUP5 DUP5 DUP5 DUP5 PUSH2 0x2963 JUMP JUMPDEST PUSH2 0x2622 JUMPI PUSH1 0x40 MLOAD PUSH32 0x8C379A000000000000000000000000000000000000000000000000000000000 DUP2 MSTORE PUSH1 0x4 ADD PUSH2 0x2619 SWAP1 PUSH2 0x4BCC JUMP JUMPDEST PUSH1 0x40 MLOAD DUP1 SWAP2 SUB SWAP1 REVERT JUMPDEST POP POP POP POP JUMP JUMPDEST PUSH1 0x60 PUSH1 0x40 MLOAD DUP1 PUSH1 0x20 ADD PUSH1 0x40 MSTORE DUP1 PUSH1 0x0 DUP2 MSTORE POP SWAP1 POP SWAP1 JUMP JUMPDEST PUSH1 0x60 PUSH2 0x264A DUP3 PUSH2 0x1C37 JUMP JUMPDEST PUSH1 0x0 PUSH2 0x2654 PUSH2 0x2628 JUMP JUMPDEST SWAP1 POP PUSH1 0x0 DUP2 MLOAD GT PUSH2 0x2674 JUMPI PUSH1 0x40 MLOAD DUP1 PUSH1 0x20 ADD PUSH1 0x40 MSTORE DUP1 PUSH1 0x0 DUP2 MSTORE POP PUSH2 0x269F JUMP JUMPDEST DUP1 PUSH2 0x267E DUP5 PUSH2 0x2AEA JUMP JUMPDEST PUSH1 0x40 MLOAD PUSH1 0x20 ADD PUSH2 0x268F SWAP3 SWAP2 SWAP1 PUSH2 0x44B2 JUMP JUMPDEST PUSH1 0x40 MLOAD PUSH1 0x20 DUP2 DUP4 SUB SUB DUP2 MSTORE SWAP1 PUSH1 0x40 MSTORE JUMPDEST SWAP2 POP POP SWAP2 SWAP1 POP JUMP JUMPDEST PUSH2 0x26AF PUSH2 0x2BB8 JUMP JUMPDEST PUSH1 0x0 PUSH1 0xA PUSH1 0x0 PUSH2 0x100 EXP DUP2 SLOAD DUP2 PUSH1 0xFF MUL NOT AND SWAP1 DUP4 ISZERO ISZERO MUL OR SWAP1 SSTORE POP PUSH32 0x5DB9EE0A495BF2E6FF9C91A7834C1BA4FDD244A5E8AA4E537BD38AEAE4B073AA PUSH2 0x26F3 PUSH2 0x1C82 JUMP JUMPDEST PUSH1 0x40 MLOAD PUSH2 0x2700 SWAP2 SWAP1 PUSH2 0x3837 JUMP JUMPDEST PUSH1 0x40 MLOAD DUP1 SWAP2 SUB SWAP1 LOG1 JUMP JUMPDEST PUSH1 0x0 PUSH32 0x23D346FF00000000000000000000000000000000000000000000000000000000 PUSH28 0xFFFFFFFFFFFFFFFFFFFFFFFFFFFFFFFFFFFFFFFFFFFFFFFFFFFFFFFF NOT AND DUP3 PUSH28 0xFFFFFFFFFFFFFFFFFFFFFFFFFFFFFFFFFFFFFFFFFFFFFFFFFFFFFFFF NOT AND EQ DUP1 PUSH2 0x277D JUMPI POP PUSH2 0x277C DUP3 PUSH2 0x2C01 JUMP JUMPDEST JUMPDEST SWAP1 POP SWAP2 SWAP1 POP JUMP JUMPDEST PUSH1 0x0 DUP1 PUSH20 0xFFFFFFFFFFFFFFFFFFFFFFFFFFFFFFFFFFFFFFFF AND PUSH2 0x27A6 DUP4 PUSH2 0x258F JUMP JUMPDEST PUSH20 0xFFFFFFFFFFFFFFFFFFFFFFFFFFFFFFFFFFFFFFFF AND EQ ISZERO SWAP1 POP SWAP2 SWAP1 POP JUMP JUMPDEST PUSH2 0x27CF DUP3 DUP3 PUSH2 0x1484 JUMP JUMPDEST PUSH2 0x2846 JUMPI PUSH2 0x27DC DUP2 PUSH2 0x2C7B JUMP JUMPDEST PUSH2 0x27EA DUP4 PUSH1 0x0 SHR PUSH1 0x20 PUSH2 0x2CA8 JUMP JUMPDEST PUSH1 0x40 MLOAD PUSH1 0x20 ADD PUSH2 0x27FB SWAP3 SWAP2 SWAP1 PUSH2 0x4C84 JUMP JUMPDEST PUSH1 0x40 MLOAD PUSH1 0x20 DUP2 DUP4 SUB SUB DUP2 MSTORE SWAP1 PUSH1 0x40 MSTORE PUSH1 0x40 MLOAD PUSH32 0x8C379A000000000000000000000000000000000000000000000000000000000 DUP2 MSTORE PUSH1 0x4 ADD PUSH2 0x283D SWAP2 SWAP1 PUSH2 0x377B JUMP JUMPDEST PUSH1 0x40 MLOAD DUP1 SWAP2 SUB SWAP1 REVERT JUMPDEST POP POP JUMP JUMPDEST POP POP POP POP JUMP JUMPDEST POP POP POP POP JUMP JUMPDEST PUSH2 0x285F DUP2 PUSH2 0x2EE4 JUMP JUMPDEST PUSH1 0x0 PUSH1 0x6 PUSH1 0x0 DUP4 DUP2 MSTORE PUSH1 0x20 ADD SWAP1 DUP2 MSTORE PUSH1 0x20 ADD PUSH1 0x0 KECCAK256 DUP1 SLOAD PUSH2 0x287F SWAP1 PUSH2 0x3D97 JUMP JUMPDEST SWAP1 POP EQ PUSH2 0x28A6 JUMPI PUSH1 0x6 PUSH1 0x0 DUP3 DUP2 MSTORE PUSH1 0x20 ADD SWAP1 DUP2 MSTORE PUSH1 0x20 ADD PUSH1 0x0 KECCAK256 PUSH1 0x0 PUSH2 0x28A5 SWAP2 SWAP1 PUSH2 0x358B JUMP JUMPDEST JUMPDEST POP JUMP JUMPDEST PUSH1 0x8 PUSH1 0x0 DUP3 DUP2 MSTORE PUSH1 0x20 ADD SWAP1 DUP2 MSTORE PUSH1 0x20 ADD PUSH1 0x0 KECCAK256 PUSH1 0x0 DUP1 DUP3 ADD PUSH1 0x0 PUSH2 0x100 EXP DUP2 SLOAD SWAP1 PUSH20 0xFFFFFFFFFFFFFFFFFFFFFFFFFFFFFFFFFFFFFFFF MUL NOT AND SWAP1 SSTORE PUSH1 0x0 DUP3 ADD PUSH1 0x14 PUSH2 0x100 EXP DUP2 SLOAD SWAP1 PUSH12 0xFFFFFFFFFFFFFFFFFFFFFFFF MUL NOT AND SWAP1 SSTORE POP POP POP JUMP JUMPDEST PUSH2 0x2912 DUP4 DUP4 PUSH2 0x3032 JUMP JUMPDEST PUSH2 0x291F PUSH1 0x0 DUP5 DUP5 DUP5 PUSH2 0x2963 JUMP JUMPDEST PUSH2 0x295E JUMPI PUSH1 0x40 MLOAD PUSH32 0x8C379A000000000000000000000000000000000000000000000000000000000 DUP2 MSTORE PUSH1 0x4 ADD PUSH2 0x2955 SWAP1 PUSH2 0x4BCC JUMP JUMPDEST PUSH1 0x40 MLOAD DUP1 SWAP2 SUB SWAP1 REVERT JUMPDEST POP POP POP JUMP JUMPDEST PUSH1 0x0 PUSH2 0x2984 DUP5 PUSH20 0xFFFFFFFFFFFFFFFFFFFFFFFFFFFFFFFFFFFFFFFF AND PUSH2 0x324F JUMP JUMPDEST ISZERO PUSH2 0x2ADD JUMPI DUP4 PUSH20 0xFFFFFFFFFFFFFFFFFFFFFFFFFFFFFFFFFFFFFFFF AND PUSH4 0x150B7A02 PUSH2 0x29AD PUSH2 0x1C82 JUMP JUMPDEST DUP8 DUP7 DUP7 PUSH1 0x40 MLOAD DUP6 PUSH4 0xFFFFFFFF AND PUSH1 0xE0 SHL DUP2 MSTORE PUSH1 0x4 ADD PUSH2 0x29CF SWAP5 SWAP4 SWAP3 SWAP2 SWAP1 PUSH2 0x4D13 JUMP JUMPDEST PUSH1 0x20 PUSH1 0x40 MLOAD DUP1 DUP4 SUB DUP2 PUSH1 0x0 DUP8 GAS CALL SWAP3 POP POP POP DUP1 ISZERO PUSH2 0x2A0B JUMPI POP PUSH1 0x40 MLOAD RETURNDATASIZE PUSH1 0x1F NOT PUSH1 0x1F DUP3 ADD AND DUP3 ADD DUP1 PUSH1 0x40 MSTORE POP DUP2 ADD SWAP1 PUSH2 0x2A08 SWAP2 SWAP1 PUSH2 0x4D74 JUMP JUMPDEST PUSH1 0x1 JUMPDEST PUSH2 0x2A8D JUMPI RETURNDATASIZE DUP1 PUSH1 0x0 DUP2 EQ PUSH2 0x2A3B JUMPI PUSH1 0x40 MLOAD SWAP2 POP PUSH1 0x1F NOT PUSH1 0x3F RETURNDATASIZE ADD AND DUP3 ADD PUSH1 0x40 MSTORE RETURNDATASIZE DUP3 MSTORE RETURNDATASIZE PUSH1 0x0 PUSH1 0x20 DUP5 ADD RETURNDATACOPY PUSH2 0x2A40 JUMP JUMPDEST PUSH1 0x60 SWAP2 POP JUMPDEST POP PUSH1 0x0 DUP2 MLOAD SUB PUSH2 0x2A85 JUMPI PUSH1 0x40 MLOAD PUSH32 0x8C379A000000000000000000000000000000000000000000000000000000000 DUP2 MSTORE PUSH1 0x4 ADD PUSH2 0x2A7C SWAP1 PUSH2 0x4BCC JUMP JUMPDEST PUSH1 0x40 MLOAD DUP1 SWAP2 SUB SWAP1 REVERT JUMPDEST DUP1 MLOAD DUP2 PUSH1 0x20 ADD REVERT JUMPDEST PUSH4 0x150B7A02 PUSH1 0xE0 SHL PUSH28 0xFFFFFFFFFFFFFFFFFFFFFFFFFFFFFFFFFFFFFFFFFFFFFFFFFFFFFFFF NOT AND DUP2 PUSH28 0xFFFFFFFFFFFFFFFFFFFFFFFFFFFFFFFFFFFFFFFFFFFFFFFFFFFFFFFF NOT AND EQ SWAP2 POP POP PUSH2 0x2AE2 JUMP JUMPDEST PUSH1 0x1 SWAP1 POP JUMPDEST SWAP5 SWAP4 POP POP POP POP JUMP JUMPDEST PUSH1 0x60 PUSH1 0x0 PUSH1 0x1 PUSH2 0x2AF9 DUP5 PUSH2 0x3272 JUMP JUMPDEST ADD SWAP1 POP PUSH1 0x0 DUP2 PUSH8 0xFFFFFFFFFFFFFFFF DUP2 GT ISZERO PUSH2 0x2B18 JUMPI PUSH2 0x2B17 PUSH2 0x3B50 JUMP JUMPDEST JUMPDEST PUSH1 0x40 MLOAD SWAP1 DUP1 DUP3 MSTORE DUP1 PUSH1 0x1F ADD PUSH1 0x1F NOT AND PUSH1 0x20 ADD DUP3 ADD PUSH1 0x40 MSTORE DUP1 ISZERO PUSH2 0x2B4A JUMPI DUP2 PUSH1 0x20 ADD PUSH1 0x1 DUP3 MUL DUP1 CALLDATASIZE DUP4 CALLDATACOPY DUP1 DUP3 ADD SWAP2 POP POP SWAP1 POP JUMPDEST POP SWAP1 POP PUSH1 0x0 DUP3 PUSH1 0x20 ADD DUP3 ADD SWAP1 POP JUMPDEST PUSH1 0x1 ISZERO PUSH2 0x2BAD JUMPI DUP1 DUP1 PUSH1 0x1 SWAP1 SUB SWAP2 POP POP PUSH32 0x3031323334353637383961626364656600000000000000000000000000000000 PUSH1 0xA DUP7 MOD BYTE DUP2 MSTORE8 PUSH1 0xA DUP6 DUP2 PUSH2 0x2BA1 JUMPI PUSH2 0x2BA0 PUSH2 0x4023 JUMP JUMPDEST JUMPDEST DIV SWAP5 POP PUSH1 0x0 DUP6 SUB PUSH2 0x2B58 JUMPI JUMPDEST DUP2 SWAP4 POP POP POP POP SWAP2 SWAP1 POP JUMP JUMPDEST PUSH2 0x2BC0 PUSH2 0x11B5 JUMP JUMPDEST PUSH2 0x2BFF JUMPI PUSH1 0x40 MLOAD PUSH32 0x8C379A000000000000000000000000000000000000000000000000000000000 DUP2 MSTORE PUSH1 0x4 ADD PUSH2 0x2BF6 SWAP1 PUSH2 0x4DED JUMP JUMPDEST PUSH1 0x40 MLOAD DUP1 SWAP2 SUB SWAP1 REVERT JUMPDEST JUMP JUMPDEST PUSH1 0x0 PUSH32 0x7965DB0B00000000000000000000000000000000000000000000000000000000 PUSH28 0xFFFFFFFFFFFFFFFFFFFFFFFFFFFFFFFFFFFFFFFFFFFFFFFFFFFFFFFF NOT AND DUP3 PUSH28 0xFFFFFFFFFFFFFFFFFFFFFFFFFFFFFFFFFFFFFFFFFFFFFFFFFFFFFFFF NOT AND EQ DUP1 PUSH2 0x2C74 JUMPI POP PUSH2 0x2C73 DUP3 PUSH2 0x33C5 JUMP JUMPDEST JUMPDEST SWAP1 POP SWAP2 SWAP1 POP JUMP JUMPDEST PUSH1 0x60 PUSH2 0x2CA1 DUP3 PUSH20 0xFFFFFFFFFFFFFFFFFFFFFFFFFFFFFFFFFFFFFFFF AND PUSH1 0x14 PUSH1 0xFF AND PUSH2 0x2CA8 JUMP JUMPDEST SWAP1 POP SWAP2 SWAP1 POP JUMP JUMPDEST PUSH1 0x60 PUSH1 0x0 PUSH1 0x2 DUP4 PUSH1 0x2 PUSH2 0x2CBB SWAP2 SWAP1 PUSH2 0x3FE1 JUMP JUMPDEST PUSH2 0x2CC5 SWAP2 SWAP1 PUSH2 0x3FAD JUMP JUMPDEST PUSH8 0xFFFFFFFFFFFFFFFF DUP2 GT ISZERO PUSH2 0x2CDE JUMPI PUSH2 0x2CDD PUSH2 0x3B50 JUMP JUMPDEST JUMPDEST PUSH1 0x40 MLOAD SWAP1 DUP1 DUP3 MSTORE DUP1 PUSH1 0x1F ADD PUSH1 0x1F NOT AND PUSH1 0x20 ADD DUP3 ADD PUSH1 0x40 MSTORE DUP1 ISZERO PUSH2 0x2D10 JUMPI DUP2 PUSH1 0x20 ADD PUSH1 0x1 DUP3 MUL DUP1 CALLDATASIZE DUP4 CALLDATACOPY DUP1 DUP3 ADD SWAP2 POP POP SWAP1 POP JUMPDEST POP SWAP1 POP PUSH32 0x3000000000000000000000000000000000000000000000000000000000000000 DUP2 PUSH1 0x0 DUP2 MLOAD DUP2 LT PUSH2 0x2D48 JUMPI PUSH2 0x2D47 PUSH2 0x4E0D JUMP JUMPDEST JUMPDEST PUSH1 0x20 ADD ADD SWAP1 PUSH31 0xFFFFFFFFFFFFFFFFFFFFFFFFFFFFFFFFFFFFFFFFFFFFFFFFFFFFFFFFFFFFFF NOT AND SWAP1 DUP2 PUSH1 0x0 BYTE SWAP1 MSTORE8 POP PUSH32 0x7800000000000000000000000000000000000000000000000000000000000000 DUP2 PUSH1 0x1 DUP2 MLOAD DUP2 LT PUSH2 0x2DAC JUMPI PUSH2 0x2DAB PUSH2 0x4E0D JUMP JUMPDEST JUMPDEST PUSH1 0x20 ADD ADD SWAP1 PUSH31 0xFFFFFFFFFFFFFFFFFFFFFFFFFFFFFFFFFFFFFFFFFFFFFFFFFFFFFFFFFFFFFF NOT AND SWAP1 DUP2 PUSH1 0x0 BYTE SWAP1 MSTORE8 POP PUSH1 0x0 PUSH1 0x1 DUP5 PUSH1 0x2 PUSH2 0x2DEC SWAP2 SWAP1 PUSH2 0x3FE1 JUMP JUMPDEST PUSH2 0x2DF6 SWAP2 SWAP1 PUSH2 0x3FAD JUMP JUMPDEST SWAP1 POP JUMPDEST PUSH1 0x1 DUP2 GT ISZERO PUSH2 0x2E96 JUMPI PUSH32 0x3031323334353637383961626364656600000000000000000000000000000000 PUSH1 0xF DUP7 AND PUSH1 0x10 DUP2 LT PUSH2 0x2E38 JUMPI PUSH2 0x2E37 PUSH2 0x4E0D JUMP JUMPDEST JUMPDEST BYTE PUSH1 0xF8 SHL DUP3 DUP3 DUP2 MLOAD DUP2 LT PUSH2 0x2E4F JUMPI PUSH2 0x2E4E PUSH2 0x4E0D JUMP JUMPDEST JUMPDEST PUSH1 0x20 ADD ADD SWAP1 PUSH31 0xFFFFFFFFFFFFFFFFFFFFFFFFFFFFFFFFFFFFFFFFFFFFFFFFFFFFFFFFFFFFFF NOT AND SWAP1 DUP2 PUSH1 0x0 BYTE SWAP1 MSTORE8 POP PUSH1 0x4 DUP6 SWAP1 SHR SWAP5 POP DUP1 PUSH2 0x2E8F SWAP1 PUSH2 0x4E3C JUMP JUMPDEST SWAP1 POP PUSH2 0x2DF9 JUMP JUMPDEST POP PUSH1 0x0 DUP5 EQ PUSH2 0x2EDA JUMPI PUSH1 0x40 MLOAD PUSH32 0x8C379A000000000000000000000000000000000000000000000000000000000 DUP2 MSTORE PUSH1 0x4 ADD PUSH2 0x2ED1 SWAP1 PUSH2 0x4EB1 JUMP JUMPDEST PUSH1 0x40 MLOAD DUP1 SWAP2 SUB SWAP1 REVERT JUMPDEST DUP1 SWAP2 POP POP SWAP3 SWAP2 POP POP JUMP JUMPDEST PUSH1 0x0 PUSH2 0x2EEF DUP3 PUSH2 0x11CC JUMP JUMPDEST SWAP1 POP PUSH2 0x2EFF DUP2 PUSH1 0x0 DUP5 PUSH1 0x1 PUSH2 0x284A JUMP JUMPDEST PUSH2 0x2F08 DUP3 PUSH2 0x11CC JUMP JUMPDEST SWAP1 POP PUSH1 0x4 PUSH1 0x0 DUP4 DUP2 MSTORE PUSH1 0x20 ADD SWAP1 DUP2 MSTORE PUSH1 0x20 ADD PUSH1 0x0 KECCAK256 PUSH1 0x0 PUSH2 0x100 EXP DUP2 SLOAD SWAP1 PUSH20 0xFFFFFFFFFFFFFFFFFFFFFFFFFFFFFFFFFFFFFFFF MUL NOT AND SWAP1 SSTORE PUSH1 0x1 PUSH1 0x3 PUSH1 0x0 DUP4 PUSH20 0xFFFFFFFFFFFFFFFFFFFFFFFFFFFFFFFFFFFFFFFF AND PUSH20 0xFFFFFFFFFFFFFFFFFFFFFFFFFFFFFFFFFFFFFFFF AND DUP2 MSTORE PUSH1 0x20 ADD SWAP1 DUP2 MSTORE PUSH1 0x20 ADD PUSH1 0x0 KECCAK256 PUSH1 0x0 DUP3 DUP3 SLOAD SUB SWAP3 POP POP DUP2 SWAP1 SSTORE POP PUSH1 0x2 PUSH1 0x0 DUP4 DUP2 MSTORE PUSH1 0x20 ADD SWAP1 DUP2 MSTORE PUSH1 0x20 ADD PUSH1 0x0 KECCAK256 PUSH1 0x0 PUSH2 0x100 EXP DUP2 SLOAD SWAP1 PUSH20 0xFFFFFFFFFFFFFFFFFFFFFFFFFFFFFFFFFFFFFFFF MUL NOT AND SWAP1 SSTORE DUP2 PUSH1 0x0 PUSH20 0xFFFFFFFFFFFFFFFFFFFFFFFFFFFFFFFFFFFFFFFF AND DUP3 PUSH20 0xFFFFFFFFFFFFFFFFFFFFFFFFFFFFFFFFFFFFFFFF AND PUSH32 0xDDF252AD1BE2C89B69C2B068FC378DAA952BA7F163C4A11628F55A4DF523B3EF PUSH1 0x40 MLOAD PUSH1 0x40 MLOAD DUP1 SWAP2 SUB SWAP1 LOG4 PUSH2 0x302E DUP2 PUSH1 0x0 DUP5 PUSH1 0x1 PUSH2 0x2850 JUMP JUMPDEST POP POP JUMP JUMPDEST PUSH1 0x0 PUSH20 0xFFFFFFFFFFFFFFFFFFFFFFFFFFFFFFFFFFFFFFFF AND DUP3 PUSH20 0xFFFFFFFFFFFFFFFFFFFFFFFFFFFFFFFFFFFFFFFF AND SUB PUSH2 0x30A1 JUMPI PUSH1 0x40 MLOAD PUSH32 0x8C379A000000000000000000000000000000000000000000000000000000000 DUP2 MSTORE PUSH1 0x4 ADD PUSH2 0x3098 SWAP1 PUSH2 0x4F1D JUMP JUMPDEST PUSH1 0x40 MLOAD DUP1 SWAP2 SUB SWAP1 REVERT JUMPDEST PUSH2 0x30AA DUP2 PUSH2 0x2784 JUMP JUMPDEST ISZERO PUSH2 0x30EA JUMPI PUSH1 0x40 MLOAD PUSH32 0x8C379A000000000000000000000000000000000000000000000000000000000 DUP2 MSTORE PUSH1 0x4 ADD PUSH2 0x30E1 SWAP1 PUSH2 0x4F89 JUMP JUMPDEST PUSH1 0x40 MLOAD DUP1 SWAP2 SUB SWAP1 REVERT JUMPDEST PUSH2 0x30F8 PUSH1 0x0 DUP4 DUP4 PUSH1 0x1 PUSH2 0x284A JUMP JUMPDEST PUSH2 0x3101 DUP2 PUSH2 0x2784 JUMP JUMPDEST ISZERO PUSH2 0x3141 JUMPI PUSH1 0x40 MLOAD PUSH32 0x8C379A000000000000000000000000000000000000000000000000000000000 DUP2 MSTORE PUSH1 0x4 ADD PUSH2 0x3138 SWAP1 PUSH2 0x4F89 JUMP JUMPDEST PUSH1 0x40 MLOAD DUP1 SWAP2 SUB SWAP1 REVERT JUMPDEST PUSH1 0x1 PUSH1 0x3 PUSH1 0x0 DUP5 PUSH20 0xFFFFFFFFFFFFFFFFFFFFFFFFFFFFFFFFFFFFFFFF AND PUSH20 0xFFFFFFFFFFFFFFFFFFFFFFFFFFFFFFFFFFFFFFFF AND DUP2 MSTORE PUSH1 0x20 ADD SWAP1 DUP2 MSTORE PUSH1 0x20 ADD PUSH1 0x0 KECCAK256 PUSH1 0x0 DUP3 DUP3 SLOAD ADD SWAP3 POP POP DUP2 SWAP1 SSTORE POP DUP2 PUSH1 0x2 PUSH1 0x0 DUP4 DUP2 MSTORE PUSH1 0x20 ADD SWAP1 DUP2 MSTORE PUSH1 0x20 ADD PUSH1 0x0 KECCAK256 PUSH1 0x0 PUSH2 0x100 EXP DUP2 SLOAD DUP2 PUSH20 0xFFFFFFFFFFFFFFFFFFFFFFFFFFFFFFFFFFFFFFFF MUL NOT AND SWAP1 DUP4 PUSH20 0xFFFFFFFFFFFFFFFFFFFFFFFFFFFFFFFFFFFFFFFF AND MUL OR SWAP1 SSTORE POP DUP1 DUP3 PUSH20 0xFFFFFFFFFFFFFFFFFFFFFFFFFFFFFFFFFFFFFFFF AND PUSH1 0x0 PUSH20 0xFFFFFFFFFFFFFFFFFFFFFFFFFFFFFFFFFFFFFFFF AND PUSH32 0xDDF252AD1BE2C89B69C2B068FC378DAA952BA7F163C4A11628F55A4DF523B3EF PUSH1 0x40 MLOAD PUSH1 0x40 MLOAD DUP1 SWAP2 SUB SWAP1 LOG4 PUSH2 0x324B PUSH1 0x0 DUP4 DUP4 PUSH1 0x1 PUSH2 0x2850 JUMP JUMPDEST POP POP JUMP JUMPDEST PUSH1 0x0 DUP1 DUP3 PUSH20 0xFFFFFFFFFFFFFFFFFFFFFFFFFFFFFFFFFFFFFFFF AND EXTCODESIZE GT SWAP1 POP SWAP2 SWAP1 POP JUMP JUMPDEST PUSH1 0x0 DUP1 PUSH1 0x0 SWAP1 POP PUSH27 0x184F03E93FF9F4DAA797ED6E38ED64BF6A1F010000000000000000 DUP4 LT PUSH2 0x32D0 JUMPI PUSH27 0x184F03E93FF9F4DAA797ED6E38ED64BF6A1F010000000000000000 DUP4 DUP2 PUSH2 0x32C6 JUMPI PUSH2 0x32C5 PUSH2 0x4023 JUMP JUMPDEST JUMPDEST DIV SWAP3 POP PUSH1 0x40 DUP2 ADD SWAP1 POP JUMPDEST PUSH14 0x4EE2D6D415B85ACEF8100000000 DUP4 LT PUSH2 0x330D JUMPI PUSH14 0x4EE2D6D415B85ACEF8100000000 DUP4 DUP2 PUSH2 0x3303 JUMPI PUSH2 0x3302 PUSH2 0x4023 JUMP JUMPDEST JUMPDEST DIV SWAP3 POP PUSH1 0x20 DUP2 ADD SWAP1 POP JUMPDEST PUSH7 0x2386F26FC10000 DUP4 LT PUSH2 0x333C JUMPI PUSH7 0x2386F26FC10000 DUP4 DUP2 PUSH2 0x3332 JUMPI PUSH2 0x3331 PUSH2 0x4023 JUMP JUMPDEST JUMPDEST DIV SWAP3 POP PUSH1 0x10 DUP2 ADD SWAP1 POP JUMPDEST PUSH4 0x5F5E100 DUP4 LT PUSH2 0x3365 JUMPI PUSH4 0x5F5E100 DUP4 DUP2 PUSH2 0x335B JUMPI PUSH2 0x335A PUSH2 0x4023 JUMP JUMPDEST JUMPDEST DIV SWAP3 POP PUSH1 0x8 DUP2 ADD SWAP1 POP JUMPDEST PUSH2 0x2710 DUP4 LT PUSH2 0x338A JUMPI PUSH2 0x2710 DUP4 DUP2 PUSH2 0x3380 JUMPI PUSH2 0x337F PUSH2 0x4023 JUMP JUMPDEST JUMPDEST DIV SWAP3 POP PUSH1 0x4 DUP2 ADD SWAP1 POP JUMPDEST PUSH1 0x64 DUP4 LT PUSH2 0x33AD JUMPI PUSH1 0x64 DUP4 DUP2 PUSH2 0x33A3 JUMPI PUSH2 0x33A2 PUSH2 0x4023 JUMP JUMPDEST JUMPDEST DIV SWAP3 POP PUSH1 0x2 DUP2 ADD SWAP1 POP JUMPDEST PUSH1 0xA DUP4 LT PUSH2 0x33BC JUMPI PUSH1 0x1 DUP2 ADD SWAP1 POP JUMPDEST DUP1 SWAP2 POP POP SWAP2 SWAP1 POP JUMP JUMPDEST PUSH1 0x0 PUSH32 0x2A55205A00000000000000000000000000000000000000000000000000000000 PUSH28 0xFFFFFFFFFFFFFFFFFFFFFFFFFFFFFFFFFFFFFFFFFFFFFFFFFFFFFFFF NOT AND DUP3 PUSH28 0xFFFFFFFFFFFFFFFFFFFFFFFFFFFFFFFFFFFFFFFFFFFFFFFFFFFFFFFF NOT AND EQ DUP1 PUSH2 0x3438 JUMPI POP PUSH2 0x3437 DUP3 PUSH2 0x343F JUMP JUMPDEST JUMPDEST SWAP1 POP SWAP2 SWAP1 POP JUMP JUMPDEST PUSH1 0x0 PUSH32 0x80AC58CD00000000000000000000000000000000000000000000000000000000 PUSH28 0xFFFFFFFFFFFFFFFFFFFFFFFFFFFFFFFFFFFFFFFFFFFFFFFFFFFFFFFF NOT AND DUP3 PUSH28 0xFFFFFFFFFFFFFFFFFFFFFFFFFFFFFFFFFFFFFFFFFFFFFFFFFFFFFFFF NOT AND EQ DUP1 PUSH2 0x350A JUMPI POP PUSH32 0x5B5E139F00000000000000000000000000000000000000000000000000000000 PUSH28 0xFFFFFFFFFFFFFFFFFFFFFFFFFFFFFFFFFFFFFFFFFFFFFFFFFFFFFFFF NOT AND DUP3 PUSH28 0xFFFFFFFFFFFFFFFFFFFFFFFFFFFFFFFFFFFFFFFFFFFFFFFFFFFFFFFF NOT AND EQ JUMPDEST DUP1 PUSH2 0x351A JUMPI POP PUSH2 0x3519 DUP3 PUSH2 0x3521 JUMP JUMPDEST JUMPDEST SWAP1 POP SWAP2 SWAP1 POP JUMP JUMPDEST PUSH1 0x0 PUSH32 0x1FFC9A700000000000000000000000000000000000000000000000000000000 PUSH28 0xFFFFFFFFFFFFFFFFFFFFFFFFFFFFFFFFFFFFFFFFFFFFFFFFFFFFFFFF NOT AND DUP3 PUSH28 0xFFFFFFFFFFFFFFFFFFFFFFFFFFFFFFFFFFFFFFFFFFFFFFFFFFFFFFFF NOT AND EQ SWAP1 POP SWAP2 SWAP1 POP JUMP JUMPDEST POP DUP1 SLOAD PUSH2 0x3597 SWAP1 PUSH2 0x3D97 JUMP JUMPDEST PUSH1 0x0 DUP3 SSTORE DUP1 PUSH1 0x1F LT PUSH2 0x35A9 JUMPI POP PUSH2 0x35C8 JUMP JUMPDEST PUSH1 0x1F ADD PUSH1 0x20 SWAP1 DIV SWAP1 PUSH1 0x0 MSTORE PUSH1 0x20 PUSH1 0x0 KECCAK256 SWAP1 DUP2 ADD SWAP1 PUSH2 0x35C7 SWAP2 SWAP1 PUSH2 0x35CB JUMP JUMPDEST JUMPDEST POP JUMP JUMPDEST JUMPDEST DUP1 DUP3 GT ISZERO PUSH2 0x35E4 JUMPI PUSH1 0x0 DUP2 PUSH1 0x0 SWAP1 SSTORE POP PUSH1 0x1 ADD PUSH2 0x35CC JUMP JUMPDEST POP SWAP1 JUMP JUMPDEST PUSH1 0x0 PUSH1 0x40 MLOAD SWAP1 POP SWAP1 JUMP JUMPDEST PUSH1 0x0 DUP1 REVERT JUMPDEST PUSH1 0x0 DUP1 REVERT JUMPDEST PUSH1 0x0 PUSH32 0xFFFFFFFF00000000000000000000000000000000000000000000000000000000 DUP3 AND SWAP1 POP SWAP2 SWAP1 POP JUMP JUMPDEST PUSH2 0x3631 DUP2 PUSH2 0x35FC JUMP JUMPDEST DUP2 EQ PUSH2 0x363C JUMPI PUSH1 0x0 DUP1 REVERT JUMPDEST POP JUMP JUMPDEST PUSH1 0x0 DUP2 CALLDATALOAD SWAP1 POP PUSH2 0x364E DUP2 PUSH2 0x3628 JUMP JUMPDEST SWAP3 SWAP2 POP POP JUMP JUMPDEST PUSH1 0x0 PUSH1 0x20 DUP3 DUP5 SUB SLT ISZERO PUSH2 0x366A JUMPI PUSH2 0x3669 PUSH2 0x35F2 JUMP JUMPDEST JUMPDEST PUSH1 0x0 PUSH2 0x3678 DUP5 DUP3 DUP6 ADD PUSH2 0x363F JUMP JUMPDEST SWAP2 POP POP SWAP3 SWAP2 POP POP JUMP JUMPDEST PUSH1 0x0 DUP2 ISZERO ISZERO SWAP1 POP SWAP2 SWAP1 POP JUMP JUMPDEST PUSH2 0x3696 DUP2 PUSH2 0x3681 JUMP JUMPDEST DUP3 MSTORE POP POP JUMP JUMPDEST PUSH1 0x0 PUSH1 0x20 DUP3 ADD SWAP1 POP PUSH2 0x36B1 PUSH1 0x0 DUP4 ADD DUP5 PUSH2 0x368D JUMP JUMPDEST SWAP3 SWAP2 POP POP JUMP JUMPDEST PUSH1 0x0 DUP2 SWAP1 POP SWAP2 SWAP1 POP JUMP JUMPDEST PUSH2 0x36CA DUP2 PUSH2 0x36B7 JUMP JUMPDEST DUP3 MSTORE POP POP JUMP JUMPDEST PUSH1 0x0 PUSH1 0x20 DUP3 ADD SWAP1 POP PUSH2 0x36E5 PUSH1 0x0 DUP4 ADD DUP5 PUSH2 0x36C1 JUMP JUMPDEST SWAP3 SWAP2 POP POP JUMP JUMPDEST PUSH1 0x0 DUP2 MLOAD SWAP1 POP SWAP2 SWAP1 POP JUMP JUMPDEST PUSH1 0x0 DUP3 DUP3 MSTORE PUSH1 0x20 DUP3 ADD SWAP1 POP SWAP3 SWAP2 POP POP JUMP JUMPDEST PUSH1 0x0 JUMPDEST DUP4 DUP2 LT ISZERO PUSH2 0x3725 JUMPI DUP1 DUP3 ADD MLOAD DUP2 DUP5 ADD MSTORE PUSH1 0x20 DUP2 ADD SWAP1 POP PUSH2 0x370A JUMP JUMPDEST PUSH1 0x0 DUP5 DUP5 ADD MSTORE POP POP POP POP JUMP JUMPDEST PUSH1 0x0 PUSH1 0x1F NOT PUSH1 0x1F DUP4 ADD AND SWAP1 POP SWAP2 SWAP1 POP JUMP JUMPDEST PUSH1 0x0 PUSH2 0x374D DUP3 PUSH2 0x36EB JUMP JUMPDEST PUSH2 0x3757 DUP2 DUP6 PUSH2 0x36F6 JUMP JUMPDEST SWAP4 POP PUSH2 0x3767 DUP2 DUP6 PUSH1 0x20 DUP7 ADD PUSH2 0x3707 JUMP JUMPDEST PUSH2 0x3770 DUP2 PUSH2 0x3731 JUMP JUMPDEST DUP5 ADD SWAP2 POP POP SWAP3 SWAP2 POP POP JUMP JUMPDEST PUSH1 0x0 PUSH1 0x20 DUP3 ADD SWAP1 POP DUP2 DUP2 SUB PUSH1 0x0 DUP4 ADD MSTORE PUSH2 0x3795 DUP2 DUP5 PUSH2 0x3742 JUMP JUMPDEST SWAP1 POP SWAP3 SWAP2 POP POP JUMP JUMPDEST PUSH2 0x37A6 DUP2 PUSH2 0x36B7 JUMP JUMPDEST DUP2 EQ PUSH2 0x37B1 JUMPI PUSH1 0x0 DUP1 REVERT JUMPDEST POP JUMP JUMPDEST PUSH1 0x0 DUP2 CALLDATALOAD SWAP1 POP PUSH2 0x37C3 DUP2 PUSH2 0x379D JUMP JUMPDEST SWAP3 SWAP2 POP POP JUMP JUMPDEST PUSH1 0x0 PUSH1 0x20 DUP3 DUP5 SUB SLT ISZERO PUSH2 0x37DF JUMPI PUSH2 0x37DE PUSH2 0x35F2 JUMP JUMPDEST JUMPDEST PUSH1 0x0 PUSH2 0x37ED DUP5 DUP3 DUP6 ADD PUSH2 0x37B4 JUMP JUMPDEST SWAP2 POP POP SWAP3 SWAP2 POP POP JUMP JUMPDEST PUSH1 0x0 PUSH20 0xFFFFFFFFFFFFFFFFFFFFFFFFFFFFFFFFFFFFFFFF DUP3 AND SWAP1 POP SWAP2 SWAP1 POP JUMP JUMPDEST PUSH1 0x0 PUSH2 0x3821 DUP3 PUSH2 0x37F6 JUMP JUMPDEST SWAP1 POP SWAP2 SWAP1 POP JUMP JUMPDEST PUSH2 0x3831 DUP2 PUSH2 0x3816 JUMP JUMPDEST DUP3 MSTORE POP POP JUMP JUMPDEST PUSH1 0x0 PUSH1 0x20 DUP3 ADD SWAP1 POP PUSH2 0x384C PUSH1 0x0 DUP4 ADD DUP5 PUSH2 0x3828 JUMP JUMPDEST SWAP3 SWAP2 POP POP JUMP JUMPDEST PUSH2 0x385B DUP2 PUSH2 0x3816 JUMP JUMPDEST DUP2 EQ PUSH2 0x3866 JUMPI PUSH1 0x0 DUP1 REVERT JUMPDEST POP JUMP JUMPDEST PUSH1 0x0 DUP2 CALLDATALOAD SWAP1 POP PUSH2 0x3878 DUP2 PUSH2 0x3852 JUMP JUMPDEST SWAP3 SWAP2 POP POP JUMP JUMPDEST PUSH1 0x0 DUP1 PUSH1 0x40 DUP4 DUP6 SUB SLT ISZERO PUSH2 0x3895 JUMPI PUSH2 0x3894 PUSH2 0x35F2 JUMP JUMPDEST JUMPDEST PUSH1 0x0 PUSH2 0x38A3 DUP6 DUP3 DUP7 ADD PUSH2 0x3869 JUMP JUMPDEST SWAP3 POP POP PUSH1 0x20 PUSH2 0x38B4 DUP6 DUP3 DUP7 ADD PUSH2 0x37B4 JUMP JUMPDEST SWAP2 POP POP SWAP3 POP SWAP3 SWAP1 POP JUMP JUMPDEST PUSH1 0x0 PUSH1 0x20 DUP3 DUP5 SUB SLT ISZERO PUSH2 0x38D4 JUMPI PUSH2 0x38D3 PUSH2 0x35F2 JUMP JUMPDEST JUMPDEST PUSH1 0x0 PUSH2 0x38E2 DUP5 DUP3 DUP6 ADD PUSH2 0x3869 JUMP JUMPDEST SWAP2 POP POP SWAP3 SWAP2 POP POP JUMP JUMPDEST PUSH1 0x0 DUP1 PUSH1 0x0 PUSH1 0x60 DUP5 DUP7 SUB SLT ISZERO PUSH2 0x3904 JUMPI PUSH2 0x3903 PUSH2 0x35F2 JUMP JUMPDEST JUMPDEST PUSH1 0x0 PUSH2 0x3912 DUP7 DUP3 DUP8 ADD PUSH2 0x3869 JUMP JUMPDEST SWAP4 POP POP PUSH1 0x20 PUSH2 0x3923 DUP7 DUP3 DUP8 ADD PUSH2 0x3869 JUMP JUMPDEST SWAP3 POP POP PUSH1 0x40 PUSH2 0x3934 DUP7 DUP3 DUP8 ADD PUSH2 0x37B4 JUMP JUMPDEST SWAP2 POP POP SWAP3 POP SWAP3 POP SWAP3 JUMP JUMPDEST PUSH1 0x0 PUSH1 0xFF DUP3 AND SWAP1 POP SWAP2 SWAP1 POP JUMP JUMPDEST PUSH2 0x3954 DUP2 PUSH2 0x393E JUMP JUMPDEST DUP2 EQ PUSH2 0x395F JUMPI PUSH1 0x0 DUP1 REVERT JUMPDEST POP JUMP JUMPDEST PUSH1 0x0 DUP2 CALLDATALOAD SWAP1 POP PUSH2 0x3971 DUP2 PUSH2 0x394B JUMP JUMPDEST SWAP3 SWAP2 POP POP JUMP JUMPDEST PUSH1 0x0 PUSH1 0x20 DUP3 DUP5 SUB SLT ISZERO PUSH2 0x398D JUMPI PUSH2 0x398C PUSH2 0x35F2 JUMP JUMPDEST JUMPDEST PUSH1 0x0 PUSH2 0x399B DUP5 DUP3 DUP6 ADD PUSH2 0x3962 JUMP JUMPDEST SWAP2 POP POP SWAP3 SWAP2 POP POP JUMP JUMPDEST PUSH1 0x0 DUP2 SWAP1 POP SWAP2 SWAP1 POP JUMP JUMPDEST PUSH2 0x39B7 DUP2 PUSH2 0x39A4 JUMP JUMPDEST DUP2 EQ PUSH2 0x39C2 JUMPI PUSH1 0x0 DUP1 REVERT JUMPDEST POP JUMP JUMPDEST PUSH1 0x0 DUP2 CALLDATALOAD SWAP1 POP PUSH2 0x39D4 DUP2 PUSH2 0x39AE JUMP JUMPDEST SWAP3 SWAP2 POP POP JUMP JUMPDEST PUSH1 0x0 PUSH1 0x20 DUP3 DUP5 SUB SLT ISZERO PUSH2 0x39F0 JUMPI PUSH2 0x39EF PUSH2 0x35F2 JUMP JUMPDEST JUMPDEST PUSH1 0x0 PUSH2 0x39FE DUP5 DUP3 DUP6 ADD PUSH2 0x39C5 JUMP JUMPDEST SWAP2 POP POP SWAP3 SWAP2 POP POP JUMP JUMPDEST PUSH2 0x3A10 DUP2 PUSH2 0x39A4 JUMP JUMPDEST DUP3 MSTORE POP POP JUMP JUMPDEST PUSH1 0x0 PUSH1 0x20 DUP3 ADD SWAP1 POP PUSH2 0x3A2B PUSH1 0x0 DUP4 ADD DUP5 PUSH2 0x3A07 JUMP JUMPDEST SWAP3 SWAP2 POP POP JUMP JUMPDEST PUSH1 0x0 DUP1 PUSH1 0x40 DUP4 DUP6 SUB SLT ISZERO PUSH2 0x3A48 JUMPI PUSH2 0x3A47 PUSH2 0x35F2 JUMP JUMPDEST JUMPDEST PUSH1 0x0 PUSH2 0x3A56 DUP6 DUP3 DUP7 ADD PUSH2 0x37B4 JUMP JUMPDEST SWAP3 POP POP PUSH1 0x20 PUSH2 0x3A67 DUP6 DUP3 DUP7 ADD PUSH2 0x37B4 JUMP JUMPDEST SWAP2 POP POP SWAP3 POP SWAP3 SWAP1 POP JUMP JUMPDEST PUSH1 0x0 PUSH1 0x40 DUP3 ADD SWAP1 POP PUSH2 0x3A86 PUSH1 0x0 DUP4 ADD DUP6 PUSH2 0x3828 JUMP JUMPDEST PUSH2 0x3A93 PUSH1 0x20 DUP4 ADD DUP5 PUSH2 0x36C1 JUMP JUMPDEST SWAP4 SWAP3 POP POP POP JUMP JUMPDEST PUSH1 0x0 DUP1 PUSH1 0x40 DUP4 DUP6 SUB SLT ISZERO PUSH2 0x3AB1 JUMPI PUSH2 0x3AB0 PUSH2 0x35F2 JUMP JUMPDEST JUMPDEST PUSH1 0x0 PUSH2 0x3ABF DUP6 DUP3 DUP7 ADD PUSH2 0x39C5 JUMP JUMPDEST SWAP3 POP POP PUSH1 0x20 PUSH2 0x3AD0 DUP6 DUP3 DUP7 ADD PUSH2 0x3869 JUMP JUMPDEST SWAP2 POP POP SWAP3 POP SWAP3 SWAP1 POP JUMP JUMPDEST PUSH2 0x3AE3 DUP2 PUSH2 0x3681 JUMP JUMPDEST DUP2 EQ PUSH2 0x3AEE JUMPI PUSH1 0x0 DUP1 REVERT JUMPDEST POP JUMP JUMPDEST PUSH1 0x0 DUP2 CALLDATALOAD SWAP1 POP PUSH2 0x3B00 DUP2 PUSH2 0x3ADA JUMP JUMPDEST SWAP3 SWAP2 POP POP JUMP JUMPDEST PUSH1 0x0 DUP1 PUSH1 0x40 DUP4 DUP6 SUB SLT ISZERO PUSH2 0x3B1D JUMPI PUSH2 0x3B1C PUSH2 0x35F2 JUMP JUMPDEST JUMPDEST PUSH1 0x0 PUSH2 0x3B2B DUP6 DUP3 DUP7 ADD PUSH2 0x3869 JUMP JUMPDEST SWAP3 POP POP PUSH1 0x20 PUSH2 0x3B3C DUP6 DUP3 DUP7 ADD PUSH2 0x3AF1 JUMP JUMPDEST SWAP2 POP POP SWAP3 POP SWAP3 SWAP1 POP JUMP JUMPDEST PUSH1 0x0 DUP1 REVERT JUMPDEST PUSH1 0x0 DUP1 REVERT JUMPDEST PUSH32 0x4E487B7100000000000000000000000000000000000000000000000000000000 PUSH1 0x0 MSTORE PUSH1 0x41 PUSH1 0x4 MSTORE PUSH1 0x24 PUSH1 0x0 REVERT JUMPDEST PUSH2 0x3B88 DUP3 PUSH2 0x3731 JUMP JUMPDEST DUP2 ADD DUP2 DUP2 LT PUSH8 0xFFFFFFFFFFFFFFFF DUP3 GT OR ISZERO PUSH2 0x3BA7 JUMPI PUSH2 0x3BA6 PUSH2 0x3B50 JUMP JUMPDEST JUMPDEST DUP1 PUSH1 0x40 MSTORE POP POP POP JUMP JUMPDEST PUSH1 0x0 PUSH2 0x3BBA PUSH2 0x35E8 JUMP JUMPDEST SWAP1 POP PUSH2 0x3BC6 DUP3 DUP3 PUSH2 0x3B7F JUMP JUMPDEST SWAP2 SWAP1 POP JUMP JUMPDEST PUSH1 0x0 PUSH8 0xFFFFFFFFFFFFFFFF DUP3 GT ISZERO PUSH2 0x3BE6 JUMPI PUSH2 0x3BE5 PUSH2 0x3B50 JUMP JUMPDEST JUMPDEST PUSH2 0x3BEF DUP3 PUSH2 0x3731 JUMP JUMPDEST SWAP1 POP PUSH1 0x20 DUP2 ADD SWAP1 POP SWAP2 SWAP1 POP JUMP JUMPDEST DUP3 DUP2 DUP4 CALLDATACOPY PUSH1 0x0 DUP4 DUP4 ADD MSTORE POP POP POP JUMP JUMPDEST PUSH1 0x0 PUSH2 0x3C1E PUSH2 0x3C19 DUP5 PUSH2 0x3BCB JUMP JUMPDEST PUSH2 0x3BB0 JUMP JUMPDEST SWAP1 POP DUP3 DUP2 MSTORE PUSH1 0x20 DUP2 ADD DUP5 DUP5 DUP5 ADD GT ISZERO PUSH2 0x3C3A JUMPI PUSH2 0x3C39 PUSH2 0x3B4B JUMP JUMPDEST JUMPDEST PUSH2 0x3C45 DUP5 DUP3 DUP6 PUSH2 0x3BFC JUMP JUMPDEST POP SWAP4 SWAP3 POP POP POP JUMP JUMPDEST PUSH1 0x0 DUP3 PUSH1 0x1F DUP4 ADD SLT PUSH2 0x3C62 JUMPI PUSH2 0x3C61 PUSH2 0x3B46 JUMP JUMPDEST JUMPDEST DUP2 CALLDATALOAD PUSH2 0x3C72 DUP5 DUP3 PUSH1 0x20 DUP7 ADD PUSH2 0x3C0B JUMP JUMPDEST SWAP2 POP POP SWAP3 SWAP2 POP POP JUMP JUMPDEST PUSH1 0x0 DUP1 PUSH1 0x0 DUP1 PUSH1 0x80 DUP6 DUP8 SUB SLT ISZERO PUSH2 0x3C95 JUMPI PUSH2 0x3C94 PUSH2 0x35F2 JUMP JUMPDEST JUMPDEST PUSH1 0x0 PUSH2 0x3CA3 DUP8 DUP3 DUP9 ADD PUSH2 0x3869 JUMP JUMPDEST SWAP5 POP POP PUSH1 0x20 PUSH2 0x3CB4 DUP8 DUP3 DUP9 ADD PUSH2 0x3869 JUMP JUMPDEST SWAP4 POP POP PUSH1 0x40 PUSH2 0x3CC5 DUP8 DUP3 DUP9 ADD PUSH2 0x37B4 JUMP JUMPDEST SWAP3 POP POP PUSH1 0x60 DUP6 ADD CALLDATALOAD PUSH8 0xFFFFFFFFFFFFFFFF DUP2 GT ISZERO PUSH2 0x3CE6 JUMPI PUSH2 0x3CE5 PUSH2 0x35F7 JUMP JUMPDEST JUMPDEST PUSH2 0x3CF2 DUP8 DUP3 DUP9 ADD PUSH2 0x3C4D JUMP JUMPDEST SWAP2 POP POP SWAP3 SWAP6 SWAP2 SWAP5 POP SWAP3 POP JUMP JUMPDEST PUSH2 0x3D07 DUP2 PUSH2 0x393E JUMP JUMPDEST DUP3 MSTORE POP POP JUMP JUMPDEST PUSH1 0x0 PUSH1 0x20 DUP3 ADD SWAP1 POP PUSH2 0x3D22 PUSH1 0x0 DUP4 ADD DUP5 PUSH2 0x3CFE JUMP JUMPDEST SWAP3 SWAP2 POP POP JUMP JUMPDEST PUSH1 0x0 DUP1 PUSH1 0x40 DUP4 DUP6 SUB SLT ISZERO PUSH2 0x3D3F JUMPI PUSH2 0x3D3E PUSH2 0x35F2 JUMP JUMPDEST JUMPDEST PUSH1 0x0 PUSH2 0x3D4D DUP6 DUP3 DUP7 ADD PUSH2 0x3869 JUMP JUMPDEST SWAP3 POP POP PUSH1 0x20 PUSH2 0x3D5E DUP6 DUP3 DUP7 ADD PUSH2 0x3869 JUMP JUMPDEST SWAP2 POP POP SWAP3 POP SWAP3 SWAP1 POP JUMP JUMPDEST PUSH32 0x4E487B7100000000000000000000000000000000000000000000000000000000 PUSH1 0x0 MSTORE PUSH1 0x22 PUSH1 0x4 MSTORE PUSH1 0x24 PUSH1 0x0 REVERT JUMPDEST PUSH1 0x0 PUSH1 0x2 DUP3 DIV SWAP1 POP PUSH1 0x1 DUP3 AND DUP1 PUSH2 0x3DAF JUMPI PUSH1 0x7F DUP3 AND SWAP2 POP JUMPDEST PUSH1 0x20 DUP3 LT DUP2 SUB PUSH2 0x3DC2 JUMPI PUSH2 0x3DC1 PUSH2 0x3D68 JUMP JUMPDEST JUMPDEST POP SWAP2 SWAP1 POP JUMP JUMPDEST PUSH32 0x4552433732313A20617070726F76616C20746F2063757272656E74206F776E65 PUSH1 0x0 DUP3 ADD MSTORE PUSH32 0x7200000000000000000000000000000000000000000000000000000000000000 PUSH1 0x20 DUP3 ADD MSTORE POP JUMP JUMPDEST PUSH1 0x0 PUSH2 0x3E24 PUSH1 0x21 DUP4 PUSH2 0x36F6 JUMP JUMPDEST SWAP2 POP PUSH2 0x3E2F DUP3 PUSH2 0x3DC8 JUMP JUMPDEST PUSH1 0x40 DUP3 ADD SWAP1 POP SWAP2 SWAP1 POP JUMP JUMPDEST PUSH1 0x0 PUSH1 0x20 DUP3 ADD SWAP1 POP DUP2 DUP2 SUB PUSH1 0x0 DUP4 ADD MSTORE PUSH2 0x3E53 DUP2 PUSH2 0x3E17 JUMP JUMPDEST SWAP1 POP SWAP2 SWAP1 POP JUMP JUMPDEST PUSH32 0x4552433732313A20617070726F76652063616C6C6572206973206E6F7420746F PUSH1 0x0 DUP3 ADD MSTORE PUSH32 0x6B656E206F776E6572206F7220617070726F76656420666F7220616C6C000000 PUSH1 0x20 DUP3 ADD MSTORE POP JUMP JUMPDEST PUSH1 0x0 PUSH2 0x3EB6 PUSH1 0x3D DUP4 PUSH2 0x36F6 JUMP JUMPDEST SWAP2 POP PUSH2 0x3EC1 DUP3 PUSH2 0x3E5A JUMP JUMPDEST PUSH1 0x40 DUP3 ADD SWAP1 POP SWAP2 SWAP1 POP JUMP JUMPDEST PUSH1 0x0 PUSH1 0x20 DUP3 ADD SWAP1 POP DUP2 DUP2 SUB PUSH1 0x0 DUP4 ADD MSTORE PUSH2 0x3EE5 DUP2 PUSH2 0x3EA9 JUMP JUMPDEST SWAP1 POP SWAP2 SWAP1 POP JUMP JUMPDEST PUSH32 0x4552433732313A2063616C6C6572206973206E6F7420746F6B656E206F776E65 PUSH1 0x0 DUP3 ADD MSTORE PUSH32 0x72206F7220617070726F76656400000000000000000000000000000000000000 PUSH1 0x20 DUP3 ADD MSTORE POP JUMP JUMPDEST PUSH1 0x0 PUSH2 0x3F48 PUSH1 0x2D DUP4 PUSH2 0x36F6 JUMP JUMPDEST SWAP2 POP PUSH2 0x3F53 DUP3 PUSH2 0x3EEC JUMP JUMPDEST PUSH1 0x40 DUP3 ADD SWAP1 POP SWAP2 SWAP1 POP JUMP JUMPDEST PUSH1 0x0 PUSH1 0x20 DUP3 ADD SWAP1 POP DUP2 DUP2 SUB PUSH1 0x0 DUP4 ADD MSTORE PUSH2 0x3F77 DUP2 PUSH2 0x3F3B JUMP JUMPDEST SWAP1 POP SWAP2 SWAP1 POP JUMP JUMPDEST PUSH32 0x4E487B7100000000000000000000000000000000000000000000000000000000 PUSH1 0x0 MSTORE PUSH1 0x11 PUSH1 0x4 MSTORE PUSH1 0x24 PUSH1 0x0 REVERT JUMPDEST PUSH1 0x0 PUSH2 0x3FB8 DUP3 PUSH2 0x36B7 JUMP JUMPDEST SWAP2 POP PUSH2 0x3FC3 DUP4 PUSH2 0x36B7 JUMP JUMPDEST SWAP3 POP DUP3 DUP3 ADD SWAP1 POP DUP1 DUP3 GT ISZERO PUSH2 0x3FDB JUMPI PUSH2 0x3FDA PUSH2 0x3F7E JUMP JUMPDEST JUMPDEST SWAP3 SWAP2 POP POP JUMP JUMPDEST PUSH1 0x0 PUSH2 0x3FEC DUP3 PUSH2 0x36B7 JUMP JUMPDEST SWAP2 POP PUSH2 0x3FF7 DUP4 PUSH2 0x36B7 JUMP JUMPDEST SWAP3 POP DUP3 DUP3 MUL PUSH2 0x4005 DUP2 PUSH2 0x36B7 JUMP JUMPDEST SWAP2 POP DUP3 DUP3 DIV DUP5 EQ DUP4 ISZERO OR PUSH2 0x401C JUMPI PUSH2 0x401B PUSH2 0x3F7E JUMP JUMPDEST JUMPDEST POP SWAP3 SWAP2 POP POP JUMP JUMPDEST PUSH32 0x4E487B7100000000000000000000000000000000000000000000000000000000 PUSH1 0x0 MSTORE PUSH1 0x12 PUSH1 0x4 MSTORE PUSH1 0x24 PUSH1 0x0 REVERT JUMPDEST PUSH1 0x0 PUSH2 0x405D DUP3 PUSH2 0x36B7 JUMP JUMPDEST SWAP2 POP PUSH2 0x4068 DUP4 PUSH2 0x36B7 JUMP JUMPDEST SWAP3 POP DUP3 PUSH2 0x4078 JUMPI PUSH2 0x4077 PUSH2 0x4023 JUMP JUMPDEST JUMPDEST DUP3 DUP3 DIV SWAP1 POP SWAP3 SWAP2 POP POP JUMP JUMPDEST PUSH32 0x416363657373436F6E74726F6C3A2063616E206F6E6C792072656E6F756E6365 PUSH1 0x0 DUP3 ADD MSTORE PUSH32 0x20726F6C657320666F722073656C660000000000000000000000000000000000 PUSH1 0x20 DUP3 ADD MSTORE POP JUMP JUMPDEST PUSH1 0x0 PUSH2 0x40DF PUSH1 0x2F DUP4 PUSH2 0x36F6 JUMP JUMPDEST SWAP2 POP PUSH2 0x40EA DUP3 PUSH2 0x4083 JUMP JUMPDEST PUSH1 0x40 DUP3 ADD SWAP1 POP SWAP2 SWAP1 POP JUMP JUMPDEST PUSH1 0x0 PUSH1 0x20 DUP3 ADD SWAP1 POP DUP2 DUP2 SUB PUSH1 0x0 DUP4 ADD MSTORE PUSH2 0x410E DUP2 PUSH2 0x40D2 JUMP JUMPDEST SWAP1 POP SWAP2 SWAP1 POP JUMP JUMPDEST PUSH32 0x556E61626C6520746F206D696E7420746F6B656E732061667465722074686520 PUSH1 0x0 DUP3 ADD MSTORE PUSH32 0x7469636B6574207469657220636C6F7365206461746520686173207061737365 PUSH1 0x20 DUP3 ADD MSTORE PUSH32 0x642E000000000000000000000000000000000000000000000000000000000000 PUSH1 0x40 DUP3 ADD MSTORE POP JUMP JUMPDEST PUSH1 0x0 PUSH2 0x4197 PUSH1 0x42 DUP4 PUSH2 0x36F6 JUMP JUMPDEST SWAP2 POP PUSH2 0x41A2 DUP3 PUSH2 0x4115 JUMP JUMPDEST PUSH1 0x60 DUP3 ADD SWAP1 POP SWAP2 SWAP1 POP JUMP JUMPDEST PUSH1 0x0 PUSH1 0x20 DUP3 ADD SWAP1 POP DUP2 DUP2 SUB PUSH1 0x0 DUP4 ADD MSTORE PUSH2 0x41C6 DUP2 PUSH2 0x418A JUMP JUMPDEST SWAP1 POP SWAP2 SWAP1 POP JUMP JUMPDEST PUSH32 0x5469636B657420737570706C7920736F6C64206F757400000000000000000000 PUSH1 0x0 DUP3 ADD MSTORE POP JUMP JUMPDEST PUSH1 0x0 PUSH2 0x4203 PUSH1 0x16 DUP4 PUSH2 0x36F6 JUMP JUMPDEST SWAP2 POP PUSH2 0x420E DUP3 PUSH2 0x41CD JUMP JUMPDEST PUSH1 0x20 DUP3 ADD SWAP1 POP SWAP2 SWAP1 POP JUMP JUMPDEST PUSH1 0x0 PUSH1 0x20 DUP3 ADD SWAP1 POP DUP2 DUP2 SUB PUSH1 0x0 DUP4 ADD MSTORE PUSH2 0x4232 DUP2 PUSH2 0x41F6 JUMP JUMPDEST SWAP1 POP SWAP2 SWAP1 POP JUMP JUMPDEST PUSH32 0x526563697069656E742063616E277420626520746865207A65726F2061646472 PUSH1 0x0 DUP3 ADD MSTORE PUSH32 0x6573732E00000000000000000000000000000000000000000000000000000000 PUSH1 0x20 DUP3 ADD MSTORE POP JUMP JUMPDEST PUSH1 0x0 PUSH2 0x4295 PUSH1 0x24 DUP4 PUSH2 0x36F6 JUMP JUMPDEST SWAP2 POP PUSH2 0x42A0 DUP3 PUSH2 0x4239 JUMP JUMPDEST PUSH1 0x40 DUP3 ADD SWAP1 POP SWAP2 SWAP1 POP JUMP JUMPDEST PUSH1 0x0 PUSH1 0x20 DUP3 ADD SWAP1 POP DUP2 DUP2 SUB PUSH1 0x0 DUP4 ADD MSTORE PUSH2 0x42C4 DUP2 PUSH2 0x4288 JUMP JUMPDEST SWAP1 POP SWAP2 SWAP1 POP JUMP JUMPDEST PUSH32 0x4E487B7100000000000000000000000000000000000000000000000000000000 PUSH1 0x0 MSTORE PUSH1 0x21 PUSH1 0x4 MSTORE PUSH1 0x24 PUSH1 0x0 REVERT JUMPDEST PUSH32 0x4552433732313A20696E76616C696420746F6B656E2049440000000000000000 PUSH1 0x0 DUP3 ADD MSTORE POP JUMP JUMPDEST PUSH1 0x0 PUSH2 0x4330 PUSH1 0x18 DUP4 PUSH2 0x36F6 JUMP JUMPDEST SWAP2 POP PUSH2 0x433B DUP3 PUSH2 0x42FA JUMP JUMPDEST PUSH1 0x20 DUP3 ADD SWAP1 POP SWAP2 SWAP1 POP JUMP JUMPDEST PUSH1 0x0 PUSH1 0x20 DUP3 ADD SWAP1 POP DUP2 DUP2 SUB PUSH1 0x0 DUP4 ADD MSTORE PUSH2 0x435F DUP2 PUSH2 0x4323 JUMP JUMPDEST SWAP1 POP SWAP2 SWAP1 POP JUMP JUMPDEST PUSH32 0x4552433732313A2061646472657373207A65726F206973206E6F742061207661 PUSH1 0x0 DUP3 ADD MSTORE PUSH32 0x6C6964206F776E65720000000000000000000000000000000000000000000000 PUSH1 0x20 DUP3 ADD MSTORE POP JUMP JUMPDEST PUSH1 0x0 PUSH2 0x43C2 PUSH1 0x29 DUP4 PUSH2 0x36F6 JUMP JUMPDEST SWAP2 POP PUSH2 0x43CD DUP3 PUSH2 0x4366 JUMP JUMPDEST PUSH1 0x40 DUP3 ADD SWAP1 POP SWAP2 SWAP1 POP JUMP JUMPDEST PUSH1 0x0 PUSH1 0x20 DUP3 ADD SWAP1 POP DUP2 DUP2 SUB PUSH1 0x0 DUP4 ADD MSTORE PUSH2 0x43F1 DUP2 PUSH2 0x43B5 JUMP JUMPDEST SWAP1 POP SWAP2 SWAP1 POP JUMP JUMPDEST PUSH1 0x0 PUSH2 0x100 DUP3 ADD SWAP1 POP PUSH2 0x440E PUSH1 0x0 DUP4 ADD DUP12 PUSH2 0x3828 JUMP JUMPDEST PUSH2 0x441B PUSH1 0x20 DUP4 ADD DUP11 PUSH2 0x36C1 JUMP JUMPDEST PUSH2 0x4428 PUSH1 0x40 DUP4 ADD DUP10 PUSH2 0x3CFE JUMP JUMPDEST PUSH2 0x4435 PUSH1 0x60 DUP4 ADD DUP9 PUSH2 0x3828 JUMP JUMPDEST PUSH2 0x4442 PUSH1 0x80 DUP4 ADD DUP8 PUSH2 0x36C1 JUMP JUMPDEST PUSH2 0x444F PUSH1 0xA0 DUP4 ADD DUP7 PUSH2 0x36C1 JUMP JUMPDEST PUSH2 0x445C PUSH1 0xC0 DUP4 ADD DUP6 PUSH2 0x36C1 JUMP JUMPDEST PUSH2 0x4469 PUSH1 0xE0 DUP4 ADD DUP5 PUSH2 0x36C1 JUMP JUMPDEST SWAP10 SWAP9 POP POP POP POP POP POP POP POP POP JUMP JUMPDEST PUSH1 0x0 DUP2 SWAP1 POP SWAP3 SWAP2 POP POP JUMP JUMPDEST PUSH1 0x0 PUSH2 0x448C DUP3 PUSH2 0x36EB JUMP JUMPDEST PUSH2 0x4496 DUP2 DUP6 PUSH2 0x4476 JUMP JUMPDEST SWAP4 POP PUSH2 0x44A6 DUP2 DUP6 PUSH1 0x20 DUP7 ADD PUSH2 0x3707 JUMP JUMPDEST DUP1 DUP5 ADD SWAP2 POP POP SWAP3 SWAP2 POP POP JUMP JUMPDEST PUSH1 0x0 PUSH2 0x44BE DUP3 DUP6 PUSH2 0x4481 JUMP JUMPDEST SWAP2 POP PUSH2 0x44CA DUP3 DUP5 PUSH2 0x4481 JUMP JUMPDEST SWAP2 POP DUP2 SWAP1 POP SWAP4 SWAP3 POP POP POP JUMP JUMPDEST PUSH32 0x546F6B656E2068617320616C7265616479206265656E207363616E6E65640000 PUSH1 0x0 DUP3 ADD MSTORE POP JUMP JUMPDEST PUSH1 0x0 PUSH2 0x450C PUSH1 0x1E DUP4 PUSH2 0x36F6 JUMP JUMPDEST SWAP2 POP PUSH2 0x4517 DUP3 PUSH2 0x44D6 JUMP JUMPDEST PUSH1 0x20 DUP3 ADD SWAP1 POP SWAP2 SWAP1 POP JUMP JUMPDEST PUSH1 0x0 PUSH1 0x20 DUP3 ADD SWAP1 POP DUP2 DUP2 SUB PUSH1 0x0 DUP4 ADD MSTORE PUSH2 0x453B DUP2 PUSH2 0x44FF JUMP JUMPDEST SWAP1 POP SWAP2 SWAP1 POP JUMP JUMPDEST PUSH32 0x546F6B656E20686173206265656E20696E76616C696461746564000000000000 PUSH1 0x0 DUP3 ADD MSTORE POP JUMP JUMPDEST PUSH1 0x0 PUSH2 0x4578 PUSH1 0x1A DUP4 PUSH2 0x36F6 JUMP JUMPDEST SWAP2 POP PUSH2 0x4583 DUP3 PUSH2 0x4542 JUMP JUMPDEST PUSH1 0x20 DUP3 ADD SWAP1 POP SWAP2 SWAP1 POP JUMP JUMPDEST PUSH1 0x0 PUSH1 0x20 DUP3 ADD SWAP1 POP DUP2 DUP2 SUB PUSH1 0x0 DUP4 ADD MSTORE PUSH2 0x45A7 DUP2 PUSH2 0x456B JUMP JUMPDEST SWAP1 POP SWAP2 SWAP1 POP JUMP JUMPDEST PUSH32 0x546F6B656E206E6F7420796574206D696E7465642E0000000000000000000000 PUSH1 0x0 DUP3 ADD MSTORE POP JUMP JUMPDEST PUSH1 0x0 PUSH2 0x45E4 PUSH1 0x15 DUP4 PUSH2 0x36F6 JUMP JUMPDEST SWAP2 POP PUSH2 0x45EF DUP3 PUSH2 0x45AE JUMP JUMPDEST PUSH1 0x20 DUP3 ADD SWAP1 POP SWAP2 SWAP1 POP JUMP JUMPDEST PUSH1 0x0 PUSH1 0x20 DUP3 ADD SWAP1 POP DUP2 DUP2 SUB PUSH1 0x0 DUP4 ADD MSTORE PUSH2 0x4613 DUP2 PUSH2 0x45D7 JUMP JUMPDEST SWAP1 POP SWAP2 SWAP1 POP JUMP JUMPDEST PUSH1 0x0 PUSH2 0x4625 DUP3 PUSH2 0x36B7 JUMP JUMPDEST SWAP2 POP PUSH2 0x4630 DUP4 PUSH2 0x36B7 JUMP JUMPDEST SWAP3 POP DUP3 DUP3 SUB SWAP1 POP DUP2 DUP2 GT ISZERO PUSH2 0x4648 JUMPI PUSH2 0x4647 PUSH2 0x3F7E JUMP JUMPDEST JUMPDEST SWAP3 SWAP2 POP POP JUMP JUMPDEST PUSH32 0x4552433732313A207472616E736665722066726F6D20696E636F727265637420 PUSH1 0x0 DUP3 ADD MSTORE PUSH32 0x6F776E6572000000000000000000000000000000000000000000000000000000 PUSH1 0x20 DUP3 ADD MSTORE POP JUMP JUMPDEST PUSH1 0x0 PUSH2 0x46AA PUSH1 0x25 DUP4 PUSH2 0x36F6 JUMP JUMPDEST SWAP2 POP PUSH2 0x46B5 DUP3 PUSH2 0x464E JUMP JUMPDEST PUSH1 0x40 DUP3 ADD SWAP1 POP SWAP2 SWAP1 POP JUMP JUMPDEST PUSH1 0x0 PUSH1 0x20 DUP3 ADD SWAP1 POP DUP2 DUP2 SUB PUSH1 0x0 DUP4 ADD MSTORE PUSH2 0x46D9 DUP2 PUSH2 0x469D JUMP JUMPDEST SWAP1 POP SWAP2 SWAP1 POP JUMP JUMPDEST PUSH32 0x4552433732313A207472616E7366657220746F20746865207A65726F20616464 PUSH1 0x0 DUP3 ADD MSTORE PUSH32 0x7265737300000000000000000000000000000000000000000000000000000000 PUSH1 0x20 DUP3 ADD MSTORE POP JUMP JUMPDEST PUSH1 0x0 PUSH2 0x473C PUSH1 0x24 DUP4 PUSH2 0x36F6 JUMP JUMPDEST SWAP2 POP PUSH2 0x4747 DUP3 PUSH2 0x46E0 JUMP JUMPDEST PUSH1 0x40 DUP3 ADD SWAP1 POP SWAP2 SWAP1 POP JUMP JUMPDEST PUSH1 0x0 PUSH1 0x20 DUP3 ADD SWAP1 POP DUP2 DUP2 SUB PUSH1 0x0 DUP4 ADD MSTORE PUSH2 0x476B DUP2 PUSH2 0x472F JUMP JUMPDEST SWAP1 POP SWAP2 SWAP1 POP JUMP JUMPDEST PUSH32 0x5061757361626C653A2070617573656400000000000000000000000000000000 PUSH1 0x0 DUP3 ADD MSTORE POP JUMP JUMPDEST PUSH1 0x0 PUSH2 0x47A8 PUSH1 0x10 DUP4 PUSH2 0x36F6 JUMP JUMPDEST SWAP2 POP PUSH2 0x47B3 DUP3 PUSH2 0x4772 JUMP JUMPDEST PUSH1 0x20 DUP3 ADD SWAP1 POP SWAP2 SWAP1 POP JUMP JUMPDEST PUSH1 0x0 PUSH1 0x20 DUP3 ADD SWAP1 POP DUP2 DUP2 SUB PUSH1 0x0 DUP4 ADD MSTORE PUSH2 0x47D7 DUP2 PUSH2 0x479B JUMP JUMPDEST SWAP1 POP SWAP2 SWAP1 POP JUMP JUMPDEST PUSH32 0x45524337323155524953746F726167653A2055524920736574206F66206E6F6E PUSH1 0x0 DUP3 ADD MSTORE PUSH32 0x6578697374656E7420746F6B656E000000000000000000000000000000000000 PUSH1 0x20 DUP3 ADD MSTORE POP JUMP JUMPDEST PUSH1 0x0 PUSH2 0x483A PUSH1 0x2E DUP4 PUSH2 0x36F6 JUMP JUMPDEST SWAP2 POP PUSH2 0x4845 DUP3 PUSH2 0x47DE JUMP JUMPDEST PUSH1 0x40 DUP3 ADD SWAP1 POP SWAP2 SWAP1 POP JUMP JUMPDEST PUSH1 0x0 PUSH1 0x20 DUP3 ADD SWAP1 POP DUP2 DUP2 SUB PUSH1 0x0 DUP4 ADD MSTORE PUSH2 0x4869 DUP2 PUSH2 0x482D JUMP JUMPDEST SWAP1 POP SWAP2 SWAP1 POP JUMP JUMPDEST PUSH1 0x0 DUP2 SWAP1 POP DUP2 PUSH1 0x0 MSTORE PUSH1 0x20 PUSH1 0x0 KECCAK256 SWAP1 POP SWAP2 SWAP1 POP JUMP JUMPDEST PUSH1 0x0 PUSH1 0x20 PUSH1 0x1F DUP4 ADD DIV SWAP1 POP SWAP2 SWAP1 POP JUMP JUMPDEST PUSH1 0x0 DUP3 DUP3 SHL SWAP1 POP SWAP3 SWAP2 POP POP JUMP JUMPDEST PUSH1 0x0 PUSH1 0x8 DUP4 MUL PUSH2 0x48D2 PUSH32 0xFFFFFFFFFFFFFFFFFFFFFFFFFFFFFFFFFFFFFFFFFFFFFFFFFFFFFFFFFFFFFFFF DUP3 PUSH2 0x4895 JUMP JUMPDEST PUSH2 0x48DC DUP7 DUP4 PUSH2 0x4895 JUMP JUMPDEST SWAP6 POP DUP1 NOT DUP5 AND SWAP4 POP DUP1 DUP7 AND DUP5 OR SWAP3 POP POP POP SWAP4 SWAP3 POP POP POP JUMP JUMPDEST PUSH1 0x0 DUP2 SWAP1 POP SWAP2 SWAP1 POP JUMP JUMPDEST PUSH1 0x0 PUSH2 0x4919 PUSH2 0x4914 PUSH2 0x490F DUP5 PUSH2 0x36B7 JUMP JUMPDEST PUSH2 0x48F4 JUMP JUMPDEST PUSH2 0x36B7 JUMP JUMPDEST SWAP1 POP SWAP2 SWAP1 POP JUMP JUMPDEST PUSH1 0x0 DUP2 SWAP1 POP SWAP2 SWAP1 POP JUMP JUMPDEST PUSH2 0x4933 DUP4 PUSH2 0x48FE JUMP JUMPDEST PUSH2 0x4947 PUSH2 0x493F DUP3 PUSH2 0x4920 JUMP JUMPDEST DUP5 DUP5 SLOAD PUSH2 0x48A2 JUMP JUMPDEST DUP3 SSTORE POP POP POP POP JUMP JUMPDEST PUSH1 0x0 SWAP1 JUMP JUMPDEST PUSH2 0x495C PUSH2 0x494F JUMP JUMPDEST PUSH2 0x4967 DUP2 DUP5 DUP5 PUSH2 0x492A JUMP JUMPDEST POP POP POP JUMP JUMPDEST JUMPDEST DUP2 DUP2 LT ISZERO PUSH2 0x498B JUMPI PUSH2 0x4980 PUSH1 0x0 DUP3 PUSH2 0x4954 JUMP JUMPDEST PUSH1 0x1 DUP2 ADD SWAP1 POP PUSH2 0x496D JUMP JUMPDEST POP POP JUMP JUMPDEST PUSH1 0x1F DUP3 GT ISZERO PUSH2 0x49D0 JUMPI PUSH2 0x49A1 DUP2 PUSH2 0x4870 JUMP JUMPDEST PUSH2 0x49AA DUP5 PUSH2 0x4885 JUMP JUMPDEST DUP2 ADD PUSH1 0x20 DUP6 LT ISZERO PUSH2 0x49B9 JUMPI DUP2 SWAP1 POP JUMPDEST PUSH2 0x49CD PUSH2 0x49C5 DUP6 PUSH2 0x4885 JUMP JUMPDEST DUP4 ADD DUP3 PUSH2 0x496C JUMP JUMPDEST POP POP JUMPDEST POP POP POP JUMP JUMPDEST PUSH1 0x0 DUP3 DUP3 SHR SWAP1 POP SWAP3 SWAP2 POP POP JUMP JUMPDEST PUSH1 0x0 PUSH2 0x49F3 PUSH1 0x0 NOT DUP5 PUSH1 0x8 MUL PUSH2 0x49D5 JUMP JUMPDEST NOT DUP1 DUP4 AND SWAP2 POP POP SWAP3 SWAP2 POP POP JUMP JUMPDEST PUSH1 0x0 PUSH2 0x4A0C DUP4 DUP4 PUSH2 0x49E2 JUMP JUMPDEST SWAP2 POP DUP3 PUSH1 0x2 MUL DUP3 OR SWAP1 POP SWAP3 SWAP2 POP POP JUMP JUMPDEST PUSH2 0x4A25 DUP3 PUSH2 0x36EB JUMP JUMPDEST PUSH8 0xFFFFFFFFFFFFFFFF DUP2 GT ISZERO PUSH2 0x4A3E JUMPI PUSH2 0x4A3D PUSH2 0x3B50 JUMP JUMPDEST JUMPDEST PUSH2 0x4A48 DUP3 SLOAD PUSH2 0x3D97 JUMP JUMPDEST PUSH2 0x4A53 DUP3 DUP3 DUP6 PUSH2 0x498F JUMP JUMPDEST PUSH1 0x0 PUSH1 0x20 SWAP1 POP PUSH1 0x1F DUP4 GT PUSH1 0x1 DUP2 EQ PUSH2 0x4A86 JUMPI PUSH1 0x0 DUP5 ISZERO PUSH2 0x4A74 JUMPI DUP3 DUP8 ADD MLOAD SWAP1 POP JUMPDEST PUSH2 0x4A7E DUP6 DUP3 PUSH2 0x4A00 JUMP JUMPDEST DUP7 SSTORE POP PUSH2 0x4AE6 JUMP JUMPDEST PUSH1 0x1F NOT DUP5 AND PUSH2 0x4A94 DUP7 PUSH2 0x4870 JUMP JUMPDEST PUSH1 0x0 JUMPDEST DUP3 DUP2 LT ISZERO PUSH2 0x4ABC JUMPI DUP5 DUP10 ADD MLOAD DUP3 SSTORE PUSH1 0x1 DUP3 ADD SWAP2 POP PUSH1 0x20 DUP6 ADD SWAP5 POP PUSH1 0x20 DUP2 ADD SWAP1 POP PUSH2 0x4A97 JUMP JUMPDEST DUP7 DUP4 LT ISZERO PUSH2 0x4AD9 JUMPI DUP5 DUP10 ADD MLOAD PUSH2 0x4AD5 PUSH1 0x1F DUP10 AND DUP3 PUSH2 0x49E2 JUMP JUMPDEST DUP4 SSTORE POP JUMPDEST PUSH1 0x1 PUSH1 0x2 DUP9 MUL ADD DUP9 SSTORE POP POP POP JUMPDEST POP POP POP POP POP POP JUMP JUMPDEST PUSH32 0x4552433732313A20617070726F766520746F2063616C6C657200000000000000 PUSH1 0x0 DUP3 ADD MSTORE POP JUMP JUMPDEST PUSH1 0x0 PUSH2 0x4B24 PUSH1 0x19 DUP4 PUSH2 0x36F6 JUMP JUMPDEST SWAP2 POP PUSH2 0x4B2F DUP3 PUSH2 0x4AEE JUMP JUMPDEST PUSH1 0x20 DUP3 ADD SWAP1 POP SWAP2 SWAP1 POP JUMP JUMPDEST PUSH1 0x0 PUSH1 0x20 DUP3 ADD SWAP1 POP DUP2 DUP2 SUB PUSH1 0x0 DUP4 ADD MSTORE PUSH2 0x4B53 DUP2 PUSH2 0x4B17 JUMP JUMPDEST SWAP1 POP SWAP2 SWAP1 POP JUMP JUMPDEST PUSH32 0x4552433732313A207472616E7366657220746F206E6F6E204552433732315265 PUSH1 0x0 DUP3 ADD MSTORE PUSH32 0x63656976657220696D706C656D656E7465720000000000000000000000000000 PUSH1 0x20 DUP3 ADD MSTORE POP JUMP JUMPDEST PUSH1 0x0 PUSH2 0x4BB6 PUSH1 0x32 DUP4 PUSH2 0x36F6 JUMP JUMPDEST SWAP2 POP PUSH2 0x4BC1 DUP3 PUSH2 0x4B5A JUMP JUMPDEST PUSH1 0x40 DUP3 ADD SWAP1 POP SWAP2 SWAP1 POP JUMP JUMPDEST PUSH1 0x0 PUSH1 0x20 DUP3 ADD SWAP1 POP DUP2 DUP2 SUB PUSH1 0x0 DUP4 ADD MSTORE PUSH2 0x4BE5 DUP2 PUSH2 0x4BA9 JUMP JUMPDEST SWAP1 POP SWAP2 SWAP1 POP JUMP JUMPDEST PUSH32 0x416363657373436F6E74726F6C3A206163636F756E7420000000000000000000 PUSH1 0x0 DUP3 ADD MSTORE POP JUMP JUMPDEST PUSH1 0x0 PUSH2 0x4C22 PUSH1 0x17 DUP4 PUSH2 0x4476 JUMP JUMPDEST SWAP2 POP PUSH2 0x4C2D DUP3 PUSH2 0x4BEC JUMP JUMPDEST PUSH1 0x17 DUP3 ADD SWAP1 POP SWAP2 SWAP1 POP JUMP JUMPDEST PUSH32 0x206973206D697373696E6720726F6C6520000000000000000000000000000000 PUSH1 0x0 DUP3 ADD MSTORE POP JUMP JUMPDEST PUSH1 0x0 PUSH2 0x4C6E PUSH1 0x11 DUP4 PUSH2 0x4476 JUMP JUMPDEST SWAP2 POP PUSH2 0x4C79 DUP3 PUSH2 0x4C38 JUMP JUMPDEST PUSH1 0x11 DUP3 ADD SWAP1 POP SWAP2 SWAP1 POP JUMP JUMPDEST PUSH1 0x0 PUSH2 0x4C8F DUP3 PUSH2 0x4C15 JUMP JUMPDEST SWAP2 POP PUSH2 0x4C9B DUP3 DUP6 PUSH2 0x4481 JUMP JUMPDEST SWAP2 POP PUSH2 0x4CA6 DUP3 PUSH2 0x4C61 JUMP JUMPDEST SWAP2 POP PUSH2 0x4CB2 DUP3 DUP5 PUSH2 0x4481 JUMP JUMPDEST SWAP2 POP DUP2 SWAP1 POP SWAP4 SWAP3 POP POP POP JUMP JUMPDEST PUSH1 0x0 DUP2 MLOAD SWAP1 POP SWAP2 SWAP1 POP JUMP JUMPDEST PUSH1 0x0 DUP3 DUP3 MSTORE PUSH1 0x20 DUP3 ADD SWAP1 POP SWAP3 SWAP2 POP POP JUMP JUMPDEST PUSH1 0x0 PUSH2 0x4CE5 DUP3 PUSH2 0x4CBE JUMP JUMPDEST PUSH2 0x4CEF DUP2 DUP6 PUSH2 0x4CC9 JUMP JUMPDEST SWAP4 POP PUSH2 0x4CFF DUP2 DUP6 PUSH1 0x20 DUP7 ADD PUSH2 0x3707 JUMP JUMPDEST PUSH2 0x4D08 DUP2 PUSH2 0x3731 JUMP JUMPDEST DUP5 ADD SWAP2 POP POP SWAP3 SWAP2 POP POP JUMP JUMPDEST PUSH1 0x0 PUSH1 0x80 DUP3 ADD SWAP1 POP PUSH2 0x4D28 PUSH1 0x0 DUP4 ADD DUP8 PUSH2 0x3828 JUMP JUMPDEST PUSH2 0x4D35 PUSH1 0x20 DUP4 ADD DUP7 PUSH2 0x3828 JUMP JUMPDEST PUSH2 0x4D42 PUSH1 0x40 DUP4 ADD DUP6 PUSH2 0x36C1 JUMP JUMPDEST DUP2 DUP2 SUB PUSH1 0x60 DUP4 ADD MSTORE PUSH2 0x4D54 DUP2 DUP5 PUSH2 0x4CDA JUMP JUMPDEST SWAP1 POP SWAP6 SWAP5 POP POP POP POP POP JUMP JUMPDEST PUSH1 0x0 DUP2 MLOAD SWAP1 POP PUSH2 0x4D6E DUP2 PUSH2 0x3628 JUMP JUMPDEST SWAP3 SWAP2 POP POP JUMP JUMPDEST PUSH1 0x0 PUSH1 0x20 DUP3 DUP5 SUB SLT ISZERO PUSH2 0x4D8A JUMPI PUSH2 0x4D89 PUSH2 0x35F2 JUMP JUMPDEST JUMPDEST PUSH1 0x0 PUSH2 0x4D98 DUP5 DUP3 DUP6 ADD PUSH2 0x4D5F JUMP JUMPDEST SWAP2 POP POP SWAP3 SWAP2 POP POP JUMP JUMPDEST PUSH32 0x5061757361626C653A206E6F7420706175736564000000000000000000000000 PUSH1 0x0 DUP3 ADD MSTORE POP JUMP JUMPDEST PUSH1 0x0 PUSH2 0x4DD7 PUSH1 0x14 DUP4 PUSH2 0x36F6 JUMP JUMPDEST SWAP2 POP PUSH2 0x4DE2 DUP3 PUSH2 0x4DA1 JUMP JUMPDEST PUSH1 0x20 DUP3 ADD SWAP1 POP SWAP2 SWAP1 POP JUMP JUMPDEST PUSH1 0x0 PUSH1 0x20 DUP3 ADD SWAP1 POP DUP2 DUP2 SUB PUSH1 0x0 DUP4 ADD MSTORE PUSH2 0x4E06 DUP2 PUSH2 0x4DCA JUMP JUMPDEST SWAP1 POP SWAP2 SWAP1 POP JUMP JUMPDEST PUSH32 0x4E487B7100000000000000000000000000000000000000000000000000000000 PUSH1 0x0 MSTORE PUSH1 0x32 PUSH1 0x4 MSTORE PUSH1 0x24 PUSH1 0x0 REVERT JUMPDEST PUSH1 0x0 PUSH2 0x4E47 DUP3 PUSH2 0x36B7 JUMP JUMPDEST SWAP2 POP PUSH1 0x0 DUP3 SUB PUSH2 0x4E5A JUMPI PUSH2 0x4E59 PUSH2 0x3F7E JUMP JUMPDEST JUMPDEST PUSH1 0x1 DUP3 SUB SWAP1 POP SWAP2 SWAP1 POP JUMP JUMPDEST PUSH32 0x537472696E67733A20686578206C656E67746820696E73756666696369656E74 PUSH1 0x0 DUP3 ADD MSTORE POP JUMP JUMPDEST PUSH1 0x0 PUSH2 0x4E9B PUSH1 0x20 DUP4 PUSH2 0x36F6 JUMP JUMPDEST SWAP2 POP PUSH2 0x4EA6 DUP3 PUSH2 0x4E65 JUMP JUMPDEST PUSH1 0x20 DUP3 ADD SWAP1 POP SWAP2 SWAP1 POP JUMP JUMPDEST PUSH1 0x0 PUSH1 0x20 DUP3 ADD SWAP1 POP DUP2 DUP2 SUB PUSH1 0x0 DUP4 ADD MSTORE PUSH2 0x4ECA DUP2 PUSH2 0x4E8E JUMP JUMPDEST SWAP1 POP SWAP2 SWAP1 POP JUMP JUMPDEST PUSH32 0x4552433732313A206D696E7420746F20746865207A65726F2061646472657373 PUSH1 0x0 DUP3 ADD MSTORE POP JUMP JUMPDEST PUSH1 0x0 PUSH2 0x4F07 PUSH1 0x20 DUP4 PUSH2 0x36F6 JUMP JUMPDEST SWAP2 POP PUSH2 0x4F12 DUP3 PUSH2 0x4ED1 JUMP JUMPDEST PUSH1 0x20 DUP3 ADD SWAP1 POP SWAP2 SWAP1 POP JUMP JUMPDEST PUSH1 0x0 PUSH1 0x20 DUP3 ADD SWAP1 POP DUP2 DUP2 SUB PUSH1 0x0 DUP4 ADD MSTORE PUSH2 0x4F36 DUP2 PUSH2 0x4EFA JUMP JUMPDEST SWAP1 POP SWAP2 SWAP1 POP JUMP JUMPDEST PUSH32 0x4552433732313A20746F6B656E20616C7265616479206D696E74656400000000 PUSH1 0x0 DUP3 ADD MSTORE POP JUMP JUMPDEST PUSH1 0x0 PUSH2 0x4F73 PUSH1 0x1C DUP4 PUSH2 0x36F6 JUMP JUMPDEST SWAP2 POP PUSH2 0x4F7E DUP3 PUSH2 0x4F3D JUMP JUMPDEST PUSH1 0x20 DUP3 ADD SWAP1 POP SWAP2 SWAP1 POP JUMP JUMPDEST PUSH1 0x0 PUSH1 0x20 DUP3 ADD SWAP1 POP DUP2 DUP2 SUB PUSH1 0x0 DUP4 ADD MSTORE PUSH2 0x4FA2 DUP2 PUSH2 0x4F66 JUMP JUMPDEST SWAP1 POP SWAP2 SWAP1 POP JUMP INVALID LOG2 PUSH5 0x6970667358 0x22 SLT KECCAK256 MSTORE 0x2F 0x4A STATICCALL 0xBB SDIV RETURN PUSH2 0x7046 0xCC DUP15 0xC1 0xC5 KECCAK256 SDIV GAS SWAP15 CALLDATALOAD CALLVALUE PUSH14 0x9BAA12436E1C8A58A234D864736F PUSH13 0x63430008120033000000000000 "
    },
    "gasEstimates": {
      "creation": {
        "codeDepositCost": "4089400",
        "executionCost": "infinite",
        "totalCost": "infinite"
      },
      "external": {
        "CONTROLLER()": "439",
        "DEFAULT_ADMIN_ROLE()": "424",
        "_tokenURI()": "infinite",
        "approve(address,uint256)": "infinite",
        "balanceOf(address)": "2922",
        "burnNFT(uint256)": "infinite",
        "closeDate()": "2518",
        "closeTicketSale()": "infinite",
        "eventEndDate()": "2496",
        "eventOrganizer()": "2582",
        "getApproved(uint256)": "5345",
        "getRoleAdmin(bytes32)": "infinite",
        "getTotalTicketsForSale()": "infinite",
        "grantRole(bytes32,address)": "infinite",
        "hasRole(bytes32,address)": "3274",
        "increaseTicketSupply(uint256)": "infinite",
        "isApprovedForAll(address,address)": "infinite",
        "listTicketContract()": "infinite",
        "liveDate()": "2541",
        "marketplaceContract()": "2603",
        "mintNFT(address)": "infinite",
        "name()": "infinite",
        "ownerOf(uint256)": "3154",
        "pauseTicketSale()": "infinite",
        "paused()": "2612",
        "primarySalePrice()": "2561",
        "renounceRole(bytes32,address)": "infinite",
        "resumeTicketSale()": "infinite",
        "revokeRole(bytes32,address)": "infinite",
        "royaltyInfo(uint256,uint256)": "infinite",
        "safeTransferFrom(address,address,uint256)": "infinite",
        "safeTransferFrom(address,address,uint256,bytes)": "infinite",
        "secondaryMarkup()": "2538",
        "setApprovalForAll(address,bool)": "infinite",
        "setEventOrganizer(address)": "infinite",
        "setMarketplaceContract(address)": "infinite",
        "setPrimarySalePrice(uint256)": "infinite",
        "setSecondaryMarkup(uint8)": "24791",
        "supply()": "2498",
        "supportsInterface(bytes4)": "3427",
        "symbol()": "infinite",
        "tokenInvalidated(uint256)": "infinite",
        "tokenScanned(uint256)": "infinite",
        "tokenURI(uint256)": "infinite",
        "transferFrom(address,address,uint256)": "infinite"
      }
    },
    "methodIdentifiers": {
      "CONTROLLER()": "ee0fc121",
      "DEFAULT_ADMIN_ROLE()": "a217fddf",
      "_tokenURI()": "b4ce37d2",
      "approve(address,uint256)": "095ea7b3",
      "balanceOf(address)": "70a08231",
      "burnNFT(uint256)": "2890e0d7",
      "closeDate()": "48d79b6d",
      "closeTicketSale()": "11f2f757",
      "eventEndDate()": "9eab643f",
      "eventOrganizer()": "7514d7cb",
      "getApproved(uint256)": "081812fc",
      "getRoleAdmin(bytes32)": "248a9ca3",
      "getTotalTicketsForSale()": "e66d772c",
      "grantRole(bytes32,address)": "2f2ff15d",
      "hasRole(bytes32,address)": "91d14854",
      "increaseTicketSupply(uint256)": "298505da",
      "isApprovedForAll(address,address)": "e985e9c5",
      "listTicketContract()": "8f60b8e9",
      "liveDate()": "8f810fec",
      "marketplaceContract()": "d1bb5cf1",
      "mintNFT(address)": "54ba0f27",
      "name()": "06fdde03",
      "ownerOf(uint256)": "6352211e",
      "pauseTicketSale()": "34a8821c",
      "paused()": "5c975abb",
      "primarySalePrice()": "f7d506a5",
      "renounceRole(bytes32,address)": "36568abe",
      "resumeTicketSale()": "fcdc1206",
      "revokeRole(bytes32,address)": "d547741f",
      "royaltyInfo(uint256,uint256)": "2a55205a",
      "safeTransferFrom(address,address,uint256)": "42842e0e",
      "safeTransferFrom(address,address,uint256,bytes)": "b88d4fde",
      "secondaryMarkup()": "cc0de97b",
      "setApprovalForAll(address,bool)": "a22cb465",
      "setEventOrganizer(address)": "241752cc",
      "setMarketplaceContract(address)": "1102610e",
      "setPrimarySalePrice(uint256)": "da81980b",
      "setSecondaryMarkup(uint8)": "23f663d5",
      "supply()": "047fc9aa",
      "supportsInterface(bytes4)": "01ffc9a7",
      "symbol()": "95d89b41",
      "tokenInvalidated(uint256)": "eadc7e42",
      "tokenScanned(uint256)": "e049b203",
      "tokenURI(uint256)": "c87b56dd",
      "transferFrom(address,address,uint256)": "23b872dd"
    }
  },
  "abi": [
    {
      "inputs": [
        {
          "internalType": "string",
          "name": "_name",
          "type": "string"
        },
        {
          "internalType": "string",
          "name": "_symbol",
          "type": "string"
        },
        {
          "components": [
            {
              "internalType": "string",
              "name": "tokenURI",
              "type": "string"
            },
            {
              "internalType": "uint256",
              "name": "_primarySalePrice",
              "type": "uint256"
            },
            {
              "internalType": "uint8",
              "name": "_secondaryMarkup",
              "type": "uint8"
            },
            {
              "internalType": "uint96",
              "name": "_feeNumerator",
              "type": "uint96"
            },
            {
              "internalType": "uint256",
              "name": "_liveDate",
              "type": "uint256"
            },
            {
              "internalType": "uint256",
              "name": "_closeDate",
              "type": "uint256"
            },
            {
              "internalType": "uint256",
              "name": "_supply",
              "type": "uint256"
            }
          ],
          "internalType": "struct BlockPassTicket.TicketInformation",
          "name": "ticketInfo",
          "type": "tuple"
        },
        {
          "components": [
            {
              "internalType": "address",
              "name": "_marketplaceContract",
              "type": "address"
            },
            {
              "internalType": "address",
              "name": "_eventOrganizer",
              "type": "address"
            },
            {
              "internalType": "uint256",
              "name": "_eventEndDate",
              "type": "uint256"
            }
          ],
          "internalType": "struct BlockPassTicket.EventInformation",
          "name": "eventInfo",
          "type": "tuple"
        }
      ],
      "stateMutability": "nonpayable",
      "type": "constructor"
    },
    {
      "anonymous": false,
      "inputs": [
        {
          "indexed": true,
          "internalType": "address",
          "name": "owner",
          "type": "address"
        },
        {
          "indexed": true,
          "internalType": "address",
          "name": "approved",
          "type": "address"
        },
        {
          "indexed": true,
          "internalType": "uint256",
          "name": "tokenId",
          "type": "uint256"
        }
      ],
      "name": "Approval",
      "type": "event"
    },
    {
      "anonymous": false,
      "inputs": [
        {
          "indexed": true,
          "internalType": "address",
          "name": "owner",
          "type": "address"
        },
        {
          "indexed": true,
          "internalType": "address",
          "name": "operator",
          "type": "address"
        },
        {
          "indexed": false,
          "internalType": "bool",
          "name": "approved",
          "type": "bool"
        }
      ],
      "name": "ApprovalForAll",
      "type": "event"
    },
    {
      "anonymous": false,
      "inputs": [
        {
          "indexed": false,
          "internalType": "uint256",
          "name": "",
          "type": "uint256"
        }
      ],
      "name": "NFTMinted",
      "type": "event"
    },
    {
      "anonymous": false,
      "inputs": [
        {
          "indexed": false,
          "internalType": "address",
          "name": "account",
          "type": "address"
        }
      ],
      "name": "Paused",
      "type": "event"
    },
    {
      "anonymous": false,
      "inputs": [
        {
          "indexed": true,
          "internalType": "bytes32",
          "name": "role",
          "type": "bytes32"
        },
        {
          "indexed": true,
          "internalType": "bytes32",
          "name": "previousAdminRole",
          "type": "bytes32"
        },
        {
          "indexed": true,
          "internalType": "bytes32",
          "name": "newAdminRole",
          "type": "bytes32"
        }
      ],
      "name": "RoleAdminChanged",
      "type": "event"
    },
    {
      "anonymous": false,
      "inputs": [
        {
          "indexed": true,
          "internalType": "bytes32",
          "name": "role",
          "type": "bytes32"
        },
        {
          "indexed": true,
          "internalType": "address",
          "name": "account",
          "type": "address"
        },
        {
          "indexed": true,
          "internalType": "address",
          "name": "sender",
          "type": "address"
        }
      ],
      "name": "RoleGranted",
      "type": "event"
    },
    {
      "anonymous": false,
      "inputs": [
        {
          "indexed": true,
          "internalType": "bytes32",
          "name": "role",
          "type": "bytes32"
        },
        {
          "indexed": true,
          "internalType": "address",
          "name": "account",
          "type": "address"
        },
        {
          "indexed": true,
          "internalType": "address",
          "name": "sender",
          "type": "address"
        }
      ],
      "name": "RoleRevoked",
      "type": "event"
    },
    {
      "anonymous": false,
      "inputs": [
        {
          "indexed": false,
          "internalType": "uint256",
          "name": "",
          "type": "uint256"
        }
      ],
      "name": "TokenInvalidated",
      "type": "event"
    },
    {
      "anonymous": false,
      "inputs": [
        {
          "indexed": false,
          "internalType": "uint256",
          "name": "",
          "type": "uint256"
        }
      ],
      "name": "TokenScanned",
      "type": "event"
    },
    {
      "anonymous": false,
      "inputs": [
        {
          "indexed": true,
          "internalType": "address",
          "name": "from",
          "type": "address"
        },
        {
          "indexed": true,
          "internalType": "address",
          "name": "to",
          "type": "address"
        },
        {
          "indexed": true,
          "internalType": "uint256",
          "name": "tokenId",
          "type": "uint256"
        }
      ],
      "name": "Transfer",
      "type": "event"
    },
    {
      "anonymous": false,
      "inputs": [
        {
          "indexed": false,
          "internalType": "address",
          "name": "account",
          "type": "address"
        }
      ],
      "name": "Unpaused",
      "type": "event"
    },
    {
      "inputs": [],
      "name": "CONTROLLER",
      "outputs": [
        {
          "internalType": "bytes32",
          "name": "",
          "type": "bytes32"
        }
      ],
      "stateMutability": "view",
      "type": "function"
    },
    {
      "inputs": [],
      "name": "DEFAULT_ADMIN_ROLE",
      "outputs": [
        {
          "internalType": "bytes32",
          "name": "",
          "type": "bytes32"
        }
      ],
      "stateMutability": "view",
      "type": "function"
    },
    {
      "inputs": [],
      "name": "_tokenURI",
      "outputs": [
        {
          "internalType": "string",
          "name": "",
          "type": "string"
        }
      ],
      "stateMutability": "view",
      "type": "function"
    },
    {
      "inputs": [
        {
          "internalType": "address",
          "name": "to",
          "type": "address"
        },
        {
          "internalType": "uint256",
          "name": "tokenId",
          "type": "uint256"
        }
      ],
      "name": "approve",
      "outputs": [],
      "stateMutability": "nonpayable",
      "type": "function"
    },
    {
      "inputs": [
        {
          "internalType": "address",
          "name": "owner",
          "type": "address"
        }
      ],
      "name": "balanceOf",
      "outputs": [
        {
          "internalType": "uint256",
          "name": "",
          "type": "uint256"
        }
      ],
      "stateMutability": "view",
      "type": "function"
    },
    {
      "inputs": [
        {
          "internalType": "uint256",
          "name": "tokenId",
          "type": "uint256"
        }
      ],
      "name": "burnNFT",
      "outputs": [],
      "stateMutability": "nonpayable",
      "type": "function"
    },
    {
      "inputs": [],
      "name": "closeDate",
      "outputs": [
        {
          "internalType": "uint256",
          "name": "",
          "type": "uint256"
        }
      ],
      "stateMutability": "view",
      "type": "function"
    },
    {
      "inputs": [],
      "name": "closeTicketSale",
      "outputs": [],
      "stateMutability": "nonpayable",
      "type": "function"
    },
    {
      "inputs": [],
      "name": "eventEndDate",
      "outputs": [
        {
          "internalType": "uint256",
          "name": "",
          "type": "uint256"
        }
      ],
      "stateMutability": "view",
      "type": "function"
    },
    {
      "inputs": [],
      "name": "eventOrganizer",
      "outputs": [
        {
          "internalType": "address",
          "name": "",
          "type": "address"
        }
      ],
      "stateMutability": "view",
      "type": "function"
    },
    {
      "inputs": [
        {
          "internalType": "uint256",
          "name": "tokenId",
          "type": "uint256"
        }
      ],
      "name": "getApproved",
      "outputs": [
        {
          "internalType": "address",
          "name": "",
          "type": "address"
        }
      ],
      "stateMutability": "view",
      "type": "function"
    },
    {
      "inputs": [
        {
          "internalType": "bytes32",
          "name": "role",
          "type": "bytes32"
        }
      ],
      "name": "getRoleAdmin",
      "outputs": [
        {
          "internalType": "bytes32",
          "name": "",
          "type": "bytes32"
        }
      ],
      "stateMutability": "view",
      "type": "function"
    },
    {
      "inputs": [],
      "name": "getTotalTicketsForSale",
      "outputs": [
        {
          "internalType": "uint256",
          "name": "",
          "type": "uint256"
        }
      ],
      "stateMutability": "view",
      "type": "function"
    },
    {
      "inputs": [
        {
          "internalType": "bytes32",
          "name": "role",
          "type": "bytes32"
        },
        {
          "internalType": "address",
          "name": "account",
          "type": "address"
        }
      ],
      "name": "grantRole",
      "outputs": [],
      "stateMutability": "nonpayable",
      "type": "function"
    },
    {
      "inputs": [
        {
          "internalType": "bytes32",
          "name": "role",
          "type": "bytes32"
        },
        {
          "internalType": "address",
          "name": "account",
          "type": "address"
        }
      ],
      "name": "hasRole",
      "outputs": [
        {
          "internalType": "bool",
          "name": "",
          "type": "bool"
        }
      ],
      "stateMutability": "view",
      "type": "function"
    },
    {
      "inputs": [
        {
          "internalType": "uint256",
          "name": "additionalSupply",
          "type": "uint256"
        }
      ],
      "name": "increaseTicketSupply",
      "outputs": [
        {
          "internalType": "uint256",
          "name": "",
          "type": "uint256"
        }
      ],
      "stateMutability": "nonpayable",
      "type": "function"
    },
    {
      "inputs": [
        {
          "internalType": "address",
          "name": "owner",
          "type": "address"
        },
        {
          "internalType": "address",
          "name": "operator",
          "type": "address"
        }
      ],
      "name": "isApprovedForAll",
      "outputs": [
        {
          "internalType": "bool",
          "name": "",
          "type": "bool"
        }
      ],
      "stateMutability": "view",
      "type": "function"
    },
    {
      "inputs": [],
      "name": "listTicketContract",
      "outputs": [],
      "stateMutability": "nonpayable",
      "type": "function"
    },
    {
      "inputs": [],
      "name": "liveDate",
      "outputs": [
        {
          "internalType": "uint256",
          "name": "",
          "type": "uint256"
        }
      ],
      "stateMutability": "view",
      "type": "function"
    },
    {
      "inputs": [],
      "name": "marketplaceContract",
      "outputs": [
        {
          "internalType": "address",
          "name": "",
          "type": "address"
        }
      ],
      "stateMutability": "view",
      "type": "function"
    },
    {
      "inputs": [
        {
          "internalType": "address",
          "name": "recipient",
          "type": "address"
        }
      ],
      "name": "mintNFT",
      "outputs": [
        {
          "internalType": "uint256",
          "name": "",
          "type": "uint256"
        }
      ],
      "stateMutability": "nonpayable",
      "type": "function"
    },
    {
      "inputs": [],
      "name": "name",
      "outputs": [
        {
          "internalType": "string",
          "name": "",
          "type": "string"
        }
      ],
      "stateMutability": "view",
      "type": "function"
    },
    {
      "inputs": [
        {
          "internalType": "uint256",
          "name": "tokenId",
          "type": "uint256"
        }
      ],
      "name": "ownerOf",
      "outputs": [
        {
          "internalType": "address",
          "name": "",
          "type": "address"
        }
      ],
      "stateMutability": "view",
      "type": "function"
    },
    {
      "inputs": [],
      "name": "pauseTicketSale",
      "outputs": [],
      "stateMutability": "nonpayable",
      "type": "function"
    },
    {
      "inputs": [],
      "name": "paused",
      "outputs": [
        {
          "internalType": "bool",
          "name": "",
          "type": "bool"
        }
      ],
      "stateMutability": "view",
      "type": "function"
    },
    {
      "inputs": [],
      "name": "primarySalePrice",
      "outputs": [
        {
          "internalType": "uint256",
          "name": "",
          "type": "uint256"
        }
      ],
      "stateMutability": "view",
      "type": "function"
    },
    {
      "inputs": [
        {
          "internalType": "bytes32",
          "name": "role",
          "type": "bytes32"
        },
        {
          "internalType": "address",
          "name": "account",
          "type": "address"
        }
      ],
      "name": "renounceRole",
      "outputs": [],
      "stateMutability": "nonpayable",
      "type": "function"
    },
    {
      "inputs": [],
      "name": "resumeTicketSale",
      "outputs": [],
      "stateMutability": "nonpayable",
      "type": "function"
    },
    {
      "inputs": [
        {
          "internalType": "bytes32",
          "name": "role",
          "type": "bytes32"
        },
        {
          "internalType": "address",
          "name": "account",
          "type": "address"
        }
      ],
      "name": "revokeRole",
      "outputs": [],
      "stateMutability": "nonpayable",
      "type": "function"
    },
    {
      "inputs": [
        {
          "internalType": "uint256",
          "name": "_tokenId",
          "type": "uint256"
        },
        {
          "internalType": "uint256",
          "name": "_salePrice",
          "type": "uint256"
        }
      ],
      "name": "royaltyInfo",
      "outputs": [
        {
          "internalType": "address",
          "name": "",
          "type": "address"
        },
        {
          "internalType": "uint256",
          "name": "",
          "type": "uint256"
        }
      ],
      "stateMutability": "view",
      "type": "function"
    },
    {
      "inputs": [
        {
          "internalType": "address",
          "name": "from",
          "type": "address"
        },
        {
          "internalType": "address",
          "name": "to",
          "type": "address"
        },
        {
          "internalType": "uint256",
          "name": "tokenId",
          "type": "uint256"
        }
      ],
      "name": "safeTransferFrom",
      "outputs": [],
      "stateMutability": "nonpayable",
      "type": "function"
    },
    {
      "inputs": [
        {
          "internalType": "address",
          "name": "from",
          "type": "address"
        },
        {
          "internalType": "address",
          "name": "to",
          "type": "address"
        },
        {
          "internalType": "uint256",
          "name": "tokenId",
          "type": "uint256"
        },
        {
          "internalType": "bytes",
          "name": "data",
          "type": "bytes"
        }
      ],
      "name": "safeTransferFrom",
      "outputs": [],
      "stateMutability": "nonpayable",
      "type": "function"
    },
    {
      "inputs": [],
      "name": "secondaryMarkup",
      "outputs": [
        {
          "internalType": "uint8",
          "name": "",
          "type": "uint8"
        }
      ],
      "stateMutability": "view",
      "type": "function"
    },
    {
      "inputs": [
        {
          "internalType": "address",
          "name": "operator",
          "type": "address"
        },
        {
          "internalType": "bool",
          "name": "approved",
          "type": "bool"
        }
      ],
      "name": "setApprovalForAll",
      "outputs": [],
      "stateMutability": "nonpayable",
      "type": "function"
    },
    {
      "inputs": [
        {
          "internalType": "address",
          "name": "newOrganizer",
          "type": "address"
        }
      ],
      "name": "setEventOrganizer",
      "outputs": [],
      "stateMutability": "nonpayable",
      "type": "function"
    },
    {
      "inputs": [
        {
          "internalType": "address",
          "name": "newMarketplace",
          "type": "address"
        }
      ],
      "name": "setMarketplaceContract",
      "outputs": [],
      "stateMutability": "nonpayable",
      "type": "function"
    },
    {
      "inputs": [
        {
          "internalType": "uint256",
          "name": "newPrice",
          "type": "uint256"
        }
      ],
      "name": "setPrimarySalePrice",
      "outputs": [],
      "stateMutability": "nonpayable",
      "type": "function"
    },
    {
      "inputs": [
        {
          "internalType": "uint8",
          "name": "newMarkup",
          "type": "uint8"
        }
      ],
      "name": "setSecondaryMarkup",
      "outputs": [],
      "stateMutability": "nonpayable",
      "type": "function"
    },
    {
      "inputs": [],
      "name": "supply",
      "outputs": [
        {
          "internalType": "uint256",
          "name": "",
          "type": "uint256"
        }
      ],
      "stateMutability": "view",
      "type": "function"
    },
    {
      "inputs": [
        {
          "internalType": "bytes4",
          "name": "interfaceId",
          "type": "bytes4"
        }
      ],
      "name": "supportsInterface",
      "outputs": [
        {
          "internalType": "bool",
          "name": "",
          "type": "bool"
        }
      ],
      "stateMutability": "view",
      "type": "function"
    },
    {
      "inputs": [],
      "name": "symbol",
      "outputs": [
        {
          "internalType": "string",
          "name": "",
          "type": "string"
        }
      ],
      "stateMutability": "view",
      "type": "function"
    },
    {
      "inputs": [
        {
          "internalType": "uint256",
          "name": "tokenId",
          "type": "uint256"
        }
      ],
      "name": "tokenInvalidated",
      "outputs": [],
      "stateMutability": "nonpayable",
      "type": "function"
    },
    {
      "inputs": [
        {
          "internalType": "uint256",
          "name": "tokenId",
          "type": "uint256"
        }
      ],
      "name": "tokenScanned",
      "outputs": [],
      "stateMutability": "nonpayable",
      "type": "function"
    },
    {
      "inputs": [
        {
          "internalType": "uint256",
          "name": "tokenId",
          "type": "uint256"
        }
      ],
      "name": "tokenURI",
      "outputs": [
        {
          "internalType": "string",
          "name": "",
          "type": "string"
        }
      ],
      "stateMutability": "view",
      "type": "function"
    },
    {
      "inputs": [
        {
          "internalType": "address",
          "name": "from",
          "type": "address"
        },
        {
          "internalType": "address",
          "name": "to",
          "type": "address"
        },
        {
          "internalType": "uint256",
          "name": "tokenId",
          "type": "uint256"
        }
      ],
      "name": "transferFrom",
      "outputs": [],
      "stateMutability": "nonpayable",
      "type": "function"
    }
  ]
}