{
	"data": {
		"bytecode": {
			"linkReferences": {},
			"object": "60806040523480156200001157600080fd5b5060405162005b3238038062005b32833981810160405281019062000037919062000884565b8a8a81600090805190602001906200005192919062000711565b5080600190805190602001906200006a92919062000711565b5050506000600a60006101000a81548160ff021916908315150217905550600073ffffffffffffffffffffffffffffffffffffffff168873ffffffffffffffffffffffffffffffffffffffff161415620000fb576040517f08c379a0000000000000000000000000000000000000000000000000000000008152600401620000f29062000bd5565b60405180910390fd5b600073ffffffffffffffffffffffffffffffffffffffff168973ffffffffffffffffffffffffffffffffffffffff1614156200016e576040517f08c379a0000000000000000000000000000000000000000000000000000000008152600401620001659062000c19565b60405180910390fd5b42841015620001b4576040517f08c379a0000000000000000000000000000000000000000000000000000000008152600401620001ab9062000bf7565b60405180910390fd5b42821015620001fa576040517f08c379a0000000000000000000000000000000000000000000000000000000008152600401620001f19062000b6f565b60405180910390fd5b8183111562000240576040517f08c379a0000000000000000000000000000000000000000000000000000000008152600401620002379062000bb3565b60405180910390fd5b6000811162000286576040517f08c379a00000000000000000000000000000000000000000000000000000000081526004016200027d9062000b91565b60405180910390fd5b600087511415620002ce576040517f08c379a0000000000000000000000000000000000000000000000000000000008152600401620002c59062000b4d565b60405180910390fd5b620003007f70546d1c92f8c2132ae23a23f5177aa8526356051c7510df99f50e012d22152933620003fe60201b60201c565b62000314886103e8620004f060201b60201c565b88600d60006101000a81548173ffffffffffffffffffffffffffffffffffffffff021916908373ffffffffffffffffffffffffffffffffffffffff16021790555087600c60006101000a81548173ffffffffffffffffffffffffffffffffffffffff021916908373ffffffffffffffffffffffffffffffffffffffff1602179055508660119080519060200190620003ae92919062000711565b5085600e8190555084600f60006101000a81548160ff021916908360ff16021790555083601381905550826014819055508160158190555080601081905550505050505050505050505062001102565b6200041082826200069460201b60201c565b620004ec5760016009600084815260200190815260200160002060000160008373ffffffffffffffffffffffffffffffffffffffff1673ffffffffffffffffffffffffffffffffffffffff16815260200190815260200160002060006101000a81548160ff02191690831515021790555062000491620006ff60201b60201c565b73ffffffffffffffffffffffffffffffffffffffff168173ffffffffffffffffffffffffffffffffffffffff16837f2f8788117e7eff1d82e926ec794901d17c78024a50270940304540a733656f0d60405160405180910390a45b5050565b620005006200070760201b60201c565b6bffffffffffffffffffffffff16816bffffffffffffffffffffffff16111562000561576040517f08c379a0000000000000000000000000000000000000000000000000000000008152600401620005589062000c3b565b60405180910390fd5b600073ffffffffffffffffffffffffffffffffffffffff168273ffffffffffffffffffffffffffffffffffffffff161415620005d4576040517f08c379a0000000000000000000000000000000000000000000000000000000008152600401620005cb9062000c5d565b60405180910390fd5b60405180604001604052808373ffffffffffffffffffffffffffffffffffffffff168152602001826bffffffffffffffffffffffff16815250600760008201518160000160006101000a81548173ffffffffffffffffffffffffffffffffffffffff021916908373ffffffffffffffffffffffffffffffffffffffff16021790555060208201518160000160146101000a8154816bffffffffffffffffffffffff02191690836bffffffffffffffffffffffff1602179055509050505050565b60006009600084815260200190815260200160002060000160008373ffffffffffffffffffffffffffffffffffffffff1673ffffffffffffffffffffffffffffffffffffffff16815260200190815260200160002060009054906101000a900460ff16905092915050565b600033905090565b6000612710905090565b8280546200071f9062000d70565b90600052602060002090601f0160209004810192826200074357600085556200078f565b82601f106200075e57805160ff19168380011785556200078f565b828001600101855582156200078f579182015b828111156200078e57825182559160200191906001019062000771565b5b5090506200079e9190620007a2565b5090565b5b80821115620007bd576000816000905550600101620007a3565b5090565b6000620007d8620007d28462000ca8565b62000c7f565b905082815260208101848484011115620007f757620007f662000e3f565b5b6200080484828562000d3a565b509392505050565b6000815190506200081d81620010b4565b92915050565b600082601f8301126200083b576200083a62000e3a565b5b81516200084d848260208601620007c1565b91505092915050565b6000815190506200086781620010ce565b92915050565b6000815190506200087e81620010e8565b92915050565b60008060008060008060008060008060006101608c8e031215620008ad57620008ac62000e49565b5b60008c015167ffffffffffffffff811115620008ce57620008cd62000e44565b5b620008dc8e828f0162000823565b9b505060208c015167ffffffffffffffff8111156200090057620008ff62000e44565b5b6200090e8e828f0162000823565b9a50506040620009218e828f016200080c565b9950506060620009348e828f016200080c565b98505060808c015167ffffffffffffffff81111562000958576200095762000e44565b5b620009668e828f0162000823565b97505060a0620009798e828f0162000856565b96505060c06200098c8e828f016200086d565b95505060e06200099f8e828f0162000856565b945050610100620009b38e828f0162000856565b935050610120620009c78e828f0162000856565b925050610140620009db8e828f0162000856565b9150509295989b509295989b9093969950565b6000620009fd601b8362000cde565b915062000a0a8262000e5f565b602082019050919050565b600062000a24602b8362000cde565b915062000a318262000e88565b604082019050919050565b600062000a4b60208362000cde565b915062000a588262000ed7565b602082019050919050565b600062000a7260298362000cde565b915062000a7f8262000f00565b604082019050919050565b600062000a9960298362000cde565b915062000aa68262000f4f565b604082019050919050565b600062000ac060238362000cde565b915062000acd8262000f9e565b604082019050919050565b600062000ae7602e8362000cde565b915062000af48262000fed565b604082019050919050565b600062000b0e602a8362000cde565b915062000b1b826200103c565b604082019050919050565b600062000b3560198362000cde565b915062000b42826200108b565b602082019050919050565b6000602082019050818103600083015262000b6881620009ee565b9050919050565b6000602082019050818103600083015262000b8a8162000a15565b9050919050565b6000602082019050818103600083015262000bac8162000a3c565b9050919050565b6000602082019050818103600083015262000bce8162000a63565b9050919050565b6000602082019050818103600083015262000bf08162000a8a565b9050919050565b6000602082019050818103600083015262000c128162000ab1565b9050919050565b6000602082019050818103600083015262000c348162000ad8565b9050919050565b6000602082019050818103600083015262000c568162000aff565b9050919050565b6000602082019050818103600083015262000c788162000b26565b9050919050565b600062000c8b62000c9e565b905062000c99828262000da6565b919050565b6000604051905090565b600067ffffffffffffffff82111562000cc65762000cc562000e0b565b5b62000cd18262000e4e565b9050602081019050919050565b600082825260208201905092915050565b600062000cfc8262000d03565b9050919050565b600073ffffffffffffffffffffffffffffffffffffffff82169050919050565b6000819050919050565b600060ff82169050919050565b60005b8381101562000d5a57808201518184015260208101905062000d3d565b8381111562000d6a576000848401525b50505050565b6000600282049050600182168062000d8957607f821691505b6020821081141562000da05762000d9f62000ddc565b5b50919050565b62000db18262000e4e565b810181811067ffffffffffffffff8211171562000dd35762000dd262000e0b565b5b80604052505050565b7f4e487b7100000000000000000000000000000000000000000000000000000000600052602260045260246000fd5b7f4e487b7100000000000000000000000000000000000000000000000000000000600052604160045260246000fd5b600080fd5b600080fd5b600080fd5b600080fd5b6000601f19601f8301169050919050565b7f546f6b656e20555249206d757374206e6f7420626520656d7074790000000000600082015250565b7f5469636b6574207469657220636c6f736520646174652063616e27742062652060008201527f696e207468652070617374000000000000000000000000000000000000000000602082015250565b7f537570706c79206d7573742062652067726561746572207468616e207a65726f600082015250565b7f496e76616c6964206c69766520616e6420636c6f736520646174652072656c6160008201527f74696f6e736869702e0000000000000000000000000000000000000000000000602082015250565b7f4576656e74206f7267616e697a65722063616e277420626520746865207a657260008201527f6f20616464726573730000000000000000000000000000000000000000000000602082015250565b7f4576656e7420656e6420646174652063616e277420626520696e20746865207060008201527f6173740000000000000000000000000000000000000000000000000000000000602082015250565b7f4d61726b6574706c61636520636f6e74726163742063616e277420626520746860008201527f65207a65726f2061646472657373000000000000000000000000000000000000602082015250565b7f455243323938313a20726f79616c7479206665652077696c6c2065786365656460008201527f2073616c65507269636500000000000000000000000000000000000000000000602082015250565b7f455243323938313a20696e76616c696420726563656976657200000000000000600082015250565b620010bf8162000cef565b8114620010cb57600080fd5b50565b620010d98162000d23565b8114620010e557600080fd5b50565b620010f38162000d2d565b8114620010ff57600080fd5b50565b614a2080620011126000396000f3fe608060405234801561001057600080fd5b506004361061025e5760003560e01c80637514d7cb11610146578063c87b56dd116100c3578063e049b20311610087578063e049b20314610722578063e66d772c1461073e578063e985e9c51461075c578063eadc7e421461078c578063ee0fc121146107a8578063f7d506a5146107c65761025e565b8063c87b56dd1461067e578063cc0de97b146106ae578063d1bb5cf1146106cc578063d547741f146106ea578063da81980b146107065761025e565b80639eab643f1161010a5780639eab643f146105ec578063a217fddf1461060a578063a22cb46514610628578063b4ce37d214610644578063b88d4fde146106625761025e565b80637514d7cb146105585780638f60b8e9146105765780638f810fec1461058057806391d148541461059e57806395d89b41146105ce5761025e565b80632890e0d7116101df57806342842e0e116101a357806342842e0e1461047057806348d79b6d1461048c57806354ba0f27146104aa5780635c975abb146104da5780636352211e146104f857806370a08231146105285761025e565b80632890e0d7146103bb578063298505da146103d75780632a55205a146104075780632f2ff15d1461043857806336568abe146104545761025e565b80631102610e116102265780631102610e1461031b57806323b872dd1461033757806323f663d514610353578063241752cc1461036f578063248a9ca31461038b5761025e565b806301ffc9a714610263578063047fc9aa1461029357806306fdde03146102b1578063081812fc146102cf578063095ea7b3146102ff575b600080fd5b61027d60048036038101906102789190613587565b6107e4565b60405161028a9190613bfa565b60405180910390f35b61029b61085e565b6040516102a89190613ef2565b60405180910390f35b6102b9610864565b6040516102c69190613c30565b60405180910390f35b6102e960048036038101906102e491906135e1565b6108f6565b6040516102f69190613aec565b60405180910390f35b610319600480360381019061031491906134da565b61093c565b005b61033560048036038101906103309190613357565b610a54565b005b610351600480360381019061034c91906133c4565b610ac3565b005b61036d6004803603810190610368919061364e565b610b23565b005b61038960048036038101906103849190613357565b610b41565b005b6103a560048036038101906103a0919061351a565b610bb0565b6040516103b29190613c15565b60405180910390f35b6103d560048036038101906103d091906135e1565b610bd0565b005b6103f160048036038101906103ec91906135e1565b610bdc565b6040516103fe9190613ef2565b60405180910390f35b610421600480360381019061041c919061360e565b610c2c565b60405161042f929190613b53565b60405180910390f35b610452600480360381019061044d9190613547565b610e17565b005b61046e60048036038101906104699190613547565b610e38565b005b61048a600480360381019061048591906133c4565b610ebb565b005b610494610edb565b6040516104a19190613ef2565b60405180910390f35b6104c460048036038101906104bf9190613357565b610ee1565b6040516104d19190613ef2565b60405180910390f35b6104e2611178565b6040516104ef9190613bfa565b60405180910390f35b610512600480360381019061050d91906135e1565b61118f565b60405161051f9190613aec565b60405180910390f35b610542600480360381019061053d9190613357565b611241565b60405161054f9190613ef2565b60405180910390f35b6105606112f9565b60405161056d9190613aec565b60405180910390f35b61057e61131f565b005b61058861146e565b6040516105959190613ef2565b60405180910390f35b6105b860048036038101906105b39190613547565b611474565b6040516105c59190613bfa565b60405180910390f35b6105d66114df565b6040516105e39190613c30565b60405180910390f35b6105f4611571565b6040516106019190613ef2565b60405180910390f35b610612611577565b60405161061f9190613c15565b60405180910390f35b610642600480360381019061063d919061349a565b61157e565b005b61064c611594565b6040516106599190613c30565b60405180910390f35b61067c60048036038101906106779190613417565b611622565b005b610698600480360381019061069391906135e1565b611684565b6040516106a59190613c30565b60405180910390f35b6106b6611797565b6040516106c39190613f0d565b60405180910390f35b6106d46117aa565b6040516106e19190613aec565b60405180910390f35b61070460048036038101906106ff9190613547565b6117d0565b005b610720600480360381019061071b91906135e1565b6117f1565b005b61073c600480360381019061073791906135e1565b611826565b005b6107466119eb565b6040516107539190613ef2565b60405180910390f35b61077660048036038101906107719190613384565b611a09565b6040516107839190613bfa565b60405180910390f35b6107a660048036038101906107a191906135e1565b611a9d565b005b6107b0611b53565b6040516107bd9190613c15565b60405180910390f35b6107ce611b77565b6040516107db9190613ef2565b60405180910390f35b60007ffa5521b2000000000000000000000000000000000000000000000000000000007bffffffffffffffffffffffffffffffffffffffffffffffffffffffff1916827bffffffffffffffffffffffffffffffffffffffffffffffffffffffff19161480610857575061085682611b7d565b5b9050919050565b60105481565b606060008054610873906141cd565b80601f016020809104026020016040519081016040528092919081815260200182805461089f906141cd565b80156108ec5780601f106108c1576101008083540402835291602001916108ec565b820191906000526020600020905b8154815290600101906020018083116108cf57829003601f168201915b5050505050905090565b600061090182611bf7565b6004600083815260200190815260200160002060009054906101000a900473ffffffffffffffffffffffffffffffffffffffff169050919050565b60006109478261118f565b90508073ffffffffffffffffffffffffffffffffffffffff168373ffffffffffffffffffffffffffffffffffffffff1614156109b8576040517f08c379a00000000000000000000000000000000000000000000000000000000081526004016109af90613e72565b60405180910390fd5b8073ffffffffffffffffffffffffffffffffffffffff166109d7611c42565b73ffffffffffffffffffffffffffffffffffffffff161480610a065750610a0581610a00611c42565b611a09565b5b610a45576040517f08c379a0000000000000000000000000000000000000000000000000000000008152600401610a3c90613df2565b60405180910390fd5b610a4f8383611c4a565b505050565b7f70546d1c92f8c2132ae23a23f5177aa8526356051c7510df99f50e012d221529610a7e81611d03565b81600d60006101000a81548173ffffffffffffffffffffffffffffffffffffffff021916908373ffffffffffffffffffffffffffffffffffffffff1602179055505050565b610ad4610ace611c42565b82611d17565b610b13576040517f08c379a0000000000000000000000000000000000000000000000000000000008152600401610b0a90613e92565b60405180910390fd5b610b1e838383611dac565b505050565b80600f60006101000a81548160ff021916908360ff16021790555050565b7f70546d1c92f8c2132ae23a23f5177aa8526356051c7510df99f50e012d221529610b6b81611d03565b81600c60006101000a81548173ffffffffffffffffffffffffffffffffffffffff021916908373ffffffffffffffffffffffffffffffffffffffff1602179055505050565b600060096000838152602001908152602001600020600101549050919050565b610bd981612013565b50565b60007f70546d1c92f8c2132ae23a23f5177aa8526356051c7510df99f50e012d221529610c0881611d03565b8260106000828254610c1a9190613fc1565b92505081905550601054915050919050565b6000806000600860008681526020019081526020016000206040518060400160405290816000820160009054906101000a900473ffffffffffffffffffffffffffffffffffffffff1673ffffffffffffffffffffffffffffffffffffffff1673ffffffffffffffffffffffffffffffffffffffff1681526020016000820160149054906101000a90046bffffffffffffffffffffffff166bffffffffffffffffffffffff166bffffffffffffffffffffffff16815250509050600073ffffffffffffffffffffffffffffffffffffffff16816000015173ffffffffffffffffffffffffffffffffffffffff161415610dc25760076040518060400160405290816000820160009054906101000a900473ffffffffffffffffffffffffffffffffffffffff1673ffffffffffffffffffffffffffffffffffffffff1673ffffffffffffffffffffffffffffffffffffffff1681526020016000820160149054906101000a90046bffffffffffffffffffffffff166bffffffffffffffffffffffff166bffffffffffffffffffffffff168152505090505b6000610dcc612028565b6bffffffffffffffffffffffff1682602001516bffffffffffffffffffffffff1686610df89190614048565b610e029190614017565b90508160000151819350935050509250929050565b610e2082610bb0565b610e2981611d03565b610e338383612032565b505050565b610e40611c42565b73ffffffffffffffffffffffffffffffffffffffff168173ffffffffffffffffffffffffffffffffffffffff1614610ead576040517f08c379a0000000000000000000000000000000000000000000000000000000008152600401610ea490613eb2565b60405180910390fd5b610eb78282612113565b5050565b610ed683838360405180602001604052806000815250611622565b505050565b60155481565b6000610eeb6121f5565b7f70546d1c92f8c2132ae23a23f5177aa8526356051c7510df99f50e012d221529610f1581611d03565b601554421115610f5a576040517f08c379a0000000000000000000000000000000000000000000000000000000008152600401610f5190613cf2565b60405180910390fd5b601054610f67600b61223f565b10610fa7576040517f08c379a0000000000000000000000000000000000000000000000000000000008152600401610f9e90613d52565b60405180910390fd5b600073ffffffffffffffffffffffffffffffffffffffff168373ffffffffffffffffffffffffffffffffffffffff161415611017576040517f08c379a000000000000000000000000000000000000000000000000000000000815260040161100e90613e32565b60405180910390fd5b611021600b61224d565b600061102d600b61223f565b90506110398482612263565b60006012600083815260200190815260200160002060006101000a81548160ff021916908360028111156110705761106f614308565b5b02179055506111098160118054611086906141cd565b80601f01602080910402602001604051908101604052809291908181526020018280546110b2906141cd565b80156110ff5780601f106110d4576101008083540402835291602001916110ff565b820191906000526020600020905b8154815290600101906020018083116110e257829003601f168201915b5050505050612281565b61113784600d60009054906101000a900473ffffffffffffffffffffffffffffffffffffffff1660016122f5565b7fd9dc24857f317ed9abbbb42e920ede0104231eb1d3d70236a74887ffaf159868816040516111669190613ef2565b60405180910390a18092505050919050565b6000600a60009054906101000a900460ff16905090565b6000806002600084815260200190815260200160002060009054906101000a900473ffffffffffffffffffffffffffffffffffffffff169050600073ffffffffffffffffffffffffffffffffffffffff168173ffffffffffffffffffffffffffffffffffffffff161415611238576040517f08c379a000000000000000000000000000000000000000000000000000000000815260040161122f90613e52565b60405180910390fd5b80915050919050565b60008073ffffffffffffffffffffffffffffffffffffffff168273ffffffffffffffffffffffffffffffffffffffff1614156112b2576040517f08c379a00000000000000000000000000000000000000000000000000000000081526004016112a990613db2565b60405180910390fd5b600360008373ffffffffffffffffffffffffffffffffffffffff1673ffffffffffffffffffffffffffffffffffffffff168152602001908152602001600020549050919050565b600c60009054906101000a900473ffffffffffffffffffffffffffffffffffffffff1681565b7f70546d1c92f8c2132ae23a23f5177aa8526356051c7510df99f50e012d22152961134981611d03565b600d60009054906101000a900473ffffffffffffffffffffffffffffffffffffffff1673ffffffffffffffffffffffffffffffffffffffff16633966331530600e54600f60009054906101000a900460ff16600c60009054906101000a900473ffffffffffffffffffffffffffffffffffffffff166013546014546015546010546040518963ffffffff1660e01b81526004016113ed989796959493929190613b7c565b600060405180830381600087803b15801561140757600080fd5b505af115801561141b573d6000803e3d6000fd5b5050505061146b7f70546d1c92f8c2132ae23a23f5177aa8526356051c7510df99f50e012d221529600d60009054906101000a900473ffffffffffffffffffffffffffffffffffffffff16612032565b50565b60145481565b60006009600084815260200190815260200160002060000160008373ffffffffffffffffffffffffffffffffffffffff1673ffffffffffffffffffffffffffffffffffffffff16815260200190815260200160002060009054906101000a900460ff16905092915050565b6060600180546114ee906141cd565b80601f016020809104026020016040519081016040528092919081815260200182805461151a906141cd565b80156115675780601f1061153c57610100808354040283529160200191611567565b820191906000526020600020905b81548152906001019060200180831161154a57829003601f168201915b5050505050905090565b60135481565b6000801b81565b611590611589611c42565b83836122f5565b5050565b601180546115a1906141cd565b80601f01602080910402602001604051908101604052809291908181526020018280546115cd906141cd565b801561161a5780601f106115ef5761010080835404028352916020019161161a565b820191906000526020600020905b8154815290600101906020018083116115fd57829003601f168201915b505050505081565b61163361162d611c42565b83611d17565b611672576040517f08c379a000000000000000000000000000000000000000000000000000000000815260040161166990613e92565b60405180910390fd5b61167e84848484612462565b50505050565b606061168f82611bf7565b60006006600084815260200190815260200160002080546116af906141cd565b80601f01602080910402602001604051908101604052809291908181526020018280546116db906141cd565b80156117285780601f106116fd57610100808354040283529160200191611728565b820191906000526020600020905b81548152906001019060200180831161170b57829003601f168201915b5050505050905060006117396124be565b905060008151141561174f578192505050611792565b60008251111561178457808260405160200161176c929190613a8e565b60405160208183030381529060405292505050611792565b61178d846124d5565b925050505b919050565b600f60009054906101000a900460ff1681565b600d60009054906101000a900473ffffffffffffffffffffffffffffffffffffffff1681565b6117d982610bb0565b6117e281611d03565b6117ec8383612113565b505050565b7f70546d1c92f8c2132ae23a23f5177aa8526356051c7510df99f50e012d22152961181b81611d03565b81600e819055505050565b7f70546d1c92f8c2132ae23a23f5177aa8526356051c7510df99f50e012d22152961185081611d03565b6001600281111561186457611863614308565b5b6012600084815260200190815260200160002060009054906101000a900460ff16600281111561189757611896614308565b5b14156118d8576040517f08c379a00000000000000000000000000000000000000000000000000000000081526004016118cf90613d72565b60405180910390fd5b6002808111156118eb576118ea614308565b5b6012600084815260200190815260200160002060009054906101000a900460ff16600281111561191e5761191d614308565b5b141561195f576040517f08c379a000000000000000000000000000000000000000000000000000000000815260040161195690613ed2565b60405180910390fd5b8161196a600b61223f565b10156119ab576040517f08c379a00000000000000000000000000000000000000000000000000000000081526004016119a290613c72565b60405180910390fd5b60016012600084815260200190815260200160002060006101000a81548160ff021916908360028111156119e2576119e1614308565b5b02179055505050565b60006119f7600b61223f565b601054611a0491906140a2565b905090565b6000600560008473ffffffffffffffffffffffffffffffffffffffff1673ffffffffffffffffffffffffffffffffffffffff16815260200190815260200160002060008373ffffffffffffffffffffffffffffffffffffffff1673ffffffffffffffffffffffffffffffffffffffff16815260200190815260200160002060009054906101000a900460ff16905092915050565b7f70546d1c92f8c2132ae23a23f5177aa8526356051c7510df99f50e012d221529611ac781611d03565b81611ad2600b61223f565b1015611b13576040517f08c379a0000000000000000000000000000000000000000000000000000000008152600401611b0a90613c72565b60405180910390fd5b60026012600084815260200190815260200160002060006101000a81548160ff02191690836002811115611b4a57611b49614308565b5b02179055505050565b7f70546d1c92f8c2132ae23a23f5177aa8526356051c7510df99f50e012d22152981565b600e5481565b60007f7965db0b000000000000000000000000000000000000000000000000000000007bffffffffffffffffffffffffffffffffffffffffffffffffffffffff1916827bffffffffffffffffffffffffffffffffffffffffffffffffffffffff19161480611bf05750611bef8261253d565b5b9050919050565b611c00816125b7565b611c3f576040517f08c379a0000000000000000000000000000000000000000000000000000000008152600401611c3690613e52565b60405180910390fd5b50565b600033905090565b816004600083815260200190815260200160002060006101000a81548173ffffffffffffffffffffffffffffffffffffffff021916908373ffffffffffffffffffffffffffffffffffffffff160217905550808273ffffffffffffffffffffffffffffffffffffffff16611cbd8361118f565b73ffffffffffffffffffffffffffffffffffffffff167f8c5be1e5ebec7d5bd14f71427d1e84f3dd0314c0f7b2291e5b200ac8c7c3b92560405160405180910390a45050565b611d1481611d0f611c42565b612623565b50565b600080611d238361118f565b90508073ffffffffffffffffffffffffffffffffffffffff168473ffffffffffffffffffffffffffffffffffffffff161480611d655750611d648185611a09565b5b80611da357508373ffffffffffffffffffffffffffffffffffffffff16611d8b846108f6565b73ffffffffffffffffffffffffffffffffffffffff16145b91505092915050565b8273ffffffffffffffffffffffffffffffffffffffff16611dcc8261118f565b73ffffffffffffffffffffffffffffffffffffffff1614611e22576040517f08c379a0000000000000000000000000000000000000000000000000000000008152600401611e1990613cb2565b60405180910390fd5b600073ffffffffffffffffffffffffffffffffffffffff168273ffffffffffffffffffffffffffffffffffffffff161415611e92576040517f08c379a0000000000000000000000000000000000000000000000000000000008152600401611e8990613d12565b60405180910390fd5b611e9d8383836126c0565b611ea8600082611c4a565b6001600360008573ffffffffffffffffffffffffffffffffffffffff1673ffffffffffffffffffffffffffffffffffffffff1681526020019081526020016000206000828254611ef891906140a2565b925050819055506001600360008473ffffffffffffffffffffffffffffffffffffffff1673ffffffffffffffffffffffffffffffffffffffff1681526020019081526020016000206000828254611f4f9190613fc1565b92505081905550816002600083815260200190815260200160002060006101000a81548173ffffffffffffffffffffffffffffffffffffffff021916908373ffffffffffffffffffffffffffffffffffffffff160217905550808273ffffffffffffffffffffffffffffffffffffffff168473ffffffffffffffffffffffffffffffffffffffff167fddf252ad1be2c89b69c2b068fc378daa952ba7f163c4a11628f55a4df523b3ef60405160405180910390a461200e8383836126c5565b505050565b61201c816126ca565b6120258161271d565b50565b6000612710905090565b61203c8282611474565b61210f5760016009600084815260200190815260200160002060000160008373ffffffffffffffffffffffffffffffffffffffff1673ffffffffffffffffffffffffffffffffffffffff16815260200190815260200160002060006101000a81548160ff0219169083151502179055506120b4611c42565b73ffffffffffffffffffffffffffffffffffffffff168173ffffffffffffffffffffffffffffffffffffffff16837f2f8788117e7eff1d82e926ec794901d17c78024a50270940304540a733656f0d60405160405180910390a45b5050565b61211d8282611474565b156121f15760006009600084815260200190815260200160002060000160008373ffffffffffffffffffffffffffffffffffffffff1673ffffffffffffffffffffffffffffffffffffffff16815260200190815260200160002060006101000a81548160ff021916908315150217905550612196611c42565b73ffffffffffffffffffffffffffffffffffffffff168173ffffffffffffffffffffffffffffffffffffffff16837ff6391f5c32d9c69d2a47ea670b442974b53935d1edc7fd64eb21e047a839171b60405160405180910390a45b5050565b6121fd611178565b1561223d576040517f08c379a000000000000000000000000000000000000000000000000000000000815260040161223490613d92565b60405180910390fd5b565b600081600001549050919050565b6001816000016000828254019250508190555050565b61227d82826040518060200160405280600081525061277c565b5050565b61228a826125b7565b6122c9576040517f08c379a00000000000000000000000000000000000000000000000000000000081526004016122c090613dd2565b60405180910390fd5b806006600084815260200190815260200160002090805190602001906122f0929190613171565b505050565b8173ffffffffffffffffffffffffffffffffffffffff168373ffffffffffffffffffffffffffffffffffffffff161415612364576040517f08c379a000000000000000000000000000000000000000000000000000000000815260040161235b90613d32565b60405180910390fd5b80600560008573ffffffffffffffffffffffffffffffffffffffff1673ffffffffffffffffffffffffffffffffffffffff16815260200190815260200160002060008473ffffffffffffffffffffffffffffffffffffffff1673ffffffffffffffffffffffffffffffffffffffff16815260200190815260200160002060006101000a81548160ff0219169083151502179055508173ffffffffffffffffffffffffffffffffffffffff168373ffffffffffffffffffffffffffffffffffffffff167f17307eab39ab6107e8899845ad3d59bd9653f200f220920489ca2b5937696c31836040516124559190613bfa565b60405180910390a3505050565b61246d848484611dac565b612479848484846127d7565b6124b8576040517f08c379a00000000000000000000000000000000000000000000000000000000081526004016124af90613c92565b60405180910390fd5b50505050565b606060405180602001604052806000815250905090565b60606124e082611bf7565b60006124ea6124be565b9050600081511161250a5760405180602001604052806000815250612535565b806125148461296e565b604051602001612525929190613a8e565b6040516020818303038152906040525b915050919050565b60007f2a55205a000000000000000000000000000000000000000000000000000000007bffffffffffffffffffffffffffffffffffffffffffffffffffffffff1916827bffffffffffffffffffffffffffffffffffffffffffffffffffffffff191614806125b057506125af82612acf565b5b9050919050565b60008073ffffffffffffffffffffffffffffffffffffffff166002600084815260200190815260200160002060009054906101000a900473ffffffffffffffffffffffffffffffffffffffff1673ffffffffffffffffffffffffffffffffffffffff1614159050919050565b61262d8282611474565b6126bc576126528173ffffffffffffffffffffffffffffffffffffffff166014612bb1565b6126608360001c6020612bb1565b604051602001612671929190613ab2565b6040516020818303038152906040526040517f08c379a00000000000000000000000000000000000000000000000000000000081526004016126b39190613c30565b60405180910390fd5b5050565b505050565b505050565b6126d381612ded565b60006006600083815260200190815260200160002080546126f3906141cd565b90501461271a5760066000828152602001908152602001600020600061271991906131f7565b5b50565b60086000828152602001908152602001600020600080820160006101000a81549073ffffffffffffffffffffffffffffffffffffffff02191690556000820160146101000a8154906bffffffffffffffffffffffff0219169055505050565b6127868383612f0a565b61279360008484846127d7565b6127d2576040517f08c379a00000000000000000000000000000000000000000000000000000000081526004016127c990613c92565b60405180910390fd5b505050565b60006127f88473ffffffffffffffffffffffffffffffffffffffff166130e4565b15612961578373ffffffffffffffffffffffffffffffffffffffff1663150b7a02612821611c42565b8786866040518563ffffffff1660e01b81526004016128439493929190613b07565b602060405180830381600087803b15801561285d57600080fd5b505af192505050801561288e57506040513d601f19601f8201168201806040525081019061288b91906135b4565b60015b612911573d80600081146128be576040519150601f19603f3d011682016040523d82523d6000602084013e6128c3565b606091505b50600081511415612909576040517f08c379a000000000000000000000000000000000000000000000000000000000815260040161290090613c92565b60405180910390fd5b805181602001fd5b63150b7a0260e01b7bffffffffffffffffffffffffffffffffffffffffffffffffffffffff1916817bffffffffffffffffffffffffffffffffffffffffffffffffffffffff191614915050612966565b600190505b949350505050565b606060008214156129b6576040518060400160405280600181526020017f30000000000000000000000000000000000000000000000000000000000000008152509050612aca565b600082905060005b600082146129e85780806129d190614230565b915050600a826129e19190614017565b91506129be565b60008167ffffffffffffffff811115612a0457612a03614395565b5b6040519080825280601f01601f191660200182016040528015612a365781602001600182028036833780820191505090505b5090505b60008514612ac357600182612a4f91906140a2565b9150600a85612a5e9190614279565b6030612a6a9190613fc1565b60f81b818381518110612a8057612a7f614366565b5b60200101907effffffffffffffffffffffffffffffffffffffffffffffffffffffffffffff1916908160001a905350600a85612abc9190614017565b9450612a3a565b8093505050505b919050565b60007f80ac58cd000000000000000000000000000000000000000000000000000000007bffffffffffffffffffffffffffffffffffffffffffffffffffffffff1916827bffffffffffffffffffffffffffffffffffffffffffffffffffffffff19161480612b9a57507f5b5e139f000000000000000000000000000000000000000000000000000000007bffffffffffffffffffffffffffffffffffffffffffffffffffffffff1916827bffffffffffffffffffffffffffffffffffffffffffffffffffffffff1916145b80612baa5750612ba982613107565b5b9050919050565b606060006002836002612bc49190614048565b612bce9190613fc1565b67ffffffffffffffff811115612be757612be6614395565b5b6040519080825280601f01601f191660200182016040528015612c195781602001600182028036833780820191505090505b5090507f300000000000000000000000000000000000000000000000000000000000000081600081518110612c5157612c50614366565b5b60200101907effffffffffffffffffffffffffffffffffffffffffffffffffffffffffffff1916908160001a9053507f780000000000000000000000000000000000000000000000000000000000000081600181518110612cb557612cb4614366565b5b60200101907effffffffffffffffffffffffffffffffffffffffffffffffffffffffffffff1916908160001a90535060006001846002612cf59190614048565b612cff9190613fc1565b90505b6001811115612d9f577f3031323334353637383961626364656600000000000000000000000000000000600f861660108110612d4157612d40614366565b5b1a60f81b828281518110612d5857612d57614366565b5b60200101907effffffffffffffffffffffffffffffffffffffffffffffffffffffffffffff1916908160001a905350600485901c945080612d98906141a3565b9050612d02565b5060008414612de3576040517f08c379a0000000000000000000000000000000000000000000000000000000008152600401612dda90613c52565b60405180910390fd5b8091505092915050565b6000612df88261118f565b9050612e06816000846126c0565b612e11600083611c4a565b6001600360008373ffffffffffffffffffffffffffffffffffffffff1673ffffffffffffffffffffffffffffffffffffffff1681526020019081526020016000206000828254612e6191906140a2565b925050819055506002600083815260200190815260200160002060006101000a81549073ffffffffffffffffffffffffffffffffffffffff021916905581600073ffffffffffffffffffffffffffffffffffffffff168273ffffffffffffffffffffffffffffffffffffffff167fddf252ad1be2c89b69c2b068fc378daa952ba7f163c4a11628f55a4df523b3ef60405160405180910390a4612f06816000846126c5565b5050565b600073ffffffffffffffffffffffffffffffffffffffff168273ffffffffffffffffffffffffffffffffffffffff161415612f7a576040517f08c379a0000000000000000000000000000000000000000000000000000000008152600401612f7190613e12565b60405180910390fd5b612f83816125b7565b15612fc3576040517f08c379a0000000000000000000000000000000000000000000000000000000008152600401612fba90613cd2565b60405180910390fd5b612fcf600083836126c0565b6001600360008473ffffffffffffffffffffffffffffffffffffffff1673ffffffffffffffffffffffffffffffffffffffff168152602001908152602001600020600082825461301f9190613fc1565b92505081905550816002600083815260200190815260200160002060006101000a81548173ffffffffffffffffffffffffffffffffffffffff021916908373ffffffffffffffffffffffffffffffffffffffff160217905550808273ffffffffffffffffffffffffffffffffffffffff16600073ffffffffffffffffffffffffffffffffffffffff167fddf252ad1be2c89b69c2b068fc378daa952ba7f163c4a11628f55a4df523b3ef60405160405180910390a46130e0600083836126c5565b5050565b6000808273ffffffffffffffffffffffffffffffffffffffff163b119050919050565b60007f01ffc9a7000000000000000000000000000000000000000000000000000000007bffffffffffffffffffffffffffffffffffffffffffffffffffffffff1916827bffffffffffffffffffffffffffffffffffffffffffffffffffffffff1916149050919050565b82805461317d906141cd565b90600052602060002090601f01602090048101928261319f57600085556131e6565b82601f106131b857805160ff19168380011785556131e6565b828001600101855582156131e6579182015b828111156131e55782518255916020019190600101906131ca565b5b5090506131f39190613237565b5090565b508054613203906141cd565b6000825580601f106132155750613234565b601f0160209004906000526020600020908101906132339190613237565b5b50565b5b80821115613250576000816000905550600101613238565b5090565b600061326761326284613f4d565b613f28565b905082815260208101848484011115613283576132826143c9565b5b61328e848285614161565b509392505050565b6000813590506132a581614960565b92915050565b6000813590506132ba81614977565b92915050565b6000813590506132cf8161498e565b92915050565b6000813590506132e4816149a5565b92915050565b6000815190506132f9816149a5565b92915050565b600082601f830112613314576133136143c4565b5b8135613324848260208601613254565b91505092915050565b60008135905061333c816149bc565b92915050565b600081359050613351816149d3565b92915050565b60006020828403121561336d5761336c6143d3565b5b600061337b84828501613296565b91505092915050565b6000806040838503121561339b5761339a6143d3565b5b60006133a985828601613296565b92505060206133ba85828601613296565b9150509250929050565b6000806000606084860312156133dd576133dc6143d3565b5b60006133eb86828701613296565b93505060206133fc86828701613296565b925050604061340d8682870161332d565b9150509250925092565b60008060008060808587031215613431576134306143d3565b5b600061343f87828801613296565b945050602061345087828801613296565b93505060406134618782880161332d565b925050606085013567ffffffffffffffff811115613482576134816143ce565b5b61348e878288016132ff565b91505092959194509250565b600080604083850312156134b1576134b06143d3565b5b60006134bf85828601613296565b92505060206134d0858286016132ab565b9150509250929050565b600080604083850312156134f1576134f06143d3565b5b60006134ff85828601613296565b92505060206135108582860161332d565b9150509250929050565b6000602082840312156135305761352f6143d3565b5b600061353e848285016132c0565b91505092915050565b6000806040838503121561355e5761355d6143d3565b5b600061356c858286016132c0565b925050602061357d85828601613296565b9150509250929050565b60006020828403121561359d5761359c6143d3565b5b60006135ab848285016132d5565b91505092915050565b6000602082840312156135ca576135c96143d3565b5b60006135d8848285016132ea565b91505092915050565b6000602082840312156135f7576135f66143d3565b5b60006136058482850161332d565b91505092915050565b60008060408385031215613625576136246143d3565b5b60006136338582860161332d565b92505060206136448582860161332d565b9150509250929050565b600060208284031215613664576136636143d3565b5b600061367284828501613342565b91505092915050565b613684816140d6565b82525050565b613693816140e8565b82525050565b6136a2816140f4565b82525050565b60006136b382613f7e565b6136bd8185613f94565b93506136cd818560208601614170565b6136d6816143d8565b840191505092915050565b60006136ec82613f89565b6136f68185613fa5565b9350613706818560208601614170565b61370f816143d8565b840191505092915050565b600061372582613f89565b61372f8185613fb6565b935061373f818560208601614170565b80840191505092915050565b6000613758602083613fa5565b9150613763826143e9565b602082019050919050565b600061377b601583613fa5565b915061378682614412565b602082019050919050565b600061379e603283613fa5565b91506137a98261443b565b604082019050919050565b60006137c1602583613fa5565b91506137cc8261448a565b604082019050919050565b60006137e4601c83613fa5565b91506137ef826144d9565b602082019050919050565b6000613807604283613fa5565b915061381282614502565b606082019050919050565b600061382a602483613fa5565b915061383582614577565b604082019050919050565b600061384d601983613fa5565b9150613858826145c6565b602082019050919050565b6000613870601683613fa5565b915061387b826145ef565b602082019050919050565b6000613893601e83613fa5565b915061389e82614618565b602082019050919050565b60006138b6601083613fa5565b91506138c182614641565b602082019050919050565b60006138d9602983613fa5565b91506138e48261466a565b604082019050919050565b60006138fc602e83613fa5565b9150613907826146b9565b604082019050919050565b600061391f603e83613fa5565b915061392a82614708565b604082019050919050565b6000613942602083613fa5565b915061394d82614757565b602082019050919050565b6000613965602483613fa5565b915061397082614780565b604082019050919050565b6000613988601883613fa5565b9150613993826147cf565b602082019050919050565b60006139ab602183613fa5565b91506139b6826147f8565b604082019050919050565b60006139ce601783613fb6565b91506139d982614847565b601782019050919050565b60006139f1602e83613fa5565b91506139fc82614870565b604082019050919050565b6000613a14601183613fb6565b9150613a1f826148bf565b601182019050919050565b6000613a37602f83613fa5565b9150613a42826148e8565b604082019050919050565b6000613a5a601a83613fa5565b9150613a6582614937565b602082019050919050565b613a798161414a565b82525050565b613a8881614154565b82525050565b6000613a9a828561371a565b9150613aa6828461371a565b91508190509392505050565b6000613abd826139c1565b9150613ac9828561371a565b9150613ad482613a07565b9150613ae0828461371a565b91508190509392505050565b6000602082019050613b01600083018461367b565b92915050565b6000608082019050613b1c600083018761367b565b613b29602083018661367b565b613b366040830185613a70565b8181036060830152613b4881846136a8565b905095945050505050565b6000604082019050613b68600083018561367b565b613b756020830184613a70565b9392505050565b600061010082019050613b92600083018b61367b565b613b9f602083018a613a70565b613bac6040830189613a7f565b613bb9606083018861367b565b613bc66080830187613a70565b613bd360a0830186613a70565b613be060c0830185613a70565b613bed60e0830184613a70565b9998505050505050505050565b6000602082019050613c0f600083018461368a565b92915050565b6000602082019050613c2a6000830184613699565b92915050565b60006020820190508181036000830152613c4a81846136e1565b905092915050565b60006020820190508181036000830152613c6b8161374b565b9050919050565b60006020820190508181036000830152613c8b8161376e565b9050919050565b60006020820190508181036000830152613cab81613791565b9050919050565b60006020820190508181036000830152613ccb816137b4565b9050919050565b60006020820190508181036000830152613ceb816137d7565b9050919050565b60006020820190508181036000830152613d0b816137fa565b9050919050565b60006020820190508181036000830152613d2b8161381d565b9050919050565b60006020820190508181036000830152613d4b81613840565b9050919050565b60006020820190508181036000830152613d6b81613863565b9050919050565b60006020820190508181036000830152613d8b81613886565b9050919050565b60006020820190508181036000830152613dab816138a9565b9050919050565b60006020820190508181036000830152613dcb816138cc565b9050919050565b60006020820190508181036000830152613deb816138ef565b9050919050565b60006020820190508181036000830152613e0b81613912565b9050919050565b60006020820190508181036000830152613e2b81613935565b9050919050565b60006020820190508181036000830152613e4b81613958565b9050919050565b60006020820190508181036000830152613e6b8161397b565b9050919050565b60006020820190508181036000830152613e8b8161399e565b9050919050565b60006020820190508181036000830152613eab816139e4565b9050919050565b60006020820190508181036000830152613ecb81613a2a565b9050919050565b60006020820190508181036000830152613eeb81613a4d565b9050919050565b6000602082019050613f076000830184613a70565b92915050565b6000602082019050613f226000830184613a7f565b92915050565b6000613f32613f43565b9050613f3e82826141ff565b919050565b6000604051905090565b600067ffffffffffffffff821115613f6857613f67614395565b5b613f71826143d8565b9050602081019050919050565b600081519050919050565b600081519050919050565b600082825260208201905092915050565b600082825260208201905092915050565b600081905092915050565b6000613fcc8261414a565b9150613fd78361414a565b9250827fffffffffffffffffffffffffffffffffffffffffffffffffffffffffffffffff0382111561400c5761400b6142aa565b5b828201905092915050565b60006140228261414a565b915061402d8361414a565b92508261403d5761403c6142d9565b5b828204905092915050565b60006140538261414a565b915061405e8361414a565b9250817fffffffffffffffffffffffffffffffffffffffffffffffffffffffffffffffff0483118215151615614097576140966142aa565b5b828202905092915050565b60006140ad8261414a565b91506140b88361414a565b9250828210156140cb576140ca6142aa565b5b828203905092915050565b60006140e18261412a565b9050919050565b60008115159050919050565b6000819050919050565b60007fffffffff0000000000000000000000000000000000000000000000000000000082169050919050565b600073ffffffffffffffffffffffffffffffffffffffff82169050919050565b6000819050919050565b600060ff82169050919050565b82818337600083830152505050565b60005b8381101561418e578082015181840152602081019050614173565b8381111561419d576000848401525b50505050565b60006141ae8261414a565b915060008214156141c2576141c16142aa565b5b600182039050919050565b600060028204905060018216806141e557607f821691505b602082108114156141f9576141f8614337565b5b50919050565b614208826143d8565b810181811067ffffffffffffffff8211171561422757614226614395565b5b80604052505050565b600061423b8261414a565b91507fffffffffffffffffffffffffffffffffffffffffffffffffffffffffffffffff82141561426e5761426d6142aa565b5b600182019050919050565b60006142848261414a565b915061428f8361414a565b92508261429f5761429e6142d9565b5b828206905092915050565b7f4e487b7100000000000000000000000000000000000000000000000000000000600052601160045260246000fd5b7f4e487b7100000000000000000000000000000000000000000000000000000000600052601260045260246000fd5b7f4e487b7100000000000000000000000000000000000000000000000000000000600052602160045260246000fd5b7f4e487b7100000000000000000000000000000000000000000000000000000000600052602260045260246000fd5b7f4e487b7100000000000000000000000000000000000000000000000000000000600052603260045260246000fd5b7f4e487b7100000000000000000000000000000000000000000000000000000000600052604160045260246000fd5b600080fd5b600080fd5b600080fd5b600080fd5b6000601f19601f8301169050919050565b7f537472696e67733a20686578206c656e67746820696e73756666696369656e74600082015250565b7f546f6b656e206e6f7420796574206d696e7465642e0000000000000000000000600082015250565b7f4552433732313a207472616e7366657220746f206e6f6e20455243373231526560008201527f63656976657220696d706c656d656e7465720000000000000000000000000000602082015250565b7f4552433732313a207472616e736665722066726f6d20696e636f72726563742060008201527f6f776e6572000000000000000000000000000000000000000000000000000000602082015250565b7f4552433732313a20746f6b656e20616c7265616479206d696e74656400000000600082015250565b7f556e61626c6520746f206d696e7420746f6b656e73206166746572207468652060008201527f7469636b6574207469657220636c6f736520646174652068617320706173736560208201527f642e000000000000000000000000000000000000000000000000000000000000604082015250565b7f4552433732313a207472616e7366657220746f20746865207a65726f2061646460008201527f7265737300000000000000000000000000000000000000000000000000000000602082015250565b7f4552433732313a20617070726f766520746f2063616c6c657200000000000000600082015250565b7f5469636b657420737570706c7920736f6c64206f757400000000000000000000600082015250565b7f546f6b656e2068617320616c7265616479206265656e207363616e6e65640000600082015250565b7f5061757361626c653a2070617573656400000000000000000000000000000000600082015250565b7f4552433732313a2061646472657373207a65726f206973206e6f74206120766160008201527f6c6964206f776e65720000000000000000000000000000000000000000000000602082015250565b7f45524337323155524953746f726167653a2055524920736574206f66206e6f6e60008201527f6578697374656e7420746f6b656e000000000000000000000000000000000000602082015250565b7f4552433732313a20617070726f76652063616c6c6572206973206e6f7420746f60008201527f6b656e206f776e6572206e6f7220617070726f76656420666f7220616c6c0000602082015250565b7f4552433732313a206d696e7420746f20746865207a65726f2061646472657373600082015250565b7f526563697069656e742063616e277420626520746865207a65726f206164647260008201527f6573732e00000000000000000000000000000000000000000000000000000000602082015250565b7f4552433732313a20696e76616c696420746f6b656e2049440000000000000000600082015250565b7f4552433732313a20617070726f76616c20746f2063757272656e74206f776e6560008201527f7200000000000000000000000000000000000000000000000000000000000000602082015250565b7f416363657373436f6e74726f6c3a206163636f756e7420000000000000000000600082015250565b7f4552433732313a2063616c6c6572206973206e6f7420746f6b656e206f776e6560008201527f72206e6f7220617070726f766564000000000000000000000000000000000000602082015250565b7f206973206d697373696e6720726f6c6520000000000000000000000000000000600082015250565b7f416363657373436f6e74726f6c3a2063616e206f6e6c792072656e6f756e636560008201527f20726f6c657320666f722073656c660000000000000000000000000000000000602082015250565b7f546f6b656e20686173206265656e20696e76616c696461746564000000000000600082015250565b614969816140d6565b811461497457600080fd5b50565b614980816140e8565b811461498b57600080fd5b50565b614997816140f4565b81146149a257600080fd5b50565b6149ae816140fe565b81146149b957600080fd5b50565b6149c58161414a565b81146149d057600080fd5b50565b6149dc81614154565b81146149e757600080fd5b5056fea2646970667358221220b830174ee184b5400a7445694964944d060a20ea9c9896075195af9447e8e6a664736f6c63430008060033",
			"opcodes": "PUSH1 0x80 PUSH1 0x40 MSTORE CALLVALUE DUP1 ISZERO PUSH3 0x11 JUMPI PUSH1 0x0 DUP1 REVERT JUMPDEST POP PUSH1 0x40 MLOAD PUSH3 0x5B32 CODESIZE SUB DUP1 PUSH3 0x5B32 DUP4 CODECOPY DUP2 DUP2 ADD PUSH1 0x40 MSTORE DUP2 ADD SWAP1 PUSH3 0x37 SWAP2 SWAP1 PUSH3 0x884 JUMP JUMPDEST DUP11 DUP11 DUP2 PUSH1 0x0 SWAP1 DUP1 MLOAD SWAP1 PUSH1 0x20 ADD SWAP1 PUSH3 0x51 SWAP3 SWAP2 SWAP1 PUSH3 0x711 JUMP JUMPDEST POP DUP1 PUSH1 0x1 SWAP1 DUP1 MLOAD SWAP1 PUSH1 0x20 ADD SWAP1 PUSH3 0x6A SWAP3 SWAP2 SWAP1 PUSH3 0x711 JUMP JUMPDEST POP POP POP PUSH1 0x0 PUSH1 0xA PUSH1 0x0 PUSH2 0x100 EXP DUP2 SLOAD DUP2 PUSH1 0xFF MUL NOT AND SWAP1 DUP4 ISZERO ISZERO MUL OR SWAP1 SSTORE POP PUSH1 0x0 PUSH20 0xFFFFFFFFFFFFFFFFFFFFFFFFFFFFFFFFFFFFFFFF AND DUP9 PUSH20 0xFFFFFFFFFFFFFFFFFFFFFFFFFFFFFFFFFFFFFFFF AND EQ ISZERO PUSH3 0xFB JUMPI PUSH1 0x40 MLOAD PUSH32 0x8C379A000000000000000000000000000000000000000000000000000000000 DUP2 MSTORE PUSH1 0x4 ADD PUSH3 0xF2 SWAP1 PUSH3 0xBD5 JUMP JUMPDEST PUSH1 0x40 MLOAD DUP1 SWAP2 SUB SWAP1 REVERT JUMPDEST PUSH1 0x0 PUSH20 0xFFFFFFFFFFFFFFFFFFFFFFFFFFFFFFFFFFFFFFFF AND DUP10 PUSH20 0xFFFFFFFFFFFFFFFFFFFFFFFFFFFFFFFFFFFFFFFF AND EQ ISZERO PUSH3 0x16E JUMPI PUSH1 0x40 MLOAD PUSH32 0x8C379A000000000000000000000000000000000000000000000000000000000 DUP2 MSTORE PUSH1 0x4 ADD PUSH3 0x165 SWAP1 PUSH3 0xC19 JUMP JUMPDEST PUSH1 0x40 MLOAD DUP1 SWAP2 SUB SWAP1 REVERT JUMPDEST TIMESTAMP DUP5 LT ISZERO PUSH3 0x1B4 JUMPI PUSH1 0x40 MLOAD PUSH32 0x8C379A000000000000000000000000000000000000000000000000000000000 DUP2 MSTORE PUSH1 0x4 ADD PUSH3 0x1AB SWAP1 PUSH3 0xBF7 JUMP JUMPDEST PUSH1 0x40 MLOAD DUP1 SWAP2 SUB SWAP1 REVERT JUMPDEST TIMESTAMP DUP3 LT ISZERO PUSH3 0x1FA JUMPI PUSH1 0x40 MLOAD PUSH32 0x8C379A000000000000000000000000000000000000000000000000000000000 DUP2 MSTORE PUSH1 0x4 ADD PUSH3 0x1F1 SWAP1 PUSH3 0xB6F JUMP JUMPDEST PUSH1 0x40 MLOAD DUP1 SWAP2 SUB SWAP1 REVERT JUMPDEST DUP2 DUP4 GT ISZERO PUSH3 0x240 JUMPI PUSH1 0x40 MLOAD PUSH32 0x8C379A000000000000000000000000000000000000000000000000000000000 DUP2 MSTORE PUSH1 0x4 ADD PUSH3 0x237 SWAP1 PUSH3 0xBB3 JUMP JUMPDEST PUSH1 0x40 MLOAD DUP1 SWAP2 SUB SWAP1 REVERT JUMPDEST PUSH1 0x0 DUP2 GT PUSH3 0x286 JUMPI PUSH1 0x40 MLOAD PUSH32 0x8C379A000000000000000000000000000000000000000000000000000000000 DUP2 MSTORE PUSH1 0x4 ADD PUSH3 0x27D SWAP1 PUSH3 0xB91 JUMP JUMPDEST PUSH1 0x40 MLOAD DUP1 SWAP2 SUB SWAP1 REVERT JUMPDEST PUSH1 0x0 DUP8 MLOAD EQ ISZERO PUSH3 0x2CE JUMPI PUSH1 0x40 MLOAD PUSH32 0x8C379A000000000000000000000000000000000000000000000000000000000 DUP2 MSTORE PUSH1 0x4 ADD PUSH3 0x2C5 SWAP1 PUSH3 0xB4D JUMP JUMPDEST PUSH1 0x40 MLOAD DUP1 SWAP2 SUB SWAP1 REVERT JUMPDEST PUSH3 0x300 PUSH32 0x70546D1C92F8C2132AE23A23F5177AA8526356051C7510DF99F50E012D221529 CALLER PUSH3 0x3FE PUSH1 0x20 SHL PUSH1 0x20 SHR JUMP JUMPDEST PUSH3 0x314 DUP9 PUSH2 0x3E8 PUSH3 0x4F0 PUSH1 0x20 SHL PUSH1 0x20 SHR JUMP JUMPDEST DUP9 PUSH1 0xD PUSH1 0x0 PUSH2 0x100 EXP DUP2 SLOAD DUP2 PUSH20 0xFFFFFFFFFFFFFFFFFFFFFFFFFFFFFFFFFFFFFFFF MUL NOT AND SWAP1 DUP4 PUSH20 0xFFFFFFFFFFFFFFFFFFFFFFFFFFFFFFFFFFFFFFFF AND MUL OR SWAP1 SSTORE POP DUP8 PUSH1 0xC PUSH1 0x0 PUSH2 0x100 EXP DUP2 SLOAD DUP2 PUSH20 0xFFFFFFFFFFFFFFFFFFFFFFFFFFFFFFFFFFFFFFFF MUL NOT AND SWAP1 DUP4 PUSH20 0xFFFFFFFFFFFFFFFFFFFFFFFFFFFFFFFFFFFFFFFF AND MUL OR SWAP1 SSTORE POP DUP7 PUSH1 0x11 SWAP1 DUP1 MLOAD SWAP1 PUSH1 0x20 ADD SWAP1 PUSH3 0x3AE SWAP3 SWAP2 SWAP1 PUSH3 0x711 JUMP JUMPDEST POP DUP6 PUSH1 0xE DUP2 SWAP1 SSTORE POP DUP5 PUSH1 0xF PUSH1 0x0 PUSH2 0x100 EXP DUP2 SLOAD DUP2 PUSH1 0xFF MUL NOT AND SWAP1 DUP4 PUSH1 0xFF AND MUL OR SWAP1 SSTORE POP DUP4 PUSH1 0x13 DUP2 SWAP1 SSTORE POP DUP3 PUSH1 0x14 DUP2 SWAP1 SSTORE POP DUP2 PUSH1 0x15 DUP2 SWAP1 SSTORE POP DUP1 PUSH1 0x10 DUP2 SWAP1 SSTORE POP POP POP POP POP POP POP POP POP POP POP POP PUSH3 0x1102 JUMP JUMPDEST PUSH3 0x410 DUP3 DUP3 PUSH3 0x694 PUSH1 0x20 SHL PUSH1 0x20 SHR JUMP JUMPDEST PUSH3 0x4EC JUMPI PUSH1 0x1 PUSH1 0x9 PUSH1 0x0 DUP5 DUP2 MSTORE PUSH1 0x20 ADD SWAP1 DUP2 MSTORE PUSH1 0x20 ADD PUSH1 0x0 KECCAK256 PUSH1 0x0 ADD PUSH1 0x0 DUP4 PUSH20 0xFFFFFFFFFFFFFFFFFFFFFFFFFFFFFFFFFFFFFFFF AND PUSH20 0xFFFFFFFFFFFFFFFFFFFFFFFFFFFFFFFFFFFFFFFF AND DUP2 MSTORE PUSH1 0x20 ADD SWAP1 DUP2 MSTORE PUSH1 0x20 ADD PUSH1 0x0 KECCAK256 PUSH1 0x0 PUSH2 0x100 EXP DUP2 SLOAD DUP2 PUSH1 0xFF MUL NOT AND SWAP1 DUP4 ISZERO ISZERO MUL OR SWAP1 SSTORE POP PUSH3 0x491 PUSH3 0x6FF PUSH1 0x20 SHL PUSH1 0x20 SHR JUMP JUMPDEST PUSH20 0xFFFFFFFFFFFFFFFFFFFFFFFFFFFFFFFFFFFFFFFF AND DUP2 PUSH20 0xFFFFFFFFFFFFFFFFFFFFFFFFFFFFFFFFFFFFFFFF AND DUP4 PUSH32 0x2F8788117E7EFF1D82E926EC794901D17C78024A50270940304540A733656F0D PUSH1 0x40 MLOAD PUSH1 0x40 MLOAD DUP1 SWAP2 SUB SWAP1 LOG4 JUMPDEST POP POP JUMP JUMPDEST PUSH3 0x500 PUSH3 0x707 PUSH1 0x20 SHL PUSH1 0x20 SHR JUMP JUMPDEST PUSH12 0xFFFFFFFFFFFFFFFFFFFFFFFF AND DUP2 PUSH12 0xFFFFFFFFFFFFFFFFFFFFFFFF AND GT ISZERO PUSH3 0x561 JUMPI PUSH1 0x40 MLOAD PUSH32 0x8C379A000000000000000000000000000000000000000000000000000000000 DUP2 MSTORE PUSH1 0x4 ADD PUSH3 0x558 SWAP1 PUSH3 0xC3B JUMP JUMPDEST PUSH1 0x40 MLOAD DUP1 SWAP2 SUB SWAP1 REVERT JUMPDEST PUSH1 0x0 PUSH20 0xFFFFFFFFFFFFFFFFFFFFFFFFFFFFFFFFFFFFFFFF AND DUP3 PUSH20 0xFFFFFFFFFFFFFFFFFFFFFFFFFFFFFFFFFFFFFFFF AND EQ ISZERO PUSH3 0x5D4 JUMPI PUSH1 0x40 MLOAD PUSH32 0x8C379A000000000000000000000000000000000000000000000000000000000 DUP2 MSTORE PUSH1 0x4 ADD PUSH3 0x5CB SWAP1 PUSH3 0xC5D JUMP JUMPDEST PUSH1 0x40 MLOAD DUP1 SWAP2 SUB SWAP1 REVERT JUMPDEST PUSH1 0x40 MLOAD DUP1 PUSH1 0x40 ADD PUSH1 0x40 MSTORE DUP1 DUP4 PUSH20 0xFFFFFFFFFFFFFFFFFFFFFFFFFFFFFFFFFFFFFFFF AND DUP2 MSTORE PUSH1 0x20 ADD DUP3 PUSH12 0xFFFFFFFFFFFFFFFFFFFFFFFF AND DUP2 MSTORE POP PUSH1 0x7 PUSH1 0x0 DUP3 ADD MLOAD DUP2 PUSH1 0x0 ADD PUSH1 0x0 PUSH2 0x100 EXP DUP2 SLOAD DUP2 PUSH20 0xFFFFFFFFFFFFFFFFFFFFFFFFFFFFFFFFFFFFFFFF MUL NOT AND SWAP1 DUP4 PUSH20 0xFFFFFFFFFFFFFFFFFFFFFFFFFFFFFFFFFFFFFFFF AND MUL OR SWAP1 SSTORE POP PUSH1 0x20 DUP3 ADD MLOAD DUP2 PUSH1 0x0 ADD PUSH1 0x14 PUSH2 0x100 EXP DUP2 SLOAD DUP2 PUSH12 0xFFFFFFFFFFFFFFFFFFFFFFFF MUL NOT AND SWAP1 DUP4 PUSH12 0xFFFFFFFFFFFFFFFFFFFFFFFF AND MUL OR SWAP1 SSTORE POP SWAP1 POP POP POP POP JUMP JUMPDEST PUSH1 0x0 PUSH1 0x9 PUSH1 0x0 DUP5 DUP2 MSTORE PUSH1 0x20 ADD SWAP1 DUP2 MSTORE PUSH1 0x20 ADD PUSH1 0x0 KECCAK256 PUSH1 0x0 ADD PUSH1 0x0 DUP4 PUSH20 0xFFFFFFFFFFFFFFFFFFFFFFFFFFFFFFFFFFFFFFFF AND PUSH20 0xFFFFFFFFFFFFFFFFFFFFFFFFFFFFFFFFFFFFFFFF AND DUP2 MSTORE PUSH1 0x20 ADD SWAP1 DUP2 MSTORE PUSH1 0x20 ADD PUSH1 0x0 KECCAK256 PUSH1 0x0 SWAP1 SLOAD SWAP1 PUSH2 0x100 EXP SWAP1 DIV PUSH1 0xFF AND SWAP1 POP SWAP3 SWAP2 POP POP JUMP JUMPDEST PUSH1 0x0 CALLER SWAP1 POP SWAP1 JUMP JUMPDEST PUSH1 0x0 PUSH2 0x2710 SWAP1 POP SWAP1 JUMP JUMPDEST DUP3 DUP1 SLOAD PUSH3 0x71F SWAP1 PUSH3 0xD70 JUMP JUMPDEST SWAP1 PUSH1 0x0 MSTORE PUSH1 0x20 PUSH1 0x0 KECCAK256 SWAP1 PUSH1 0x1F ADD PUSH1 0x20 SWAP1 DIV DUP2 ADD SWAP3 DUP3 PUSH3 0x743 JUMPI PUSH1 0x0 DUP6 SSTORE PUSH3 0x78F JUMP JUMPDEST DUP3 PUSH1 0x1F LT PUSH3 0x75E JUMPI DUP1 MLOAD PUSH1 0xFF NOT AND DUP4 DUP1 ADD OR DUP6 SSTORE PUSH3 0x78F JUMP JUMPDEST DUP3 DUP1 ADD PUSH1 0x1 ADD DUP6 SSTORE DUP3 ISZERO PUSH3 0x78F JUMPI SWAP2 DUP3 ADD JUMPDEST DUP3 DUP2 GT ISZERO PUSH3 0x78E JUMPI DUP3 MLOAD DUP3 SSTORE SWAP2 PUSH1 0x20 ADD SWAP2 SWAP1 PUSH1 0x1 ADD SWAP1 PUSH3 0x771 JUMP JUMPDEST JUMPDEST POP SWAP1 POP PUSH3 0x79E SWAP2 SWAP1 PUSH3 0x7A2 JUMP JUMPDEST POP SWAP1 JUMP JUMPDEST JUMPDEST DUP1 DUP3 GT ISZERO PUSH3 0x7BD JUMPI PUSH1 0x0 DUP2 PUSH1 0x0 SWAP1 SSTORE POP PUSH1 0x1 ADD PUSH3 0x7A3 JUMP JUMPDEST POP SWAP1 JUMP JUMPDEST PUSH1 0x0 PUSH3 0x7D8 PUSH3 0x7D2 DUP5 PUSH3 0xCA8 JUMP JUMPDEST PUSH3 0xC7F JUMP JUMPDEST SWAP1 POP DUP3 DUP2 MSTORE PUSH1 0x20 DUP2 ADD DUP5 DUP5 DUP5 ADD GT ISZERO PUSH3 0x7F7 JUMPI PUSH3 0x7F6 PUSH3 0xE3F JUMP JUMPDEST JUMPDEST PUSH3 0x804 DUP5 DUP3 DUP6 PUSH3 0xD3A JUMP JUMPDEST POP SWAP4 SWAP3 POP POP POP JUMP JUMPDEST PUSH1 0x0 DUP2 MLOAD SWAP1 POP PUSH3 0x81D DUP2 PUSH3 0x10B4 JUMP JUMPDEST SWAP3 SWAP2 POP POP JUMP JUMPDEST PUSH1 0x0 DUP3 PUSH1 0x1F DUP4 ADD SLT PUSH3 0x83B JUMPI PUSH3 0x83A PUSH3 0xE3A JUMP JUMPDEST JUMPDEST DUP2 MLOAD PUSH3 0x84D DUP5 DUP3 PUSH1 0x20 DUP7 ADD PUSH3 0x7C1 JUMP JUMPDEST SWAP2 POP POP SWAP3 SWAP2 POP POP JUMP JUMPDEST PUSH1 0x0 DUP2 MLOAD SWAP1 POP PUSH3 0x867 DUP2 PUSH3 0x10CE JUMP JUMPDEST SWAP3 SWAP2 POP POP JUMP JUMPDEST PUSH1 0x0 DUP2 MLOAD SWAP1 POP PUSH3 0x87E DUP2 PUSH3 0x10E8 JUMP JUMPDEST SWAP3 SWAP2 POP POP JUMP JUMPDEST PUSH1 0x0 DUP1 PUSH1 0x0 DUP1 PUSH1 0x0 DUP1 PUSH1 0x0 DUP1 PUSH1 0x0 DUP1 PUSH1 0x0 PUSH2 0x160 DUP13 DUP15 SUB SLT ISZERO PUSH3 0x8AD JUMPI PUSH3 0x8AC PUSH3 0xE49 JUMP JUMPDEST JUMPDEST PUSH1 0x0 DUP13 ADD MLOAD PUSH8 0xFFFFFFFFFFFFFFFF DUP2 GT ISZERO PUSH3 0x8CE JUMPI PUSH3 0x8CD PUSH3 0xE44 JUMP JUMPDEST JUMPDEST PUSH3 0x8DC DUP15 DUP3 DUP16 ADD PUSH3 0x823 JUMP JUMPDEST SWAP12 POP POP PUSH1 0x20 DUP13 ADD MLOAD PUSH8 0xFFFFFFFFFFFFFFFF DUP2 GT ISZERO PUSH3 0x900 JUMPI PUSH3 0x8FF PUSH3 0xE44 JUMP JUMPDEST JUMPDEST PUSH3 0x90E DUP15 DUP3 DUP16 ADD PUSH3 0x823 JUMP JUMPDEST SWAP11 POP POP PUSH1 0x40 PUSH3 0x921 DUP15 DUP3 DUP16 ADD PUSH3 0x80C JUMP JUMPDEST SWAP10 POP POP PUSH1 0x60 PUSH3 0x934 DUP15 DUP3 DUP16 ADD PUSH3 0x80C JUMP JUMPDEST SWAP9 POP POP PUSH1 0x80 DUP13 ADD MLOAD PUSH8 0xFFFFFFFFFFFFFFFF DUP2 GT ISZERO PUSH3 0x958 JUMPI PUSH3 0x957 PUSH3 0xE44 JUMP JUMPDEST JUMPDEST PUSH3 0x966 DUP15 DUP3 DUP16 ADD PUSH3 0x823 JUMP JUMPDEST SWAP8 POP POP PUSH1 0xA0 PUSH3 0x979 DUP15 DUP3 DUP16 ADD PUSH3 0x856 JUMP JUMPDEST SWAP7 POP POP PUSH1 0xC0 PUSH3 0x98C DUP15 DUP3 DUP16 ADD PUSH3 0x86D JUMP JUMPDEST SWAP6 POP POP PUSH1 0xE0 PUSH3 0x99F DUP15 DUP3 DUP16 ADD PUSH3 0x856 JUMP JUMPDEST SWAP5 POP POP PUSH2 0x100 PUSH3 0x9B3 DUP15 DUP3 DUP16 ADD PUSH3 0x856 JUMP JUMPDEST SWAP4 POP POP PUSH2 0x120 PUSH3 0x9C7 DUP15 DUP3 DUP16 ADD PUSH3 0x856 JUMP JUMPDEST SWAP3 POP POP PUSH2 0x140 PUSH3 0x9DB DUP15 DUP3 DUP16 ADD PUSH3 0x856 JUMP JUMPDEST SWAP2 POP POP SWAP3 SWAP6 SWAP9 SWAP12 POP SWAP3 SWAP6 SWAP9 SWAP12 SWAP1 SWAP4 SWAP7 SWAP10 POP JUMP JUMPDEST PUSH1 0x0 PUSH3 0x9FD PUSH1 0x1B DUP4 PUSH3 0xCDE JUMP JUMPDEST SWAP2 POP PUSH3 0xA0A DUP3 PUSH3 0xE5F JUMP JUMPDEST PUSH1 0x20 DUP3 ADD SWAP1 POP SWAP2 SWAP1 POP JUMP JUMPDEST PUSH1 0x0 PUSH3 0xA24 PUSH1 0x2B DUP4 PUSH3 0xCDE JUMP JUMPDEST SWAP2 POP PUSH3 0xA31 DUP3 PUSH3 0xE88 JUMP JUMPDEST PUSH1 0x40 DUP3 ADD SWAP1 POP SWAP2 SWAP1 POP JUMP JUMPDEST PUSH1 0x0 PUSH3 0xA4B PUSH1 0x20 DUP4 PUSH3 0xCDE JUMP JUMPDEST SWAP2 POP PUSH3 0xA58 DUP3 PUSH3 0xED7 JUMP JUMPDEST PUSH1 0x20 DUP3 ADD SWAP1 POP SWAP2 SWAP1 POP JUMP JUMPDEST PUSH1 0x0 PUSH3 0xA72 PUSH1 0x29 DUP4 PUSH3 0xCDE JUMP JUMPDEST SWAP2 POP PUSH3 0xA7F DUP3 PUSH3 0xF00 JUMP JUMPDEST PUSH1 0x40 DUP3 ADD SWAP1 POP SWAP2 SWAP1 POP JUMP JUMPDEST PUSH1 0x0 PUSH3 0xA99 PUSH1 0x29 DUP4 PUSH3 0xCDE JUMP JUMPDEST SWAP2 POP PUSH3 0xAA6 DUP3 PUSH3 0xF4F JUMP JUMPDEST PUSH1 0x40 DUP3 ADD SWAP1 POP SWAP2 SWAP1 POP JUMP JUMPDEST PUSH1 0x0 PUSH3 0xAC0 PUSH1 0x23 DUP4 PUSH3 0xCDE JUMP JUMPDEST SWAP2 POP PUSH3 0xACD DUP3 PUSH3 0xF9E JUMP JUMPDEST PUSH1 0x40 DUP3 ADD SWAP1 POP SWAP2 SWAP1 POP JUMP JUMPDEST PUSH1 0x0 PUSH3 0xAE7 PUSH1 0x2E DUP4 PUSH3 0xCDE JUMP JUMPDEST SWAP2 POP PUSH3 0xAF4 DUP3 PUSH3 0xFED JUMP JUMPDEST PUSH1 0x40 DUP3 ADD SWAP1 POP SWAP2 SWAP1 POP JUMP JUMPDEST PUSH1 0x0 PUSH3 0xB0E PUSH1 0x2A DUP4 PUSH3 0xCDE JUMP JUMPDEST SWAP2 POP PUSH3 0xB1B DUP3 PUSH3 0x103C JUMP JUMPDEST PUSH1 0x40 DUP3 ADD SWAP1 POP SWAP2 SWAP1 POP JUMP JUMPDEST PUSH1 0x0 PUSH3 0xB35 PUSH1 0x19 DUP4 PUSH3 0xCDE JUMP JUMPDEST SWAP2 POP PUSH3 0xB42 DUP3 PUSH3 0x108B JUMP JUMPDEST PUSH1 0x20 DUP3 ADD SWAP1 POP SWAP2 SWAP1 POP JUMP JUMPDEST PUSH1 0x0 PUSH1 0x20 DUP3 ADD SWAP1 POP DUP2 DUP2 SUB PUSH1 0x0 DUP4 ADD MSTORE PUSH3 0xB68 DUP2 PUSH3 0x9EE JUMP JUMPDEST SWAP1 POP SWAP2 SWAP1 POP JUMP JUMPDEST PUSH1 0x0 PUSH1 0x20 DUP3 ADD SWAP1 POP DUP2 DUP2 SUB PUSH1 0x0 DUP4 ADD MSTORE PUSH3 0xB8A DUP2 PUSH3 0xA15 JUMP JUMPDEST SWAP1 POP SWAP2 SWAP1 POP JUMP JUMPDEST PUSH1 0x0 PUSH1 0x20 DUP3 ADD SWAP1 POP DUP2 DUP2 SUB PUSH1 0x0 DUP4 ADD MSTORE PUSH3 0xBAC DUP2 PUSH3 0xA3C JUMP JUMPDEST SWAP1 POP SWAP2 SWAP1 POP JUMP JUMPDEST PUSH1 0x0 PUSH1 0x20 DUP3 ADD SWAP1 POP DUP2 DUP2 SUB PUSH1 0x0 DUP4 ADD MSTORE PUSH3 0xBCE DUP2 PUSH3 0xA63 JUMP JUMPDEST SWAP1 POP SWAP2 SWAP1 POP JUMP JUMPDEST PUSH1 0x0 PUSH1 0x20 DUP3 ADD SWAP1 POP DUP2 DUP2 SUB PUSH1 0x0 DUP4 ADD MSTORE PUSH3 0xBF0 DUP2 PUSH3 0xA8A JUMP JUMPDEST SWAP1 POP SWAP2 SWAP1 POP JUMP JUMPDEST PUSH1 0x0 PUSH1 0x20 DUP3 ADD SWAP1 POP DUP2 DUP2 SUB PUSH1 0x0 DUP4 ADD MSTORE PUSH3 0xC12 DUP2 PUSH3 0xAB1 JUMP JUMPDEST SWAP1 POP SWAP2 SWAP1 POP JUMP JUMPDEST PUSH1 0x0 PUSH1 0x20 DUP3 ADD SWAP1 POP DUP2 DUP2 SUB PUSH1 0x0 DUP4 ADD MSTORE PUSH3 0xC34 DUP2 PUSH3 0xAD8 JUMP JUMPDEST SWAP1 POP SWAP2 SWAP1 POP JUMP JUMPDEST PUSH1 0x0 PUSH1 0x20 DUP3 ADD SWAP1 POP DUP2 DUP2 SUB PUSH1 0x0 DUP4 ADD MSTORE PUSH3 0xC56 DUP2 PUSH3 0xAFF JUMP JUMPDEST SWAP1 POP SWAP2 SWAP1 POP JUMP JUMPDEST PUSH1 0x0 PUSH1 0x20 DUP3 ADD SWAP1 POP DUP2 DUP2 SUB PUSH1 0x0 DUP4 ADD MSTORE PUSH3 0xC78 DUP2 PUSH3 0xB26 JUMP JUMPDEST SWAP1 POP SWAP2 SWAP1 POP JUMP JUMPDEST PUSH1 0x0 PUSH3 0xC8B PUSH3 0xC9E JUMP JUMPDEST SWAP1 POP PUSH3 0xC99 DUP3 DUP3 PUSH3 0xDA6 JUMP JUMPDEST SWAP2 SWAP1 POP JUMP JUMPDEST PUSH1 0x0 PUSH1 0x40 MLOAD SWAP1 POP SWAP1 JUMP JUMPDEST PUSH1 0x0 PUSH8 0xFFFFFFFFFFFFFFFF DUP3 GT ISZERO PUSH3 0xCC6 JUMPI PUSH3 0xCC5 PUSH3 0xE0B JUMP JUMPDEST JUMPDEST PUSH3 0xCD1 DUP3 PUSH3 0xE4E JUMP JUMPDEST SWAP1 POP PUSH1 0x20 DUP2 ADD SWAP1 POP SWAP2 SWAP1 POP JUMP JUMPDEST PUSH1 0x0 DUP3 DUP3 MSTORE PUSH1 0x20 DUP3 ADD SWAP1 POP SWAP3 SWAP2 POP POP JUMP JUMPDEST PUSH1 0x0 PUSH3 0xCFC DUP3 PUSH3 0xD03 JUMP JUMPDEST SWAP1 POP SWAP2 SWAP1 POP JUMP JUMPDEST PUSH1 0x0 PUSH20 0xFFFFFFFFFFFFFFFFFFFFFFFFFFFFFFFFFFFFFFFF DUP3 AND SWAP1 POP SWAP2 SWAP1 POP JUMP JUMPDEST PUSH1 0x0 DUP2 SWAP1 POP SWAP2 SWAP1 POP JUMP JUMPDEST PUSH1 0x0 PUSH1 0xFF DUP3 AND SWAP1 POP SWAP2 SWAP1 POP JUMP JUMPDEST PUSH1 0x0 JUMPDEST DUP4 DUP2 LT ISZERO PUSH3 0xD5A JUMPI DUP1 DUP3 ADD MLOAD DUP2 DUP5 ADD MSTORE PUSH1 0x20 DUP2 ADD SWAP1 POP PUSH3 0xD3D JUMP JUMPDEST DUP4 DUP2 GT ISZERO PUSH3 0xD6A JUMPI PUSH1 0x0 DUP5 DUP5 ADD MSTORE JUMPDEST POP POP POP POP JUMP JUMPDEST PUSH1 0x0 PUSH1 0x2 DUP3 DIV SWAP1 POP PUSH1 0x1 DUP3 AND DUP1 PUSH3 0xD89 JUMPI PUSH1 0x7F DUP3 AND SWAP2 POP JUMPDEST PUSH1 0x20 DUP3 LT DUP2 EQ ISZERO PUSH3 0xDA0 JUMPI PUSH3 0xD9F PUSH3 0xDDC JUMP JUMPDEST JUMPDEST POP SWAP2 SWAP1 POP JUMP JUMPDEST PUSH3 0xDB1 DUP3 PUSH3 0xE4E JUMP JUMPDEST DUP2 ADD DUP2 DUP2 LT PUSH8 0xFFFFFFFFFFFFFFFF DUP3 GT OR ISZERO PUSH3 0xDD3 JUMPI PUSH3 0xDD2 PUSH3 0xE0B JUMP JUMPDEST JUMPDEST DUP1 PUSH1 0x40 MSTORE POP POP POP JUMP JUMPDEST PUSH32 0x4E487B7100000000000000000000000000000000000000000000000000000000 PUSH1 0x0 MSTORE PUSH1 0x22 PUSH1 0x4 MSTORE PUSH1 0x24 PUSH1 0x0 REVERT JUMPDEST PUSH32 0x4E487B7100000000000000000000000000000000000000000000000000000000 PUSH1 0x0 MSTORE PUSH1 0x41 PUSH1 0x4 MSTORE PUSH1 0x24 PUSH1 0x0 REVERT JUMPDEST PUSH1 0x0 DUP1 REVERT JUMPDEST PUSH1 0x0 DUP1 REVERT JUMPDEST PUSH1 0x0 DUP1 REVERT JUMPDEST PUSH1 0x0 DUP1 REVERT JUMPDEST PUSH1 0x0 PUSH1 0x1F NOT PUSH1 0x1F DUP4 ADD AND SWAP1 POP SWAP2 SWAP1 POP JUMP JUMPDEST PUSH32 0x546F6B656E20555249206D757374206E6F7420626520656D7074790000000000 PUSH1 0x0 DUP3 ADD MSTORE POP JUMP JUMPDEST PUSH32 0x5469636B6574207469657220636C6F736520646174652063616E277420626520 PUSH1 0x0 DUP3 ADD MSTORE PUSH32 0x696E207468652070617374000000000000000000000000000000000000000000 PUSH1 0x20 DUP3 ADD MSTORE POP JUMP JUMPDEST PUSH32 0x537570706C79206D7573742062652067726561746572207468616E207A65726F PUSH1 0x0 DUP3 ADD MSTORE POP JUMP JUMPDEST PUSH32 0x496E76616C6964206C69766520616E6420636C6F736520646174652072656C61 PUSH1 0x0 DUP3 ADD MSTORE PUSH32 0x74696F6E736869702E0000000000000000000000000000000000000000000000 PUSH1 0x20 DUP3 ADD MSTORE POP JUMP JUMPDEST PUSH32 0x4576656E74206F7267616E697A65722063616E277420626520746865207A6572 PUSH1 0x0 DUP3 ADD MSTORE PUSH32 0x6F20616464726573730000000000000000000000000000000000000000000000 PUSH1 0x20 DUP3 ADD MSTORE POP JUMP JUMPDEST PUSH32 0x4576656E7420656E6420646174652063616E277420626520696E207468652070 PUSH1 0x0 DUP3 ADD MSTORE PUSH32 0x6173740000000000000000000000000000000000000000000000000000000000 PUSH1 0x20 DUP3 ADD MSTORE POP JUMP JUMPDEST PUSH32 0x4D61726B6574706C61636520636F6E74726163742063616E2774206265207468 PUSH1 0x0 DUP3 ADD MSTORE PUSH32 0x65207A65726F2061646472657373000000000000000000000000000000000000 PUSH1 0x20 DUP3 ADD MSTORE POP JUMP JUMPDEST PUSH32 0x455243323938313A20726F79616C7479206665652077696C6C20657863656564 PUSH1 0x0 DUP3 ADD MSTORE PUSH32 0x2073616C65507269636500000000000000000000000000000000000000000000 PUSH1 0x20 DUP3 ADD MSTORE POP JUMP JUMPDEST PUSH32 0x455243323938313A20696E76616C696420726563656976657200000000000000 PUSH1 0x0 DUP3 ADD MSTORE POP JUMP JUMPDEST PUSH3 0x10BF DUP2 PUSH3 0xCEF JUMP JUMPDEST DUP2 EQ PUSH3 0x10CB JUMPI PUSH1 0x0 DUP1 REVERT JUMPDEST POP JUMP JUMPDEST PUSH3 0x10D9 DUP2 PUSH3 0xD23 JUMP JUMPDEST DUP2 EQ PUSH3 0x10E5 JUMPI PUSH1 0x0 DUP1 REVERT JUMPDEST POP JUMP JUMPDEST PUSH3 0x10F3 DUP2 PUSH3 0xD2D JUMP JUMPDEST DUP2 EQ PUSH3 0x10FF JUMPI PUSH1 0x0 DUP1 REVERT JUMPDEST POP JUMP JUMPDEST PUSH2 0x4A20 DUP1 PUSH3 0x1112 PUSH1 0x0 CODECOPY PUSH1 0x0 RETURN INVALID PUSH1 0x80 PUSH1 0x40 MSTORE CALLVALUE DUP1 ISZERO PUSH2 0x10 JUMPI PUSH1 0x0 DUP1 REVERT JUMPDEST POP PUSH1 0x4 CALLDATASIZE LT PUSH2 0x25E JUMPI PUSH1 0x0 CALLDATALOAD PUSH1 0xE0 SHR DUP1 PUSH4 0x7514D7CB GT PUSH2 0x146 JUMPI DUP1 PUSH4 0xC87B56DD GT PUSH2 0xC3 JUMPI DUP1 PUSH4 0xE049B203 GT PUSH2 0x87 JUMPI DUP1 PUSH4 0xE049B203 EQ PUSH2 0x722 JUMPI DUP1 PUSH4 0xE66D772C EQ PUSH2 0x73E JUMPI DUP1 PUSH4 0xE985E9C5 EQ PUSH2 0x75C JUMPI DUP1 PUSH4 0xEADC7E42 EQ PUSH2 0x78C JUMPI DUP1 PUSH4 0xEE0FC121 EQ PUSH2 0x7A8 JUMPI DUP1 PUSH4 0xF7D506A5 EQ PUSH2 0x7C6 JUMPI PUSH2 0x25E JUMP JUMPDEST DUP1 PUSH4 0xC87B56DD EQ PUSH2 0x67E JUMPI DUP1 PUSH4 0xCC0DE97B EQ PUSH2 0x6AE JUMPI DUP1 PUSH4 0xD1BB5CF1 EQ PUSH2 0x6CC JUMPI DUP1 PUSH4 0xD547741F EQ PUSH2 0x6EA JUMPI DUP1 PUSH4 0xDA81980B EQ PUSH2 0x706 JUMPI PUSH2 0x25E JUMP JUMPDEST DUP1 PUSH4 0x9EAB643F GT PUSH2 0x10A JUMPI DUP1 PUSH4 0x9EAB643F EQ PUSH2 0x5EC JUMPI DUP1 PUSH4 0xA217FDDF EQ PUSH2 0x60A JUMPI DUP1 PUSH4 0xA22CB465 EQ PUSH2 0x628 JUMPI DUP1 PUSH4 0xB4CE37D2 EQ PUSH2 0x644 JUMPI DUP1 PUSH4 0xB88D4FDE EQ PUSH2 0x662 JUMPI PUSH2 0x25E JUMP JUMPDEST DUP1 PUSH4 0x7514D7CB EQ PUSH2 0x558 JUMPI DUP1 PUSH4 0x8F60B8E9 EQ PUSH2 0x576 JUMPI DUP1 PUSH4 0x8F810FEC EQ PUSH2 0x580 JUMPI DUP1 PUSH4 0x91D14854 EQ PUSH2 0x59E JUMPI DUP1 PUSH4 0x95D89B41 EQ PUSH2 0x5CE JUMPI PUSH2 0x25E JUMP JUMPDEST DUP1 PUSH4 0x2890E0D7 GT PUSH2 0x1DF JUMPI DUP1 PUSH4 0x42842E0E GT PUSH2 0x1A3 JUMPI DUP1 PUSH4 0x42842E0E EQ PUSH2 0x470 JUMPI DUP1 PUSH4 0x48D79B6D EQ PUSH2 0x48C JUMPI DUP1 PUSH4 0x54BA0F27 EQ PUSH2 0x4AA JUMPI DUP1 PUSH4 0x5C975ABB EQ PUSH2 0x4DA JUMPI DUP1 PUSH4 0x6352211E EQ PUSH2 0x4F8 JUMPI DUP1 PUSH4 0x70A08231 EQ PUSH2 0x528 JUMPI PUSH2 0x25E JUMP JUMPDEST DUP1 PUSH4 0x2890E0D7 EQ PUSH2 0x3BB JUMPI DUP1 PUSH4 0x298505DA EQ PUSH2 0x3D7 JUMPI DUP1 PUSH4 0x2A55205A EQ PUSH2 0x407 JUMPI DUP1 PUSH4 0x2F2FF15D EQ PUSH2 0x438 JUMPI DUP1 PUSH4 0x36568ABE EQ PUSH2 0x454 JUMPI PUSH2 0x25E JUMP JUMPDEST DUP1 PUSH4 0x1102610E GT PUSH2 0x226 JUMPI DUP1 PUSH4 0x1102610E EQ PUSH2 0x31B JUMPI DUP1 PUSH4 0x23B872DD EQ PUSH2 0x337 JUMPI DUP1 PUSH4 0x23F663D5 EQ PUSH2 0x353 JUMPI DUP1 PUSH4 0x241752CC EQ PUSH2 0x36F JUMPI DUP1 PUSH4 0x248A9CA3 EQ PUSH2 0x38B JUMPI PUSH2 0x25E JUMP JUMPDEST DUP1 PUSH4 0x1FFC9A7 EQ PUSH2 0x263 JUMPI DUP1 PUSH4 0x47FC9AA EQ PUSH2 0x293 JUMPI DUP1 PUSH4 0x6FDDE03 EQ PUSH2 0x2B1 JUMPI DUP1 PUSH4 0x81812FC EQ PUSH2 0x2CF JUMPI DUP1 PUSH4 0x95EA7B3 EQ PUSH2 0x2FF JUMPI JUMPDEST PUSH1 0x0 DUP1 REVERT JUMPDEST PUSH2 0x27D PUSH1 0x4 DUP1 CALLDATASIZE SUB DUP2 ADD SWAP1 PUSH2 0x278 SWAP2 SWAP1 PUSH2 0x3587 JUMP JUMPDEST PUSH2 0x7E4 JUMP JUMPDEST PUSH1 0x40 MLOAD PUSH2 0x28A SWAP2 SWAP1 PUSH2 0x3BFA JUMP JUMPDEST PUSH1 0x40 MLOAD DUP1 SWAP2 SUB SWAP1 RETURN JUMPDEST PUSH2 0x29B PUSH2 0x85E JUMP JUMPDEST PUSH1 0x40 MLOAD PUSH2 0x2A8 SWAP2 SWAP1 PUSH2 0x3EF2 JUMP JUMPDEST PUSH1 0x40 MLOAD DUP1 SWAP2 SUB SWAP1 RETURN JUMPDEST PUSH2 0x2B9 PUSH2 0x864 JUMP JUMPDEST PUSH1 0x40 MLOAD PUSH2 0x2C6 SWAP2 SWAP1 PUSH2 0x3C30 JUMP JUMPDEST PUSH1 0x40 MLOAD DUP1 SWAP2 SUB SWAP1 RETURN JUMPDEST PUSH2 0x2E9 PUSH1 0x4 DUP1 CALLDATASIZE SUB DUP2 ADD SWAP1 PUSH2 0x2E4 SWAP2 SWAP1 PUSH2 0x35E1 JUMP JUMPDEST PUSH2 0x8F6 JUMP JUMPDEST PUSH1 0x40 MLOAD PUSH2 0x2F6 SWAP2 SWAP1 PUSH2 0x3AEC JUMP JUMPDEST PUSH1 0x40 MLOAD DUP1 SWAP2 SUB SWAP1 RETURN JUMPDEST PUSH2 0x319 PUSH1 0x4 DUP1 CALLDATASIZE SUB DUP2 ADD SWAP1 PUSH2 0x314 SWAP2 SWAP1 PUSH2 0x34DA JUMP JUMPDEST PUSH2 0x93C JUMP JUMPDEST STOP JUMPDEST PUSH2 0x335 PUSH1 0x4 DUP1 CALLDATASIZE SUB DUP2 ADD SWAP1 PUSH2 0x330 SWAP2 SWAP1 PUSH2 0x3357 JUMP JUMPDEST PUSH2 0xA54 JUMP JUMPDEST STOP JUMPDEST PUSH2 0x351 PUSH1 0x4 DUP1 CALLDATASIZE SUB DUP2 ADD SWAP1 PUSH2 0x34C SWAP2 SWAP1 PUSH2 0x33C4 JUMP JUMPDEST PUSH2 0xAC3 JUMP JUMPDEST STOP JUMPDEST PUSH2 0x36D PUSH1 0x4 DUP1 CALLDATASIZE SUB DUP2 ADD SWAP1 PUSH2 0x368 SWAP2 SWAP1 PUSH2 0x364E JUMP JUMPDEST PUSH2 0xB23 JUMP JUMPDEST STOP JUMPDEST PUSH2 0x389 PUSH1 0x4 DUP1 CALLDATASIZE SUB DUP2 ADD SWAP1 PUSH2 0x384 SWAP2 SWAP1 PUSH2 0x3357 JUMP JUMPDEST PUSH2 0xB41 JUMP JUMPDEST STOP JUMPDEST PUSH2 0x3A5 PUSH1 0x4 DUP1 CALLDATASIZE SUB DUP2 ADD SWAP1 PUSH2 0x3A0 SWAP2 SWAP1 PUSH2 0x351A JUMP JUMPDEST PUSH2 0xBB0 JUMP JUMPDEST PUSH1 0x40 MLOAD PUSH2 0x3B2 SWAP2 SWAP1 PUSH2 0x3C15 JUMP JUMPDEST PUSH1 0x40 MLOAD DUP1 SWAP2 SUB SWAP1 RETURN JUMPDEST PUSH2 0x3D5 PUSH1 0x4 DUP1 CALLDATASIZE SUB DUP2 ADD SWAP1 PUSH2 0x3D0 SWAP2 SWAP1 PUSH2 0x35E1 JUMP JUMPDEST PUSH2 0xBD0 JUMP JUMPDEST STOP JUMPDEST PUSH2 0x3F1 PUSH1 0x4 DUP1 CALLDATASIZE SUB DUP2 ADD SWAP1 PUSH2 0x3EC SWAP2 SWAP1 PUSH2 0x35E1 JUMP JUMPDEST PUSH2 0xBDC JUMP JUMPDEST PUSH1 0x40 MLOAD PUSH2 0x3FE SWAP2 SWAP1 PUSH2 0x3EF2 JUMP JUMPDEST PUSH1 0x40 MLOAD DUP1 SWAP2 SUB SWAP1 RETURN JUMPDEST PUSH2 0x421 PUSH1 0x4 DUP1 CALLDATASIZE SUB DUP2 ADD SWAP1 PUSH2 0x41C SWAP2 SWAP1 PUSH2 0x360E JUMP JUMPDEST PUSH2 0xC2C JUMP JUMPDEST PUSH1 0x40 MLOAD PUSH2 0x42F SWAP3 SWAP2 SWAP1 PUSH2 0x3B53 JUMP JUMPDEST PUSH1 0x40 MLOAD DUP1 SWAP2 SUB SWAP1 RETURN JUMPDEST PUSH2 0x452 PUSH1 0x4 DUP1 CALLDATASIZE SUB DUP2 ADD SWAP1 PUSH2 0x44D SWAP2 SWAP1 PUSH2 0x3547 JUMP JUMPDEST PUSH2 0xE17 JUMP JUMPDEST STOP JUMPDEST PUSH2 0x46E PUSH1 0x4 DUP1 CALLDATASIZE SUB DUP2 ADD SWAP1 PUSH2 0x469 SWAP2 SWAP1 PUSH2 0x3547 JUMP JUMPDEST PUSH2 0xE38 JUMP JUMPDEST STOP JUMPDEST PUSH2 0x48A PUSH1 0x4 DUP1 CALLDATASIZE SUB DUP2 ADD SWAP1 PUSH2 0x485 SWAP2 SWAP1 PUSH2 0x33C4 JUMP JUMPDEST PUSH2 0xEBB JUMP JUMPDEST STOP JUMPDEST PUSH2 0x494 PUSH2 0xEDB JUMP JUMPDEST PUSH1 0x40 MLOAD PUSH2 0x4A1 SWAP2 SWAP1 PUSH2 0x3EF2 JUMP JUMPDEST PUSH1 0x40 MLOAD DUP1 SWAP2 SUB SWAP1 RETURN JUMPDEST PUSH2 0x4C4 PUSH1 0x4 DUP1 CALLDATASIZE SUB DUP2 ADD SWAP1 PUSH2 0x4BF SWAP2 SWAP1 PUSH2 0x3357 JUMP JUMPDEST PUSH2 0xEE1 JUMP JUMPDEST PUSH1 0x40 MLOAD PUSH2 0x4D1 SWAP2 SWAP1 PUSH2 0x3EF2 JUMP JUMPDEST PUSH1 0x40 MLOAD DUP1 SWAP2 SUB SWAP1 RETURN JUMPDEST PUSH2 0x4E2 PUSH2 0x1178 JUMP JUMPDEST PUSH1 0x40 MLOAD PUSH2 0x4EF SWAP2 SWAP1 PUSH2 0x3BFA JUMP JUMPDEST PUSH1 0x40 MLOAD DUP1 SWAP2 SUB SWAP1 RETURN JUMPDEST PUSH2 0x512 PUSH1 0x4 DUP1 CALLDATASIZE SUB DUP2 ADD SWAP1 PUSH2 0x50D SWAP2 SWAP1 PUSH2 0x35E1 JUMP JUMPDEST PUSH2 0x118F JUMP JUMPDEST PUSH1 0x40 MLOAD PUSH2 0x51F SWAP2 SWAP1 PUSH2 0x3AEC JUMP JUMPDEST PUSH1 0x40 MLOAD DUP1 SWAP2 SUB SWAP1 RETURN JUMPDEST PUSH2 0x542 PUSH1 0x4 DUP1 CALLDATASIZE SUB DUP2 ADD SWAP1 PUSH2 0x53D SWAP2 SWAP1 PUSH2 0x3357 JUMP JUMPDEST PUSH2 0x1241 JUMP JUMPDEST PUSH1 0x40 MLOAD PUSH2 0x54F SWAP2 SWAP1 PUSH2 0x3EF2 JUMP JUMPDEST PUSH1 0x40 MLOAD DUP1 SWAP2 SUB SWAP1 RETURN JUMPDEST PUSH2 0x560 PUSH2 0x12F9 JUMP JUMPDEST PUSH1 0x40 MLOAD PUSH2 0x56D SWAP2 SWAP1 PUSH2 0x3AEC JUMP JUMPDEST PUSH1 0x40 MLOAD DUP1 SWAP2 SUB SWAP1 RETURN JUMPDEST PUSH2 0x57E PUSH2 0x131F JUMP JUMPDEST STOP JUMPDEST PUSH2 0x588 PUSH2 0x146E JUMP JUMPDEST PUSH1 0x40 MLOAD PUSH2 0x595 SWAP2 SWAP1 PUSH2 0x3EF2 JUMP JUMPDEST PUSH1 0x40 MLOAD DUP1 SWAP2 SUB SWAP1 RETURN JUMPDEST PUSH2 0x5B8 PUSH1 0x4 DUP1 CALLDATASIZE SUB DUP2 ADD SWAP1 PUSH2 0x5B3 SWAP2 SWAP1 PUSH2 0x3547 JUMP JUMPDEST PUSH2 0x1474 JUMP JUMPDEST PUSH1 0x40 MLOAD PUSH2 0x5C5 SWAP2 SWAP1 PUSH2 0x3BFA JUMP JUMPDEST PUSH1 0x40 MLOAD DUP1 SWAP2 SUB SWAP1 RETURN JUMPDEST PUSH2 0x5D6 PUSH2 0x14DF JUMP JUMPDEST PUSH1 0x40 MLOAD PUSH2 0x5E3 SWAP2 SWAP1 PUSH2 0x3C30 JUMP JUMPDEST PUSH1 0x40 MLOAD DUP1 SWAP2 SUB SWAP1 RETURN JUMPDEST PUSH2 0x5F4 PUSH2 0x1571 JUMP JUMPDEST PUSH1 0x40 MLOAD PUSH2 0x601 SWAP2 SWAP1 PUSH2 0x3EF2 JUMP JUMPDEST PUSH1 0x40 MLOAD DUP1 SWAP2 SUB SWAP1 RETURN JUMPDEST PUSH2 0x612 PUSH2 0x1577 JUMP JUMPDEST PUSH1 0x40 MLOAD PUSH2 0x61F SWAP2 SWAP1 PUSH2 0x3C15 JUMP JUMPDEST PUSH1 0x40 MLOAD DUP1 SWAP2 SUB SWAP1 RETURN JUMPDEST PUSH2 0x642 PUSH1 0x4 DUP1 CALLDATASIZE SUB DUP2 ADD SWAP1 PUSH2 0x63D SWAP2 SWAP1 PUSH2 0x349A JUMP JUMPDEST PUSH2 0x157E JUMP JUMPDEST STOP JUMPDEST PUSH2 0x64C PUSH2 0x1594 JUMP JUMPDEST PUSH1 0x40 MLOAD PUSH2 0x659 SWAP2 SWAP1 PUSH2 0x3C30 JUMP JUMPDEST PUSH1 0x40 MLOAD DUP1 SWAP2 SUB SWAP1 RETURN JUMPDEST PUSH2 0x67C PUSH1 0x4 DUP1 CALLDATASIZE SUB DUP2 ADD SWAP1 PUSH2 0x677 SWAP2 SWAP1 PUSH2 0x3417 JUMP JUMPDEST PUSH2 0x1622 JUMP JUMPDEST STOP JUMPDEST PUSH2 0x698 PUSH1 0x4 DUP1 CALLDATASIZE SUB DUP2 ADD SWAP1 PUSH2 0x693 SWAP2 SWAP1 PUSH2 0x35E1 JUMP JUMPDEST PUSH2 0x1684 JUMP JUMPDEST PUSH1 0x40 MLOAD PUSH2 0x6A5 SWAP2 SWAP1 PUSH2 0x3C30 JUMP JUMPDEST PUSH1 0x40 MLOAD DUP1 SWAP2 SUB SWAP1 RETURN JUMPDEST PUSH2 0x6B6 PUSH2 0x1797 JUMP JUMPDEST PUSH1 0x40 MLOAD PUSH2 0x6C3 SWAP2 SWAP1 PUSH2 0x3F0D JUMP JUMPDEST PUSH1 0x40 MLOAD DUP1 SWAP2 SUB SWAP1 RETURN JUMPDEST PUSH2 0x6D4 PUSH2 0x17AA JUMP JUMPDEST PUSH1 0x40 MLOAD PUSH2 0x6E1 SWAP2 SWAP1 PUSH2 0x3AEC JUMP JUMPDEST PUSH1 0x40 MLOAD DUP1 SWAP2 SUB SWAP1 RETURN JUMPDEST PUSH2 0x704 PUSH1 0x4 DUP1 CALLDATASIZE SUB DUP2 ADD SWAP1 PUSH2 0x6FF SWAP2 SWAP1 PUSH2 0x3547 JUMP JUMPDEST PUSH2 0x17D0 JUMP JUMPDEST STOP JUMPDEST PUSH2 0x720 PUSH1 0x4 DUP1 CALLDATASIZE SUB DUP2 ADD SWAP1 PUSH2 0x71B SWAP2 SWAP1 PUSH2 0x35E1 JUMP JUMPDEST PUSH2 0x17F1 JUMP JUMPDEST STOP JUMPDEST PUSH2 0x73C PUSH1 0x4 DUP1 CALLDATASIZE SUB DUP2 ADD SWAP1 PUSH2 0x737 SWAP2 SWAP1 PUSH2 0x35E1 JUMP JUMPDEST PUSH2 0x1826 JUMP JUMPDEST STOP JUMPDEST PUSH2 0x746 PUSH2 0x19EB JUMP JUMPDEST PUSH1 0x40 MLOAD PUSH2 0x753 SWAP2 SWAP1 PUSH2 0x3EF2 JUMP JUMPDEST PUSH1 0x40 MLOAD DUP1 SWAP2 SUB SWAP1 RETURN JUMPDEST PUSH2 0x776 PUSH1 0x4 DUP1 CALLDATASIZE SUB DUP2 ADD SWAP1 PUSH2 0x771 SWAP2 SWAP1 PUSH2 0x3384 JUMP JUMPDEST PUSH2 0x1A09 JUMP JUMPDEST PUSH1 0x40 MLOAD PUSH2 0x783 SWAP2 SWAP1 PUSH2 0x3BFA JUMP JUMPDEST PUSH1 0x40 MLOAD DUP1 SWAP2 SUB SWAP1 RETURN JUMPDEST PUSH2 0x7A6 PUSH1 0x4 DUP1 CALLDATASIZE SUB DUP2 ADD SWAP1 PUSH2 0x7A1 SWAP2 SWAP1 PUSH2 0x35E1 JUMP JUMPDEST PUSH2 0x1A9D JUMP JUMPDEST STOP JUMPDEST PUSH2 0x7B0 PUSH2 0x1B53 JUMP JUMPDEST PUSH1 0x40 MLOAD PUSH2 0x7BD SWAP2 SWAP1 PUSH2 0x3C15 JUMP JUMPDEST PUSH1 0x40 MLOAD DUP1 SWAP2 SUB SWAP1 RETURN JUMPDEST PUSH2 0x7CE PUSH2 0x1B77 JUMP JUMPDEST PUSH1 0x40 MLOAD PUSH2 0x7DB SWAP2 SWAP1 PUSH2 0x3EF2 JUMP JUMPDEST PUSH1 0x40 MLOAD DUP1 SWAP2 SUB SWAP1 RETURN JUMPDEST PUSH1 0x0 PUSH32 0xFA5521B200000000000000000000000000000000000000000000000000000000 PUSH28 0xFFFFFFFFFFFFFFFFFFFFFFFFFFFFFFFFFFFFFFFFFFFFFFFFFFFFFFFF NOT AND DUP3 PUSH28 0xFFFFFFFFFFFFFFFFFFFFFFFFFFFFFFFFFFFFFFFFFFFFFFFFFFFFFFFF NOT AND EQ DUP1 PUSH2 0x857 JUMPI POP PUSH2 0x856 DUP3 PUSH2 0x1B7D JUMP JUMPDEST JUMPDEST SWAP1 POP SWAP2 SWAP1 POP JUMP JUMPDEST PUSH1 0x10 SLOAD DUP2 JUMP JUMPDEST PUSH1 0x60 PUSH1 0x0 DUP1 SLOAD PUSH2 0x873 SWAP1 PUSH2 0x41CD JUMP JUMPDEST DUP1 PUSH1 0x1F ADD PUSH1 0x20 DUP1 SWAP2 DIV MUL PUSH1 0x20 ADD PUSH1 0x40 MLOAD SWAP1 DUP2 ADD PUSH1 0x40 MSTORE DUP1 SWAP3 SWAP2 SWAP1 DUP2 DUP2 MSTORE PUSH1 0x20 ADD DUP3 DUP1 SLOAD PUSH2 0x89F SWAP1 PUSH2 0x41CD JUMP JUMPDEST DUP1 ISZERO PUSH2 0x8EC JUMPI DUP1 PUSH1 0x1F LT PUSH2 0x8C1 JUMPI PUSH2 0x100 DUP1 DUP4 SLOAD DIV MUL DUP4 MSTORE SWAP2 PUSH1 0x20 ADD SWAP2 PUSH2 0x8EC JUMP JUMPDEST DUP3 ADD SWAP2 SWAP1 PUSH1 0x0 MSTORE PUSH1 0x20 PUSH1 0x0 KECCAK256 SWAP1 JUMPDEST DUP2 SLOAD DUP2 MSTORE SWAP1 PUSH1 0x1 ADD SWAP1 PUSH1 0x20 ADD DUP1 DUP4 GT PUSH2 0x8CF JUMPI DUP3 SWAP1 SUB PUSH1 0x1F AND DUP3 ADD SWAP2 JUMPDEST POP POP POP POP POP SWAP1 POP SWAP1 JUMP JUMPDEST PUSH1 0x0 PUSH2 0x901 DUP3 PUSH2 0x1BF7 JUMP JUMPDEST PUSH1 0x4 PUSH1 0x0 DUP4 DUP2 MSTORE PUSH1 0x20 ADD SWAP1 DUP2 MSTORE PUSH1 0x20 ADD PUSH1 0x0 KECCAK256 PUSH1 0x0 SWAP1 SLOAD SWAP1 PUSH2 0x100 EXP SWAP1 DIV PUSH20 0xFFFFFFFFFFFFFFFFFFFFFFFFFFFFFFFFFFFFFFFF AND SWAP1 POP SWAP2 SWAP1 POP JUMP JUMPDEST PUSH1 0x0 PUSH2 0x947 DUP3 PUSH2 0x118F JUMP JUMPDEST SWAP1 POP DUP1 PUSH20 0xFFFFFFFFFFFFFFFFFFFFFFFFFFFFFFFFFFFFFFFF AND DUP4 PUSH20 0xFFFFFFFFFFFFFFFFFFFFFFFFFFFFFFFFFFFFFFFF AND EQ ISZERO PUSH2 0x9B8 JUMPI PUSH1 0x40 MLOAD PUSH32 0x8C379A000000000000000000000000000000000000000000000000000000000 DUP2 MSTORE PUSH1 0x4 ADD PUSH2 0x9AF SWAP1 PUSH2 0x3E72 JUMP JUMPDEST PUSH1 0x40 MLOAD DUP1 SWAP2 SUB SWAP1 REVERT JUMPDEST DUP1 PUSH20 0xFFFFFFFFFFFFFFFFFFFFFFFFFFFFFFFFFFFFFFFF AND PUSH2 0x9D7 PUSH2 0x1C42 JUMP JUMPDEST PUSH20 0xFFFFFFFFFFFFFFFFFFFFFFFFFFFFFFFFFFFFFFFF AND EQ DUP1 PUSH2 0xA06 JUMPI POP PUSH2 0xA05 DUP2 PUSH2 0xA00 PUSH2 0x1C42 JUMP JUMPDEST PUSH2 0x1A09 JUMP JUMPDEST JUMPDEST PUSH2 0xA45 JUMPI PUSH1 0x40 MLOAD PUSH32 0x8C379A000000000000000000000000000000000000000000000000000000000 DUP2 MSTORE PUSH1 0x4 ADD PUSH2 0xA3C SWAP1 PUSH2 0x3DF2 JUMP JUMPDEST PUSH1 0x40 MLOAD DUP1 SWAP2 SUB SWAP1 REVERT JUMPDEST PUSH2 0xA4F DUP4 DUP4 PUSH2 0x1C4A JUMP JUMPDEST POP POP POP JUMP JUMPDEST PUSH32 0x70546D1C92F8C2132AE23A23F5177AA8526356051C7510DF99F50E012D221529 PUSH2 0xA7E DUP2 PUSH2 0x1D03 JUMP JUMPDEST DUP2 PUSH1 0xD PUSH1 0x0 PUSH2 0x100 EXP DUP2 SLOAD DUP2 PUSH20 0xFFFFFFFFFFFFFFFFFFFFFFFFFFFFFFFFFFFFFFFF MUL NOT AND SWAP1 DUP4 PUSH20 0xFFFFFFFFFFFFFFFFFFFFFFFFFFFFFFFFFFFFFFFF AND MUL OR SWAP1 SSTORE POP POP POP JUMP JUMPDEST PUSH2 0xAD4 PUSH2 0xACE PUSH2 0x1C42 JUMP JUMPDEST DUP3 PUSH2 0x1D17 JUMP JUMPDEST PUSH2 0xB13 JUMPI PUSH1 0x40 MLOAD PUSH32 0x8C379A000000000000000000000000000000000000000000000000000000000 DUP2 MSTORE PUSH1 0x4 ADD PUSH2 0xB0A SWAP1 PUSH2 0x3E92 JUMP JUMPDEST PUSH1 0x40 MLOAD DUP1 SWAP2 SUB SWAP1 REVERT JUMPDEST PUSH2 0xB1E DUP4 DUP4 DUP4 PUSH2 0x1DAC JUMP JUMPDEST POP POP POP JUMP JUMPDEST DUP1 PUSH1 0xF PUSH1 0x0 PUSH2 0x100 EXP DUP2 SLOAD DUP2 PUSH1 0xFF MUL NOT AND SWAP1 DUP4 PUSH1 0xFF AND MUL OR SWAP1 SSTORE POP POP JUMP JUMPDEST PUSH32 0x70546D1C92F8C2132AE23A23F5177AA8526356051C7510DF99F50E012D221529 PUSH2 0xB6B DUP2 PUSH2 0x1D03 JUMP JUMPDEST DUP2 PUSH1 0xC PUSH1 0x0 PUSH2 0x100 EXP DUP2 SLOAD DUP2 PUSH20 0xFFFFFFFFFFFFFFFFFFFFFFFFFFFFFFFFFFFFFFFF MUL NOT AND SWAP1 DUP4 PUSH20 0xFFFFFFFFFFFFFFFFFFFFFFFFFFFFFFFFFFFFFFFF AND MUL OR SWAP1 SSTORE POP POP POP JUMP JUMPDEST PUSH1 0x0 PUSH1 0x9 PUSH1 0x0 DUP4 DUP2 MSTORE PUSH1 0x20 ADD SWAP1 DUP2 MSTORE PUSH1 0x20 ADD PUSH1 0x0 KECCAK256 PUSH1 0x1 ADD SLOAD SWAP1 POP SWAP2 SWAP1 POP JUMP JUMPDEST PUSH2 0xBD9 DUP2 PUSH2 0x2013 JUMP JUMPDEST POP JUMP JUMPDEST PUSH1 0x0 PUSH32 0x70546D1C92F8C2132AE23A23F5177AA8526356051C7510DF99F50E012D221529 PUSH2 0xC08 DUP2 PUSH2 0x1D03 JUMP JUMPDEST DUP3 PUSH1 0x10 PUSH1 0x0 DUP3 DUP3 SLOAD PUSH2 0xC1A SWAP2 SWAP1 PUSH2 0x3FC1 JUMP JUMPDEST SWAP3 POP POP DUP2 SWAP1 SSTORE POP PUSH1 0x10 SLOAD SWAP2 POP POP SWAP2 SWAP1 POP JUMP JUMPDEST PUSH1 0x0 DUP1 PUSH1 0x0 PUSH1 0x8 PUSH1 0x0 DUP7 DUP2 MSTORE PUSH1 0x20 ADD SWAP1 DUP2 MSTORE PUSH1 0x20 ADD PUSH1 0x0 KECCAK256 PUSH1 0x40 MLOAD DUP1 PUSH1 0x40 ADD PUSH1 0x40 MSTORE SWAP1 DUP2 PUSH1 0x0 DUP3 ADD PUSH1 0x0 SWAP1 SLOAD SWAP1 PUSH2 0x100 EXP SWAP1 DIV PUSH20 0xFFFFFFFFFFFFFFFFFFFFFFFFFFFFFFFFFFFFFFFF AND PUSH20 0xFFFFFFFFFFFFFFFFFFFFFFFFFFFFFFFFFFFFFFFF AND PUSH20 0xFFFFFFFFFFFFFFFFFFFFFFFFFFFFFFFFFFFFFFFF AND DUP2 MSTORE PUSH1 0x20 ADD PUSH1 0x0 DUP3 ADD PUSH1 0x14 SWAP1 SLOAD SWAP1 PUSH2 0x100 EXP SWAP1 DIV PUSH12 0xFFFFFFFFFFFFFFFFFFFFFFFF AND PUSH12 0xFFFFFFFFFFFFFFFFFFFFFFFF AND PUSH12 0xFFFFFFFFFFFFFFFFFFFFFFFF AND DUP2 MSTORE POP POP SWAP1 POP PUSH1 0x0 PUSH20 0xFFFFFFFFFFFFFFFFFFFFFFFFFFFFFFFFFFFFFFFF AND DUP2 PUSH1 0x0 ADD MLOAD PUSH20 0xFFFFFFFFFFFFFFFFFFFFFFFFFFFFFFFFFFFFFFFF AND EQ ISZERO PUSH2 0xDC2 JUMPI PUSH1 0x7 PUSH1 0x40 MLOAD DUP1 PUSH1 0x40 ADD PUSH1 0x40 MSTORE SWAP1 DUP2 PUSH1 0x0 DUP3 ADD PUSH1 0x0 SWAP1 SLOAD SWAP1 PUSH2 0x100 EXP SWAP1 DIV PUSH20 0xFFFFFFFFFFFFFFFFFFFFFFFFFFFFFFFFFFFFFFFF AND PUSH20 0xFFFFFFFFFFFFFFFFFFFFFFFFFFFFFFFFFFFFFFFF AND PUSH20 0xFFFFFFFFFFFFFFFFFFFFFFFFFFFFFFFFFFFFFFFF AND DUP2 MSTORE PUSH1 0x20 ADD PUSH1 0x0 DUP3 ADD PUSH1 0x14 SWAP1 SLOAD SWAP1 PUSH2 0x100 EXP SWAP1 DIV PUSH12 0xFFFFFFFFFFFFFFFFFFFFFFFF AND PUSH12 0xFFFFFFFFFFFFFFFFFFFFFFFF AND PUSH12 0xFFFFFFFFFFFFFFFFFFFFFFFF AND DUP2 MSTORE POP POP SWAP1 POP JUMPDEST PUSH1 0x0 PUSH2 0xDCC PUSH2 0x2028 JUMP JUMPDEST PUSH12 0xFFFFFFFFFFFFFFFFFFFFFFFF AND DUP3 PUSH1 0x20 ADD MLOAD PUSH12 0xFFFFFFFFFFFFFFFFFFFFFFFF AND DUP7 PUSH2 0xDF8 SWAP2 SWAP1 PUSH2 0x4048 JUMP JUMPDEST PUSH2 0xE02 SWAP2 SWAP1 PUSH2 0x4017 JUMP JUMPDEST SWAP1 POP DUP2 PUSH1 0x0 ADD MLOAD DUP2 SWAP4 POP SWAP4 POP POP POP SWAP3 POP SWAP3 SWAP1 POP JUMP JUMPDEST PUSH2 0xE20 DUP3 PUSH2 0xBB0 JUMP JUMPDEST PUSH2 0xE29 DUP2 PUSH2 0x1D03 JUMP JUMPDEST PUSH2 0xE33 DUP4 DUP4 PUSH2 0x2032 JUMP JUMPDEST POP POP POP JUMP JUMPDEST PUSH2 0xE40 PUSH2 0x1C42 JUMP JUMPDEST PUSH20 0xFFFFFFFFFFFFFFFFFFFFFFFFFFFFFFFFFFFFFFFF AND DUP2 PUSH20 0xFFFFFFFFFFFFFFFFFFFFFFFFFFFFFFFFFFFFFFFF AND EQ PUSH2 0xEAD JUMPI PUSH1 0x40 MLOAD PUSH32 0x8C379A000000000000000000000000000000000000000000000000000000000 DUP2 MSTORE PUSH1 0x4 ADD PUSH2 0xEA4 SWAP1 PUSH2 0x3EB2 JUMP JUMPDEST PUSH1 0x40 MLOAD DUP1 SWAP2 SUB SWAP1 REVERT JUMPDEST PUSH2 0xEB7 DUP3 DUP3 PUSH2 0x2113 JUMP JUMPDEST POP POP JUMP JUMPDEST PUSH2 0xED6 DUP4 DUP4 DUP4 PUSH1 0x40 MLOAD DUP1 PUSH1 0x20 ADD PUSH1 0x40 MSTORE DUP1 PUSH1 0x0 DUP2 MSTORE POP PUSH2 0x1622 JUMP JUMPDEST POP POP POP JUMP JUMPDEST PUSH1 0x15 SLOAD DUP2 JUMP JUMPDEST PUSH1 0x0 PUSH2 0xEEB PUSH2 0x21F5 JUMP JUMPDEST PUSH32 0x70546D1C92F8C2132AE23A23F5177AA8526356051C7510DF99F50E012D221529 PUSH2 0xF15 DUP2 PUSH2 0x1D03 JUMP JUMPDEST PUSH1 0x15 SLOAD TIMESTAMP GT ISZERO PUSH2 0xF5A JUMPI PUSH1 0x40 MLOAD PUSH32 0x8C379A000000000000000000000000000000000000000000000000000000000 DUP2 MSTORE PUSH1 0x4 ADD PUSH2 0xF51 SWAP1 PUSH2 0x3CF2 JUMP JUMPDEST PUSH1 0x40 MLOAD DUP1 SWAP2 SUB SWAP1 REVERT JUMPDEST PUSH1 0x10 SLOAD PUSH2 0xF67 PUSH1 0xB PUSH2 0x223F JUMP JUMPDEST LT PUSH2 0xFA7 JUMPI PUSH1 0x40 MLOAD PUSH32 0x8C379A000000000000000000000000000000000000000000000000000000000 DUP2 MSTORE PUSH1 0x4 ADD PUSH2 0xF9E SWAP1 PUSH2 0x3D52 JUMP JUMPDEST PUSH1 0x40 MLOAD DUP1 SWAP2 SUB SWAP1 REVERT JUMPDEST PUSH1 0x0 PUSH20 0xFFFFFFFFFFFFFFFFFFFFFFFFFFFFFFFFFFFFFFFF AND DUP4 PUSH20 0xFFFFFFFFFFFFFFFFFFFFFFFFFFFFFFFFFFFFFFFF AND EQ ISZERO PUSH2 0x1017 JUMPI PUSH1 0x40 MLOAD PUSH32 0x8C379A000000000000000000000000000000000000000000000000000000000 DUP2 MSTORE PUSH1 0x4 ADD PUSH2 0x100E SWAP1 PUSH2 0x3E32 JUMP JUMPDEST PUSH1 0x40 MLOAD DUP1 SWAP2 SUB SWAP1 REVERT JUMPDEST PUSH2 0x1021 PUSH1 0xB PUSH2 0x224D JUMP JUMPDEST PUSH1 0x0 PUSH2 0x102D PUSH1 0xB PUSH2 0x223F JUMP JUMPDEST SWAP1 POP PUSH2 0x1039 DUP5 DUP3 PUSH2 0x2263 JUMP JUMPDEST PUSH1 0x0 PUSH1 0x12 PUSH1 0x0 DUP4 DUP2 MSTORE PUSH1 0x20 ADD SWAP1 DUP2 MSTORE PUSH1 0x20 ADD PUSH1 0x0 KECCAK256 PUSH1 0x0 PUSH2 0x100 EXP DUP2 SLOAD DUP2 PUSH1 0xFF MUL NOT AND SWAP1 DUP4 PUSH1 0x2 DUP2 GT ISZERO PUSH2 0x1070 JUMPI PUSH2 0x106F PUSH2 0x4308 JUMP JUMPDEST JUMPDEST MUL OR SWAP1 SSTORE POP PUSH2 0x1109 DUP2 PUSH1 0x11 DUP1 SLOAD PUSH2 0x1086 SWAP1 PUSH2 0x41CD JUMP JUMPDEST DUP1 PUSH1 0x1F ADD PUSH1 0x20 DUP1 SWAP2 DIV MUL PUSH1 0x20 ADD PUSH1 0x40 MLOAD SWAP1 DUP2 ADD PUSH1 0x40 MSTORE DUP1 SWAP3 SWAP2 SWAP1 DUP2 DUP2 MSTORE PUSH1 0x20 ADD DUP3 DUP1 SLOAD PUSH2 0x10B2 SWAP1 PUSH2 0x41CD JUMP JUMPDEST DUP1 ISZERO PUSH2 0x10FF JUMPI DUP1 PUSH1 0x1F LT PUSH2 0x10D4 JUMPI PUSH2 0x100 DUP1 DUP4 SLOAD DIV MUL DUP4 MSTORE SWAP2 PUSH1 0x20 ADD SWAP2 PUSH2 0x10FF JUMP JUMPDEST DUP3 ADD SWAP2 SWAP1 PUSH1 0x0 MSTORE PUSH1 0x20 PUSH1 0x0 KECCAK256 SWAP1 JUMPDEST DUP2 SLOAD DUP2 MSTORE SWAP1 PUSH1 0x1 ADD SWAP1 PUSH1 0x20 ADD DUP1 DUP4 GT PUSH2 0x10E2 JUMPI DUP3 SWAP1 SUB PUSH1 0x1F AND DUP3 ADD SWAP2 JUMPDEST POP POP POP POP POP PUSH2 0x2281 JUMP JUMPDEST PUSH2 0x1137 DUP5 PUSH1 0xD PUSH1 0x0 SWAP1 SLOAD SWAP1 PUSH2 0x100 EXP SWAP1 DIV PUSH20 0xFFFFFFFFFFFFFFFFFFFFFFFFFFFFFFFFFFFFFFFF AND PUSH1 0x1 PUSH2 0x22F5 JUMP JUMPDEST PUSH32 0xD9DC24857F317ED9ABBBB42E920EDE0104231EB1D3D70236A74887FFAF159868 DUP2 PUSH1 0x40 MLOAD PUSH2 0x1166 SWAP2 SWAP1 PUSH2 0x3EF2 JUMP JUMPDEST PUSH1 0x40 MLOAD DUP1 SWAP2 SUB SWAP1 LOG1 DUP1 SWAP3 POP POP POP SWAP2 SWAP1 POP JUMP JUMPDEST PUSH1 0x0 PUSH1 0xA PUSH1 0x0 SWAP1 SLOAD SWAP1 PUSH2 0x100 EXP SWAP1 DIV PUSH1 0xFF AND SWAP1 POP SWAP1 JUMP JUMPDEST PUSH1 0x0 DUP1 PUSH1 0x2 PUSH1 0x0 DUP5 DUP2 MSTORE PUSH1 0x20 ADD SWAP1 DUP2 MSTORE PUSH1 0x20 ADD PUSH1 0x0 KECCAK256 PUSH1 0x0 SWAP1 SLOAD SWAP1 PUSH2 0x100 EXP SWAP1 DIV PUSH20 0xFFFFFFFFFFFFFFFFFFFFFFFFFFFFFFFFFFFFFFFF AND SWAP1 POP PUSH1 0x0 PUSH20 0xFFFFFFFFFFFFFFFFFFFFFFFFFFFFFFFFFFFFFFFF AND DUP2 PUSH20 0xFFFFFFFFFFFFFFFFFFFFFFFFFFFFFFFFFFFFFFFF AND EQ ISZERO PUSH2 0x1238 JUMPI PUSH1 0x40 MLOAD PUSH32 0x8C379A000000000000000000000000000000000000000000000000000000000 DUP2 MSTORE PUSH1 0x4 ADD PUSH2 0x122F SWAP1 PUSH2 0x3E52 JUMP JUMPDEST PUSH1 0x40 MLOAD DUP1 SWAP2 SUB SWAP1 REVERT JUMPDEST DUP1 SWAP2 POP POP SWAP2 SWAP1 POP JUMP JUMPDEST PUSH1 0x0 DUP1 PUSH20 0xFFFFFFFFFFFFFFFFFFFFFFFFFFFFFFFFFFFFFFFF AND DUP3 PUSH20 0xFFFFFFFFFFFFFFFFFFFFFFFFFFFFFFFFFFFFFFFF AND EQ ISZERO PUSH2 0x12B2 JUMPI PUSH1 0x40 MLOAD PUSH32 0x8C379A000000000000000000000000000000000000000000000000000000000 DUP2 MSTORE PUSH1 0x4 ADD PUSH2 0x12A9 SWAP1 PUSH2 0x3DB2 JUMP JUMPDEST PUSH1 0x40 MLOAD DUP1 SWAP2 SUB SWAP1 REVERT JUMPDEST PUSH1 0x3 PUSH1 0x0 DUP4 PUSH20 0xFFFFFFFFFFFFFFFFFFFFFFFFFFFFFFFFFFFFFFFF AND PUSH20 0xFFFFFFFFFFFFFFFFFFFFFFFFFFFFFFFFFFFFFFFF AND DUP2 MSTORE PUSH1 0x20 ADD SWAP1 DUP2 MSTORE PUSH1 0x20 ADD PUSH1 0x0 KECCAK256 SLOAD SWAP1 POP SWAP2 SWAP1 POP JUMP JUMPDEST PUSH1 0xC PUSH1 0x0 SWAP1 SLOAD SWAP1 PUSH2 0x100 EXP SWAP1 DIV PUSH20 0xFFFFFFFFFFFFFFFFFFFFFFFFFFFFFFFFFFFFFFFF AND DUP2 JUMP JUMPDEST PUSH32 0x70546D1C92F8C2132AE23A23F5177AA8526356051C7510DF99F50E012D221529 PUSH2 0x1349 DUP2 PUSH2 0x1D03 JUMP JUMPDEST PUSH1 0xD PUSH1 0x0 SWAP1 SLOAD SWAP1 PUSH2 0x100 EXP SWAP1 DIV PUSH20 0xFFFFFFFFFFFFFFFFFFFFFFFFFFFFFFFFFFFFFFFF AND PUSH20 0xFFFFFFFFFFFFFFFFFFFFFFFFFFFFFFFFFFFFFFFF AND PUSH4 0x39663315 ADDRESS PUSH1 0xE SLOAD PUSH1 0xF PUSH1 0x0 SWAP1 SLOAD SWAP1 PUSH2 0x100 EXP SWAP1 DIV PUSH1 0xFF AND PUSH1 0xC PUSH1 0x0 SWAP1 SLOAD SWAP1 PUSH2 0x100 EXP SWAP1 DIV PUSH20 0xFFFFFFFFFFFFFFFFFFFFFFFFFFFFFFFFFFFFFFFF AND PUSH1 0x13 SLOAD PUSH1 0x14 SLOAD PUSH1 0x15 SLOAD PUSH1 0x10 SLOAD PUSH1 0x40 MLOAD DUP10 PUSH4 0xFFFFFFFF AND PUSH1 0xE0 SHL DUP2 MSTORE PUSH1 0x4 ADD PUSH2 0x13ED SWAP9 SWAP8 SWAP7 SWAP6 SWAP5 SWAP4 SWAP3 SWAP2 SWAP1 PUSH2 0x3B7C JUMP JUMPDEST PUSH1 0x0 PUSH1 0x40 MLOAD DUP1 DUP4 SUB DUP2 PUSH1 0x0 DUP8 DUP1 EXTCODESIZE ISZERO DUP1 ISZERO PUSH2 0x1407 JUMPI PUSH1 0x0 DUP1 REVERT JUMPDEST POP GAS CALL ISZERO DUP1 ISZERO PUSH2 0x141B JUMPI RETURNDATASIZE PUSH1 0x0 DUP1 RETURNDATACOPY RETURNDATASIZE PUSH1 0x0 REVERT JUMPDEST POP POP POP POP PUSH2 0x146B PUSH32 0x70546D1C92F8C2132AE23A23F5177AA8526356051C7510DF99F50E012D221529 PUSH1 0xD PUSH1 0x0 SWAP1 SLOAD SWAP1 PUSH2 0x100 EXP SWAP1 DIV PUSH20 0xFFFFFFFFFFFFFFFFFFFFFFFFFFFFFFFFFFFFFFFF AND PUSH2 0x2032 JUMP JUMPDEST POP JUMP JUMPDEST PUSH1 0x14 SLOAD DUP2 JUMP JUMPDEST PUSH1 0x0 PUSH1 0x9 PUSH1 0x0 DUP5 DUP2 MSTORE PUSH1 0x20 ADD SWAP1 DUP2 MSTORE PUSH1 0x20 ADD PUSH1 0x0 KECCAK256 PUSH1 0x0 ADD PUSH1 0x0 DUP4 PUSH20 0xFFFFFFFFFFFFFFFFFFFFFFFFFFFFFFFFFFFFFFFF AND PUSH20 0xFFFFFFFFFFFFFFFFFFFFFFFFFFFFFFFFFFFFFFFF AND DUP2 MSTORE PUSH1 0x20 ADD SWAP1 DUP2 MSTORE PUSH1 0x20 ADD PUSH1 0x0 KECCAK256 PUSH1 0x0 SWAP1 SLOAD SWAP1 PUSH2 0x100 EXP SWAP1 DIV PUSH1 0xFF AND SWAP1 POP SWAP3 SWAP2 POP POP JUMP JUMPDEST PUSH1 0x60 PUSH1 0x1 DUP1 SLOAD PUSH2 0x14EE SWAP1 PUSH2 0x41CD JUMP JUMPDEST DUP1 PUSH1 0x1F ADD PUSH1 0x20 DUP1 SWAP2 DIV MUL PUSH1 0x20 ADD PUSH1 0x40 MLOAD SWAP1 DUP2 ADD PUSH1 0x40 MSTORE DUP1 SWAP3 SWAP2 SWAP1 DUP2 DUP2 MSTORE PUSH1 0x20 ADD DUP3 DUP1 SLOAD PUSH2 0x151A SWAP1 PUSH2 0x41CD JUMP JUMPDEST DUP1 ISZERO PUSH2 0x1567 JUMPI DUP1 PUSH1 0x1F LT PUSH2 0x153C JUMPI PUSH2 0x100 DUP1 DUP4 SLOAD DIV MUL DUP4 MSTORE SWAP2 PUSH1 0x20 ADD SWAP2 PUSH2 0x1567 JUMP JUMPDEST DUP3 ADD SWAP2 SWAP1 PUSH1 0x0 MSTORE PUSH1 0x20 PUSH1 0x0 KECCAK256 SWAP1 JUMPDEST DUP2 SLOAD DUP2 MSTORE SWAP1 PUSH1 0x1 ADD SWAP1 PUSH1 0x20 ADD DUP1 DUP4 GT PUSH2 0x154A JUMPI DUP3 SWAP1 SUB PUSH1 0x1F AND DUP3 ADD SWAP2 JUMPDEST POP POP POP POP POP SWAP1 POP SWAP1 JUMP JUMPDEST PUSH1 0x13 SLOAD DUP2 JUMP JUMPDEST PUSH1 0x0 DUP1 SHL DUP2 JUMP JUMPDEST PUSH2 0x1590 PUSH2 0x1589 PUSH2 0x1C42 JUMP JUMPDEST DUP4 DUP4 PUSH2 0x22F5 JUMP JUMPDEST POP POP JUMP JUMPDEST PUSH1 0x11 DUP1 SLOAD PUSH2 0x15A1 SWAP1 PUSH2 0x41CD JUMP JUMPDEST DUP1 PUSH1 0x1F ADD PUSH1 0x20 DUP1 SWAP2 DIV MUL PUSH1 0x20 ADD PUSH1 0x40 MLOAD SWAP1 DUP2 ADD PUSH1 0x40 MSTORE DUP1 SWAP3 SWAP2 SWAP1 DUP2 DUP2 MSTORE PUSH1 0x20 ADD DUP3 DUP1 SLOAD PUSH2 0x15CD SWAP1 PUSH2 0x41CD JUMP JUMPDEST DUP1 ISZERO PUSH2 0x161A JUMPI DUP1 PUSH1 0x1F LT PUSH2 0x15EF JUMPI PUSH2 0x100 DUP1 DUP4 SLOAD DIV MUL DUP4 MSTORE SWAP2 PUSH1 0x20 ADD SWAP2 PUSH2 0x161A JUMP JUMPDEST DUP3 ADD SWAP2 SWAP1 PUSH1 0x0 MSTORE PUSH1 0x20 PUSH1 0x0 KECCAK256 SWAP1 JUMPDEST DUP2 SLOAD DUP2 MSTORE SWAP1 PUSH1 0x1 ADD SWAP1 PUSH1 0x20 ADD DUP1 DUP4 GT PUSH2 0x15FD JUMPI DUP3 SWAP1 SUB PUSH1 0x1F AND DUP3 ADD SWAP2 JUMPDEST POP POP POP POP POP DUP2 JUMP JUMPDEST PUSH2 0x1633 PUSH2 0x162D PUSH2 0x1C42 JUMP JUMPDEST DUP4 PUSH2 0x1D17 JUMP JUMPDEST PUSH2 0x1672 JUMPI PUSH1 0x40 MLOAD PUSH32 0x8C379A000000000000000000000000000000000000000000000000000000000 DUP2 MSTORE PUSH1 0x4 ADD PUSH2 0x1669 SWAP1 PUSH2 0x3E92 JUMP JUMPDEST PUSH1 0x40 MLOAD DUP1 SWAP2 SUB SWAP1 REVERT JUMPDEST PUSH2 0x167E DUP5 DUP5 DUP5 DUP5 PUSH2 0x2462 JUMP JUMPDEST POP POP POP POP JUMP JUMPDEST PUSH1 0x60 PUSH2 0x168F DUP3 PUSH2 0x1BF7 JUMP JUMPDEST PUSH1 0x0 PUSH1 0x6 PUSH1 0x0 DUP5 DUP2 MSTORE PUSH1 0x20 ADD SWAP1 DUP2 MSTORE PUSH1 0x20 ADD PUSH1 0x0 KECCAK256 DUP1 SLOAD PUSH2 0x16AF SWAP1 PUSH2 0x41CD JUMP JUMPDEST DUP1 PUSH1 0x1F ADD PUSH1 0x20 DUP1 SWAP2 DIV MUL PUSH1 0x20 ADD PUSH1 0x40 MLOAD SWAP1 DUP2 ADD PUSH1 0x40 MSTORE DUP1 SWAP3 SWAP2 SWAP1 DUP2 DUP2 MSTORE PUSH1 0x20 ADD DUP3 DUP1 SLOAD PUSH2 0x16DB SWAP1 PUSH2 0x41CD JUMP JUMPDEST DUP1 ISZERO PUSH2 0x1728 JUMPI DUP1 PUSH1 0x1F LT PUSH2 0x16FD JUMPI PUSH2 0x100 DUP1 DUP4 SLOAD DIV MUL DUP4 MSTORE SWAP2 PUSH1 0x20 ADD SWAP2 PUSH2 0x1728 JUMP JUMPDEST DUP3 ADD SWAP2 SWAP1 PUSH1 0x0 MSTORE PUSH1 0x20 PUSH1 0x0 KECCAK256 SWAP1 JUMPDEST DUP2 SLOAD DUP2 MSTORE SWAP1 PUSH1 0x1 ADD SWAP1 PUSH1 0x20 ADD DUP1 DUP4 GT PUSH2 0x170B JUMPI DUP3 SWAP1 SUB PUSH1 0x1F AND DUP3 ADD SWAP2 JUMPDEST POP POP POP POP POP SWAP1 POP PUSH1 0x0 PUSH2 0x1739 PUSH2 0x24BE JUMP JUMPDEST SWAP1 POP PUSH1 0x0 DUP2 MLOAD EQ ISZERO PUSH2 0x174F JUMPI DUP2 SWAP3 POP POP POP PUSH2 0x1792 JUMP JUMPDEST PUSH1 0x0 DUP3 MLOAD GT ISZERO PUSH2 0x1784 JUMPI DUP1 DUP3 PUSH1 0x40 MLOAD PUSH1 0x20 ADD PUSH2 0x176C SWAP3 SWAP2 SWAP1 PUSH2 0x3A8E JUMP JUMPDEST PUSH1 0x40 MLOAD PUSH1 0x20 DUP2 DUP4 SUB SUB DUP2 MSTORE SWAP1 PUSH1 0x40 MSTORE SWAP3 POP POP POP PUSH2 0x1792 JUMP JUMPDEST PUSH2 0x178D DUP5 PUSH2 0x24D5 JUMP JUMPDEST SWAP3 POP POP POP JUMPDEST SWAP2 SWAP1 POP JUMP JUMPDEST PUSH1 0xF PUSH1 0x0 SWAP1 SLOAD SWAP1 PUSH2 0x100 EXP SWAP1 DIV PUSH1 0xFF AND DUP2 JUMP JUMPDEST PUSH1 0xD PUSH1 0x0 SWAP1 SLOAD SWAP1 PUSH2 0x100 EXP SWAP1 DIV PUSH20 0xFFFFFFFFFFFFFFFFFFFFFFFFFFFFFFFFFFFFFFFF AND DUP2 JUMP JUMPDEST PUSH2 0x17D9 DUP3 PUSH2 0xBB0 JUMP JUMPDEST PUSH2 0x17E2 DUP2 PUSH2 0x1D03 JUMP JUMPDEST PUSH2 0x17EC DUP4 DUP4 PUSH2 0x2113 JUMP JUMPDEST POP POP POP JUMP JUMPDEST PUSH32 0x70546D1C92F8C2132AE23A23F5177AA8526356051C7510DF99F50E012D221529 PUSH2 0x181B DUP2 PUSH2 0x1D03 JUMP JUMPDEST DUP2 PUSH1 0xE DUP2 SWAP1 SSTORE POP POP POP JUMP JUMPDEST PUSH32 0x70546D1C92F8C2132AE23A23F5177AA8526356051C7510DF99F50E012D221529 PUSH2 0x1850 DUP2 PUSH2 0x1D03 JUMP JUMPDEST PUSH1 0x1 PUSH1 0x2 DUP2 GT ISZERO PUSH2 0x1864 JUMPI PUSH2 0x1863 PUSH2 0x4308 JUMP JUMPDEST JUMPDEST PUSH1 0x12 PUSH1 0x0 DUP5 DUP2 MSTORE PUSH1 0x20 ADD SWAP1 DUP2 MSTORE PUSH1 0x20 ADD PUSH1 0x0 KECCAK256 PUSH1 0x0 SWAP1 SLOAD SWAP1 PUSH2 0x100 EXP SWAP1 DIV PUSH1 0xFF AND PUSH1 0x2 DUP2 GT ISZERO PUSH2 0x1897 JUMPI PUSH2 0x1896 PUSH2 0x4308 JUMP JUMPDEST JUMPDEST EQ ISZERO PUSH2 0x18D8 JUMPI PUSH1 0x40 MLOAD PUSH32 0x8C379A000000000000000000000000000000000000000000000000000000000 DUP2 MSTORE PUSH1 0x4 ADD PUSH2 0x18CF SWAP1 PUSH2 0x3D72 JUMP JUMPDEST PUSH1 0x40 MLOAD DUP1 SWAP2 SUB SWAP1 REVERT JUMPDEST PUSH1 0x2 DUP1 DUP2 GT ISZERO PUSH2 0x18EB JUMPI PUSH2 0x18EA PUSH2 0x4308 JUMP JUMPDEST JUMPDEST PUSH1 0x12 PUSH1 0x0 DUP5 DUP2 MSTORE PUSH1 0x20 ADD SWAP1 DUP2 MSTORE PUSH1 0x20 ADD PUSH1 0x0 KECCAK256 PUSH1 0x0 SWAP1 SLOAD SWAP1 PUSH2 0x100 EXP SWAP1 DIV PUSH1 0xFF AND PUSH1 0x2 DUP2 GT ISZERO PUSH2 0x191E JUMPI PUSH2 0x191D PUSH2 0x4308 JUMP JUMPDEST JUMPDEST EQ ISZERO PUSH2 0x195F JUMPI PUSH1 0x40 MLOAD PUSH32 0x8C379A000000000000000000000000000000000000000000000000000000000 DUP2 MSTORE PUSH1 0x4 ADD PUSH2 0x1956 SWAP1 PUSH2 0x3ED2 JUMP JUMPDEST PUSH1 0x40 MLOAD DUP1 SWAP2 SUB SWAP1 REVERT JUMPDEST DUP2 PUSH2 0x196A PUSH1 0xB PUSH2 0x223F JUMP JUMPDEST LT ISZERO PUSH2 0x19AB JUMPI PUSH1 0x40 MLOAD PUSH32 0x8C379A000000000000000000000000000000000000000000000000000000000 DUP2 MSTORE PUSH1 0x4 ADD PUSH2 0x19A2 SWAP1 PUSH2 0x3C72 JUMP JUMPDEST PUSH1 0x40 MLOAD DUP1 SWAP2 SUB SWAP1 REVERT JUMPDEST PUSH1 0x1 PUSH1 0x12 PUSH1 0x0 DUP5 DUP2 MSTORE PUSH1 0x20 ADD SWAP1 DUP2 MSTORE PUSH1 0x20 ADD PUSH1 0x0 KECCAK256 PUSH1 0x0 PUSH2 0x100 EXP DUP2 SLOAD DUP2 PUSH1 0xFF MUL NOT AND SWAP1 DUP4 PUSH1 0x2 DUP2 GT ISZERO PUSH2 0x19E2 JUMPI PUSH2 0x19E1 PUSH2 0x4308 JUMP JUMPDEST JUMPDEST MUL OR SWAP1 SSTORE POP POP POP JUMP JUMPDEST PUSH1 0x0 PUSH2 0x19F7 PUSH1 0xB PUSH2 0x223F JUMP JUMPDEST PUSH1 0x10 SLOAD PUSH2 0x1A04 SWAP2 SWAP1 PUSH2 0x40A2 JUMP JUMPDEST SWAP1 POP SWAP1 JUMP JUMPDEST PUSH1 0x0 PUSH1 0x5 PUSH1 0x0 DUP5 PUSH20 0xFFFFFFFFFFFFFFFFFFFFFFFFFFFFFFFFFFFFFFFF AND PUSH20 0xFFFFFFFFFFFFFFFFFFFFFFFFFFFFFFFFFFFFFFFF AND DUP2 MSTORE PUSH1 0x20 ADD SWAP1 DUP2 MSTORE PUSH1 0x20 ADD PUSH1 0x0 KECCAK256 PUSH1 0x0 DUP4 PUSH20 0xFFFFFFFFFFFFFFFFFFFFFFFFFFFFFFFFFFFFFFFF AND PUSH20 0xFFFFFFFFFFFFFFFFFFFFFFFFFFFFFFFFFFFFFFFF AND DUP2 MSTORE PUSH1 0x20 ADD SWAP1 DUP2 MSTORE PUSH1 0x20 ADD PUSH1 0x0 KECCAK256 PUSH1 0x0 SWAP1 SLOAD SWAP1 PUSH2 0x100 EXP SWAP1 DIV PUSH1 0xFF AND SWAP1 POP SWAP3 SWAP2 POP POP JUMP JUMPDEST PUSH32 0x70546D1C92F8C2132AE23A23F5177AA8526356051C7510DF99F50E012D221529 PUSH2 0x1AC7 DUP2 PUSH2 0x1D03 JUMP JUMPDEST DUP2 PUSH2 0x1AD2 PUSH1 0xB PUSH2 0x223F JUMP JUMPDEST LT ISZERO PUSH2 0x1B13 JUMPI PUSH1 0x40 MLOAD PUSH32 0x8C379A000000000000000000000000000000000000000000000000000000000 DUP2 MSTORE PUSH1 0x4 ADD PUSH2 0x1B0A SWAP1 PUSH2 0x3C72 JUMP JUMPDEST PUSH1 0x40 MLOAD DUP1 SWAP2 SUB SWAP1 REVERT JUMPDEST PUSH1 0x2 PUSH1 0x12 PUSH1 0x0 DUP5 DUP2 MSTORE PUSH1 0x20 ADD SWAP1 DUP2 MSTORE PUSH1 0x20 ADD PUSH1 0x0 KECCAK256 PUSH1 0x0 PUSH2 0x100 EXP DUP2 SLOAD DUP2 PUSH1 0xFF MUL NOT AND SWAP1 DUP4 PUSH1 0x2 DUP2 GT ISZERO PUSH2 0x1B4A JUMPI PUSH2 0x1B49 PUSH2 0x4308 JUMP JUMPDEST JUMPDEST MUL OR SWAP1 SSTORE POP POP POP JUMP JUMPDEST PUSH32 0x70546D1C92F8C2132AE23A23F5177AA8526356051C7510DF99F50E012D221529 DUP2 JUMP JUMPDEST PUSH1 0xE SLOAD DUP2 JUMP JUMPDEST PUSH1 0x0 PUSH32 0x7965DB0B00000000000000000000000000000000000000000000000000000000 PUSH28 0xFFFFFFFFFFFFFFFFFFFFFFFFFFFFFFFFFFFFFFFFFFFFFFFFFFFFFFFF NOT AND DUP3 PUSH28 0xFFFFFFFFFFFFFFFFFFFFFFFFFFFFFFFFFFFFFFFFFFFFFFFFFFFFFFFF NOT AND EQ DUP1 PUSH2 0x1BF0 JUMPI POP PUSH2 0x1BEF DUP3 PUSH2 0x253D JUMP JUMPDEST JUMPDEST SWAP1 POP SWAP2 SWAP1 POP JUMP JUMPDEST PUSH2 0x1C00 DUP2 PUSH2 0x25B7 JUMP JUMPDEST PUSH2 0x1C3F JUMPI PUSH1 0x40 MLOAD PUSH32 0x8C379A000000000000000000000000000000000000000000000000000000000 DUP2 MSTORE PUSH1 0x4 ADD PUSH2 0x1C36 SWAP1 PUSH2 0x3E52 JUMP JUMPDEST PUSH1 0x40 MLOAD DUP1 SWAP2 SUB SWAP1 REVERT JUMPDEST POP JUMP JUMPDEST PUSH1 0x0 CALLER SWAP1 POP SWAP1 JUMP JUMPDEST DUP2 PUSH1 0x4 PUSH1 0x0 DUP4 DUP2 MSTORE PUSH1 0x20 ADD SWAP1 DUP2 MSTORE PUSH1 0x20 ADD PUSH1 0x0 KECCAK256 PUSH1 0x0 PUSH2 0x100 EXP DUP2 SLOAD DUP2 PUSH20 0xFFFFFFFFFFFFFFFFFFFFFFFFFFFFFFFFFFFFFFFF MUL NOT AND SWAP1 DUP4 PUSH20 0xFFFFFFFFFFFFFFFFFFFFFFFFFFFFFFFFFFFFFFFF AND MUL OR SWAP1 SSTORE POP DUP1 DUP3 PUSH20 0xFFFFFFFFFFFFFFFFFFFFFFFFFFFFFFFFFFFFFFFF AND PUSH2 0x1CBD DUP4 PUSH2 0x118F JUMP JUMPDEST PUSH20 0xFFFFFFFFFFFFFFFFFFFFFFFFFFFFFFFFFFFFFFFF AND PUSH32 0x8C5BE1E5EBEC7D5BD14F71427D1E84F3DD0314C0F7B2291E5B200AC8C7C3B925 PUSH1 0x40 MLOAD PUSH1 0x40 MLOAD DUP1 SWAP2 SUB SWAP1 LOG4 POP POP JUMP JUMPDEST PUSH2 0x1D14 DUP2 PUSH2 0x1D0F PUSH2 0x1C42 JUMP JUMPDEST PUSH2 0x2623 JUMP JUMPDEST POP JUMP JUMPDEST PUSH1 0x0 DUP1 PUSH2 0x1D23 DUP4 PUSH2 0x118F JUMP JUMPDEST SWAP1 POP DUP1 PUSH20 0xFFFFFFFFFFFFFFFFFFFFFFFFFFFFFFFFFFFFFFFF AND DUP5 PUSH20 0xFFFFFFFFFFFFFFFFFFFFFFFFFFFFFFFFFFFFFFFF AND EQ DUP1 PUSH2 0x1D65 JUMPI POP PUSH2 0x1D64 DUP2 DUP6 PUSH2 0x1A09 JUMP JUMPDEST JUMPDEST DUP1 PUSH2 0x1DA3 JUMPI POP DUP4 PUSH20 0xFFFFFFFFFFFFFFFFFFFFFFFFFFFFFFFFFFFFFFFF AND PUSH2 0x1D8B DUP5 PUSH2 0x8F6 JUMP JUMPDEST PUSH20 0xFFFFFFFFFFFFFFFFFFFFFFFFFFFFFFFFFFFFFFFF AND EQ JUMPDEST SWAP2 POP POP SWAP3 SWAP2 POP POP JUMP JUMPDEST DUP3 PUSH20 0xFFFFFFFFFFFFFFFFFFFFFFFFFFFFFFFFFFFFFFFF AND PUSH2 0x1DCC DUP3 PUSH2 0x118F JUMP JUMPDEST PUSH20 0xFFFFFFFFFFFFFFFFFFFFFFFFFFFFFFFFFFFFFFFF AND EQ PUSH2 0x1E22 JUMPI PUSH1 0x40 MLOAD PUSH32 0x8C379A000000000000000000000000000000000000000000000000000000000 DUP2 MSTORE PUSH1 0x4 ADD PUSH2 0x1E19 SWAP1 PUSH2 0x3CB2 JUMP JUMPDEST PUSH1 0x40 MLOAD DUP1 SWAP2 SUB SWAP1 REVERT JUMPDEST PUSH1 0x0 PUSH20 0xFFFFFFFFFFFFFFFFFFFFFFFFFFFFFFFFFFFFFFFF AND DUP3 PUSH20 0xFFFFFFFFFFFFFFFFFFFFFFFFFFFFFFFFFFFFFFFF AND EQ ISZERO PUSH2 0x1E92 JUMPI PUSH1 0x40 MLOAD PUSH32 0x8C379A000000000000000000000000000000000000000000000000000000000 DUP2 MSTORE PUSH1 0x4 ADD PUSH2 0x1E89 SWAP1 PUSH2 0x3D12 JUMP JUMPDEST PUSH1 0x40 MLOAD DUP1 SWAP2 SUB SWAP1 REVERT JUMPDEST PUSH2 0x1E9D DUP4 DUP4 DUP4 PUSH2 0x26C0 JUMP JUMPDEST PUSH2 0x1EA8 PUSH1 0x0 DUP3 PUSH2 0x1C4A JUMP JUMPDEST PUSH1 0x1 PUSH1 0x3 PUSH1 0x0 DUP6 PUSH20 0xFFFFFFFFFFFFFFFFFFFFFFFFFFFFFFFFFFFFFFFF AND PUSH20 0xFFFFFFFFFFFFFFFFFFFFFFFFFFFFFFFFFFFFFFFF AND DUP2 MSTORE PUSH1 0x20 ADD SWAP1 DUP2 MSTORE PUSH1 0x20 ADD PUSH1 0x0 KECCAK256 PUSH1 0x0 DUP3 DUP3 SLOAD PUSH2 0x1EF8 SWAP2 SWAP1 PUSH2 0x40A2 JUMP JUMPDEST SWAP3 POP POP DUP2 SWAP1 SSTORE POP PUSH1 0x1 PUSH1 0x3 PUSH1 0x0 DUP5 PUSH20 0xFFFFFFFFFFFFFFFFFFFFFFFFFFFFFFFFFFFFFFFF AND PUSH20 0xFFFFFFFFFFFFFFFFFFFFFFFFFFFFFFFFFFFFFFFF AND DUP2 MSTORE PUSH1 0x20 ADD SWAP1 DUP2 MSTORE PUSH1 0x20 ADD PUSH1 0x0 KECCAK256 PUSH1 0x0 DUP3 DUP3 SLOAD PUSH2 0x1F4F SWAP2 SWAP1 PUSH2 0x3FC1 JUMP JUMPDEST SWAP3 POP POP DUP2 SWAP1 SSTORE POP DUP2 PUSH1 0x2 PUSH1 0x0 DUP4 DUP2 MSTORE PUSH1 0x20 ADD SWAP1 DUP2 MSTORE PUSH1 0x20 ADD PUSH1 0x0 KECCAK256 PUSH1 0x0 PUSH2 0x100 EXP DUP2 SLOAD DUP2 PUSH20 0xFFFFFFFFFFFFFFFFFFFFFFFFFFFFFFFFFFFFFFFF MUL NOT AND SWAP1 DUP4 PUSH20 0xFFFFFFFFFFFFFFFFFFFFFFFFFFFFFFFFFFFFFFFF AND MUL OR SWAP1 SSTORE POP DUP1 DUP3 PUSH20 0xFFFFFFFFFFFFFFFFFFFFFFFFFFFFFFFFFFFFFFFF AND DUP5 PUSH20 0xFFFFFFFFFFFFFFFFFFFFFFFFFFFFFFFFFFFFFFFF AND PUSH32 0xDDF252AD1BE2C89B69C2B068FC378DAA952BA7F163C4A11628F55A4DF523B3EF PUSH1 0x40 MLOAD PUSH1 0x40 MLOAD DUP1 SWAP2 SUB SWAP1 LOG4 PUSH2 0x200E DUP4 DUP4 DUP4 PUSH2 0x26C5 JUMP JUMPDEST POP POP POP JUMP JUMPDEST PUSH2 0x201C DUP2 PUSH2 0x26CA JUMP JUMPDEST PUSH2 0x2025 DUP2 PUSH2 0x271D JUMP JUMPDEST POP JUMP JUMPDEST PUSH1 0x0 PUSH2 0x2710 SWAP1 POP SWAP1 JUMP JUMPDEST PUSH2 0x203C DUP3 DUP3 PUSH2 0x1474 JUMP JUMPDEST PUSH2 0x210F JUMPI PUSH1 0x1 PUSH1 0x9 PUSH1 0x0 DUP5 DUP2 MSTORE PUSH1 0x20 ADD SWAP1 DUP2 MSTORE PUSH1 0x20 ADD PUSH1 0x0 KECCAK256 PUSH1 0x0 ADD PUSH1 0x0 DUP4 PUSH20 0xFFFFFFFFFFFFFFFFFFFFFFFFFFFFFFFFFFFFFFFF AND PUSH20 0xFFFFFFFFFFFFFFFFFFFFFFFFFFFFFFFFFFFFFFFF AND DUP2 MSTORE PUSH1 0x20 ADD SWAP1 DUP2 MSTORE PUSH1 0x20 ADD PUSH1 0x0 KECCAK256 PUSH1 0x0 PUSH2 0x100 EXP DUP2 SLOAD DUP2 PUSH1 0xFF MUL NOT AND SWAP1 DUP4 ISZERO ISZERO MUL OR SWAP1 SSTORE POP PUSH2 0x20B4 PUSH2 0x1C42 JUMP JUMPDEST PUSH20 0xFFFFFFFFFFFFFFFFFFFFFFFFFFFFFFFFFFFFFFFF AND DUP2 PUSH20 0xFFFFFFFFFFFFFFFFFFFFFFFFFFFFFFFFFFFFFFFF AND DUP4 PUSH32 0x2F8788117E7EFF1D82E926EC794901D17C78024A50270940304540A733656F0D PUSH1 0x40 MLOAD PUSH1 0x40 MLOAD DUP1 SWAP2 SUB SWAP1 LOG4 JUMPDEST POP POP JUMP JUMPDEST PUSH2 0x211D DUP3 DUP3 PUSH2 0x1474 JUMP JUMPDEST ISZERO PUSH2 0x21F1 JUMPI PUSH1 0x0 PUSH1 0x9 PUSH1 0x0 DUP5 DUP2 MSTORE PUSH1 0x20 ADD SWAP1 DUP2 MSTORE PUSH1 0x20 ADD PUSH1 0x0 KECCAK256 PUSH1 0x0 ADD PUSH1 0x0 DUP4 PUSH20 0xFFFFFFFFFFFFFFFFFFFFFFFFFFFFFFFFFFFFFFFF AND PUSH20 0xFFFFFFFFFFFFFFFFFFFFFFFFFFFFFFFFFFFFFFFF AND DUP2 MSTORE PUSH1 0x20 ADD SWAP1 DUP2 MSTORE PUSH1 0x20 ADD PUSH1 0x0 KECCAK256 PUSH1 0x0 PUSH2 0x100 EXP DUP2 SLOAD DUP2 PUSH1 0xFF MUL NOT AND SWAP1 DUP4 ISZERO ISZERO MUL OR SWAP1 SSTORE POP PUSH2 0x2196 PUSH2 0x1C42 JUMP JUMPDEST PUSH20 0xFFFFFFFFFFFFFFFFFFFFFFFFFFFFFFFFFFFFFFFF AND DUP2 PUSH20 0xFFFFFFFFFFFFFFFFFFFFFFFFFFFFFFFFFFFFFFFF AND DUP4 PUSH32 0xF6391F5C32D9C69D2A47EA670B442974B53935D1EDC7FD64EB21E047A839171B PUSH1 0x40 MLOAD PUSH1 0x40 MLOAD DUP1 SWAP2 SUB SWAP1 LOG4 JUMPDEST POP POP JUMP JUMPDEST PUSH2 0x21FD PUSH2 0x1178 JUMP JUMPDEST ISZERO PUSH2 0x223D JUMPI PUSH1 0x40 MLOAD PUSH32 0x8C379A000000000000000000000000000000000000000000000000000000000 DUP2 MSTORE PUSH1 0x4 ADD PUSH2 0x2234 SWAP1 PUSH2 0x3D92 JUMP JUMPDEST PUSH1 0x40 MLOAD DUP1 SWAP2 SUB SWAP1 REVERT JUMPDEST JUMP JUMPDEST PUSH1 0x0 DUP2 PUSH1 0x0 ADD SLOAD SWAP1 POP SWAP2 SWAP1 POP JUMP JUMPDEST PUSH1 0x1 DUP2 PUSH1 0x0 ADD PUSH1 0x0 DUP3 DUP3 SLOAD ADD SWAP3 POP POP DUP2 SWAP1 SSTORE POP POP JUMP JUMPDEST PUSH2 0x227D DUP3 DUP3 PUSH1 0x40 MLOAD DUP1 PUSH1 0x20 ADD PUSH1 0x40 MSTORE DUP1 PUSH1 0x0 DUP2 MSTORE POP PUSH2 0x277C JUMP JUMPDEST POP POP JUMP JUMPDEST PUSH2 0x228A DUP3 PUSH2 0x25B7 JUMP JUMPDEST PUSH2 0x22C9 JUMPI PUSH1 0x40 MLOAD PUSH32 0x8C379A000000000000000000000000000000000000000000000000000000000 DUP2 MSTORE PUSH1 0x4 ADD PUSH2 0x22C0 SWAP1 PUSH2 0x3DD2 JUMP JUMPDEST PUSH1 0x40 MLOAD DUP1 SWAP2 SUB SWAP1 REVERT JUMPDEST DUP1 PUSH1 0x6 PUSH1 0x0 DUP5 DUP2 MSTORE PUSH1 0x20 ADD SWAP1 DUP2 MSTORE PUSH1 0x20 ADD PUSH1 0x0 KECCAK256 SWAP1 DUP1 MLOAD SWAP1 PUSH1 0x20 ADD SWAP1 PUSH2 0x22F0 SWAP3 SWAP2 SWAP1 PUSH2 0x3171 JUMP JUMPDEST POP POP POP JUMP JUMPDEST DUP2 PUSH20 0xFFFFFFFFFFFFFFFFFFFFFFFFFFFFFFFFFFFFFFFF AND DUP4 PUSH20 0xFFFFFFFFFFFFFFFFFFFFFFFFFFFFFFFFFFFFFFFF AND EQ ISZERO PUSH2 0x2364 JUMPI PUSH1 0x40 MLOAD PUSH32 0x8C379A000000000000000000000000000000000000000000000000000000000 DUP2 MSTORE PUSH1 0x4 ADD PUSH2 0x235B SWAP1 PUSH2 0x3D32 JUMP JUMPDEST PUSH1 0x40 MLOAD DUP1 SWAP2 SUB SWAP1 REVERT JUMPDEST DUP1 PUSH1 0x5 PUSH1 0x0 DUP6 PUSH20 0xFFFFFFFFFFFFFFFFFFFFFFFFFFFFFFFFFFFFFFFF AND PUSH20 0xFFFFFFFFFFFFFFFFFFFFFFFFFFFFFFFFFFFFFFFF AND DUP2 MSTORE PUSH1 0x20 ADD SWAP1 DUP2 MSTORE PUSH1 0x20 ADD PUSH1 0x0 KECCAK256 PUSH1 0x0 DUP5 PUSH20 0xFFFFFFFFFFFFFFFFFFFFFFFFFFFFFFFFFFFFFFFF AND PUSH20 0xFFFFFFFFFFFFFFFFFFFFFFFFFFFFFFFFFFFFFFFF AND DUP2 MSTORE PUSH1 0x20 ADD SWAP1 DUP2 MSTORE PUSH1 0x20 ADD PUSH1 0x0 KECCAK256 PUSH1 0x0 PUSH2 0x100 EXP DUP2 SLOAD DUP2 PUSH1 0xFF MUL NOT AND SWAP1 DUP4 ISZERO ISZERO MUL OR SWAP1 SSTORE POP DUP2 PUSH20 0xFFFFFFFFFFFFFFFFFFFFFFFFFFFFFFFFFFFFFFFF AND DUP4 PUSH20 0xFFFFFFFFFFFFFFFFFFFFFFFFFFFFFFFFFFFFFFFF AND PUSH32 0x17307EAB39AB6107E8899845AD3D59BD9653F200F220920489CA2B5937696C31 DUP4 PUSH1 0x40 MLOAD PUSH2 0x2455 SWAP2 SWAP1 PUSH2 0x3BFA JUMP JUMPDEST PUSH1 0x40 MLOAD DUP1 SWAP2 SUB SWAP1 LOG3 POP POP POP JUMP JUMPDEST PUSH2 0x246D DUP5 DUP5 DUP5 PUSH2 0x1DAC JUMP JUMPDEST PUSH2 0x2479 DUP5 DUP5 DUP5 DUP5 PUSH2 0x27D7 JUMP JUMPDEST PUSH2 0x24B8 JUMPI PUSH1 0x40 MLOAD PUSH32 0x8C379A000000000000000000000000000000000000000000000000000000000 DUP2 MSTORE PUSH1 0x4 ADD PUSH2 0x24AF SWAP1 PUSH2 0x3C92 JUMP JUMPDEST PUSH1 0x40 MLOAD DUP1 SWAP2 SUB SWAP1 REVERT JUMPDEST POP POP POP POP JUMP JUMPDEST PUSH1 0x60 PUSH1 0x40 MLOAD DUP1 PUSH1 0x20 ADD PUSH1 0x40 MSTORE DUP1 PUSH1 0x0 DUP2 MSTORE POP SWAP1 POP SWAP1 JUMP JUMPDEST PUSH1 0x60 PUSH2 0x24E0 DUP3 PUSH2 0x1BF7 JUMP JUMPDEST PUSH1 0x0 PUSH2 0x24EA PUSH2 0x24BE JUMP JUMPDEST SWAP1 POP PUSH1 0x0 DUP2 MLOAD GT PUSH2 0x250A JUMPI PUSH1 0x40 MLOAD DUP1 PUSH1 0x20 ADD PUSH1 0x40 MSTORE DUP1 PUSH1 0x0 DUP2 MSTORE POP PUSH2 0x2535 JUMP JUMPDEST DUP1 PUSH2 0x2514 DUP5 PUSH2 0x296E JUMP JUMPDEST PUSH1 0x40 MLOAD PUSH1 0x20 ADD PUSH2 0x2525 SWAP3 SWAP2 SWAP1 PUSH2 0x3A8E JUMP JUMPDEST PUSH1 0x40 MLOAD PUSH1 0x20 DUP2 DUP4 SUB SUB DUP2 MSTORE SWAP1 PUSH1 0x40 MSTORE JUMPDEST SWAP2 POP POP SWAP2 SWAP1 POP JUMP JUMPDEST PUSH1 0x0 PUSH32 0x2A55205A00000000000000000000000000000000000000000000000000000000 PUSH28 0xFFFFFFFFFFFFFFFFFFFFFFFFFFFFFFFFFFFFFFFFFFFFFFFFFFFFFFFF NOT AND DUP3 PUSH28 0xFFFFFFFFFFFFFFFFFFFFFFFFFFFFFFFFFFFFFFFFFFFFFFFFFFFFFFFF NOT AND EQ DUP1 PUSH2 0x25B0 JUMPI POP PUSH2 0x25AF DUP3 PUSH2 0x2ACF JUMP JUMPDEST JUMPDEST SWAP1 POP SWAP2 SWAP1 POP JUMP JUMPDEST PUSH1 0x0 DUP1 PUSH20 0xFFFFFFFFFFFFFFFFFFFFFFFFFFFFFFFFFFFFFFFF AND PUSH1 0x2 PUSH1 0x0 DUP5 DUP2 MSTORE PUSH1 0x20 ADD SWAP1 DUP2 MSTORE PUSH1 0x20 ADD PUSH1 0x0 KECCAK256 PUSH1 0x0 SWAP1 SLOAD SWAP1 PUSH2 0x100 EXP SWAP1 DIV PUSH20 0xFFFFFFFFFFFFFFFFFFFFFFFFFFFFFFFFFFFFFFFF AND PUSH20 0xFFFFFFFFFFFFFFFFFFFFFFFFFFFFFFFFFFFFFFFF AND EQ ISZERO SWAP1 POP SWAP2 SWAP1 POP JUMP JUMPDEST PUSH2 0x262D DUP3 DUP3 PUSH2 0x1474 JUMP JUMPDEST PUSH2 0x26BC JUMPI PUSH2 0x2652 DUP2 PUSH20 0xFFFFFFFFFFFFFFFFFFFFFFFFFFFFFFFFFFFFFFFF AND PUSH1 0x14 PUSH2 0x2BB1 JUMP JUMPDEST PUSH2 0x2660 DUP4 PUSH1 0x0 SHR PUSH1 0x20 PUSH2 0x2BB1 JUMP JUMPDEST PUSH1 0x40 MLOAD PUSH1 0x20 ADD PUSH2 0x2671 SWAP3 SWAP2 SWAP1 PUSH2 0x3AB2 JUMP JUMPDEST PUSH1 0x40 MLOAD PUSH1 0x20 DUP2 DUP4 SUB SUB DUP2 MSTORE SWAP1 PUSH1 0x40 MSTORE PUSH1 0x40 MLOAD PUSH32 0x8C379A000000000000000000000000000000000000000000000000000000000 DUP2 MSTORE PUSH1 0x4 ADD PUSH2 0x26B3 SWAP2 SWAP1 PUSH2 0x3C30 JUMP JUMPDEST PUSH1 0x40 MLOAD DUP1 SWAP2 SUB SWAP1 REVERT JUMPDEST POP POP JUMP JUMPDEST POP POP POP JUMP JUMPDEST POP POP POP JUMP JUMPDEST PUSH2 0x26D3 DUP2 PUSH2 0x2DED JUMP JUMPDEST PUSH1 0x0 PUSH1 0x6 PUSH1 0x0 DUP4 DUP2 MSTORE PUSH1 0x20 ADD SWAP1 DUP2 MSTORE PUSH1 0x20 ADD PUSH1 0x0 KECCAK256 DUP1 SLOAD PUSH2 0x26F3 SWAP1 PUSH2 0x41CD JUMP JUMPDEST SWAP1 POP EQ PUSH2 0x271A JUMPI PUSH1 0x6 PUSH1 0x0 DUP3 DUP2 MSTORE PUSH1 0x20 ADD SWAP1 DUP2 MSTORE PUSH1 0x20 ADD PUSH1 0x0 KECCAK256 PUSH1 0x0 PUSH2 0x2719 SWAP2 SWAP1 PUSH2 0x31F7 JUMP JUMPDEST JUMPDEST POP JUMP JUMPDEST PUSH1 0x8 PUSH1 0x0 DUP3 DUP2 MSTORE PUSH1 0x20 ADD SWAP1 DUP2 MSTORE PUSH1 0x20 ADD PUSH1 0x0 KECCAK256 PUSH1 0x0 DUP1 DUP3 ADD PUSH1 0x0 PUSH2 0x100 EXP DUP2 SLOAD SWAP1 PUSH20 0xFFFFFFFFFFFFFFFFFFFFFFFFFFFFFFFFFFFFFFFF MUL NOT AND SWAP1 SSTORE PUSH1 0x0 DUP3 ADD PUSH1 0x14 PUSH2 0x100 EXP DUP2 SLOAD SWAP1 PUSH12 0xFFFFFFFFFFFFFFFFFFFFFFFF MUL NOT AND SWAP1 SSTORE POP POP POP JUMP JUMPDEST PUSH2 0x2786 DUP4 DUP4 PUSH2 0x2F0A JUMP JUMPDEST PUSH2 0x2793 PUSH1 0x0 DUP5 DUP5 DUP5 PUSH2 0x27D7 JUMP JUMPDEST PUSH2 0x27D2 JUMPI PUSH1 0x40 MLOAD PUSH32 0x8C379A000000000000000000000000000000000000000000000000000000000 DUP2 MSTORE PUSH1 0x4 ADD PUSH2 0x27C9 SWAP1 PUSH2 0x3C92 JUMP JUMPDEST PUSH1 0x40 MLOAD DUP1 SWAP2 SUB SWAP1 REVERT JUMPDEST POP POP POP JUMP JUMPDEST PUSH1 0x0 PUSH2 0x27F8 DUP5 PUSH20 0xFFFFFFFFFFFFFFFFFFFFFFFFFFFFFFFFFFFFFFFF AND PUSH2 0x30E4 JUMP JUMPDEST ISZERO PUSH2 0x2961 JUMPI DUP4 PUSH20 0xFFFFFFFFFFFFFFFFFFFFFFFFFFFFFFFFFFFFFFFF AND PUSH4 0x150B7A02 PUSH2 0x2821 PUSH2 0x1C42 JUMP JUMPDEST DUP8 DUP7 DUP7 PUSH1 0x40 MLOAD DUP6 PUSH4 0xFFFFFFFF AND PUSH1 0xE0 SHL DUP2 MSTORE PUSH1 0x4 ADD PUSH2 0x2843 SWAP5 SWAP4 SWAP3 SWAP2 SWAP1 PUSH2 0x3B07 JUMP JUMPDEST PUSH1 0x20 PUSH1 0x40 MLOAD DUP1 DUP4 SUB DUP2 PUSH1 0x0 DUP8 DUP1 EXTCODESIZE ISZERO DUP1 ISZERO PUSH2 0x285D JUMPI PUSH1 0x0 DUP1 REVERT JUMPDEST POP GAS CALL SWAP3 POP POP POP DUP1 ISZERO PUSH2 0x288E JUMPI POP PUSH1 0x40 MLOAD RETURNDATASIZE PUSH1 0x1F NOT PUSH1 0x1F DUP3 ADD AND DUP3 ADD DUP1 PUSH1 0x40 MSTORE POP DUP2 ADD SWAP1 PUSH2 0x288B SWAP2 SWAP1 PUSH2 0x35B4 JUMP JUMPDEST PUSH1 0x1 JUMPDEST PUSH2 0x2911 JUMPI RETURNDATASIZE DUP1 PUSH1 0x0 DUP2 EQ PUSH2 0x28BE JUMPI PUSH1 0x40 MLOAD SWAP2 POP PUSH1 0x1F NOT PUSH1 0x3F RETURNDATASIZE ADD AND DUP3 ADD PUSH1 0x40 MSTORE RETURNDATASIZE DUP3 MSTORE RETURNDATASIZE PUSH1 0x0 PUSH1 0x20 DUP5 ADD RETURNDATACOPY PUSH2 0x28C3 JUMP JUMPDEST PUSH1 0x60 SWAP2 POP JUMPDEST POP PUSH1 0x0 DUP2 MLOAD EQ ISZERO PUSH2 0x2909 JUMPI PUSH1 0x40 MLOAD PUSH32 0x8C379A000000000000000000000000000000000000000000000000000000000 DUP2 MSTORE PUSH1 0x4 ADD PUSH2 0x2900 SWAP1 PUSH2 0x3C92 JUMP JUMPDEST PUSH1 0x40 MLOAD DUP1 SWAP2 SUB SWAP1 REVERT JUMPDEST DUP1 MLOAD DUP2 PUSH1 0x20 ADD REVERT JUMPDEST PUSH4 0x150B7A02 PUSH1 0xE0 SHL PUSH28 0xFFFFFFFFFFFFFFFFFFFFFFFFFFFFFFFFFFFFFFFFFFFFFFFFFFFFFFFF NOT AND DUP2 PUSH28 0xFFFFFFFFFFFFFFFFFFFFFFFFFFFFFFFFFFFFFFFFFFFFFFFFFFFFFFFF NOT AND EQ SWAP2 POP POP PUSH2 0x2966 JUMP JUMPDEST PUSH1 0x1 SWAP1 POP JUMPDEST SWAP5 SWAP4 POP POP POP POP JUMP JUMPDEST PUSH1 0x60 PUSH1 0x0 DUP3 EQ ISZERO PUSH2 0x29B6 JUMPI PUSH1 0x40 MLOAD DUP1 PUSH1 0x40 ADD PUSH1 0x40 MSTORE DUP1 PUSH1 0x1 DUP2 MSTORE PUSH1 0x20 ADD PUSH32 0x3000000000000000000000000000000000000000000000000000000000000000 DUP2 MSTORE POP SWAP1 POP PUSH2 0x2ACA JUMP JUMPDEST PUSH1 0x0 DUP3 SWAP1 POP PUSH1 0x0 JUMPDEST PUSH1 0x0 DUP3 EQ PUSH2 0x29E8 JUMPI DUP1 DUP1 PUSH2 0x29D1 SWAP1 PUSH2 0x4230 JUMP JUMPDEST SWAP2 POP POP PUSH1 0xA DUP3 PUSH2 0x29E1 SWAP2 SWAP1 PUSH2 0x4017 JUMP JUMPDEST SWAP2 POP PUSH2 0x29BE JUMP JUMPDEST PUSH1 0x0 DUP2 PUSH8 0xFFFFFFFFFFFFFFFF DUP2 GT ISZERO PUSH2 0x2A04 JUMPI PUSH2 0x2A03 PUSH2 0x4395 JUMP JUMPDEST JUMPDEST PUSH1 0x40 MLOAD SWAP1 DUP1 DUP3 MSTORE DUP1 PUSH1 0x1F ADD PUSH1 0x1F NOT AND PUSH1 0x20 ADD DUP3 ADD PUSH1 0x40 MSTORE DUP1 ISZERO PUSH2 0x2A36 JUMPI DUP2 PUSH1 0x20 ADD PUSH1 0x1 DUP3 MUL DUP1 CALLDATASIZE DUP4 CALLDATACOPY DUP1 DUP3 ADD SWAP2 POP POP SWAP1 POP JUMPDEST POP SWAP1 POP JUMPDEST PUSH1 0x0 DUP6 EQ PUSH2 0x2AC3 JUMPI PUSH1 0x1 DUP3 PUSH2 0x2A4F SWAP2 SWAP1 PUSH2 0x40A2 JUMP JUMPDEST SWAP2 POP PUSH1 0xA DUP6 PUSH2 0x2A5E SWAP2 SWAP1 PUSH2 0x4279 JUMP JUMPDEST PUSH1 0x30 PUSH2 0x2A6A SWAP2 SWAP1 PUSH2 0x3FC1 JUMP JUMPDEST PUSH1 0xF8 SHL DUP2 DUP4 DUP2 MLOAD DUP2 LT PUSH2 0x2A80 JUMPI PUSH2 0x2A7F PUSH2 0x4366 JUMP JUMPDEST JUMPDEST PUSH1 0x20 ADD ADD SWAP1 PUSH31 0xFFFFFFFFFFFFFFFFFFFFFFFFFFFFFFFFFFFFFFFFFFFFFFFFFFFFFFFFFFFFFF NOT AND SWAP1 DUP2 PUSH1 0x0 BYTE SWAP1 MSTORE8 POP PUSH1 0xA DUP6 PUSH2 0x2ABC SWAP2 SWAP1 PUSH2 0x4017 JUMP JUMPDEST SWAP5 POP PUSH2 0x2A3A JUMP JUMPDEST DUP1 SWAP4 POP POP POP POP JUMPDEST SWAP2 SWAP1 POP JUMP JUMPDEST PUSH1 0x0 PUSH32 0x80AC58CD00000000000000000000000000000000000000000000000000000000 PUSH28 0xFFFFFFFFFFFFFFFFFFFFFFFFFFFFFFFFFFFFFFFFFFFFFFFFFFFFFFFF NOT AND DUP3 PUSH28 0xFFFFFFFFFFFFFFFFFFFFFFFFFFFFFFFFFFFFFFFFFFFFFFFFFFFFFFFF NOT AND EQ DUP1 PUSH2 0x2B9A JUMPI POP PUSH32 0x5B5E139F00000000000000000000000000000000000000000000000000000000 PUSH28 0xFFFFFFFFFFFFFFFFFFFFFFFFFFFFFFFFFFFFFFFFFFFFFFFFFFFFFFFF NOT AND DUP3 PUSH28 0xFFFFFFFFFFFFFFFFFFFFFFFFFFFFFFFFFFFFFFFFFFFFFFFFFFFFFFFF NOT AND EQ JUMPDEST DUP1 PUSH2 0x2BAA JUMPI POP PUSH2 0x2BA9 DUP3 PUSH2 0x3107 JUMP JUMPDEST JUMPDEST SWAP1 POP SWAP2 SWAP1 POP JUMP JUMPDEST PUSH1 0x60 PUSH1 0x0 PUSH1 0x2 DUP4 PUSH1 0x2 PUSH2 0x2BC4 SWAP2 SWAP1 PUSH2 0x4048 JUMP JUMPDEST PUSH2 0x2BCE SWAP2 SWAP1 PUSH2 0x3FC1 JUMP JUMPDEST PUSH8 0xFFFFFFFFFFFFFFFF DUP2 GT ISZERO PUSH2 0x2BE7 JUMPI PUSH2 0x2BE6 PUSH2 0x4395 JUMP JUMPDEST JUMPDEST PUSH1 0x40 MLOAD SWAP1 DUP1 DUP3 MSTORE DUP1 PUSH1 0x1F ADD PUSH1 0x1F NOT AND PUSH1 0x20 ADD DUP3 ADD PUSH1 0x40 MSTORE DUP1 ISZERO PUSH2 0x2C19 JUMPI DUP2 PUSH1 0x20 ADD PUSH1 0x1 DUP3 MUL DUP1 CALLDATASIZE DUP4 CALLDATACOPY DUP1 DUP3 ADD SWAP2 POP POP SWAP1 POP JUMPDEST POP SWAP1 POP PUSH32 0x3000000000000000000000000000000000000000000000000000000000000000 DUP2 PUSH1 0x0 DUP2 MLOAD DUP2 LT PUSH2 0x2C51 JUMPI PUSH2 0x2C50 PUSH2 0x4366 JUMP JUMPDEST JUMPDEST PUSH1 0x20 ADD ADD SWAP1 PUSH31 0xFFFFFFFFFFFFFFFFFFFFFFFFFFFFFFFFFFFFFFFFFFFFFFFFFFFFFFFFFFFFFF NOT AND SWAP1 DUP2 PUSH1 0x0 BYTE SWAP1 MSTORE8 POP PUSH32 0x7800000000000000000000000000000000000000000000000000000000000000 DUP2 PUSH1 0x1 DUP2 MLOAD DUP2 LT PUSH2 0x2CB5 JUMPI PUSH2 0x2CB4 PUSH2 0x4366 JUMP JUMPDEST JUMPDEST PUSH1 0x20 ADD ADD SWAP1 PUSH31 0xFFFFFFFFFFFFFFFFFFFFFFFFFFFFFFFFFFFFFFFFFFFFFFFFFFFFFFFFFFFFFF NOT AND SWAP1 DUP2 PUSH1 0x0 BYTE SWAP1 MSTORE8 POP PUSH1 0x0 PUSH1 0x1 DUP5 PUSH1 0x2 PUSH2 0x2CF5 SWAP2 SWAP1 PUSH2 0x4048 JUMP JUMPDEST PUSH2 0x2CFF SWAP2 SWAP1 PUSH2 0x3FC1 JUMP JUMPDEST SWAP1 POP JUMPDEST PUSH1 0x1 DUP2 GT ISZERO PUSH2 0x2D9F JUMPI PUSH32 0x3031323334353637383961626364656600000000000000000000000000000000 PUSH1 0xF DUP7 AND PUSH1 0x10 DUP2 LT PUSH2 0x2D41 JUMPI PUSH2 0x2D40 PUSH2 0x4366 JUMP JUMPDEST JUMPDEST BYTE PUSH1 0xF8 SHL DUP3 DUP3 DUP2 MLOAD DUP2 LT PUSH2 0x2D58 JUMPI PUSH2 0x2D57 PUSH2 0x4366 JUMP JUMPDEST JUMPDEST PUSH1 0x20 ADD ADD SWAP1 PUSH31 0xFFFFFFFFFFFFFFFFFFFFFFFFFFFFFFFFFFFFFFFFFFFFFFFFFFFFFFFFFFFFFF NOT AND SWAP1 DUP2 PUSH1 0x0 BYTE SWAP1 MSTORE8 POP PUSH1 0x4 DUP6 SWAP1 SHR SWAP5 POP DUP1 PUSH2 0x2D98 SWAP1 PUSH2 0x41A3 JUMP JUMPDEST SWAP1 POP PUSH2 0x2D02 JUMP JUMPDEST POP PUSH1 0x0 DUP5 EQ PUSH2 0x2DE3 JUMPI PUSH1 0x40 MLOAD PUSH32 0x8C379A000000000000000000000000000000000000000000000000000000000 DUP2 MSTORE PUSH1 0x4 ADD PUSH2 0x2DDA SWAP1 PUSH2 0x3C52 JUMP JUMPDEST PUSH1 0x40 MLOAD DUP1 SWAP2 SUB SWAP1 REVERT JUMPDEST DUP1 SWAP2 POP POP SWAP3 SWAP2 POP POP JUMP JUMPDEST PUSH1 0x0 PUSH2 0x2DF8 DUP3 PUSH2 0x118F JUMP JUMPDEST SWAP1 POP PUSH2 0x2E06 DUP2 PUSH1 0x0 DUP5 PUSH2 0x26C0 JUMP JUMPDEST PUSH2 0x2E11 PUSH1 0x0 DUP4 PUSH2 0x1C4A JUMP JUMPDEST PUSH1 0x1 PUSH1 0x3 PUSH1 0x0 DUP4 PUSH20 0xFFFFFFFFFFFFFFFFFFFFFFFFFFFFFFFFFFFFFFFF AND PUSH20 0xFFFFFFFFFFFFFFFFFFFFFFFFFFFFFFFFFFFFFFFF AND DUP2 MSTORE PUSH1 0x20 ADD SWAP1 DUP2 MSTORE PUSH1 0x20 ADD PUSH1 0x0 KECCAK256 PUSH1 0x0 DUP3 DUP3 SLOAD PUSH2 0x2E61 SWAP2 SWAP1 PUSH2 0x40A2 JUMP JUMPDEST SWAP3 POP POP DUP2 SWAP1 SSTORE POP PUSH1 0x2 PUSH1 0x0 DUP4 DUP2 MSTORE PUSH1 0x20 ADD SWAP1 DUP2 MSTORE PUSH1 0x20 ADD PUSH1 0x0 KECCAK256 PUSH1 0x0 PUSH2 0x100 EXP DUP2 SLOAD SWAP1 PUSH20 0xFFFFFFFFFFFFFFFFFFFFFFFFFFFFFFFFFFFFFFFF MUL NOT AND SWAP1 SSTORE DUP2 PUSH1 0x0 PUSH20 0xFFFFFFFFFFFFFFFFFFFFFFFFFFFFFFFFFFFFFFFF AND DUP3 PUSH20 0xFFFFFFFFFFFFFFFFFFFFFFFFFFFFFFFFFFFFFFFF AND PUSH32 0xDDF252AD1BE2C89B69C2B068FC378DAA952BA7F163C4A11628F55A4DF523B3EF PUSH1 0x40 MLOAD PUSH1 0x40 MLOAD DUP1 SWAP2 SUB SWAP1 LOG4 PUSH2 0x2F06 DUP2 PUSH1 0x0 DUP5 PUSH2 0x26C5 JUMP JUMPDEST POP POP JUMP JUMPDEST PUSH1 0x0 PUSH20 0xFFFFFFFFFFFFFFFFFFFFFFFFFFFFFFFFFFFFFFFF AND DUP3 PUSH20 0xFFFFFFFFFFFFFFFFFFFFFFFFFFFFFFFFFFFFFFFF AND EQ ISZERO PUSH2 0x2F7A JUMPI PUSH1 0x40 MLOAD PUSH32 0x8C379A000000000000000000000000000000000000000000000000000000000 DUP2 MSTORE PUSH1 0x4 ADD PUSH2 0x2F71 SWAP1 PUSH2 0x3E12 JUMP JUMPDEST PUSH1 0x40 MLOAD DUP1 SWAP2 SUB SWAP1 REVERT JUMPDEST PUSH2 0x2F83 DUP2 PUSH2 0x25B7 JUMP JUMPDEST ISZERO PUSH2 0x2FC3 JUMPI PUSH1 0x40 MLOAD PUSH32 0x8C379A000000000000000000000000000000000000000000000000000000000 DUP2 MSTORE PUSH1 0x4 ADD PUSH2 0x2FBA SWAP1 PUSH2 0x3CD2 JUMP JUMPDEST PUSH1 0x40 MLOAD DUP1 SWAP2 SUB SWAP1 REVERT JUMPDEST PUSH2 0x2FCF PUSH1 0x0 DUP4 DUP4 PUSH2 0x26C0 JUMP JUMPDEST PUSH1 0x1 PUSH1 0x3 PUSH1 0x0 DUP5 PUSH20 0xFFFFFFFFFFFFFFFFFFFFFFFFFFFFFFFFFFFFFFFF AND PUSH20 0xFFFFFFFFFFFFFFFFFFFFFFFFFFFFFFFFFFFFFFFF AND DUP2 MSTORE PUSH1 0x20 ADD SWAP1 DUP2 MSTORE PUSH1 0x20 ADD PUSH1 0x0 KECCAK256 PUSH1 0x0 DUP3 DUP3 SLOAD PUSH2 0x301F SWAP2 SWAP1 PUSH2 0x3FC1 JUMP JUMPDEST SWAP3 POP POP DUP2 SWAP1 SSTORE POP DUP2 PUSH1 0x2 PUSH1 0x0 DUP4 DUP2 MSTORE PUSH1 0x20 ADD SWAP1 DUP2 MSTORE PUSH1 0x20 ADD PUSH1 0x0 KECCAK256 PUSH1 0x0 PUSH2 0x100 EXP DUP2 SLOAD DUP2 PUSH20 0xFFFFFFFFFFFFFFFFFFFFFFFFFFFFFFFFFFFFFFFF MUL NOT AND SWAP1 DUP4 PUSH20 0xFFFFFFFFFFFFFFFFFFFFFFFFFFFFFFFFFFFFFFFF AND MUL OR SWAP1 SSTORE POP DUP1 DUP3 PUSH20 0xFFFFFFFFFFFFFFFFFFFFFFFFFFFFFFFFFFFFFFFF AND PUSH1 0x0 PUSH20 0xFFFFFFFFFFFFFFFFFFFFFFFFFFFFFFFFFFFFFFFF AND PUSH32 0xDDF252AD1BE2C89B69C2B068FC378DAA952BA7F163C4A11628F55A4DF523B3EF PUSH1 0x40 MLOAD PUSH1 0x40 MLOAD DUP1 SWAP2 SUB SWAP1 LOG4 PUSH2 0x30E0 PUSH1 0x0 DUP4 DUP4 PUSH2 0x26C5 JUMP JUMPDEST POP POP JUMP JUMPDEST PUSH1 0x0 DUP1 DUP3 PUSH20 0xFFFFFFFFFFFFFFFFFFFFFFFFFFFFFFFFFFFFFFFF AND EXTCODESIZE GT SWAP1 POP SWAP2 SWAP1 POP JUMP JUMPDEST PUSH1 0x0 PUSH32 0x1FFC9A700000000000000000000000000000000000000000000000000000000 PUSH28 0xFFFFFFFFFFFFFFFFFFFFFFFFFFFFFFFFFFFFFFFFFFFFFFFFFFFFFFFF NOT AND DUP3 PUSH28 0xFFFFFFFFFFFFFFFFFFFFFFFFFFFFFFFFFFFFFFFFFFFFFFFFFFFFFFFF NOT AND EQ SWAP1 POP SWAP2 SWAP1 POP JUMP JUMPDEST DUP3 DUP1 SLOAD PUSH2 0x317D SWAP1 PUSH2 0x41CD JUMP JUMPDEST SWAP1 PUSH1 0x0 MSTORE PUSH1 0x20 PUSH1 0x0 KECCAK256 SWAP1 PUSH1 0x1F ADD PUSH1 0x20 SWAP1 DIV DUP2 ADD SWAP3 DUP3 PUSH2 0x319F JUMPI PUSH1 0x0 DUP6 SSTORE PUSH2 0x31E6 JUMP JUMPDEST DUP3 PUSH1 0x1F LT PUSH2 0x31B8 JUMPI DUP1 MLOAD PUSH1 0xFF NOT AND DUP4 DUP1 ADD OR DUP6 SSTORE PUSH2 0x31E6 JUMP JUMPDEST DUP3 DUP1 ADD PUSH1 0x1 ADD DUP6 SSTORE DUP3 ISZERO PUSH2 0x31E6 JUMPI SWAP2 DUP3 ADD JUMPDEST DUP3 DUP2 GT ISZERO PUSH2 0x31E5 JUMPI DUP3 MLOAD DUP3 SSTORE SWAP2 PUSH1 0x20 ADD SWAP2 SWAP1 PUSH1 0x1 ADD SWAP1 PUSH2 0x31CA JUMP JUMPDEST JUMPDEST POP SWAP1 POP PUSH2 0x31F3 SWAP2 SWAP1 PUSH2 0x3237 JUMP JUMPDEST POP SWAP1 JUMP JUMPDEST POP DUP1 SLOAD PUSH2 0x3203 SWAP1 PUSH2 0x41CD JUMP JUMPDEST PUSH1 0x0 DUP3 SSTORE DUP1 PUSH1 0x1F LT PUSH2 0x3215 JUMPI POP PUSH2 0x3234 JUMP JUMPDEST PUSH1 0x1F ADD PUSH1 0x20 SWAP1 DIV SWAP1 PUSH1 0x0 MSTORE PUSH1 0x20 PUSH1 0x0 KECCAK256 SWAP1 DUP2 ADD SWAP1 PUSH2 0x3233 SWAP2 SWAP1 PUSH2 0x3237 JUMP JUMPDEST JUMPDEST POP JUMP JUMPDEST JUMPDEST DUP1 DUP3 GT ISZERO PUSH2 0x3250 JUMPI PUSH1 0x0 DUP2 PUSH1 0x0 SWAP1 SSTORE POP PUSH1 0x1 ADD PUSH2 0x3238 JUMP JUMPDEST POP SWAP1 JUMP JUMPDEST PUSH1 0x0 PUSH2 0x3267 PUSH2 0x3262 DUP5 PUSH2 0x3F4D JUMP JUMPDEST PUSH2 0x3F28 JUMP JUMPDEST SWAP1 POP DUP3 DUP2 MSTORE PUSH1 0x20 DUP2 ADD DUP5 DUP5 DUP5 ADD GT ISZERO PUSH2 0x3283 JUMPI PUSH2 0x3282 PUSH2 0x43C9 JUMP JUMPDEST JUMPDEST PUSH2 0x328E DUP5 DUP3 DUP6 PUSH2 0x4161 JUMP JUMPDEST POP SWAP4 SWAP3 POP POP POP JUMP JUMPDEST PUSH1 0x0 DUP2 CALLDATALOAD SWAP1 POP PUSH2 0x32A5 DUP2 PUSH2 0x4960 JUMP JUMPDEST SWAP3 SWAP2 POP POP JUMP JUMPDEST PUSH1 0x0 DUP2 CALLDATALOAD SWAP1 POP PUSH2 0x32BA DUP2 PUSH2 0x4977 JUMP JUMPDEST SWAP3 SWAP2 POP POP JUMP JUMPDEST PUSH1 0x0 DUP2 CALLDATALOAD SWAP1 POP PUSH2 0x32CF DUP2 PUSH2 0x498E JUMP JUMPDEST SWAP3 SWAP2 POP POP JUMP JUMPDEST PUSH1 0x0 DUP2 CALLDATALOAD SWAP1 POP PUSH2 0x32E4 DUP2 PUSH2 0x49A5 JUMP JUMPDEST SWAP3 SWAP2 POP POP JUMP JUMPDEST PUSH1 0x0 DUP2 MLOAD SWAP1 POP PUSH2 0x32F9 DUP2 PUSH2 0x49A5 JUMP JUMPDEST SWAP3 SWAP2 POP POP JUMP JUMPDEST PUSH1 0x0 DUP3 PUSH1 0x1F DUP4 ADD SLT PUSH2 0x3314 JUMPI PUSH2 0x3313 PUSH2 0x43C4 JUMP JUMPDEST JUMPDEST DUP2 CALLDATALOAD PUSH2 0x3324 DUP5 DUP3 PUSH1 0x20 DUP7 ADD PUSH2 0x3254 JUMP JUMPDEST SWAP2 POP POP SWAP3 SWAP2 POP POP JUMP JUMPDEST PUSH1 0x0 DUP2 CALLDATALOAD SWAP1 POP PUSH2 0x333C DUP2 PUSH2 0x49BC JUMP JUMPDEST SWAP3 SWAP2 POP POP JUMP JUMPDEST PUSH1 0x0 DUP2 CALLDATALOAD SWAP1 POP PUSH2 0x3351 DUP2 PUSH2 0x49D3 JUMP JUMPDEST SWAP3 SWAP2 POP POP JUMP JUMPDEST PUSH1 0x0 PUSH1 0x20 DUP3 DUP5 SUB SLT ISZERO PUSH2 0x336D JUMPI PUSH2 0x336C PUSH2 0x43D3 JUMP JUMPDEST JUMPDEST PUSH1 0x0 PUSH2 0x337B DUP5 DUP3 DUP6 ADD PUSH2 0x3296 JUMP JUMPDEST SWAP2 POP POP SWAP3 SWAP2 POP POP JUMP JUMPDEST PUSH1 0x0 DUP1 PUSH1 0x40 DUP4 DUP6 SUB SLT ISZERO PUSH2 0x339B JUMPI PUSH2 0x339A PUSH2 0x43D3 JUMP JUMPDEST JUMPDEST PUSH1 0x0 PUSH2 0x33A9 DUP6 DUP3 DUP7 ADD PUSH2 0x3296 JUMP JUMPDEST SWAP3 POP POP PUSH1 0x20 PUSH2 0x33BA DUP6 DUP3 DUP7 ADD PUSH2 0x3296 JUMP JUMPDEST SWAP2 POP POP SWAP3 POP SWAP3 SWAP1 POP JUMP JUMPDEST PUSH1 0x0 DUP1 PUSH1 0x0 PUSH1 0x60 DUP5 DUP7 SUB SLT ISZERO PUSH2 0x33DD JUMPI PUSH2 0x33DC PUSH2 0x43D3 JUMP JUMPDEST JUMPDEST PUSH1 0x0 PUSH2 0x33EB DUP7 DUP3 DUP8 ADD PUSH2 0x3296 JUMP JUMPDEST SWAP4 POP POP PUSH1 0x20 PUSH2 0x33FC DUP7 DUP3 DUP8 ADD PUSH2 0x3296 JUMP JUMPDEST SWAP3 POP POP PUSH1 0x40 PUSH2 0x340D DUP7 DUP3 DUP8 ADD PUSH2 0x332D JUMP JUMPDEST SWAP2 POP POP SWAP3 POP SWAP3 POP SWAP3 JUMP JUMPDEST PUSH1 0x0 DUP1 PUSH1 0x0 DUP1 PUSH1 0x80 DUP6 DUP8 SUB SLT ISZERO PUSH2 0x3431 JUMPI PUSH2 0x3430 PUSH2 0x43D3 JUMP JUMPDEST JUMPDEST PUSH1 0x0 PUSH2 0x343F DUP8 DUP3 DUP9 ADD PUSH2 0x3296 JUMP JUMPDEST SWAP5 POP POP PUSH1 0x20 PUSH2 0x3450 DUP8 DUP3 DUP9 ADD PUSH2 0x3296 JUMP JUMPDEST SWAP4 POP POP PUSH1 0x40 PUSH2 0x3461 DUP8 DUP3 DUP9 ADD PUSH2 0x332D JUMP JUMPDEST SWAP3 POP POP PUSH1 0x60 DUP6 ADD CALLDATALOAD PUSH8 0xFFFFFFFFFFFFFFFF DUP2 GT ISZERO PUSH2 0x3482 JUMPI PUSH2 0x3481 PUSH2 0x43CE JUMP JUMPDEST JUMPDEST PUSH2 0x348E DUP8 DUP3 DUP9 ADD PUSH2 0x32FF JUMP JUMPDEST SWAP2 POP POP SWAP3 SWAP6 SWAP2 SWAP5 POP SWAP3 POP JUMP JUMPDEST PUSH1 0x0 DUP1 PUSH1 0x40 DUP4 DUP6 SUB SLT ISZERO PUSH2 0x34B1 JUMPI PUSH2 0x34B0 PUSH2 0x43D3 JUMP JUMPDEST JUMPDEST PUSH1 0x0 PUSH2 0x34BF DUP6 DUP3 DUP7 ADD PUSH2 0x3296 JUMP JUMPDEST SWAP3 POP POP PUSH1 0x20 PUSH2 0x34D0 DUP6 DUP3 DUP7 ADD PUSH2 0x32AB JUMP JUMPDEST SWAP2 POP POP SWAP3 POP SWAP3 SWAP1 POP JUMP JUMPDEST PUSH1 0x0 DUP1 PUSH1 0x40 DUP4 DUP6 SUB SLT ISZERO PUSH2 0x34F1 JUMPI PUSH2 0x34F0 PUSH2 0x43D3 JUMP JUMPDEST JUMPDEST PUSH1 0x0 PUSH2 0x34FF DUP6 DUP3 DUP7 ADD PUSH2 0x3296 JUMP JUMPDEST SWAP3 POP POP PUSH1 0x20 PUSH2 0x3510 DUP6 DUP3 DUP7 ADD PUSH2 0x332D JUMP JUMPDEST SWAP2 POP POP SWAP3 POP SWAP3 SWAP1 POP JUMP JUMPDEST PUSH1 0x0 PUSH1 0x20 DUP3 DUP5 SUB SLT ISZERO PUSH2 0x3530 JUMPI PUSH2 0x352F PUSH2 0x43D3 JUMP JUMPDEST JUMPDEST PUSH1 0x0 PUSH2 0x353E DUP5 DUP3 DUP6 ADD PUSH2 0x32C0 JUMP JUMPDEST SWAP2 POP POP SWAP3 SWAP2 POP POP JUMP JUMPDEST PUSH1 0x0 DUP1 PUSH1 0x40 DUP4 DUP6 SUB SLT ISZERO PUSH2 0x355E JUMPI PUSH2 0x355D PUSH2 0x43D3 JUMP JUMPDEST JUMPDEST PUSH1 0x0 PUSH2 0x356C DUP6 DUP3 DUP7 ADD PUSH2 0x32C0 JUMP JUMPDEST SWAP3 POP POP PUSH1 0x20 PUSH2 0x357D DUP6 DUP3 DUP7 ADD PUSH2 0x3296 JUMP JUMPDEST SWAP2 POP POP SWAP3 POP SWAP3 SWAP1 POP JUMP JUMPDEST PUSH1 0x0 PUSH1 0x20 DUP3 DUP5 SUB SLT ISZERO PUSH2 0x359D JUMPI PUSH2 0x359C PUSH2 0x43D3 JUMP JUMPDEST JUMPDEST PUSH1 0x0 PUSH2 0x35AB DUP5 DUP3 DUP6 ADD PUSH2 0x32D5 JUMP JUMPDEST SWAP2 POP POP SWAP3 SWAP2 POP POP JUMP JUMPDEST PUSH1 0x0 PUSH1 0x20 DUP3 DUP5 SUB SLT ISZERO PUSH2 0x35CA JUMPI PUSH2 0x35C9 PUSH2 0x43D3 JUMP JUMPDEST JUMPDEST PUSH1 0x0 PUSH2 0x35D8 DUP5 DUP3 DUP6 ADD PUSH2 0x32EA JUMP JUMPDEST SWAP2 POP POP SWAP3 SWAP2 POP POP JUMP JUMPDEST PUSH1 0x0 PUSH1 0x20 DUP3 DUP5 SUB SLT ISZERO PUSH2 0x35F7 JUMPI PUSH2 0x35F6 PUSH2 0x43D3 JUMP JUMPDEST JUMPDEST PUSH1 0x0 PUSH2 0x3605 DUP5 DUP3 DUP6 ADD PUSH2 0x332D JUMP JUMPDEST SWAP2 POP POP SWAP3 SWAP2 POP POP JUMP JUMPDEST PUSH1 0x0 DUP1 PUSH1 0x40 DUP4 DUP6 SUB SLT ISZERO PUSH2 0x3625 JUMPI PUSH2 0x3624 PUSH2 0x43D3 JUMP JUMPDEST JUMPDEST PUSH1 0x0 PUSH2 0x3633 DUP6 DUP3 DUP7 ADD PUSH2 0x332D JUMP JUMPDEST SWAP3 POP POP PUSH1 0x20 PUSH2 0x3644 DUP6 DUP3 DUP7 ADD PUSH2 0x332D JUMP JUMPDEST SWAP2 POP POP SWAP3 POP SWAP3 SWAP1 POP JUMP JUMPDEST PUSH1 0x0 PUSH1 0x20 DUP3 DUP5 SUB SLT ISZERO PUSH2 0x3664 JUMPI PUSH2 0x3663 PUSH2 0x43D3 JUMP JUMPDEST JUMPDEST PUSH1 0x0 PUSH2 0x3672 DUP5 DUP3 DUP6 ADD PUSH2 0x3342 JUMP JUMPDEST SWAP2 POP POP SWAP3 SWAP2 POP POP JUMP JUMPDEST PUSH2 0x3684 DUP2 PUSH2 0x40D6 JUMP JUMPDEST DUP3 MSTORE POP POP JUMP JUMPDEST PUSH2 0x3693 DUP2 PUSH2 0x40E8 JUMP JUMPDEST DUP3 MSTORE POP POP JUMP JUMPDEST PUSH2 0x36A2 DUP2 PUSH2 0x40F4 JUMP JUMPDEST DUP3 MSTORE POP POP JUMP JUMPDEST PUSH1 0x0 PUSH2 0x36B3 DUP3 PUSH2 0x3F7E JUMP JUMPDEST PUSH2 0x36BD DUP2 DUP6 PUSH2 0x3F94 JUMP JUMPDEST SWAP4 POP PUSH2 0x36CD DUP2 DUP6 PUSH1 0x20 DUP7 ADD PUSH2 0x4170 JUMP JUMPDEST PUSH2 0x36D6 DUP2 PUSH2 0x43D8 JUMP JUMPDEST DUP5 ADD SWAP2 POP POP SWAP3 SWAP2 POP POP JUMP JUMPDEST PUSH1 0x0 PUSH2 0x36EC DUP3 PUSH2 0x3F89 JUMP JUMPDEST PUSH2 0x36F6 DUP2 DUP6 PUSH2 0x3FA5 JUMP JUMPDEST SWAP4 POP PUSH2 0x3706 DUP2 DUP6 PUSH1 0x20 DUP7 ADD PUSH2 0x4170 JUMP JUMPDEST PUSH2 0x370F DUP2 PUSH2 0x43D8 JUMP JUMPDEST DUP5 ADD SWAP2 POP POP SWAP3 SWAP2 POP POP JUMP JUMPDEST PUSH1 0x0 PUSH2 0x3725 DUP3 PUSH2 0x3F89 JUMP JUMPDEST PUSH2 0x372F DUP2 DUP6 PUSH2 0x3FB6 JUMP JUMPDEST SWAP4 POP PUSH2 0x373F DUP2 DUP6 PUSH1 0x20 DUP7 ADD PUSH2 0x4170 JUMP JUMPDEST DUP1 DUP5 ADD SWAP2 POP POP SWAP3 SWAP2 POP POP JUMP JUMPDEST PUSH1 0x0 PUSH2 0x3758 PUSH1 0x20 DUP4 PUSH2 0x3FA5 JUMP JUMPDEST SWAP2 POP PUSH2 0x3763 DUP3 PUSH2 0x43E9 JUMP JUMPDEST PUSH1 0x20 DUP3 ADD SWAP1 POP SWAP2 SWAP1 POP JUMP JUMPDEST PUSH1 0x0 PUSH2 0x377B PUSH1 0x15 DUP4 PUSH2 0x3FA5 JUMP JUMPDEST SWAP2 POP PUSH2 0x3786 DUP3 PUSH2 0x4412 JUMP JUMPDEST PUSH1 0x20 DUP3 ADD SWAP1 POP SWAP2 SWAP1 POP JUMP JUMPDEST PUSH1 0x0 PUSH2 0x379E PUSH1 0x32 DUP4 PUSH2 0x3FA5 JUMP JUMPDEST SWAP2 POP PUSH2 0x37A9 DUP3 PUSH2 0x443B JUMP JUMPDEST PUSH1 0x40 DUP3 ADD SWAP1 POP SWAP2 SWAP1 POP JUMP JUMPDEST PUSH1 0x0 PUSH2 0x37C1 PUSH1 0x25 DUP4 PUSH2 0x3FA5 JUMP JUMPDEST SWAP2 POP PUSH2 0x37CC DUP3 PUSH2 0x448A JUMP JUMPDEST PUSH1 0x40 DUP3 ADD SWAP1 POP SWAP2 SWAP1 POP JUMP JUMPDEST PUSH1 0x0 PUSH2 0x37E4 PUSH1 0x1C DUP4 PUSH2 0x3FA5 JUMP JUMPDEST SWAP2 POP PUSH2 0x37EF DUP3 PUSH2 0x44D9 JUMP JUMPDEST PUSH1 0x20 DUP3 ADD SWAP1 POP SWAP2 SWAP1 POP JUMP JUMPDEST PUSH1 0x0 PUSH2 0x3807 PUSH1 0x42 DUP4 PUSH2 0x3FA5 JUMP JUMPDEST SWAP2 POP PUSH2 0x3812 DUP3 PUSH2 0x4502 JUMP JUMPDEST PUSH1 0x60 DUP3 ADD SWAP1 POP SWAP2 SWAP1 POP JUMP JUMPDEST PUSH1 0x0 PUSH2 0x382A PUSH1 0x24 DUP4 PUSH2 0x3FA5 JUMP JUMPDEST SWAP2 POP PUSH2 0x3835 DUP3 PUSH2 0x4577 JUMP JUMPDEST PUSH1 0x40 DUP3 ADD SWAP1 POP SWAP2 SWAP1 POP JUMP JUMPDEST PUSH1 0x0 PUSH2 0x384D PUSH1 0x19 DUP4 PUSH2 0x3FA5 JUMP JUMPDEST SWAP2 POP PUSH2 0x3858 DUP3 PUSH2 0x45C6 JUMP JUMPDEST PUSH1 0x20 DUP3 ADD SWAP1 POP SWAP2 SWAP1 POP JUMP JUMPDEST PUSH1 0x0 PUSH2 0x3870 PUSH1 0x16 DUP4 PUSH2 0x3FA5 JUMP JUMPDEST SWAP2 POP PUSH2 0x387B DUP3 PUSH2 0x45EF JUMP JUMPDEST PUSH1 0x20 DUP3 ADD SWAP1 POP SWAP2 SWAP1 POP JUMP JUMPDEST PUSH1 0x0 PUSH2 0x3893 PUSH1 0x1E DUP4 PUSH2 0x3FA5 JUMP JUMPDEST SWAP2 POP PUSH2 0x389E DUP3 PUSH2 0x4618 JUMP JUMPDEST PUSH1 0x20 DUP3 ADD SWAP1 POP SWAP2 SWAP1 POP JUMP JUMPDEST PUSH1 0x0 PUSH2 0x38B6 PUSH1 0x10 DUP4 PUSH2 0x3FA5 JUMP JUMPDEST SWAP2 POP PUSH2 0x38C1 DUP3 PUSH2 0x4641 JUMP JUMPDEST PUSH1 0x20 DUP3 ADD SWAP1 POP SWAP2 SWAP1 POP JUMP JUMPDEST PUSH1 0x0 PUSH2 0x38D9 PUSH1 0x29 DUP4 PUSH2 0x3FA5 JUMP JUMPDEST SWAP2 POP PUSH2 0x38E4 DUP3 PUSH2 0x466A JUMP JUMPDEST PUSH1 0x40 DUP3 ADD SWAP1 POP SWAP2 SWAP1 POP JUMP JUMPDEST PUSH1 0x0 PUSH2 0x38FC PUSH1 0x2E DUP4 PUSH2 0x3FA5 JUMP JUMPDEST SWAP2 POP PUSH2 0x3907 DUP3 PUSH2 0x46B9 JUMP JUMPDEST PUSH1 0x40 DUP3 ADD SWAP1 POP SWAP2 SWAP1 POP JUMP JUMPDEST PUSH1 0x0 PUSH2 0x391F PUSH1 0x3E DUP4 PUSH2 0x3FA5 JUMP JUMPDEST SWAP2 POP PUSH2 0x392A DUP3 PUSH2 0x4708 JUMP JUMPDEST PUSH1 0x40 DUP3 ADD SWAP1 POP SWAP2 SWAP1 POP JUMP JUMPDEST PUSH1 0x0 PUSH2 0x3942 PUSH1 0x20 DUP4 PUSH2 0x3FA5 JUMP JUMPDEST SWAP2 POP PUSH2 0x394D DUP3 PUSH2 0x4757 JUMP JUMPDEST PUSH1 0x20 DUP3 ADD SWAP1 POP SWAP2 SWAP1 POP JUMP JUMPDEST PUSH1 0x0 PUSH2 0x3965 PUSH1 0x24 DUP4 PUSH2 0x3FA5 JUMP JUMPDEST SWAP2 POP PUSH2 0x3970 DUP3 PUSH2 0x4780 JUMP JUMPDEST PUSH1 0x40 DUP3 ADD SWAP1 POP SWAP2 SWAP1 POP JUMP JUMPDEST PUSH1 0x0 PUSH2 0x3988 PUSH1 0x18 DUP4 PUSH2 0x3FA5 JUMP JUMPDEST SWAP2 POP PUSH2 0x3993 DUP3 PUSH2 0x47CF JUMP JUMPDEST PUSH1 0x20 DUP3 ADD SWAP1 POP SWAP2 SWAP1 POP JUMP JUMPDEST PUSH1 0x0 PUSH2 0x39AB PUSH1 0x21 DUP4 PUSH2 0x3FA5 JUMP JUMPDEST SWAP2 POP PUSH2 0x39B6 DUP3 PUSH2 0x47F8 JUMP JUMPDEST PUSH1 0x40 DUP3 ADD SWAP1 POP SWAP2 SWAP1 POP JUMP JUMPDEST PUSH1 0x0 PUSH2 0x39CE PUSH1 0x17 DUP4 PUSH2 0x3FB6 JUMP JUMPDEST SWAP2 POP PUSH2 0x39D9 DUP3 PUSH2 0x4847 JUMP JUMPDEST PUSH1 0x17 DUP3 ADD SWAP1 POP SWAP2 SWAP1 POP JUMP JUMPDEST PUSH1 0x0 PUSH2 0x39F1 PUSH1 0x2E DUP4 PUSH2 0x3FA5 JUMP JUMPDEST SWAP2 POP PUSH2 0x39FC DUP3 PUSH2 0x4870 JUMP JUMPDEST PUSH1 0x40 DUP3 ADD SWAP1 POP SWAP2 SWAP1 POP JUMP JUMPDEST PUSH1 0x0 PUSH2 0x3A14 PUSH1 0x11 DUP4 PUSH2 0x3FB6 JUMP JUMPDEST SWAP2 POP PUSH2 0x3A1F DUP3 PUSH2 0x48BF JUMP JUMPDEST PUSH1 0x11 DUP3 ADD SWAP1 POP SWAP2 SWAP1 POP JUMP JUMPDEST PUSH1 0x0 PUSH2 0x3A37 PUSH1 0x2F DUP4 PUSH2 0x3FA5 JUMP JUMPDEST SWAP2 POP PUSH2 0x3A42 DUP3 PUSH2 0x48E8 JUMP JUMPDEST PUSH1 0x40 DUP3 ADD SWAP1 POP SWAP2 SWAP1 POP JUMP JUMPDEST PUSH1 0x0 PUSH2 0x3A5A PUSH1 0x1A DUP4 PUSH2 0x3FA5 JUMP JUMPDEST SWAP2 POP PUSH2 0x3A65 DUP3 PUSH2 0x4937 JUMP JUMPDEST PUSH1 0x20 DUP3 ADD SWAP1 POP SWAP2 SWAP1 POP JUMP JUMPDEST PUSH2 0x3A79 DUP2 PUSH2 0x414A JUMP JUMPDEST DUP3 MSTORE POP POP JUMP JUMPDEST PUSH2 0x3A88 DUP2 PUSH2 0x4154 JUMP JUMPDEST DUP3 MSTORE POP POP JUMP JUMPDEST PUSH1 0x0 PUSH2 0x3A9A DUP3 DUP6 PUSH2 0x371A JUMP JUMPDEST SWAP2 POP PUSH2 0x3AA6 DUP3 DUP5 PUSH2 0x371A JUMP JUMPDEST SWAP2 POP DUP2 SWAP1 POP SWAP4 SWAP3 POP POP POP JUMP JUMPDEST PUSH1 0x0 PUSH2 0x3ABD DUP3 PUSH2 0x39C1 JUMP JUMPDEST SWAP2 POP PUSH2 0x3AC9 DUP3 DUP6 PUSH2 0x371A JUMP JUMPDEST SWAP2 POP PUSH2 0x3AD4 DUP3 PUSH2 0x3A07 JUMP JUMPDEST SWAP2 POP PUSH2 0x3AE0 DUP3 DUP5 PUSH2 0x371A JUMP JUMPDEST SWAP2 POP DUP2 SWAP1 POP SWAP4 SWAP3 POP POP POP JUMP JUMPDEST PUSH1 0x0 PUSH1 0x20 DUP3 ADD SWAP1 POP PUSH2 0x3B01 PUSH1 0x0 DUP4 ADD DUP5 PUSH2 0x367B JUMP JUMPDEST SWAP3 SWAP2 POP POP JUMP JUMPDEST PUSH1 0x0 PUSH1 0x80 DUP3 ADD SWAP1 POP PUSH2 0x3B1C PUSH1 0x0 DUP4 ADD DUP8 PUSH2 0x367B JUMP JUMPDEST PUSH2 0x3B29 PUSH1 0x20 DUP4 ADD DUP7 PUSH2 0x367B JUMP JUMPDEST PUSH2 0x3B36 PUSH1 0x40 DUP4 ADD DUP6 PUSH2 0x3A70 JUMP JUMPDEST DUP2 DUP2 SUB PUSH1 0x60 DUP4 ADD MSTORE PUSH2 0x3B48 DUP2 DUP5 PUSH2 0x36A8 JUMP JUMPDEST SWAP1 POP SWAP6 SWAP5 POP POP POP POP POP JUMP JUMPDEST PUSH1 0x0 PUSH1 0x40 DUP3 ADD SWAP1 POP PUSH2 0x3B68 PUSH1 0x0 DUP4 ADD DUP6 PUSH2 0x367B JUMP JUMPDEST PUSH2 0x3B75 PUSH1 0x20 DUP4 ADD DUP5 PUSH2 0x3A70 JUMP JUMPDEST SWAP4 SWAP3 POP POP POP JUMP JUMPDEST PUSH1 0x0 PUSH2 0x100 DUP3 ADD SWAP1 POP PUSH2 0x3B92 PUSH1 0x0 DUP4 ADD DUP12 PUSH2 0x367B JUMP JUMPDEST PUSH2 0x3B9F PUSH1 0x20 DUP4 ADD DUP11 PUSH2 0x3A70 JUMP JUMPDEST PUSH2 0x3BAC PUSH1 0x40 DUP4 ADD DUP10 PUSH2 0x3A7F JUMP JUMPDEST PUSH2 0x3BB9 PUSH1 0x60 DUP4 ADD DUP9 PUSH2 0x367B JUMP JUMPDEST PUSH2 0x3BC6 PUSH1 0x80 DUP4 ADD DUP8 PUSH2 0x3A70 JUMP JUMPDEST PUSH2 0x3BD3 PUSH1 0xA0 DUP4 ADD DUP7 PUSH2 0x3A70 JUMP JUMPDEST PUSH2 0x3BE0 PUSH1 0xC0 DUP4 ADD DUP6 PUSH2 0x3A70 JUMP JUMPDEST PUSH2 0x3BED PUSH1 0xE0 DUP4 ADD DUP5 PUSH2 0x3A70 JUMP JUMPDEST SWAP10 SWAP9 POP POP POP POP POP POP POP POP POP JUMP JUMPDEST PUSH1 0x0 PUSH1 0x20 DUP3 ADD SWAP1 POP PUSH2 0x3C0F PUSH1 0x0 DUP4 ADD DUP5 PUSH2 0x368A JUMP JUMPDEST SWAP3 SWAP2 POP POP JUMP JUMPDEST PUSH1 0x0 PUSH1 0x20 DUP3 ADD SWAP1 POP PUSH2 0x3C2A PUSH1 0x0 DUP4 ADD DUP5 PUSH2 0x3699 JUMP JUMPDEST SWAP3 SWAP2 POP POP JUMP JUMPDEST PUSH1 0x0 PUSH1 0x20 DUP3 ADD SWAP1 POP DUP2 DUP2 SUB PUSH1 0x0 DUP4 ADD MSTORE PUSH2 0x3C4A DUP2 DUP5 PUSH2 0x36E1 JUMP JUMPDEST SWAP1 POP SWAP3 SWAP2 POP POP JUMP JUMPDEST PUSH1 0x0 PUSH1 0x20 DUP3 ADD SWAP1 POP DUP2 DUP2 SUB PUSH1 0x0 DUP4 ADD MSTORE PUSH2 0x3C6B DUP2 PUSH2 0x374B JUMP JUMPDEST SWAP1 POP SWAP2 SWAP1 POP JUMP JUMPDEST PUSH1 0x0 PUSH1 0x20 DUP3 ADD SWAP1 POP DUP2 DUP2 SUB PUSH1 0x0 DUP4 ADD MSTORE PUSH2 0x3C8B DUP2 PUSH2 0x376E JUMP JUMPDEST SWAP1 POP SWAP2 SWAP1 POP JUMP JUMPDEST PUSH1 0x0 PUSH1 0x20 DUP3 ADD SWAP1 POP DUP2 DUP2 SUB PUSH1 0x0 DUP4 ADD MSTORE PUSH2 0x3CAB DUP2 PUSH2 0x3791 JUMP JUMPDEST SWAP1 POP SWAP2 SWAP1 POP JUMP JUMPDEST PUSH1 0x0 PUSH1 0x20 DUP3 ADD SWAP1 POP DUP2 DUP2 SUB PUSH1 0x0 DUP4 ADD MSTORE PUSH2 0x3CCB DUP2 PUSH2 0x37B4 JUMP JUMPDEST SWAP1 POP SWAP2 SWAP1 POP JUMP JUMPDEST PUSH1 0x0 PUSH1 0x20 DUP3 ADD SWAP1 POP DUP2 DUP2 SUB PUSH1 0x0 DUP4 ADD MSTORE PUSH2 0x3CEB DUP2 PUSH2 0x37D7 JUMP JUMPDEST SWAP1 POP SWAP2 SWAP1 POP JUMP JUMPDEST PUSH1 0x0 PUSH1 0x20 DUP3 ADD SWAP1 POP DUP2 DUP2 SUB PUSH1 0x0 DUP4 ADD MSTORE PUSH2 0x3D0B DUP2 PUSH2 0x37FA JUMP JUMPDEST SWAP1 POP SWAP2 SWAP1 POP JUMP JUMPDEST PUSH1 0x0 PUSH1 0x20 DUP3 ADD SWAP1 POP DUP2 DUP2 SUB PUSH1 0x0 DUP4 ADD MSTORE PUSH2 0x3D2B DUP2 PUSH2 0x381D JUMP JUMPDEST SWAP1 POP SWAP2 SWAP1 POP JUMP JUMPDEST PUSH1 0x0 PUSH1 0x20 DUP3 ADD SWAP1 POP DUP2 DUP2 SUB PUSH1 0x0 DUP4 ADD MSTORE PUSH2 0x3D4B DUP2 PUSH2 0x3840 JUMP JUMPDEST SWAP1 POP SWAP2 SWAP1 POP JUMP JUMPDEST PUSH1 0x0 PUSH1 0x20 DUP3 ADD SWAP1 POP DUP2 DUP2 SUB PUSH1 0x0 DUP4 ADD MSTORE PUSH2 0x3D6B DUP2 PUSH2 0x3863 JUMP JUMPDEST SWAP1 POP SWAP2 SWAP1 POP JUMP JUMPDEST PUSH1 0x0 PUSH1 0x20 DUP3 ADD SWAP1 POP DUP2 DUP2 SUB PUSH1 0x0 DUP4 ADD MSTORE PUSH2 0x3D8B DUP2 PUSH2 0x3886 JUMP JUMPDEST SWAP1 POP SWAP2 SWAP1 POP JUMP JUMPDEST PUSH1 0x0 PUSH1 0x20 DUP3 ADD SWAP1 POP DUP2 DUP2 SUB PUSH1 0x0 DUP4 ADD MSTORE PUSH2 0x3DAB DUP2 PUSH2 0x38A9 JUMP JUMPDEST SWAP1 POP SWAP2 SWAP1 POP JUMP JUMPDEST PUSH1 0x0 PUSH1 0x20 DUP3 ADD SWAP1 POP DUP2 DUP2 SUB PUSH1 0x0 DUP4 ADD MSTORE PUSH2 0x3DCB DUP2 PUSH2 0x38CC JUMP JUMPDEST SWAP1 POP SWAP2 SWAP1 POP JUMP JUMPDEST PUSH1 0x0 PUSH1 0x20 DUP3 ADD SWAP1 POP DUP2 DUP2 SUB PUSH1 0x0 DUP4 ADD MSTORE PUSH2 0x3DEB DUP2 PUSH2 0x38EF JUMP JUMPDEST SWAP1 POP SWAP2 SWAP1 POP JUMP JUMPDEST PUSH1 0x0 PUSH1 0x20 DUP3 ADD SWAP1 POP DUP2 DUP2 SUB PUSH1 0x0 DUP4 ADD MSTORE PUSH2 0x3E0B DUP2 PUSH2 0x3912 JUMP JUMPDEST SWAP1 POP SWAP2 SWAP1 POP JUMP JUMPDEST PUSH1 0x0 PUSH1 0x20 DUP3 ADD SWAP1 POP DUP2 DUP2 SUB PUSH1 0x0 DUP4 ADD MSTORE PUSH2 0x3E2B DUP2 PUSH2 0x3935 JUMP JUMPDEST SWAP1 POP SWAP2 SWAP1 POP JUMP JUMPDEST PUSH1 0x0 PUSH1 0x20 DUP3 ADD SWAP1 POP DUP2 DUP2 SUB PUSH1 0x0 DUP4 ADD MSTORE PUSH2 0x3E4B DUP2 PUSH2 0x3958 JUMP JUMPDEST SWAP1 POP SWAP2 SWAP1 POP JUMP JUMPDEST PUSH1 0x0 PUSH1 0x20 DUP3 ADD SWAP1 POP DUP2 DUP2 SUB PUSH1 0x0 DUP4 ADD MSTORE PUSH2 0x3E6B DUP2 PUSH2 0x397B JUMP JUMPDEST SWAP1 POP SWAP2 SWAP1 POP JUMP JUMPDEST PUSH1 0x0 PUSH1 0x20 DUP3 ADD SWAP1 POP DUP2 DUP2 SUB PUSH1 0x0 DUP4 ADD MSTORE PUSH2 0x3E8B DUP2 PUSH2 0x399E JUMP JUMPDEST SWAP1 POP SWAP2 SWAP1 POP JUMP JUMPDEST PUSH1 0x0 PUSH1 0x20 DUP3 ADD SWAP1 POP DUP2 DUP2 SUB PUSH1 0x0 DUP4 ADD MSTORE PUSH2 0x3EAB DUP2 PUSH2 0x39E4 JUMP JUMPDEST SWAP1 POP SWAP2 SWAP1 POP JUMP JUMPDEST PUSH1 0x0 PUSH1 0x20 DUP3 ADD SWAP1 POP DUP2 DUP2 SUB PUSH1 0x0 DUP4 ADD MSTORE PUSH2 0x3ECB DUP2 PUSH2 0x3A2A JUMP JUMPDEST SWAP1 POP SWAP2 SWAP1 POP JUMP JUMPDEST PUSH1 0x0 PUSH1 0x20 DUP3 ADD SWAP1 POP DUP2 DUP2 SUB PUSH1 0x0 DUP4 ADD MSTORE PUSH2 0x3EEB DUP2 PUSH2 0x3A4D JUMP JUMPDEST SWAP1 POP SWAP2 SWAP1 POP JUMP JUMPDEST PUSH1 0x0 PUSH1 0x20 DUP3 ADD SWAP1 POP PUSH2 0x3F07 PUSH1 0x0 DUP4 ADD DUP5 PUSH2 0x3A70 JUMP JUMPDEST SWAP3 SWAP2 POP POP JUMP JUMPDEST PUSH1 0x0 PUSH1 0x20 DUP3 ADD SWAP1 POP PUSH2 0x3F22 PUSH1 0x0 DUP4 ADD DUP5 PUSH2 0x3A7F JUMP JUMPDEST SWAP3 SWAP2 POP POP JUMP JUMPDEST PUSH1 0x0 PUSH2 0x3F32 PUSH2 0x3F43 JUMP JUMPDEST SWAP1 POP PUSH2 0x3F3E DUP3 DUP3 PUSH2 0x41FF JUMP JUMPDEST SWAP2 SWAP1 POP JUMP JUMPDEST PUSH1 0x0 PUSH1 0x40 MLOAD SWAP1 POP SWAP1 JUMP JUMPDEST PUSH1 0x0 PUSH8 0xFFFFFFFFFFFFFFFF DUP3 GT ISZERO PUSH2 0x3F68 JUMPI PUSH2 0x3F67 PUSH2 0x4395 JUMP JUMPDEST JUMPDEST PUSH2 0x3F71 DUP3 PUSH2 0x43D8 JUMP JUMPDEST SWAP1 POP PUSH1 0x20 DUP2 ADD SWAP1 POP SWAP2 SWAP1 POP JUMP JUMPDEST PUSH1 0x0 DUP2 MLOAD SWAP1 POP SWAP2 SWAP1 POP JUMP JUMPDEST PUSH1 0x0 DUP2 MLOAD SWAP1 POP SWAP2 SWAP1 POP JUMP JUMPDEST PUSH1 0x0 DUP3 DUP3 MSTORE PUSH1 0x20 DUP3 ADD SWAP1 POP SWAP3 SWAP2 POP POP JUMP JUMPDEST PUSH1 0x0 DUP3 DUP3 MSTORE PUSH1 0x20 DUP3 ADD SWAP1 POP SWAP3 SWAP2 POP POP JUMP JUMPDEST PUSH1 0x0 DUP2 SWAP1 POP SWAP3 SWAP2 POP POP JUMP JUMPDEST PUSH1 0x0 PUSH2 0x3FCC DUP3 PUSH2 0x414A JUMP JUMPDEST SWAP2 POP PUSH2 0x3FD7 DUP4 PUSH2 0x414A JUMP JUMPDEST SWAP3 POP DUP3 PUSH32 0xFFFFFFFFFFFFFFFFFFFFFFFFFFFFFFFFFFFFFFFFFFFFFFFFFFFFFFFFFFFFFFFF SUB DUP3 GT ISZERO PUSH2 0x400C JUMPI PUSH2 0x400B PUSH2 0x42AA JUMP JUMPDEST JUMPDEST DUP3 DUP3 ADD SWAP1 POP SWAP3 SWAP2 POP POP JUMP JUMPDEST PUSH1 0x0 PUSH2 0x4022 DUP3 PUSH2 0x414A JUMP JUMPDEST SWAP2 POP PUSH2 0x402D DUP4 PUSH2 0x414A JUMP JUMPDEST SWAP3 POP DUP3 PUSH2 0x403D JUMPI PUSH2 0x403C PUSH2 0x42D9 JUMP JUMPDEST JUMPDEST DUP3 DUP3 DIV SWAP1 POP SWAP3 SWAP2 POP POP JUMP JUMPDEST PUSH1 0x0 PUSH2 0x4053 DUP3 PUSH2 0x414A JUMP JUMPDEST SWAP2 POP PUSH2 0x405E DUP4 PUSH2 0x414A JUMP JUMPDEST SWAP3 POP DUP2 PUSH32 0xFFFFFFFFFFFFFFFFFFFFFFFFFFFFFFFFFFFFFFFFFFFFFFFFFFFFFFFFFFFFFFFF DIV DUP4 GT DUP3 ISZERO ISZERO AND ISZERO PUSH2 0x4097 JUMPI PUSH2 0x4096 PUSH2 0x42AA JUMP JUMPDEST JUMPDEST DUP3 DUP3 MUL SWAP1 POP SWAP3 SWAP2 POP POP JUMP JUMPDEST PUSH1 0x0 PUSH2 0x40AD DUP3 PUSH2 0x414A JUMP JUMPDEST SWAP2 POP PUSH2 0x40B8 DUP4 PUSH2 0x414A JUMP JUMPDEST SWAP3 POP DUP3 DUP3 LT ISZERO PUSH2 0x40CB JUMPI PUSH2 0x40CA PUSH2 0x42AA JUMP JUMPDEST JUMPDEST DUP3 DUP3 SUB SWAP1 POP SWAP3 SWAP2 POP POP JUMP JUMPDEST PUSH1 0x0 PUSH2 0x40E1 DUP3 PUSH2 0x412A JUMP JUMPDEST SWAP1 POP SWAP2 SWAP1 POP JUMP JUMPDEST PUSH1 0x0 DUP2 ISZERO ISZERO SWAP1 POP SWAP2 SWAP1 POP JUMP JUMPDEST PUSH1 0x0 DUP2 SWAP1 POP SWAP2 SWAP1 POP JUMP JUMPDEST PUSH1 0x0 PUSH32 0xFFFFFFFF00000000000000000000000000000000000000000000000000000000 DUP3 AND SWAP1 POP SWAP2 SWAP1 POP JUMP JUMPDEST PUSH1 0x0 PUSH20 0xFFFFFFFFFFFFFFFFFFFFFFFFFFFFFFFFFFFFFFFF DUP3 AND SWAP1 POP SWAP2 SWAP1 POP JUMP JUMPDEST PUSH1 0x0 DUP2 SWAP1 POP SWAP2 SWAP1 POP JUMP JUMPDEST PUSH1 0x0 PUSH1 0xFF DUP3 AND SWAP1 POP SWAP2 SWAP1 POP JUMP JUMPDEST DUP3 DUP2 DUP4 CALLDATACOPY PUSH1 0x0 DUP4 DUP4 ADD MSTORE POP POP POP JUMP JUMPDEST PUSH1 0x0 JUMPDEST DUP4 DUP2 LT ISZERO PUSH2 0x418E JUMPI DUP1 DUP3 ADD MLOAD DUP2 DUP5 ADD MSTORE PUSH1 0x20 DUP2 ADD SWAP1 POP PUSH2 0x4173 JUMP JUMPDEST DUP4 DUP2 GT ISZERO PUSH2 0x419D JUMPI PUSH1 0x0 DUP5 DUP5 ADD MSTORE JUMPDEST POP POP POP POP JUMP JUMPDEST PUSH1 0x0 PUSH2 0x41AE DUP3 PUSH2 0x414A JUMP JUMPDEST SWAP2 POP PUSH1 0x0 DUP3 EQ ISZERO PUSH2 0x41C2 JUMPI PUSH2 0x41C1 PUSH2 0x42AA JUMP JUMPDEST JUMPDEST PUSH1 0x1 DUP3 SUB SWAP1 POP SWAP2 SWAP1 POP JUMP JUMPDEST PUSH1 0x0 PUSH1 0x2 DUP3 DIV SWAP1 POP PUSH1 0x1 DUP3 AND DUP1 PUSH2 0x41E5 JUMPI PUSH1 0x7F DUP3 AND SWAP2 POP JUMPDEST PUSH1 0x20 DUP3 LT DUP2 EQ ISZERO PUSH2 0x41F9 JUMPI PUSH2 0x41F8 PUSH2 0x4337 JUMP JUMPDEST JUMPDEST POP SWAP2 SWAP1 POP JUMP JUMPDEST PUSH2 0x4208 DUP3 PUSH2 0x43D8 JUMP JUMPDEST DUP2 ADD DUP2 DUP2 LT PUSH8 0xFFFFFFFFFFFFFFFF DUP3 GT OR ISZERO PUSH2 0x4227 JUMPI PUSH2 0x4226 PUSH2 0x4395 JUMP JUMPDEST JUMPDEST DUP1 PUSH1 0x40 MSTORE POP POP POP JUMP JUMPDEST PUSH1 0x0 PUSH2 0x423B DUP3 PUSH2 0x414A JUMP JUMPDEST SWAP2 POP PUSH32 0xFFFFFFFFFFFFFFFFFFFFFFFFFFFFFFFFFFFFFFFFFFFFFFFFFFFFFFFFFFFFFFFF DUP3 EQ ISZERO PUSH2 0x426E JUMPI PUSH2 0x426D PUSH2 0x42AA JUMP JUMPDEST JUMPDEST PUSH1 0x1 DUP3 ADD SWAP1 POP SWAP2 SWAP1 POP JUMP JUMPDEST PUSH1 0x0 PUSH2 0x4284 DUP3 PUSH2 0x414A JUMP JUMPDEST SWAP2 POP PUSH2 0x428F DUP4 PUSH2 0x414A JUMP JUMPDEST SWAP3 POP DUP3 PUSH2 0x429F JUMPI PUSH2 0x429E PUSH2 0x42D9 JUMP JUMPDEST JUMPDEST DUP3 DUP3 MOD SWAP1 POP SWAP3 SWAP2 POP POP JUMP JUMPDEST PUSH32 0x4E487B7100000000000000000000000000000000000000000000000000000000 PUSH1 0x0 MSTORE PUSH1 0x11 PUSH1 0x4 MSTORE PUSH1 0x24 PUSH1 0x0 REVERT JUMPDEST PUSH32 0x4E487B7100000000000000000000000000000000000000000000000000000000 PUSH1 0x0 MSTORE PUSH1 0x12 PUSH1 0x4 MSTORE PUSH1 0x24 PUSH1 0x0 REVERT JUMPDEST PUSH32 0x4E487B7100000000000000000000000000000000000000000000000000000000 PUSH1 0x0 MSTORE PUSH1 0x21 PUSH1 0x4 MSTORE PUSH1 0x24 PUSH1 0x0 REVERT JUMPDEST PUSH32 0x4E487B7100000000000000000000000000000000000000000000000000000000 PUSH1 0x0 MSTORE PUSH1 0x22 PUSH1 0x4 MSTORE PUSH1 0x24 PUSH1 0x0 REVERT JUMPDEST PUSH32 0x4E487B7100000000000000000000000000000000000000000000000000000000 PUSH1 0x0 MSTORE PUSH1 0x32 PUSH1 0x4 MSTORE PUSH1 0x24 PUSH1 0x0 REVERT JUMPDEST PUSH32 0x4E487B7100000000000000000000000000000000000000000000000000000000 PUSH1 0x0 MSTORE PUSH1 0x41 PUSH1 0x4 MSTORE PUSH1 0x24 PUSH1 0x0 REVERT JUMPDEST PUSH1 0x0 DUP1 REVERT JUMPDEST PUSH1 0x0 DUP1 REVERT JUMPDEST PUSH1 0x0 DUP1 REVERT JUMPDEST PUSH1 0x0 DUP1 REVERT JUMPDEST PUSH1 0x0 PUSH1 0x1F NOT PUSH1 0x1F DUP4 ADD AND SWAP1 POP SWAP2 SWAP1 POP JUMP JUMPDEST PUSH32 0x537472696E67733A20686578206C656E67746820696E73756666696369656E74 PUSH1 0x0 DUP3 ADD MSTORE POP JUMP JUMPDEST PUSH32 0x546F6B656E206E6F7420796574206D696E7465642E0000000000000000000000 PUSH1 0x0 DUP3 ADD MSTORE POP JUMP JUMPDEST PUSH32 0x4552433732313A207472616E7366657220746F206E6F6E204552433732315265 PUSH1 0x0 DUP3 ADD MSTORE PUSH32 0x63656976657220696D706C656D656E7465720000000000000000000000000000 PUSH1 0x20 DUP3 ADD MSTORE POP JUMP JUMPDEST PUSH32 0x4552433732313A207472616E736665722066726F6D20696E636F727265637420 PUSH1 0x0 DUP3 ADD MSTORE PUSH32 0x6F776E6572000000000000000000000000000000000000000000000000000000 PUSH1 0x20 DUP3 ADD MSTORE POP JUMP JUMPDEST PUSH32 0x4552433732313A20746F6B656E20616C7265616479206D696E74656400000000 PUSH1 0x0 DUP3 ADD MSTORE POP JUMP JUMPDEST PUSH32 0x556E61626C6520746F206D696E7420746F6B656E732061667465722074686520 PUSH1 0x0 DUP3 ADD MSTORE PUSH32 0x7469636B6574207469657220636C6F7365206461746520686173207061737365 PUSH1 0x20 DUP3 ADD MSTORE PUSH32 0x642E000000000000000000000000000000000000000000000000000000000000 PUSH1 0x40 DUP3 ADD MSTORE POP JUMP JUMPDEST PUSH32 0x4552433732313A207472616E7366657220746F20746865207A65726F20616464 PUSH1 0x0 DUP3 ADD MSTORE PUSH32 0x7265737300000000000000000000000000000000000000000000000000000000 PUSH1 0x20 DUP3 ADD MSTORE POP JUMP JUMPDEST PUSH32 0x4552433732313A20617070726F766520746F2063616C6C657200000000000000 PUSH1 0x0 DUP3 ADD MSTORE POP JUMP JUMPDEST PUSH32 0x5469636B657420737570706C7920736F6C64206F757400000000000000000000 PUSH1 0x0 DUP3 ADD MSTORE POP JUMP JUMPDEST PUSH32 0x546F6B656E2068617320616C7265616479206265656E207363616E6E65640000 PUSH1 0x0 DUP3 ADD MSTORE POP JUMP JUMPDEST PUSH32 0x5061757361626C653A2070617573656400000000000000000000000000000000 PUSH1 0x0 DUP3 ADD MSTORE POP JUMP JUMPDEST PUSH32 0x4552433732313A2061646472657373207A65726F206973206E6F742061207661 PUSH1 0x0 DUP3 ADD MSTORE PUSH32 0x6C6964206F776E65720000000000000000000000000000000000000000000000 PUSH1 0x20 DUP3 ADD MSTORE POP JUMP JUMPDEST PUSH32 0x45524337323155524953746F726167653A2055524920736574206F66206E6F6E PUSH1 0x0 DUP3 ADD MSTORE PUSH32 0x6578697374656E7420746F6B656E000000000000000000000000000000000000 PUSH1 0x20 DUP3 ADD MSTORE POP JUMP JUMPDEST PUSH32 0x4552433732313A20617070726F76652063616C6C6572206973206E6F7420746F PUSH1 0x0 DUP3 ADD MSTORE PUSH32 0x6B656E206F776E6572206E6F7220617070726F76656420666F7220616C6C0000 PUSH1 0x20 DUP3 ADD MSTORE POP JUMP JUMPDEST PUSH32 0x4552433732313A206D696E7420746F20746865207A65726F2061646472657373 PUSH1 0x0 DUP3 ADD MSTORE POP JUMP JUMPDEST PUSH32 0x526563697069656E742063616E277420626520746865207A65726F2061646472 PUSH1 0x0 DUP3 ADD MSTORE PUSH32 0x6573732E00000000000000000000000000000000000000000000000000000000 PUSH1 0x20 DUP3 ADD MSTORE POP JUMP JUMPDEST PUSH32 0x4552433732313A20696E76616C696420746F6B656E2049440000000000000000 PUSH1 0x0 DUP3 ADD MSTORE POP JUMP JUMPDEST PUSH32 0x4552433732313A20617070726F76616C20746F2063757272656E74206F776E65 PUSH1 0x0 DUP3 ADD MSTORE PUSH32 0x7200000000000000000000000000000000000000000000000000000000000000 PUSH1 0x20 DUP3 ADD MSTORE POP JUMP JUMPDEST PUSH32 0x416363657373436F6E74726F6C3A206163636F756E7420000000000000000000 PUSH1 0x0 DUP3 ADD MSTORE POP JUMP JUMPDEST PUSH32 0x4552433732313A2063616C6C6572206973206E6F7420746F6B656E206F776E65 PUSH1 0x0 DUP3 ADD MSTORE PUSH32 0x72206E6F7220617070726F766564000000000000000000000000000000000000 PUSH1 0x20 DUP3 ADD MSTORE POP JUMP JUMPDEST PUSH32 0x206973206D697373696E6720726F6C6520000000000000000000000000000000 PUSH1 0x0 DUP3 ADD MSTORE POP JUMP JUMPDEST PUSH32 0x416363657373436F6E74726F6C3A2063616E206F6E6C792072656E6F756E6365 PUSH1 0x0 DUP3 ADD MSTORE PUSH32 0x20726F6C657320666F722073656C660000000000000000000000000000000000 PUSH1 0x20 DUP3 ADD MSTORE POP JUMP JUMPDEST PUSH32 0x546F6B656E20686173206265656E20696E76616C696461746564000000000000 PUSH1 0x0 DUP3 ADD MSTORE POP JUMP JUMPDEST PUSH2 0x4969 DUP2 PUSH2 0x40D6 JUMP JUMPDEST DUP2 EQ PUSH2 0x4974 JUMPI PUSH1 0x0 DUP1 REVERT JUMPDEST POP JUMP JUMPDEST PUSH2 0x4980 DUP2 PUSH2 0x40E8 JUMP JUMPDEST DUP2 EQ PUSH2 0x498B JUMPI PUSH1 0x0 DUP1 REVERT JUMPDEST POP JUMP JUMPDEST PUSH2 0x4997 DUP2 PUSH2 0x40F4 JUMP JUMPDEST DUP2 EQ PUSH2 0x49A2 JUMPI PUSH1 0x0 DUP1 REVERT JUMPDEST POP JUMP JUMPDEST PUSH2 0x49AE DUP2 PUSH2 0x40FE JUMP JUMPDEST DUP2 EQ PUSH2 0x49B9 JUMPI PUSH1 0x0 DUP1 REVERT JUMPDEST POP JUMP JUMPDEST PUSH2 0x49C5 DUP2 PUSH2 0x414A JUMP JUMPDEST DUP2 EQ PUSH2 0x49D0 JUMPI PUSH1 0x0 DUP1 REVERT JUMPDEST POP JUMP JUMPDEST PUSH2 0x49DC DUP2 PUSH2 0x4154 JUMP JUMPDEST DUP2 EQ PUSH2 0x49E7 JUMPI PUSH1 0x0 DUP1 REVERT JUMPDEST POP JUMP INVALID LOG2 PUSH5 0x6970667358 0x22 SLT KECCAK256 0xB8 ADDRESS OR 0x4E 0xE1 DUP5 0xB5 BLOCKHASH EXP PUSH21 0x45694964944D060A20EA9C9896075195AF9447E8E6 0xA6 PUSH5 0x736F6C6343 STOP ADDMOD MOD STOP CALLER "
		},
		"gasEstimates": {
			"creation": {
				"codeDepositCost": "3795200",
				"executionCost": "infinite",
				"totalCost": "infinite"
			},
			"external": {
				"CONTROLLER()": "461",
				"DEFAULT_ADMIN_ROLE()": "402",
				"_tokenURI()": "infinite",
				"approve(address,uint256)": "infinite",
				"balanceOf(address)": "3034",
				"burnNFT(uint256)": "infinite",
				"closeDate()": "2496",
				"eventEndDate()": "2474",
				"eventOrganizer()": "2560",
				"getApproved(uint256)": "5302",
				"getRoleAdmin(bytes32)": "infinite",
				"getTotalTicketsForSale()": "infinite",
				"grantRole(bytes32,address)": "infinite",
				"hasRole(bytes32,address)": "3252",
				"increaseTicketSupply(uint256)": "infinite",
				"isApprovedForAll(address,address)": "infinite",
				"listTicketContract()": "infinite",
				"liveDate()": "2519",
				"marketplaceContract()": "2603",
				"mintNFT(address)": "infinite",
				"name()": "infinite",
				"ownerOf(uint256)": "3092",
				"paused()": "2590",
				"primarySalePrice()": "2583",
				"renounceRole(bytes32,address)": "infinite",
				"revokeRole(bytes32,address)": "infinite",
				"royaltyInfo(uint256,uint256)": "infinite",
				"safeTransferFrom(address,address,uint256)": "infinite",
				"safeTransferFrom(address,address,uint256,bytes)": "infinite",
				"secondaryMarkup()": "2538",
				"setApprovalForAll(address,bool)": "infinite",
				"setEventOrganizer(address)": "infinite",
				"setMarketplaceContract(address)": "infinite",
				"setPrimarySalePrice(uint256)": "infinite",
				"setSecondaryMarkup(uint8)": "24769",
				"supply()": "2498",
				"supportsInterface(bytes4)": "1087",
				"symbol()": "infinite",
				"tokenInvalidated(uint256)": "infinite",
				"tokenScanned(uint256)": "infinite",
				"tokenURI(uint256)": "infinite",
				"transferFrom(address,address,uint256)": "infinite"
			},
			"internal": {
				"_burn(uint256)": "infinite"
			}
		},
		"methodIdentifiers": {
			"CONTROLLER()": "ee0fc121",
			"DEFAULT_ADMIN_ROLE()": "a217fddf",
			"_tokenURI()": "b4ce37d2",
			"approve(address,uint256)": "095ea7b3",
			"balanceOf(address)": "70a08231",
			"burnNFT(uint256)": "2890e0d7",
			"closeDate()": "48d79b6d",
			"eventEndDate()": "9eab643f",
			"eventOrganizer()": "7514d7cb",
			"getApproved(uint256)": "081812fc",
			"getRoleAdmin(bytes32)": "248a9ca3",
			"getTotalTicketsForSale()": "e66d772c",
			"grantRole(bytes32,address)": "2f2ff15d",
			"hasRole(bytes32,address)": "91d14854",
			"increaseTicketSupply(uint256)": "298505da",
			"isApprovedForAll(address,address)": "e985e9c5",
			"listTicketContract()": "8f60b8e9",
			"liveDate()": "8f810fec",
			"marketplaceContract()": "d1bb5cf1",
			"mintNFT(address)": "54ba0f27",
			"name()": "06fdde03",
			"ownerOf(uint256)": "6352211e",
			"paused()": "5c975abb",
			"primarySalePrice()": "f7d506a5",
			"renounceRole(bytes32,address)": "36568abe",
			"revokeRole(bytes32,address)": "d547741f",
			"royaltyInfo(uint256,uint256)": "2a55205a",
			"safeTransferFrom(address,address,uint256)": "42842e0e",
			"safeTransferFrom(address,address,uint256,bytes)": "b88d4fde",
			"secondaryMarkup()": "cc0de97b",
			"setApprovalForAll(address,bool)": "a22cb465",
			"setEventOrganizer(address)": "241752cc",
			"setMarketplaceContract(address)": "1102610e",
			"setPrimarySalePrice(uint256)": "da81980b",
			"setSecondaryMarkup(uint8)": "23f663d5",
			"supply()": "047fc9aa",
			"supportsInterface(bytes4)": "01ffc9a7",
			"symbol()": "95d89b41",
			"tokenInvalidated(uint256)": "eadc7e42",
			"tokenScanned(uint256)": "e049b203",
			"tokenURI(uint256)": "c87b56dd",
			"transferFrom(address,address,uint256)": "23b872dd"
		}
	},
	"abi": [
		{
			"inputs": [
				{
					"internalType": "string",
					"name": "_name",
					"type": "string"
				},
				{
					"internalType": "string",
					"name": "_symbol",
					"type": "string"
				},
				{
					"internalType": "address",
					"name": "_marketplaceContract",
					"type": "address"
				},
				{
					"internalType": "address",
					"name": "_eventOrganizer",
					"type": "address"
				},
				{
					"internalType": "string",
					"name": "tokenURI",
					"type": "string"
				},
				{
					"internalType": "uint256",
					"name": "_primarySalePrice",
					"type": "uint256"
				},
				{
					"internalType": "uint8",
					"name": "_secondaryMarkup",
					"type": "uint8"
				},
				{
					"internalType": "uint256",
					"name": "_eventEndDate",
					"type": "uint256"
				},
				{
					"internalType": "uint256",
					"name": "_liveDate",
					"type": "uint256"
				},
				{
					"internalType": "uint256",
					"name": "_closeDate",
					"type": "uint256"
				},
				{
					"internalType": "uint256",
					"name": "_supply",
					"type": "uint256"
				}
			],
			"stateMutability": "nonpayable",
			"type": "constructor"
		},
		{
			"anonymous": false,
			"inputs": [
				{
					"indexed": true,
					"internalType": "address",
					"name": "owner",
					"type": "address"
				},
				{
					"indexed": true,
					"internalType": "address",
					"name": "approved",
					"type": "address"
				},
				{
					"indexed": true,
					"internalType": "uint256",
					"name": "tokenId",
					"type": "uint256"
				}
			],
			"name": "Approval",
			"type": "event"
		},
		{
			"anonymous": false,
			"inputs": [
				{
					"indexed": true,
					"internalType": "address",
					"name": "owner",
					"type": "address"
				},
				{
					"indexed": true,
					"internalType": "address",
					"name": "operator",
					"type": "address"
				},
				{
					"indexed": false,
					"internalType": "bool",
					"name": "approved",
					"type": "bool"
				}
			],
			"name": "ApprovalForAll",
			"type": "event"
		},
		{
			"anonymous": false,
			"inputs": [
				{
					"indexed": false,
					"internalType": "uint256",
					"name": "",
					"type": "uint256"
				}
			],
			"name": "NFTMinted",
			"type": "event"
		},
		{
			"anonymous": false,
			"inputs": [
				{
					"indexed": false,
					"internalType": "address",
					"name": "account",
					"type": "address"
				}
			],
			"name": "Paused",
			"type": "event"
		},
		{
			"anonymous": false,
			"inputs": [
				{
					"indexed": true,
					"internalType": "bytes32",
					"name": "role",
					"type": "bytes32"
				},
				{
					"indexed": true,
					"internalType": "bytes32",
					"name": "previousAdminRole",
					"type": "bytes32"
				},
				{
					"indexed": true,
					"internalType": "bytes32",
					"name": "newAdminRole",
					"type": "bytes32"
				}
			],
			"name": "RoleAdminChanged",
			"type": "event"
		},
		{
			"anonymous": false,
			"inputs": [
				{
					"indexed": true,
					"internalType": "bytes32",
					"name": "role",
					"type": "bytes32"
				},
				{
					"indexed": true,
					"internalType": "address",
					"name": "account",
					"type": "address"
				},
				{
					"indexed": true,
					"internalType": "address",
					"name": "sender",
					"type": "address"
				}
			],
			"name": "RoleGranted",
			"type": "event"
		},
		{
			"anonymous": false,
			"inputs": [
				{
					"indexed": true,
					"internalType": "bytes32",
					"name": "role",
					"type": "bytes32"
				},
				{
					"indexed": true,
					"internalType": "address",
					"name": "account",
					"type": "address"
				},
				{
					"indexed": true,
					"internalType": "address",
					"name": "sender",
					"type": "address"
				}
			],
			"name": "RoleRevoked",
			"type": "event"
		},
		{
			"anonymous": false,
			"inputs": [
				{
					"indexed": false,
					"internalType": "uint256",
					"name": "",
					"type": "uint256"
				}
			],
			"name": "TokenInvalidated",
			"type": "event"
		},
		{
			"anonymous": false,
			"inputs": [
				{
					"indexed": false,
					"internalType": "uint256",
					"name": "",
					"type": "uint256"
				}
			],
			"name": "TokenScanned",
			"type": "event"
		},
		{
			"anonymous": false,
			"inputs": [
				{
					"indexed": true,
					"internalType": "address",
					"name": "from",
					"type": "address"
				},
				{
					"indexed": true,
					"internalType": "address",
					"name": "to",
					"type": "address"
				},
				{
					"indexed": true,
					"internalType": "uint256",
					"name": "tokenId",
					"type": "uint256"
				}
			],
			"name": "Transfer",
			"type": "event"
		},
		{
			"anonymous": false,
			"inputs": [
				{
					"indexed": false,
					"internalType": "address",
					"name": "account",
					"type": "address"
				}
			],
			"name": "Unpaused",
			"type": "event"
		},
		{
			"inputs": [],
			"name": "CONTROLLER",
			"outputs": [
				{
					"internalType": "bytes32",
					"name": "",
					"type": "bytes32"
				}
			],
			"stateMutability": "view",
			"type": "function"
		},
		{
			"inputs": [],
			"name": "DEFAULT_ADMIN_ROLE",
			"outputs": [
				{
					"internalType": "bytes32",
					"name": "",
					"type": "bytes32"
				}
			],
			"stateMutability": "view",
			"type": "function"
		},
		{
			"inputs": [],
			"name": "_tokenURI",
			"outputs": [
				{
					"internalType": "string",
					"name": "",
					"type": "string"
				}
			],
			"stateMutability": "view",
			"type": "function"
		},
		{
			"inputs": [
				{
					"internalType": "address",
					"name": "to",
					"type": "address"
				},
				{
					"internalType": "uint256",
					"name": "tokenId",
					"type": "uint256"
				}
			],
			"name": "approve",
			"outputs": [],
			"stateMutability": "nonpayable",
			"type": "function"
		},
		{
			"inputs": [
				{
					"internalType": "address",
					"name": "owner",
					"type": "address"
				}
			],
			"name": "balanceOf",
			"outputs": [
				{
					"internalType": "uint256",
					"name": "",
					"type": "uint256"
				}
			],
			"stateMutability": "view",
			"type": "function"
		},
		{
			"inputs": [
				{
					"internalType": "uint256",
					"name": "tokenId",
					"type": "uint256"
				}
			],
			"name": "burnNFT",
			"outputs": [],
			"stateMutability": "nonpayable",
			"type": "function"
		},
		{
			"inputs": [],
			"name": "closeDate",
			"outputs": [
				{
					"internalType": "uint256",
					"name": "",
					"type": "uint256"
				}
			],
			"stateMutability": "view",
			"type": "function"
		},
		{
			"inputs": [],
			"name": "eventEndDate",
			"outputs": [
				{
					"internalType": "uint256",
					"name": "",
					"type": "uint256"
				}
			],
			"stateMutability": "view",
			"type": "function"
		},
		{
			"inputs": [],
			"name": "eventOrganizer",
			"outputs": [
				{
					"internalType": "address",
					"name": "",
					"type": "address"
				}
			],
			"stateMutability": "view",
			"type": "function"
		},
		{
			"inputs": [
				{
					"internalType": "uint256",
					"name": "tokenId",
					"type": "uint256"
				}
			],
			"name": "getApproved",
			"outputs": [
				{
					"internalType": "address",
					"name": "",
					"type": "address"
				}
			],
			"stateMutability": "view",
			"type": "function"
		},
		{
			"inputs": [
				{
					"internalType": "bytes32",
					"name": "role",
					"type": "bytes32"
				}
			],
			"name": "getRoleAdmin",
			"outputs": [
				{
					"internalType": "bytes32",
					"name": "",
					"type": "bytes32"
				}
			],
			"stateMutability": "view",
			"type": "function"
		},
		{
			"inputs": [],
			"name": "getTotalTicketsForSale",
			"outputs": [
				{
					"internalType": "uint256",
					"name": "",
					"type": "uint256"
				}
			],
			"stateMutability": "view",
			"type": "function"
		},
		{
			"inputs": [
				{
					"internalType": "bytes32",
					"name": "role",
					"type": "bytes32"
				},
				{
					"internalType": "address",
					"name": "account",
					"type": "address"
				}
			],
			"name": "grantRole",
			"outputs": [],
			"stateMutability": "nonpayable",
			"type": "function"
		},
		{
			"inputs": [
				{
					"internalType": "bytes32",
					"name": "role",
					"type": "bytes32"
				},
				{
					"internalType": "address",
					"name": "account",
					"type": "address"
				}
			],
			"name": "hasRole",
			"outputs": [
				{
					"internalType": "bool",
					"name": "",
					"type": "bool"
				}
			],
			"stateMutability": "view",
			"type": "function"
		},
		{
			"inputs": [
				{
					"internalType": "uint256",
					"name": "additionalSupply",
					"type": "uint256"
				}
			],
			"name": "increaseTicketSupply",
			"outputs": [
				{
					"internalType": "uint256",
					"name": "",
					"type": "uint256"
				}
			],
			"stateMutability": "nonpayable",
			"type": "function"
		},
		{
			"inputs": [
				{
					"internalType": "address",
					"name": "owner",
					"type": "address"
				},
				{
					"internalType": "address",
					"name": "operator",
					"type": "address"
				}
			],
			"name": "isApprovedForAll",
			"outputs": [
				{
					"internalType": "bool",
					"name": "",
					"type": "bool"
				}
			],
			"stateMutability": "view",
			"type": "function"
		},
		{
			"inputs": [],
			"name": "listTicketContract",
			"outputs": [],
			"stateMutability": "nonpayable",
			"type": "function"
		},
		{
			"inputs": [],
			"name": "liveDate",
			"outputs": [
				{
					"internalType": "uint256",
					"name": "",
					"type": "uint256"
				}
			],
			"stateMutability": "view",
			"type": "function"
		},
		{
			"inputs": [],
			"name": "marketplaceContract",
			"outputs": [
				{
					"internalType": "address",
					"name": "",
					"type": "address"
				}
			],
			"stateMutability": "view",
			"type": "function"
		},
		{
			"inputs": [
				{
					"internalType": "address",
					"name": "recipient",
					"type": "address"
				}
			],
			"name": "mintNFT",
			"outputs": [
				{
					"internalType": "uint256",
					"name": "",
					"type": "uint256"
				}
			],
			"stateMutability": "nonpayable",
			"type": "function"
		},
		{
			"inputs": [],
			"name": "name",
			"outputs": [
				{
					"internalType": "string",
					"name": "",
					"type": "string"
				}
			],
			"stateMutability": "view",
			"type": "function"
		},
		{
			"inputs": [
				{
					"internalType": "uint256",
					"name": "tokenId",
					"type": "uint256"
				}
			],
			"name": "ownerOf",
			"outputs": [
				{
					"internalType": "address",
					"name": "",
					"type": "address"
				}
			],
			"stateMutability": "view",
			"type": "function"
		},
		{
			"inputs": [],
			"name": "paused",
			"outputs": [
				{
					"internalType": "bool",
					"name": "",
					"type": "bool"
				}
			],
			"stateMutability": "view",
			"type": "function"
		},
		{
			"inputs": [],
			"name": "primarySalePrice",
			"outputs": [
				{
					"internalType": "uint256",
					"name": "",
					"type": "uint256"
				}
			],
			"stateMutability": "view",
			"type": "function"
		},
		{
			"inputs": [
				{
					"internalType": "bytes32",
					"name": "role",
					"type": "bytes32"
				},
				{
					"internalType": "address",
					"name": "account",
					"type": "address"
				}
			],
			"name": "renounceRole",
			"outputs": [],
			"stateMutability": "nonpayable",
			"type": "function"
		},
		{
			"inputs": [
				{
					"internalType": "bytes32",
					"name": "role",
					"type": "bytes32"
				},
				{
					"internalType": "address",
					"name": "account",
					"type": "address"
				}
			],
			"name": "revokeRole",
			"outputs": [],
			"stateMutability": "nonpayable",
			"type": "function"
		},
		{
			"inputs": [
				{
					"internalType": "uint256",
					"name": "_tokenId",
					"type": "uint256"
				},
				{
					"internalType": "uint256",
					"name": "_salePrice",
					"type": "uint256"
				}
			],
			"name": "royaltyInfo",
			"outputs": [
				{
					"internalType": "address",
					"name": "",
					"type": "address"
				},
				{
					"internalType": "uint256",
					"name": "",
					"type": "uint256"
				}
			],
			"stateMutability": "view",
			"type": "function"
		},
		{
			"inputs": [
				{
					"internalType": "address",
					"name": "from",
					"type": "address"
				},
				{
					"internalType": "address",
					"name": "to",
					"type": "address"
				},
				{
					"internalType": "uint256",
					"name": "tokenId",
					"type": "uint256"
				}
			],
			"name": "safeTransferFrom",
			"outputs": [],
			"stateMutability": "nonpayable",
			"type": "function"
		},
		{
			"inputs": [
				{
					"internalType": "address",
					"name": "from",
					"type": "address"
				},
				{
					"internalType": "address",
					"name": "to",
					"type": "address"
				},
				{
					"internalType": "uint256",
					"name": "tokenId",
					"type": "uint256"
				},
				{
					"internalType": "bytes",
					"name": "data",
					"type": "bytes"
				}
			],
			"name": "safeTransferFrom",
			"outputs": [],
			"stateMutability": "nonpayable",
			"type": "function"
		},
		{
			"inputs": [],
			"name": "secondaryMarkup",
			"outputs": [
				{
					"internalType": "uint8",
					"name": "",
					"type": "uint8"
				}
			],
			"stateMutability": "view",
			"type": "function"
		},
		{
			"inputs": [
				{
					"internalType": "address",
					"name": "operator",
					"type": "address"
				},
				{
					"internalType": "bool",
					"name": "approved",
					"type": "bool"
				}
			],
			"name": "setApprovalForAll",
			"outputs": [],
			"stateMutability": "nonpayable",
			"type": "function"
		},
		{
			"inputs": [
				{
					"internalType": "address",
					"name": "newOrganizer",
					"type": "address"
				}
			],
			"name": "setEventOrganizer",
			"outputs": [],
			"stateMutability": "nonpayable",
			"type": "function"
		},
		{
			"inputs": [
				{
					"internalType": "address",
					"name": "newMarketplace",
					"type": "address"
				}
			],
			"name": "setMarketplaceContract",
			"outputs": [],
			"stateMutability": "nonpayable",
			"type": "function"
		},
		{
			"inputs": [
				{
					"internalType": "uint256",
					"name": "newPrice",
					"type": "uint256"
				}
			],
			"name": "setPrimarySalePrice",
			"outputs": [],
			"stateMutability": "nonpayable",
			"type": "function"
		},
		{
			"inputs": [
				{
					"internalType": "uint8",
					"name": "newMarkup",
					"type": "uint8"
				}
			],
			"name": "setSecondaryMarkup",
			"outputs": [],
			"stateMutability": "nonpayable",
			"type": "function"
		},
		{
			"inputs": [],
			"name": "supply",
			"outputs": [
				{
					"internalType": "uint256",
					"name": "",
					"type": "uint256"
				}
			],
			"stateMutability": "view",
			"type": "function"
		},
		{
			"inputs": [
				{
					"internalType": "bytes4",
					"name": "interfaceId",
					"type": "bytes4"
				}
			],
			"name": "supportsInterface",
			"outputs": [
				{
					"internalType": "bool",
					"name": "",
					"type": "bool"
				}
			],
			"stateMutability": "view",
			"type": "function"
		},
		{
			"inputs": [],
			"name": "symbol",
			"outputs": [
				{
					"internalType": "string",
					"name": "",
					"type": "string"
				}
			],
			"stateMutability": "view",
			"type": "function"
		},
		{
			"inputs": [
				{
					"internalType": "uint256",
					"name": "tokenId",
					"type": "uint256"
				}
			],
			"name": "tokenInvalidated",
			"outputs": [],
			"stateMutability": "nonpayable",
			"type": "function"
		},
		{
			"inputs": [
				{
					"internalType": "uint256",
					"name": "tokenId",
					"type": "uint256"
				}
			],
			"name": "tokenScanned",
			"outputs": [],
			"stateMutability": "nonpayable",
			"type": "function"
		},
		{
			"inputs": [
				{
					"internalType": "uint256",
					"name": "tokenId",
					"type": "uint256"
				}
			],
			"name": "tokenURI",
			"outputs": [
				{
					"internalType": "string",
					"name": "",
					"type": "string"
				}
			],
			"stateMutability": "view",
			"type": "function"
		},
		{
			"inputs": [
				{
					"internalType": "address",
					"name": "from",
					"type": "address"
				},
				{
					"internalType": "address",
					"name": "to",
					"type": "address"
				},
				{
					"internalType": "uint256",
					"name": "tokenId",
					"type": "uint256"
				}
			],
			"name": "transferFrom",
			"outputs": [],
			"stateMutability": "nonpayable",
			"type": "function"
		}
	]
}